{
	"contract/fund/FundMe.sol": {
		"FunMe": {
			"abi": [
				{
					"inputs": [],
					"stateMutability": "nonpayable",
					"type": "constructor"
				},
				{
					"inputs": [],
					"name": "fund",
					"outputs": [],
					"stateMutability": "payable",
					"type": "function"
				},
				{
					"inputs": [],
					"name": "getChainlinkDataFeedLatestAnswer",
					"outputs": [
						{
							"internalType": "int256",
							"name": "",
							"type": "int256"
						}
					],
					"stateMutability": "view",
					"type": "function"
				},
				{
					"inputs": [],
					"name": "getFund",
					"outputs": [],
					"stateMutability": "nonpayable",
					"type": "function"
				},
				{
					"inputs": [
						{
							"internalType": "address",
							"name": "",
							"type": "address"
						}
					],
					"name": "investments",
					"outputs": [
						{
							"internalType": "uint256",
							"name": "",
							"type": "uint256"
						}
					],
					"stateMutability": "view",
					"type": "function"
				},
				{
					"inputs": [],
					"name": "refund",
					"outputs": [],
					"stateMutability": "nonpayable",
					"type": "function"
				},
				{
					"inputs": [
						{
							"internalType": "address",
							"name": "newOwner",
							"type": "address"
						}
					],
					"name": "transferOwnership",
					"outputs": [],
					"stateMutability": "nonpayable",
					"type": "function"
				}
			],
			"devdoc": {
				"kind": "dev",
				"methods": {},
				"version": 1
			},
			"evm": {
				"assembly": "    /* \"contract/fund/FundMe.sol\":372:3365  contract FunMe {... */\n  mstore(0x40, 0x80)\n    /* \"contract/fund/FundMe.sol\":618:775  constructor() {... */\n  callvalue\n  dup1\n  iszero\n  tag_1\n  jumpi\n  0x00\n  dup1\n  revert\ntag_1:\n  pop\n    /* \"contract/fund/FundMe.sol\":688:730  0x694AA1769357215DE4FAC081bf1f309aDC325306 */\n  0x694aa1769357215de4fac081bf1f309adc325306\n    /* \"contract/fund/FundMe.sol\":642:650  dataFeed */\n  0x01\n  0x00\n    /* \"contract/fund/FundMe.sol\":642:740  dataFeed = AggregatorV3Interface(... */\n  0x0100\n  exp\n  dup2\n  sload\n  dup2\n  0xffffffffffffffffffffffffffffffffffffffff\n  mul\n  not\n  and\n  swap1\n  dup4\n  0xffffffffffffffffffffffffffffffffffffffff\n  and\n  mul\n  or\n  swap1\n  sstore\n  pop\n    /* \"contract/fund/FundMe.sol\":758:768  msg.sender */\n  caller\n    /* \"contract/fund/FundMe.sol\":750:755  owner */\n  0x02\n  0x00\n    /* \"contract/fund/FundMe.sol\":750:768  owner = msg.sender */\n  0x0100\n  exp\n  dup2\n  sload\n  dup2\n  0xffffffffffffffffffffffffffffffffffffffff\n  mul\n  not\n  and\n  swap1\n  dup4\n  0xffffffffffffffffffffffffffffffffffffffff\n  and\n  mul\n  or\n  swap1\n  sstore\n  pop\n    /* \"contract/fund/FundMe.sol\":372:3365  contract FunMe {... */\n  dataSize(sub_0)\n  dup1\n  dataOffset(sub_0)\n  0x00\n  codecopy\n  0x00\n  return\nstop\n\nsub_0: assembly {\n        /* \"contract/fund/FundMe.sol\":372:3365  contract FunMe {... */\n      mstore(0x40, 0x80)\n      jumpi(tag_1, lt(calldatasize, 0x04))\n      shr(0xe0, calldataload(0x00))\n      dup1\n      0x590e1ae3\n      eq\n      tag_2\n      jumpi\n      dup1\n      0x8edd6eb6\n      eq\n      tag_3\n      jumpi\n      dup1\n      0x96b98862\n      eq\n      tag_4\n      jumpi\n      dup1\n      0xb60d4288\n      eq\n      tag_5\n      jumpi\n      dup1\n      0xbea4dfb5\n      eq\n      tag_6\n      jumpi\n      dup1\n      0xf2fde38b\n      eq\n      tag_7\n      jumpi\n    tag_1:\n      0x00\n      dup1\n      revert\n        /* \"contract/fund/FundMe.sol\":2960:3363  function refund() external {... */\n    tag_2:\n      callvalue\n      dup1\n      iszero\n      tag_8\n      jumpi\n      0x00\n      dup1\n      revert\n    tag_8:\n      pop\n      tag_9\n      tag_10\n      jump\t// in\n    tag_9:\n      stop\n        /* \"contract/fund/FundMe.sol\":1885:2853  function getFund () external onlyOwner {... */\n    tag_3:\n      callvalue\n      dup1\n      iszero\n      tag_11\n      jumpi\n      0x00\n      dup1\n      revert\n    tag_11:\n      pop\n      tag_12\n      tag_13\n      jump\t// in\n    tag_12:\n      stop\n        /* \"contract/fund/FundMe.sol\":393:439  mapping(address => uint256) public investments */\n    tag_4:\n      callvalue\n      dup1\n      iszero\n      tag_14\n      jumpi\n      0x00\n      dup1\n      revert\n    tag_14:\n      pop\n      tag_15\n      0x04\n      dup1\n      calldatasize\n      sub\n      dup2\n      add\n      swap1\n      tag_16\n      swap2\n      swap1\n      tag_17\n      jump\t// in\n    tag_16:\n      tag_18\n      jump\t// in\n    tag_15:\n      mload(0x40)\n      tag_19\n      swap2\n      swap1\n      tag_20\n      jump\t// in\n    tag_19:\n      mload(0x40)\n      dup1\n      swap2\n      sub\n      swap1\n      return\n        /* \"contract/fund/FundMe.sol\":922:1272  function fund() external payable {... */\n    tag_5:\n      tag_21\n      tag_22\n      jump\t// in\n    tag_21:\n      stop\n        /* \"contract/fund/FundMe.sol\":1328:1669  function getChainlinkDataFeedLatestAnswer() public view returns (int256) {... */\n    tag_6:\n      callvalue\n      dup1\n      iszero\n      tag_23\n      jumpi\n      0x00\n      dup1\n      revert\n    tag_23:\n      pop\n      tag_24\n      tag_25\n      jump\t// in\n    tag_24:\n      mload(0x40)\n      tag_26\n      swap2\n      swap1\n      tag_27\n      jump\t// in\n    tag_26:\n      mload(0x40)\n      dup1\n      swap2\n      sub\n      swap1\n      return\n        /* \"contract/fund/FundMe.sol\":2859:2954  function transferOwnership(address newOwner) public onlyOwner {... */\n    tag_7:\n      callvalue\n      dup1\n      iszero\n      tag_28\n      jumpi\n      0x00\n      dup1\n      revert\n    tag_28:\n      pop\n      tag_29\n      0x04\n      dup1\n      calldatasize\n      sub\n      dup2\n      add\n      swap1\n      tag_30\n      swap2\n      swap1\n      tag_17\n      jump\t// in\n    tag_30:\n      tag_31\n      jump\t// in\n    tag_29:\n      stop\n        /* \"contract/fund/FundMe.sol\":2960:3363  function refund() external {... */\n    tag_10:\n        /* \"contract/fund/FundMe.sol\":576:591  1000 * 10 ** 18 */\n      0x3635c9adc5dea00000\n        /* \"contract/fund/FundMe.sol\":3006:3044  convertEthToUsd(address(this).balance) */\n      tag_33\n        /* \"contract/fund/FundMe.sol\":3022:3043  address(this).balance */\n      selfbalance\n        /* \"contract/fund/FundMe.sol\":3006:3021  convertEthToUsd */\n      tag_34\n        /* \"contract/fund/FundMe.sol\":3006:3044  convertEthToUsd(address(this).balance) */\n      jump\t// in\n    tag_33:\n        /* \"contract/fund/FundMe.sol\":3006:3053  convertEthToUsd(address(this).balance) < TARGET */\n      lt\n        /* \"contract/fund/FundMe.sol\":2997:3077  require((convertEthToUsd(address(this).balance) < TARGET), \"Target is reached.\") */\n      tag_35\n      jumpi\n      mload(0x40)\n      0x08c379a000000000000000000000000000000000000000000000000000000000\n      dup2\n      mstore\n      0x04\n      add\n      tag_36\n      swap1\n      tag_37\n      jump\t// in\n    tag_36:\n      mload(0x40)\n      dup1\n      swap2\n      sub\n      swap1\n      revert\n    tag_35:\n        /* \"contract/fund/FundMe.sol\":3122:3123  0 */\n      0x00\n        /* \"contract/fund/FundMe.sol\":3095:3106  investments */\n      dup1\n        /* \"contract/fund/FundMe.sol\":3095:3118  investments[msg.sender] */\n      0x00\n        /* \"contract/fund/FundMe.sol\":3107:3117  msg.sender */\n      caller\n        /* \"contract/fund/FundMe.sol\":3095:3118  investments[msg.sender] */\n      0xffffffffffffffffffffffffffffffffffffffff\n      and\n      0xffffffffffffffffffffffffffffffffffffffff\n      and\n      dup2\n      mstore\n      0x20\n      add\n      swap1\n      dup2\n      mstore\n      0x20\n      add\n      0x00\n      keccak256\n      sload\n        /* \"contract/fund/FundMe.sol\":3095:3123  investments[msg.sender] != 0 */\n      sub\n        /* \"contract/fund/FundMe.sol\":3087:3154  require(investments[msg.sender] != 0, \"There is no funds for you.\") */\n      tag_38\n      jumpi\n      mload(0x40)\n      0x08c379a000000000000000000000000000000000000000000000000000000000\n      dup2\n      mstore\n      0x04\n      add\n      tag_39\n      swap1\n      tag_40\n      jump\t// in\n    tag_39:\n      mload(0x40)\n      dup1\n      swap2\n      sub\n      swap1\n      revert\n    tag_38:\n        /* \"contract/fund/FundMe.sol\":3165:3180  bool successful */\n      0x00\n        /* \"contract/fund/FundMe.sol\":3215:3225  msg.sender */\n      caller\n        /* \"contract/fund/FundMe.sol\":3207:3231  payable(msg.sender).call */\n      0xffffffffffffffffffffffffffffffffffffffff\n      and\n        /* \"contract/fund/FundMe.sol\":3239:3250  investments */\n      0x00\n        /* \"contract/fund/FundMe.sol\":3239:3262  investments[msg.sender] */\n      dup1\n        /* \"contract/fund/FundMe.sol\":3251:3261  msg.sender */\n      caller\n        /* \"contract/fund/FundMe.sol\":3239:3262  investments[msg.sender] */\n      0xffffffffffffffffffffffffffffffffffffffff\n      and\n      0xffffffffffffffffffffffffffffffffffffffff\n      and\n      dup2\n      mstore\n      0x20\n      add\n      swap1\n      dup2\n      mstore\n      0x20\n      add\n      0x00\n      keccak256\n      sload\n        /* \"contract/fund/FundMe.sol\":3207:3267  payable(msg.sender).call{value: investments[msg.sender]}(\"\") */\n      mload(0x40)\n      tag_41\n      swap1\n      tag_42\n      jump\t// in\n    tag_41:\n      0x00\n      mload(0x40)\n      dup1\n      dup4\n      sub\n      dup2\n      dup6\n      dup8\n      gas\n      call\n      swap3\n      pop\n      pop\n      pop\n      returndatasize\n      dup1\n      0x00\n      dup2\n      eq\n      tag_45\n      jumpi\n      mload(0x40)\n      swap2\n      pop\n      and(add(returndatasize, 0x3f), not(0x1f))\n      dup3\n      add\n      0x40\n      mstore\n      returndatasize\n      dup3\n      mstore\n      returndatasize\n      0x00\n      0x20\n      dup5\n      add\n      returndatacopy\n      jump(tag_44)\n    tag_45:\n      0x60\n      swap2\n      pop\n    tag_44:\n      pop\n        /* \"contract/fund/FundMe.sol\":3190:3267  (successful, ) = payable(msg.sender).call{value: investments[msg.sender]}(\"\") */\n      pop\n      dup1\n      swap2\n      pop\n      pop\n        /* \"contract/fund/FundMe.sol\":3285:3295  successful */\n      dup1\n        /* \"contract/fund/FundMe.sol\":3277:3319  require(successful, \"Transfer tx failed.\") */\n      tag_46\n      jumpi\n      mload(0x40)\n      0x08c379a000000000000000000000000000000000000000000000000000000000\n      dup2\n      mstore\n      0x04\n      add\n      tag_47\n      swap1\n      tag_48\n      jump\t// in\n    tag_47:\n      mload(0x40)\n      dup1\n      swap2\n      sub\n      swap1\n      revert\n    tag_46:\n        /* \"contract/fund/FundMe.sol\":3355:3356  0 */\n      0x00\n        /* \"contract/fund/FundMe.sol\":3329:3340  investments */\n      dup1\n        /* \"contract/fund/FundMe.sol\":3329:3352  investments[msg.sender] */\n      0x00\n        /* \"contract/fund/FundMe.sol\":3341:3351  msg.sender */\n      caller\n        /* \"contract/fund/FundMe.sol\":3329:3352  investments[msg.sender] */\n      0xffffffffffffffffffffffffffffffffffffffff\n      and\n      0xffffffffffffffffffffffffffffffffffffffff\n      and\n      dup2\n      mstore\n      0x20\n      add\n      swap1\n      dup2\n      mstore\n      0x20\n      add\n      0x00\n      keccak256\n        /* \"contract/fund/FundMe.sol\":3329:3356  investments[msg.sender] = 0 */\n      dup2\n      swap1\n      sstore\n      pop\n        /* \"contract/fund/FundMe.sol\":2987:3363  {... */\n      pop\n        /* \"contract/fund/FundMe.sol\":2960:3363  function refund() external {... */\n      jump\t// out\n        /* \"contract/fund/FundMe.sol\":1885:2853  function getFund () external onlyOwner {... */\n    tag_13:\n        /* \"contract/fund/FundMe.sol\":834:839  owner */\n      0x02\n      0x00\n      swap1\n      sload\n      swap1\n      0x0100\n      exp\n      swap1\n      div\n      0xffffffffffffffffffffffffffffffffffffffff\n      and\n        /* \"contract/fund/FundMe.sol\":820:839  msg.sender == owner */\n      0xffffffffffffffffffffffffffffffffffffffff\n      and\n        /* \"contract/fund/FundMe.sol\":820:830  msg.sender */\n      caller\n        /* \"contract/fund/FundMe.sol\":820:839  msg.sender == owner */\n      0xffffffffffffffffffffffffffffffffffffffff\n      and\n      eq\n        /* \"contract/fund/FundMe.sol\":812:898  require(msg.sender == owner, \"This function can only be called by the current owner.\") */\n      tag_50\n      jumpi\n      mload(0x40)\n      0x08c379a000000000000000000000000000000000000000000000000000000000\n      dup2\n      mstore\n      0x04\n      add\n      tag_51\n      swap1\n      tag_52\n      jump\t// in\n    tag_51:\n      mload(0x40)\n      dup1\n      swap2\n      sub\n      swap1\n      revert\n    tag_50:\n        /* \"contract/fund/FundMe.sol\":576:591  1000 * 10 ** 18 */\n      0x3635c9adc5dea00000\n        /* \"contract/fund/FundMe.sol\":1942:1980  convertEthToUsd(address(this).balance) */\n      tag_54\n        /* \"contract/fund/FundMe.sol\":1958:1979  address(this).balance */\n      selfbalance\n        /* \"contract/fund/FundMe.sol\":1942:1957  convertEthToUsd */\n      tag_34\n        /* \"contract/fund/FundMe.sol\":1942:1980  convertEthToUsd(address(this).balance) */\n      jump\t// in\n    tag_54:\n        /* \"contract/fund/FundMe.sol\":1942:1990  convertEthToUsd(address(this).balance) >= TARGET */\n      lt\n      iszero\n        /* \"contract/fund/FundMe.sol\":1934:2017  require(convertEthToUsd(address(this).balance) >= TARGET, \"Target is not reached.\") */\n      tag_55\n      jumpi\n      mload(0x40)\n      0x08c379a000000000000000000000000000000000000000000000000000000000\n      dup2\n      mstore\n      0x04\n      add\n      tag_56\n      swap1\n      tag_57\n      jump\t// in\n    tag_56:\n      mload(0x40)\n      dup1\n      swap2\n      sub\n      swap1\n      revert\n    tag_55:\n        /* \"contract/fund/FundMe.sol\":2694:2709  bool successful */\n      0x00\n        /* \"contract/fund/FundMe.sol\":2744:2754  msg.sender */\n      caller\n        /* \"contract/fund/FundMe.sol\":2736:2760  payable(msg.sender).call */\n      0xffffffffffffffffffffffffffffffffffffffff\n      and\n        /* \"contract/fund/FundMe.sol\":2768:2789  address(this).balance */\n      selfbalance\n        /* \"contract/fund/FundMe.sol\":2736:2794  payable(msg.sender).call{value: address(this).balance}(\"\") */\n      mload(0x40)\n      tag_58\n      swap1\n      tag_42\n      jump\t// in\n    tag_58:\n      0x00\n      mload(0x40)\n      dup1\n      dup4\n      sub\n      dup2\n      dup6\n      dup8\n      gas\n      call\n      swap3\n      pop\n      pop\n      pop\n      returndatasize\n      dup1\n      0x00\n      dup2\n      eq\n      tag_61\n      jumpi\n      mload(0x40)\n      swap2\n      pop\n      and(add(returndatasize, 0x3f), not(0x1f))\n      dup3\n      add\n      0x40\n      mstore\n      returndatasize\n      dup3\n      mstore\n      returndatasize\n      0x00\n      0x20\n      dup5\n      add\n      returndatacopy\n      jump(tag_60)\n    tag_61:\n      0x60\n      swap2\n      pop\n    tag_60:\n      pop\n        /* \"contract/fund/FundMe.sol\":2719:2794  (successful, ) = payable(msg.sender).call{value: address(this).balance}(\"\") */\n      pop\n      dup1\n      swap2\n      pop\n      pop\n        /* \"contract/fund/FundMe.sol\":2812:2822  successful */\n      dup1\n        /* \"contract/fund/FundMe.sol\":2804:2846  require(successful, \"Transfer tx failed.\") */\n      tag_62\n      jumpi\n      mload(0x40)\n      0x08c379a000000000000000000000000000000000000000000000000000000000\n      dup2\n      mstore\n      0x04\n      add\n      tag_63\n      swap1\n      tag_48\n      jump\t// in\n    tag_63:\n      mload(0x40)\n      dup1\n      swap2\n      sub\n      swap1\n      revert\n    tag_62:\n        /* \"contract/fund/FundMe.sol\":1924:2853  {... */\n      pop\n        /* \"contract/fund/FundMe.sol\":1885:2853  function getFund () external onlyOwner {... */\n      jump\t// out\n        /* \"contract/fund/FundMe.sol\":393:439  mapping(address => uint256) public investments */\n    tag_18:\n      mstore(0x20, 0x00)\n      dup1\n      0x00\n      mstore\n      keccak256(0x00, 0x40)\n      0x00\n      swap2\n      pop\n      swap1\n      pop\n      sload\n      dup2\n      jump\t// out\n        /* \"contract/fund/FundMe.sol\":922:1272  function fund() external payable {... */\n    tag_22:\n        /* \"contract/fund/FundMe.sol\":479:491  100 * 10**18 */\n      0x056bc75e2d63100000\n        /* \"contract/fund/FundMe.sol\":1052:1078  convertEthToUsd(msg.value) */\n      tag_65\n        /* \"contract/fund/FundMe.sol\":1068:1077  msg.value */\n      callvalue\n        /* \"contract/fund/FundMe.sol\":1052:1067  convertEthToUsd */\n      tag_34\n        /* \"contract/fund/FundMe.sol\":1052:1078  convertEthToUsd(msg.value) */\n      jump\t// in\n    tag_65:\n        /* \"contract/fund/FundMe.sol\":1052:1095  convertEthToUsd(msg.value) >= MINIMUM_VALUE */\n      lt\n      iszero\n        /* \"contract/fund/FundMe.sol\":1031:1138  require(... */\n      tag_66\n      jumpi\n      mload(0x40)\n      0x08c379a000000000000000000000000000000000000000000000000000000000\n      dup2\n      mstore\n      0x04\n      add\n      tag_67\n      swap1\n      tag_68\n      jump\t// in\n    tag_67:\n      mload(0x40)\n      dup1\n      swap2\n      sub\n      swap1\n      revert\n    tag_66:\n        /* \"contract/fund/FundMe.sol\":1148:1164  uint256 myAmount */\n      0x00\n        /* \"contract/fund/FundMe.sol\":1167:1178  investments */\n      dup1\n        /* \"contract/fund/FundMe.sol\":1167:1190  investments[msg.sender] */\n      0x00\n        /* \"contract/fund/FundMe.sol\":1179:1189  msg.sender */\n      caller\n        /* \"contract/fund/FundMe.sol\":1167:1190  investments[msg.sender] */\n      0xffffffffffffffffffffffffffffffffffffffff\n      and\n      0xffffffffffffffffffffffffffffffffffffffff\n      and\n      dup2\n      mstore\n      0x20\n      add\n      swap1\n      dup2\n      mstore\n      0x20\n      add\n      0x00\n      keccak256\n      sload\n        /* \"contract/fund/FundMe.sol\":1148:1190  uint256 myAmount = investments[msg.sender] */\n      swap1\n      pop\n        /* \"contract/fund/FundMe.sol\":1212:1221  msg.value */\n      callvalue\n        /* \"contract/fund/FundMe.sol\":1200:1221  myAmount += msg.value */\n      dup2\n      tag_69\n      swap2\n      swap1\n      tag_70\n      jump\t// in\n    tag_69:\n      swap1\n      pop\n        /* \"contract/fund/FundMe.sol\":1257:1265  myAmount */\n      dup1\n        /* \"contract/fund/FundMe.sol\":1231:1242  investments */\n      0x00\n        /* \"contract/fund/FundMe.sol\":1231:1254  investments[msg.sender] */\n      dup1\n        /* \"contract/fund/FundMe.sol\":1243:1253  msg.sender */\n      caller\n        /* \"contract/fund/FundMe.sol\":1231:1254  investments[msg.sender] */\n      0xffffffffffffffffffffffffffffffffffffffff\n      and\n      0xffffffffffffffffffffffffffffffffffffffff\n      and\n      dup2\n      mstore\n      0x20\n      add\n      swap1\n      dup2\n      mstore\n      0x20\n      add\n      0x00\n      keccak256\n        /* \"contract/fund/FundMe.sol\":1231:1265  investments[msg.sender] = myAmount */\n      dup2\n      swap1\n      sstore\n      pop\n        /* \"contract/fund/FundMe.sol\":955:1272  {... */\n      pop\n        /* \"contract/fund/FundMe.sol\":922:1272  function fund() external payable {... */\n      jump\t// out\n        /* \"contract/fund/FundMe.sol\":1328:1669  function getChainlinkDataFeedLatestAnswer() public view returns (int256) {... */\n    tag_25:\n        /* \"contract/fund/FundMe.sol\":1393:1399  int256 */\n      0x00\n        /* \"contract/fund/FundMe.sol\":1486:1496  int answer */\n      dup1\n        /* \"contract/fund/FundMe.sol\":1613:1621  dataFeed */\n      0x01\n      0x00\n      swap1\n      sload\n      swap1\n      0x0100\n      exp\n      swap1\n      div\n      0xffffffffffffffffffffffffffffffffffffffff\n      and\n        /* \"contract/fund/FundMe.sol\":1613:1637  dataFeed.latestRoundData */\n      0xffffffffffffffffffffffffffffffffffffffff\n      and\n      0xfeaf968c\n        /* \"contract/fund/FundMe.sol\":1613:1639  dataFeed.latestRoundData() */\n      mload(0x40)\n      dup2\n      0xffffffff\n      and\n      0xe0\n      shl\n      dup2\n      mstore\n      0x04\n      add\n      0xa0\n      mload(0x40)\n      dup1\n      dup4\n      sub\n      dup2\n      dup7\n      gas\n      staticcall\n      iszero\n      dup1\n      iszero\n      tag_73\n      jumpi\n      returndatasize\n      0x00\n      dup1\n      returndatacopy\n      revert(0x00, returndatasize)\n    tag_73:\n      pop\n      pop\n      pop\n      pop\n      mload(0x40)\n      returndatasize\n      not(0x1f)\n      0x1f\n      dup3\n      add\n      and\n      dup3\n      add\n      dup1\n      0x40\n      mstore\n      pop\n      dup2\n      add\n      swap1\n      tag_74\n      swap2\n      swap1\n      tag_75\n      jump\t// in\n    tag_74:\n        /* \"contract/fund/FundMe.sol\":1438:1639  (... */\n      pop\n      pop\n      pop\n      swap2\n      pop\n      pop\n        /* \"contract/fund/FundMe.sol\":1656:1662  answer */\n      dup1\n        /* \"contract/fund/FundMe.sol\":1649:1662  return answer */\n      swap2\n      pop\n      pop\n        /* \"contract/fund/FundMe.sol\":1328:1669  function getChainlinkDataFeedLatestAnswer() public view returns (int256) {... */\n      swap1\n      jump\t// out\n        /* \"contract/fund/FundMe.sol\":2859:2954  function transferOwnership(address newOwner) public onlyOwner {... */\n    tag_31:\n        /* \"contract/fund/FundMe.sol\":834:839  owner */\n      0x02\n      0x00\n      swap1\n      sload\n      swap1\n      0x0100\n      exp\n      swap1\n      div\n      0xffffffffffffffffffffffffffffffffffffffff\n      and\n        /* \"contract/fund/FundMe.sol\":820:839  msg.sender == owner */\n      0xffffffffffffffffffffffffffffffffffffffff\n      and\n        /* \"contract/fund/FundMe.sol\":820:830  msg.sender */\n      caller\n        /* \"contract/fund/FundMe.sol\":820:839  msg.sender == owner */\n      0xffffffffffffffffffffffffffffffffffffffff\n      and\n      eq\n        /* \"contract/fund/FundMe.sol\":812:898  require(msg.sender == owner, \"This function can only be called by the current owner.\") */\n      tag_77\n      jumpi\n      mload(0x40)\n      0x08c379a000000000000000000000000000000000000000000000000000000000\n      dup2\n      mstore\n      0x04\n      add\n      tag_78\n      swap1\n      tag_52\n      jump\t// in\n    tag_78:\n      mload(0x40)\n      dup1\n      swap2\n      sub\n      swap1\n      revert\n    tag_77:\n        /* \"contract/fund/FundMe.sol\":2939:2947  newOwner */\n      dup1\n        /* \"contract/fund/FundMe.sol\":2931:2936  owner */\n      0x02\n      0x00\n        /* \"contract/fund/FundMe.sol\":2931:2947  owner = newOwner */\n      0x0100\n      exp\n      dup2\n      sload\n      dup2\n      0xffffffffffffffffffffffffffffffffffffffff\n      mul\n      not\n      and\n      swap1\n      dup4\n      0xffffffffffffffffffffffffffffffffffffffff\n      and\n      mul\n      or\n      swap1\n      sstore\n      pop\n        /* \"contract/fund/FundMe.sol\":2859:2954  function transferOwnership(address newOwner) public onlyOwner {... */\n      pop\n      jump\t// out\n        /* \"contract/fund/FundMe.sol\":1675:1879  function convertEthToUsd(uint256 ethAmount) internal view returns (uint256) {... */\n    tag_34:\n        /* \"contract/fund/FundMe.sol\":1742:1749  uint256 */\n      0x00\n        /* \"contract/fund/FundMe.sol\":1761:1777  uint256 ethPrice */\n      dup1\n        /* \"contract/fund/FundMe.sol\":1788:1822  getChainlinkDataFeedLatestAnswer() */\n      tag_81\n        /* \"contract/fund/FundMe.sol\":1788:1820  getChainlinkDataFeedLatestAnswer */\n      tag_25\n        /* \"contract/fund/FundMe.sol\":1788:1822  getChainlinkDataFeedLatestAnswer() */\n      jump\t// in\n    tag_81:\n        /* \"contract/fund/FundMe.sol\":1761:1823  uint256 ethPrice = uint256(getChainlinkDataFeedLatestAnswer()) */\n      swap1\n      pop\n        /* \"contract/fund/FundMe.sol\":1866:1871  10**8 */\n      0x05f5e100\n        /* \"contract/fund/FundMe.sol\":1853:1861  ethPrice */\n      dup2\n        /* \"contract/fund/FundMe.sol\":1841:1850  ethAmount */\n      dup5\n        /* \"contract/fund/FundMe.sol\":1841:1861  ethAmount * ethPrice */\n      tag_82\n      swap2\n      swap1\n      tag_83\n      jump\t// in\n    tag_82:\n        /* \"contract/fund/FundMe.sol\":1840:1872  (ethAmount * ethPrice) / (10**8) */\n      tag_84\n      swap2\n      swap1\n      tag_85\n      jump\t// in\n    tag_84:\n        /* \"contract/fund/FundMe.sol\":1833:1872  return (ethAmount * ethPrice) / (10**8) */\n      swap2\n      pop\n      pop\n        /* \"contract/fund/FundMe.sol\":1675:1879  function convertEthToUsd(uint256 ethAmount) internal view returns (uint256) {... */\n      swap2\n      swap1\n      pop\n      jump\t// out\n        /* \"#utility.yul\":88:205   */\n    tag_87:\n        /* \"#utility.yul\":197:198   */\n      0x00\n        /* \"#utility.yul\":194:195   */\n      dup1\n        /* \"#utility.yul\":187:199   */\n      revert\n        /* \"#utility.yul\":334:460   */\n    tag_89:\n        /* \"#utility.yul\":371:378   */\n      0x00\n        /* \"#utility.yul\":411:453   */\n      0xffffffffffffffffffffffffffffffffffffffff\n        /* \"#utility.yul\":404:409   */\n      dup3\n        /* \"#utility.yul\":400:454   */\n      and\n        /* \"#utility.yul\":389:454   */\n      swap1\n      pop\n        /* \"#utility.yul\":334:460   */\n      swap2\n      swap1\n      pop\n      jump\t// out\n        /* \"#utility.yul\":466:562   */\n    tag_90:\n        /* \"#utility.yul\":503:510   */\n      0x00\n        /* \"#utility.yul\":532:556   */\n      tag_128\n        /* \"#utility.yul\":550:555   */\n      dup3\n        /* \"#utility.yul\":532:556   */\n      tag_89\n      jump\t// in\n    tag_128:\n        /* \"#utility.yul\":521:556   */\n      swap1\n      pop\n        /* \"#utility.yul\":466:562   */\n      swap2\n      swap1\n      pop\n      jump\t// out\n        /* \"#utility.yul\":568:690   */\n    tag_91:\n        /* \"#utility.yul\":641:665   */\n      tag_130\n        /* \"#utility.yul\":659:664   */\n      dup2\n        /* \"#utility.yul\":641:665   */\n      tag_90\n      jump\t// in\n    tag_130:\n        /* \"#utility.yul\":634:639   */\n      dup2\n        /* \"#utility.yul\":631:666   */\n      eq\n        /* \"#utility.yul\":621:684   */\n      tag_131\n      jumpi\n        /* \"#utility.yul\":680:681   */\n      0x00\n        /* \"#utility.yul\":677:678   */\n      dup1\n        /* \"#utility.yul\":670:682   */\n      revert\n        /* \"#utility.yul\":621:684   */\n    tag_131:\n        /* \"#utility.yul\":568:690   */\n      pop\n      jump\t// out\n        /* \"#utility.yul\":696:835   */\n    tag_92:\n        /* \"#utility.yul\":742:747   */\n      0x00\n        /* \"#utility.yul\":780:786   */\n      dup2\n        /* \"#utility.yul\":767:787   */\n      calldataload\n        /* \"#utility.yul\":758:787   */\n      swap1\n      pop\n        /* \"#utility.yul\":796:829   */\n      tag_133\n        /* \"#utility.yul\":823:828   */\n      dup2\n        /* \"#utility.yul\":796:829   */\n      tag_91\n      jump\t// in\n    tag_133:\n        /* \"#utility.yul\":696:835   */\n      swap3\n      swap2\n      pop\n      pop\n      jump\t// out\n        /* \"#utility.yul\":841:1170   */\n    tag_17:\n        /* \"#utility.yul\":900:906   */\n      0x00\n        /* \"#utility.yul\":949:951   */\n      0x20\n        /* \"#utility.yul\":937:946   */\n      dup3\n        /* \"#utility.yul\":928:935   */\n      dup5\n        /* \"#utility.yul\":924:947   */\n      sub\n        /* \"#utility.yul\":920:952   */\n      slt\n        /* \"#utility.yul\":917:1036   */\n      iszero\n      tag_135\n      jumpi\n        /* \"#utility.yul\":955:1034   */\n      tag_136\n      tag_87\n      jump\t// in\n    tag_136:\n        /* \"#utility.yul\":917:1036   */\n    tag_135:\n        /* \"#utility.yul\":1075:1076   */\n      0x00\n        /* \"#utility.yul\":1100:1153   */\n      tag_137\n        /* \"#utility.yul\":1145:1152   */\n      dup5\n        /* \"#utility.yul\":1136:1142   */\n      dup3\n        /* \"#utility.yul\":1125:1134   */\n      dup6\n        /* \"#utility.yul\":1121:1143   */\n      add\n        /* \"#utility.yul\":1100:1153   */\n      tag_92\n      jump\t// in\n    tag_137:\n        /* \"#utility.yul\":1090:1153   */\n      swap2\n      pop\n        /* \"#utility.yul\":1046:1163   */\n      pop\n        /* \"#utility.yul\":841:1170   */\n      swap3\n      swap2\n      pop\n      pop\n      jump\t// out\n        /* \"#utility.yul\":1176:1253   */\n    tag_93:\n        /* \"#utility.yul\":1213:1220   */\n      0x00\n        /* \"#utility.yul\":1242:1247   */\n      dup2\n        /* \"#utility.yul\":1231:1247   */\n      swap1\n      pop\n        /* \"#utility.yul\":1176:1253   */\n      swap2\n      swap1\n      pop\n      jump\t// out\n        /* \"#utility.yul\":1259:1377   */\n    tag_94:\n        /* \"#utility.yul\":1346:1370   */\n      tag_140\n        /* \"#utility.yul\":1364:1369   */\n      dup2\n        /* \"#utility.yul\":1346:1370   */\n      tag_93\n      jump\t// in\n    tag_140:\n        /* \"#utility.yul\":1341:1344   */\n      dup3\n        /* \"#utility.yul\":1334:1371   */\n      mstore\n        /* \"#utility.yul\":1259:1377   */\n      pop\n      pop\n      jump\t// out\n        /* \"#utility.yul\":1383:1605   */\n    tag_20:\n        /* \"#utility.yul\":1476:1480   */\n      0x00\n        /* \"#utility.yul\":1514:1516   */\n      0x20\n        /* \"#utility.yul\":1503:1512   */\n      dup3\n        /* \"#utility.yul\":1499:1517   */\n      add\n        /* \"#utility.yul\":1491:1517   */\n      swap1\n      pop\n        /* \"#utility.yul\":1527:1598   */\n      tag_142\n        /* \"#utility.yul\":1595:1596   */\n      0x00\n        /* \"#utility.yul\":1584:1593   */\n      dup4\n        /* \"#utility.yul\":1580:1597   */\n      add\n        /* \"#utility.yul\":1571:1577   */\n      dup5\n        /* \"#utility.yul\":1527:1598   */\n      tag_94\n      jump\t// in\n    tag_142:\n        /* \"#utility.yul\":1383:1605   */\n      swap3\n      swap2\n      pop\n      pop\n      jump\t// out\n        /* \"#utility.yul\":1611:1687   */\n    tag_95:\n        /* \"#utility.yul\":1647:1654   */\n      0x00\n        /* \"#utility.yul\":1676:1681   */\n      dup2\n        /* \"#utility.yul\":1665:1681   */\n      swap1\n      pop\n        /* \"#utility.yul\":1611:1687   */\n      swap2\n      swap1\n      pop\n      jump\t// out\n        /* \"#utility.yul\":1693:1808   */\n    tag_96:\n        /* \"#utility.yul\":1778:1801   */\n      tag_145\n        /* \"#utility.yul\":1795:1800   */\n      dup2\n        /* \"#utility.yul\":1778:1801   */\n      tag_95\n      jump\t// in\n    tag_145:\n        /* \"#utility.yul\":1773:1776   */\n      dup3\n        /* \"#utility.yul\":1766:1802   */\n      mstore\n        /* \"#utility.yul\":1693:1808   */\n      pop\n      pop\n      jump\t// out\n        /* \"#utility.yul\":1814:2032   */\n    tag_27:\n        /* \"#utility.yul\":1905:1909   */\n      0x00\n        /* \"#utility.yul\":1943:1945   */\n      0x20\n        /* \"#utility.yul\":1932:1941   */\n      dup3\n        /* \"#utility.yul\":1928:1946   */\n      add\n        /* \"#utility.yul\":1920:1946   */\n      swap1\n      pop\n        /* \"#utility.yul\":1956:2025   */\n      tag_147\n        /* \"#utility.yul\":2022:2023   */\n      0x00\n        /* \"#utility.yul\":2011:2020   */\n      dup4\n        /* \"#utility.yul\":2007:2024   */\n      add\n        /* \"#utility.yul\":1998:2004   */\n      dup5\n        /* \"#utility.yul\":1956:2025   */\n      tag_96\n      jump\t// in\n    tag_147:\n        /* \"#utility.yul\":1814:2032   */\n      swap3\n      swap2\n      pop\n      pop\n      jump\t// out\n        /* \"#utility.yul\":2038:2207   */\n    tag_97:\n        /* \"#utility.yul\":2122:2133   */\n      0x00\n        /* \"#utility.yul\":2156:2162   */\n      dup3\n        /* \"#utility.yul\":2151:2154   */\n      dup3\n        /* \"#utility.yul\":2144:2163   */\n      mstore\n        /* \"#utility.yul\":2196:2200   */\n      0x20\n        /* \"#utility.yul\":2191:2194   */\n      dup3\n        /* \"#utility.yul\":2187:2201   */\n      add\n        /* \"#utility.yul\":2172:2201   */\n      swap1\n      pop\n        /* \"#utility.yul\":2038:2207   */\n      swap3\n      swap2\n      pop\n      pop\n      jump\t// out\n        /* \"#utility.yul\":2213:2381   */\n    tag_98:\n        /* \"#utility.yul\":2353:2373   */\n      0x54617267657420697320726561636865642e0000000000000000000000000000\n        /* \"#utility.yul\":2349:2350   */\n      0x00\n        /* \"#utility.yul\":2341:2347   */\n      dup3\n        /* \"#utility.yul\":2337:2351   */\n      add\n        /* \"#utility.yul\":2330:2374   */\n      mstore\n        /* \"#utility.yul\":2213:2381   */\n      pop\n      jump\t// out\n        /* \"#utility.yul\":2387:2753   */\n    tag_99:\n        /* \"#utility.yul\":2529:2532   */\n      0x00\n        /* \"#utility.yul\":2550:2617   */\n      tag_151\n        /* \"#utility.yul\":2614:2616   */\n      0x12\n        /* \"#utility.yul\":2609:2612   */\n      dup4\n        /* \"#utility.yul\":2550:2617   */\n      tag_97\n      jump\t// in\n    tag_151:\n        /* \"#utility.yul\":2543:2617   */\n      swap2\n      pop\n        /* \"#utility.yul\":2626:2719   */\n      tag_152\n        /* \"#utility.yul\":2715:2718   */\n      dup3\n        /* \"#utility.yul\":2626:2719   */\n      tag_98\n      jump\t// in\n    tag_152:\n        /* \"#utility.yul\":2744:2746   */\n      0x20\n        /* \"#utility.yul\":2739:2742   */\n      dup3\n        /* \"#utility.yul\":2735:2747   */\n      add\n        /* \"#utility.yul\":2728:2747   */\n      swap1\n      pop\n        /* \"#utility.yul\":2387:2753   */\n      swap2\n      swap1\n      pop\n      jump\t// out\n        /* \"#utility.yul\":2759:3178   */\n    tag_37:\n        /* \"#utility.yul\":2925:2929   */\n      0x00\n        /* \"#utility.yul\":2963:2965   */\n      0x20\n        /* \"#utility.yul\":2952:2961   */\n      dup3\n        /* \"#utility.yul\":2948:2966   */\n      add\n        /* \"#utility.yul\":2940:2966   */\n      swap1\n      pop\n        /* \"#utility.yul\":3012:3021   */\n      dup2\n        /* \"#utility.yul\":3006:3010   */\n      dup2\n        /* \"#utility.yul\":3002:3022   */\n      sub\n        /* \"#utility.yul\":2998:2999   */\n      0x00\n        /* \"#utility.yul\":2987:2996   */\n      dup4\n        /* \"#utility.yul\":2983:3000   */\n      add\n        /* \"#utility.yul\":2976:3023   */\n      mstore\n        /* \"#utility.yul\":3040:3171   */\n      tag_154\n        /* \"#utility.yul\":3166:3170   */\n      dup2\n        /* \"#utility.yul\":3040:3171   */\n      tag_99\n      jump\t// in\n    tag_154:\n        /* \"#utility.yul\":3032:3171   */\n      swap1\n      pop\n        /* \"#utility.yul\":2759:3178   */\n      swap2\n      swap1\n      pop\n      jump\t// out\n        /* \"#utility.yul\":3184:3360   */\n    tag_100:\n        /* \"#utility.yul\":3324:3352   */\n      0x5468657265206973206e6f2066756e647320666f7220796f752e000000000000\n        /* \"#utility.yul\":3320:3321   */\n      0x00\n        /* \"#utility.yul\":3312:3318   */\n      dup3\n        /* \"#utility.yul\":3308:3322   */\n      add\n        /* \"#utility.yul\":3301:3353   */\n      mstore\n        /* \"#utility.yul\":3184:3360   */\n      pop\n      jump\t// out\n        /* \"#utility.yul\":3366:3732   */\n    tag_101:\n        /* \"#utility.yul\":3508:3511   */\n      0x00\n        /* \"#utility.yul\":3529:3596   */\n      tag_157\n        /* \"#utility.yul\":3593:3595   */\n      0x1a\n        /* \"#utility.yul\":3588:3591   */\n      dup4\n        /* \"#utility.yul\":3529:3596   */\n      tag_97\n      jump\t// in\n    tag_157:\n        /* \"#utility.yul\":3522:3596   */\n      swap2\n      pop\n        /* \"#utility.yul\":3605:3698   */\n      tag_158\n        /* \"#utility.yul\":3694:3697   */\n      dup3\n        /* \"#utility.yul\":3605:3698   */\n      tag_100\n      jump\t// in\n    tag_158:\n        /* \"#utility.yul\":3723:3725   */\n      0x20\n        /* \"#utility.yul\":3718:3721   */\n      dup3\n        /* \"#utility.yul\":3714:3726   */\n      add\n        /* \"#utility.yul\":3707:3726   */\n      swap1\n      pop\n        /* \"#utility.yul\":3366:3732   */\n      swap2\n      swap1\n      pop\n      jump\t// out\n        /* \"#utility.yul\":3738:4157   */\n    tag_40:\n        /* \"#utility.yul\":3904:3908   */\n      0x00\n        /* \"#utility.yul\":3942:3944   */\n      0x20\n        /* \"#utility.yul\":3931:3940   */\n      dup3\n        /* \"#utility.yul\":3927:3945   */\n      add\n        /* \"#utility.yul\":3919:3945   */\n      swap1\n      pop\n        /* \"#utility.yul\":3991:4000   */\n      dup2\n        /* \"#utility.yul\":3985:3989   */\n      dup2\n        /* \"#utility.yul\":3981:4001   */\n      sub\n        /* \"#utility.yul\":3977:3978   */\n      0x00\n        /* \"#utility.yul\":3966:3975   */\n      dup4\n        /* \"#utility.yul\":3962:3979   */\n      add\n        /* \"#utility.yul\":3955:4002   */\n      mstore\n        /* \"#utility.yul\":4019:4150   */\n      tag_160\n        /* \"#utility.yul\":4145:4149   */\n      dup2\n        /* \"#utility.yul\":4019:4150   */\n      tag_101\n      jump\t// in\n    tag_160:\n        /* \"#utility.yul\":4011:4150   */\n      swap1\n      pop\n        /* \"#utility.yul\":3738:4157   */\n      swap2\n      swap1\n      pop\n      jump\t// out\n        /* \"#utility.yul\":4163:4310   */\n    tag_102:\n        /* \"#utility.yul\":4264:4275   */\n      0x00\n        /* \"#utility.yul\":4301:4304   */\n      dup2\n        /* \"#utility.yul\":4286:4304   */\n      swap1\n      pop\n        /* \"#utility.yul\":4163:4310   */\n      swap3\n      swap2\n      pop\n      pop\n      jump\t// out\n        /* \"#utility.yul\":4316:4430   */\n    tag_103:\n      pop\n      jump\t// out\n        /* \"#utility.yul\":4436:4834   */\n    tag_104:\n        /* \"#utility.yul\":4595:4598   */\n      0x00\n        /* \"#utility.yul\":4616:4699   */\n      tag_164\n        /* \"#utility.yul\":4697:4698   */\n      0x00\n        /* \"#utility.yul\":4692:4695   */\n      dup4\n        /* \"#utility.yul\":4616:4699   */\n      tag_102\n      jump\t// in\n    tag_164:\n        /* \"#utility.yul\":4609:4699   */\n      swap2\n      pop\n        /* \"#utility.yul\":4708:4801   */\n      tag_165\n        /* \"#utility.yul\":4797:4800   */\n      dup3\n        /* \"#utility.yul\":4708:4801   */\n      tag_103\n      jump\t// in\n    tag_165:\n        /* \"#utility.yul\":4826:4827   */\n      0x00\n        /* \"#utility.yul\":4821:4824   */\n      dup3\n        /* \"#utility.yul\":4817:4828   */\n      add\n        /* \"#utility.yul\":4810:4828   */\n      swap1\n      pop\n        /* \"#utility.yul\":4436:4834   */\n      swap2\n      swap1\n      pop\n      jump\t// out\n        /* \"#utility.yul\":4840:5219   */\n    tag_42:\n        /* \"#utility.yul\":5024:5027   */\n      0x00\n        /* \"#utility.yul\":5046:5193   */\n      tag_167\n        /* \"#utility.yul\":5189:5192   */\n      dup3\n        /* \"#utility.yul\":5046:5193   */\n      tag_104\n      jump\t// in\n    tag_167:\n        /* \"#utility.yul\":5039:5193   */\n      swap2\n      pop\n        /* \"#utility.yul\":5210:5213   */\n      dup2\n        /* \"#utility.yul\":5203:5213   */\n      swap1\n      pop\n        /* \"#utility.yul\":4840:5219   */\n      swap2\n      swap1\n      pop\n      jump\t// out\n        /* \"#utility.yul\":5225:5394   */\n    tag_105:\n        /* \"#utility.yul\":5365:5386   */\n      0x5472616e73666572207478206661696c65642e00000000000000000000000000\n        /* \"#utility.yul\":5361:5362   */\n      0x00\n        /* \"#utility.yul\":5353:5359   */\n      dup3\n        /* \"#utility.yul\":5349:5363   */\n      add\n        /* \"#utility.yul\":5342:5387   */\n      mstore\n        /* \"#utility.yul\":5225:5394   */\n      pop\n      jump\t// out\n        /* \"#utility.yul\":5400:5766   */\n    tag_106:\n        /* \"#utility.yul\":5542:5545   */\n      0x00\n        /* \"#utility.yul\":5563:5630   */\n      tag_170\n        /* \"#utility.yul\":5627:5629   */\n      0x13\n        /* \"#utility.yul\":5622:5625   */\n      dup4\n        /* \"#utility.yul\":5563:5630   */\n      tag_97\n      jump\t// in\n    tag_170:\n        /* \"#utility.yul\":5556:5630   */\n      swap2\n      pop\n        /* \"#utility.yul\":5639:5732   */\n      tag_171\n        /* \"#utility.yul\":5728:5731   */\n      dup3\n        /* \"#utility.yul\":5639:5732   */\n      tag_105\n      jump\t// in\n    tag_171:\n        /* \"#utility.yul\":5757:5759   */\n      0x20\n        /* \"#utility.yul\":5752:5755   */\n      dup3\n        /* \"#utility.yul\":5748:5760   */\n      add\n        /* \"#utility.yul\":5741:5760   */\n      swap1\n      pop\n        /* \"#utility.yul\":5400:5766   */\n      swap2\n      swap1\n      pop\n      jump\t// out\n        /* \"#utility.yul\":5772:6191   */\n    tag_48:\n        /* \"#utility.yul\":5938:5942   */\n      0x00\n        /* \"#utility.yul\":5976:5978   */\n      0x20\n        /* \"#utility.yul\":5965:5974   */\n      dup3\n        /* \"#utility.yul\":5961:5979   */\n      add\n        /* \"#utility.yul\":5953:5979   */\n      swap1\n      pop\n        /* \"#utility.yul\":6025:6034   */\n      dup2\n        /* \"#utility.yul\":6019:6023   */\n      dup2\n        /* \"#utility.yul\":6015:6035   */\n      sub\n        /* \"#utility.yul\":6011:6012   */\n      0x00\n        /* \"#utility.yul\":6000:6009   */\n      dup4\n        /* \"#utility.yul\":5996:6013   */\n      add\n        /* \"#utility.yul\":5989:6036   */\n      mstore\n        /* \"#utility.yul\":6053:6184   */\n      tag_173\n        /* \"#utility.yul\":6179:6183   */\n      dup2\n        /* \"#utility.yul\":6053:6184   */\n      tag_106\n      jump\t// in\n    tag_173:\n        /* \"#utility.yul\":6045:6184   */\n      swap1\n      pop\n        /* \"#utility.yul\":5772:6191   */\n      swap2\n      swap1\n      pop\n      jump\t// out\n        /* \"#utility.yul\":6197:6438   */\n    tag_107:\n        /* \"#utility.yul\":6337:6371   */\n      0x546869732066756e6374696f6e2063616e206f6e6c792062652063616c6c6564\n        /* \"#utility.yul\":6333:6334   */\n      0x00\n        /* \"#utility.yul\":6325:6331   */\n      dup3\n        /* \"#utility.yul\":6321:6335   */\n      add\n        /* \"#utility.yul\":6314:6372   */\n      mstore\n        /* \"#utility.yul\":6406:6430   */\n      0x206279207468652063757272656e74206f776e65722e00000000000000000000\n        /* \"#utility.yul\":6401:6403   */\n      0x20\n        /* \"#utility.yul\":6393:6399   */\n      dup3\n        /* \"#utility.yul\":6389:6404   */\n      add\n        /* \"#utility.yul\":6382:6431   */\n      mstore\n        /* \"#utility.yul\":6197:6438   */\n      pop\n      jump\t// out\n        /* \"#utility.yul\":6444:6810   */\n    tag_108:\n        /* \"#utility.yul\":6586:6589   */\n      0x00\n        /* \"#utility.yul\":6607:6674   */\n      tag_176\n        /* \"#utility.yul\":6671:6673   */\n      0x36\n        /* \"#utility.yul\":6666:6669   */\n      dup4\n        /* \"#utility.yul\":6607:6674   */\n      tag_97\n      jump\t// in\n    tag_176:\n        /* \"#utility.yul\":6600:6674   */\n      swap2\n      pop\n        /* \"#utility.yul\":6683:6776   */\n      tag_177\n        /* \"#utility.yul\":6772:6775   */\n      dup3\n        /* \"#utility.yul\":6683:6776   */\n      tag_107\n      jump\t// in\n    tag_177:\n        /* \"#utility.yul\":6801:6803   */\n      0x40\n        /* \"#utility.yul\":6796:6799   */\n      dup3\n        /* \"#utility.yul\":6792:6804   */\n      add\n        /* \"#utility.yul\":6785:6804   */\n      swap1\n      pop\n        /* \"#utility.yul\":6444:6810   */\n      swap2\n      swap1\n      pop\n      jump\t// out\n        /* \"#utility.yul\":6816:7235   */\n    tag_52:\n        /* \"#utility.yul\":6982:6986   */\n      0x00\n        /* \"#utility.yul\":7020:7022   */\n      0x20\n        /* \"#utility.yul\":7009:7018   */\n      dup3\n        /* \"#utility.yul\":7005:7023   */\n      add\n        /* \"#utility.yul\":6997:7023   */\n      swap1\n      pop\n        /* \"#utility.yul\":7069:7078   */\n      dup2\n        /* \"#utility.yul\":7063:7067   */\n      dup2\n        /* \"#utility.yul\":7059:7079   */\n      sub\n        /* \"#utility.yul\":7055:7056   */\n      0x00\n        /* \"#utility.yul\":7044:7053   */\n      dup4\n        /* \"#utility.yul\":7040:7057   */\n      add\n        /* \"#utility.yul\":7033:7080   */\n      mstore\n        /* \"#utility.yul\":7097:7228   */\n      tag_179\n        /* \"#utility.yul\":7223:7227   */\n      dup2\n        /* \"#utility.yul\":7097:7228   */\n      tag_108\n      jump\t// in\n    tag_179:\n        /* \"#utility.yul\":7089:7228   */\n      swap1\n      pop\n        /* \"#utility.yul\":6816:7235   */\n      swap2\n      swap1\n      pop\n      jump\t// out\n        /* \"#utility.yul\":7241:7413   */\n    tag_109:\n        /* \"#utility.yul\":7381:7405   */\n      0x546172676574206973206e6f7420726561636865642e00000000000000000000\n        /* \"#utility.yul\":7377:7378   */\n      0x00\n        /* \"#utility.yul\":7369:7375   */\n      dup3\n        /* \"#utility.yul\":7365:7379   */\n      add\n        /* \"#utility.yul\":7358:7406   */\n      mstore\n        /* \"#utility.yul\":7241:7413   */\n      pop\n      jump\t// out\n        /* \"#utility.yul\":7419:7785   */\n    tag_110:\n        /* \"#utility.yul\":7561:7564   */\n      0x00\n        /* \"#utility.yul\":7582:7649   */\n      tag_182\n        /* \"#utility.yul\":7646:7648   */\n      0x16\n        /* \"#utility.yul\":7641:7644   */\n      dup4\n        /* \"#utility.yul\":7582:7649   */\n      tag_97\n      jump\t// in\n    tag_182:\n        /* \"#utility.yul\":7575:7649   */\n      swap2\n      pop\n        /* \"#utility.yul\":7658:7751   */\n      tag_183\n        /* \"#utility.yul\":7747:7750   */\n      dup3\n        /* \"#utility.yul\":7658:7751   */\n      tag_109\n      jump\t// in\n    tag_183:\n        /* \"#utility.yul\":7776:7778   */\n      0x20\n        /* \"#utility.yul\":7771:7774   */\n      dup3\n        /* \"#utility.yul\":7767:7779   */\n      add\n        /* \"#utility.yul\":7760:7779   */\n      swap1\n      pop\n        /* \"#utility.yul\":7419:7785   */\n      swap2\n      swap1\n      pop\n      jump\t// out\n        /* \"#utility.yul\":7791:8210   */\n    tag_57:\n        /* \"#utility.yul\":7957:7961   */\n      0x00\n        /* \"#utility.yul\":7995:7997   */\n      0x20\n        /* \"#utility.yul\":7984:7993   */\n      dup3\n        /* \"#utility.yul\":7980:7998   */\n      add\n        /* \"#utility.yul\":7972:7998   */\n      swap1\n      pop\n        /* \"#utility.yul\":8044:8053   */\n      dup2\n        /* \"#utility.yul\":8038:8042   */\n      dup2\n        /* \"#utility.yul\":8034:8054   */\n      sub\n        /* \"#utility.yul\":8030:8031   */\n      0x00\n        /* \"#utility.yul\":8019:8028   */\n      dup4\n        /* \"#utility.yul\":8015:8032   */\n      add\n        /* \"#utility.yul\":8008:8055   */\n      mstore\n        /* \"#utility.yul\":8072:8203   */\n      tag_185\n        /* \"#utility.yul\":8198:8202   */\n      dup2\n        /* \"#utility.yul\":8072:8203   */\n      tag_110\n      jump\t// in\n    tag_185:\n        /* \"#utility.yul\":8064:8203   */\n      swap1\n      pop\n        /* \"#utility.yul\":7791:8210   */\n      swap2\n      swap1\n      pop\n      jump\t// out\n        /* \"#utility.yul\":8216:8383   */\n    tag_111:\n        /* \"#utility.yul\":8356:8375   */\n      0x56616c756520697320746f6f206c6f7721000000000000000000000000000000\n        /* \"#utility.yul\":8352:8353   */\n      0x00\n        /* \"#utility.yul\":8344:8350   */\n      dup3\n        /* \"#utility.yul\":8340:8354   */\n      add\n        /* \"#utility.yul\":8333:8376   */\n      mstore\n        /* \"#utility.yul\":8216:8383   */\n      pop\n      jump\t// out\n        /* \"#utility.yul\":8389:8755   */\n    tag_112:\n        /* \"#utility.yul\":8531:8534   */\n      0x00\n        /* \"#utility.yul\":8552:8619   */\n      tag_188\n        /* \"#utility.yul\":8616:8618   */\n      0x11\n        /* \"#utility.yul\":8611:8614   */\n      dup4\n        /* \"#utility.yul\":8552:8619   */\n      tag_97\n      jump\t// in\n    tag_188:\n        /* \"#utility.yul\":8545:8619   */\n      swap2\n      pop\n        /* \"#utility.yul\":8628:8721   */\n      tag_189\n        /* \"#utility.yul\":8717:8720   */\n      dup3\n        /* \"#utility.yul\":8628:8721   */\n      tag_111\n      jump\t// in\n    tag_189:\n        /* \"#utility.yul\":8746:8748   */\n      0x20\n        /* \"#utility.yul\":8741:8744   */\n      dup3\n        /* \"#utility.yul\":8737:8749   */\n      add\n        /* \"#utility.yul\":8730:8749   */\n      swap1\n      pop\n        /* \"#utility.yul\":8389:8755   */\n      swap2\n      swap1\n      pop\n      jump\t// out\n        /* \"#utility.yul\":8761:9180   */\n    tag_68:\n        /* \"#utility.yul\":8927:8931   */\n      0x00\n        /* \"#utility.yul\":8965:8967   */\n      0x20\n        /* \"#utility.yul\":8954:8963   */\n      dup3\n        /* \"#utility.yul\":8950:8968   */\n      add\n        /* \"#utility.yul\":8942:8968   */\n      swap1\n      pop\n        /* \"#utility.yul\":9014:9023   */\n      dup2\n        /* \"#utility.yul\":9008:9012   */\n      dup2\n        /* \"#utility.yul\":9004:9024   */\n      sub\n        /* \"#utility.yul\":9000:9001   */\n      0x00\n        /* \"#utility.yul\":8989:8998   */\n      dup4\n        /* \"#utility.yul\":8985:9002   */\n      add\n        /* \"#utility.yul\":8978:9025   */\n      mstore\n        /* \"#utility.yul\":9042:9173   */\n      tag_191\n        /* \"#utility.yul\":9168:9172   */\n      dup2\n        /* \"#utility.yul\":9042:9173   */\n      tag_112\n      jump\t// in\n    tag_191:\n        /* \"#utility.yul\":9034:9173   */\n      swap1\n      pop\n        /* \"#utility.yul\":8761:9180   */\n      swap2\n      swap1\n      pop\n      jump\t// out\n        /* \"#utility.yul\":9186:9366   */\n    tag_113:\n        /* \"#utility.yul\":9234:9311   */\n      0x4e487b7100000000000000000000000000000000000000000000000000000000\n        /* \"#utility.yul\":9231:9232   */\n      0x00\n        /* \"#utility.yul\":9224:9312   */\n      mstore\n        /* \"#utility.yul\":9331:9335   */\n      0x11\n        /* \"#utility.yul\":9328:9329   */\n      0x04\n        /* \"#utility.yul\":9321:9336   */\n      mstore\n        /* \"#utility.yul\":9355:9359   */\n      0x24\n        /* \"#utility.yul\":9352:9353   */\n      0x00\n        /* \"#utility.yul\":9345:9360   */\n      revert\n        /* \"#utility.yul\":9372:9563   */\n    tag_70:\n        /* \"#utility.yul\":9412:9415   */\n      0x00\n        /* \"#utility.yul\":9431:9451   */\n      tag_194\n        /* \"#utility.yul\":9449:9450   */\n      dup3\n        /* \"#utility.yul\":9431:9451   */\n      tag_93\n      jump\t// in\n    tag_194:\n        /* \"#utility.yul\":9426:9451   */\n      swap2\n      pop\n        /* \"#utility.yul\":9465:9485   */\n      tag_195\n        /* \"#utility.yul\":9483:9484   */\n      dup4\n        /* \"#utility.yul\":9465:9485   */\n      tag_93\n      jump\t// in\n    tag_195:\n        /* \"#utility.yul\":9460:9485   */\n      swap3\n      pop\n        /* \"#utility.yul\":9508:9509   */\n      dup3\n        /* \"#utility.yul\":9505:9506   */\n      dup3\n        /* \"#utility.yul\":9501:9510   */\n      add\n        /* \"#utility.yul\":9494:9510   */\n      swap1\n      pop\n        /* \"#utility.yul\":9529:9532   */\n      dup1\n        /* \"#utility.yul\":9526:9527   */\n      dup3\n        /* \"#utility.yul\":9523:9533   */\n      gt\n        /* \"#utility.yul\":9520:9556   */\n      iszero\n      tag_196\n      jumpi\n        /* \"#utility.yul\":9536:9554   */\n      tag_197\n      tag_113\n      jump\t// in\n    tag_197:\n        /* \"#utility.yul\":9520:9556   */\n    tag_196:\n        /* \"#utility.yul\":9372:9563   */\n      swap3\n      swap2\n      pop\n      pop\n      jump\t// out\n        /* \"#utility.yul\":9569:9674   */\n    tag_114:\n        /* \"#utility.yul\":9605:9612   */\n      0x00\n        /* \"#utility.yul\":9645:9667   */\n      0xffffffffffffffffffff\n        /* \"#utility.yul\":9638:9643   */\n      dup3\n        /* \"#utility.yul\":9634:9668   */\n      and\n        /* \"#utility.yul\":9623:9668   */\n      swap1\n      pop\n        /* \"#utility.yul\":9569:9674   */\n      swap2\n      swap1\n      pop\n      jump\t// out\n        /* \"#utility.yul\":9680:9800   */\n    tag_115:\n        /* \"#utility.yul\":9752:9775   */\n      tag_200\n        /* \"#utility.yul\":9769:9774   */\n      dup2\n        /* \"#utility.yul\":9752:9775   */\n      tag_114\n      jump\t// in\n    tag_200:\n        /* \"#utility.yul\":9745:9750   */\n      dup2\n        /* \"#utility.yul\":9742:9776   */\n      eq\n        /* \"#utility.yul\":9732:9794   */\n      tag_201\n      jumpi\n        /* \"#utility.yul\":9790:9791   */\n      0x00\n        /* \"#utility.yul\":9787:9788   */\n      dup1\n        /* \"#utility.yul\":9780:9792   */\n      revert\n        /* \"#utility.yul\":9732:9794   */\n    tag_201:\n        /* \"#utility.yul\":9680:9800   */\n      pop\n      jump\t// out\n        /* \"#utility.yul\":9806:9947   */\n    tag_116:\n        /* \"#utility.yul\":9862:9867   */\n      0x00\n        /* \"#utility.yul\":9893:9899   */\n      dup2\n        /* \"#utility.yul\":9887:9900   */\n      mload\n        /* \"#utility.yul\":9878:9900   */\n      swap1\n      pop\n        /* \"#utility.yul\":9909:9941   */\n      tag_203\n        /* \"#utility.yul\":9935:9940   */\n      dup2\n        /* \"#utility.yul\":9909:9941   */\n      tag_115\n      jump\t// in\n    tag_203:\n        /* \"#utility.yul\":9806:9947   */\n      swap3\n      swap2\n      pop\n      pop\n      jump\t// out\n        /* \"#utility.yul\":9953:10073   */\n    tag_117:\n        /* \"#utility.yul\":10025:10048   */\n      tag_205\n        /* \"#utility.yul\":10042:10047   */\n      dup2\n        /* \"#utility.yul\":10025:10048   */\n      tag_95\n      jump\t// in\n    tag_205:\n        /* \"#utility.yul\":10018:10023   */\n      dup2\n        /* \"#utility.yul\":10015:10049   */\n      eq\n        /* \"#utility.yul\":10005:10067   */\n      tag_206\n      jumpi\n        /* \"#utility.yul\":10063:10064   */\n      0x00\n        /* \"#utility.yul\":10060:10061   */\n      dup1\n        /* \"#utility.yul\":10053:10065   */\n      revert\n        /* \"#utility.yul\":10005:10067   */\n    tag_206:\n        /* \"#utility.yul\":9953:10073   */\n      pop\n      jump\t// out\n        /* \"#utility.yul\":10079:10220   */\n    tag_118:\n        /* \"#utility.yul\":10135:10140   */\n      0x00\n        /* \"#utility.yul\":10166:10172   */\n      dup2\n        /* \"#utility.yul\":10160:10173   */\n      mload\n        /* \"#utility.yul\":10151:10173   */\n      swap1\n      pop\n        /* \"#utility.yul\":10182:10214   */\n      tag_208\n        /* \"#utility.yul\":10208:10213   */\n      dup2\n        /* \"#utility.yul\":10182:10214   */\n      tag_117\n      jump\t// in\n    tag_208:\n        /* \"#utility.yul\":10079:10220   */\n      swap3\n      swap2\n      pop\n      pop\n      jump\t// out\n        /* \"#utility.yul\":10226:10348   */\n    tag_119:\n        /* \"#utility.yul\":10299:10323   */\n      tag_210\n        /* \"#utility.yul\":10317:10322   */\n      dup2\n        /* \"#utility.yul\":10299:10323   */\n      tag_93\n      jump\t// in\n    tag_210:\n        /* \"#utility.yul\":10292:10297   */\n      dup2\n        /* \"#utility.yul\":10289:10324   */\n      eq\n        /* \"#utility.yul\":10279:10342   */\n      tag_211\n      jumpi\n        /* \"#utility.yul\":10338:10339   */\n      0x00\n        /* \"#utility.yul\":10335:10336   */\n      dup1\n        /* \"#utility.yul\":10328:10340   */\n      revert\n        /* \"#utility.yul\":10279:10342   */\n    tag_211:\n        /* \"#utility.yul\":10226:10348   */\n      pop\n      jump\t// out\n        /* \"#utility.yul\":10354:10497   */\n    tag_120:\n        /* \"#utility.yul\":10411:10416   */\n      0x00\n        /* \"#utility.yul\":10442:10448   */\n      dup2\n        /* \"#utility.yul\":10436:10449   */\n      mload\n        /* \"#utility.yul\":10427:10449   */\n      swap1\n      pop\n        /* \"#utility.yul\":10458:10491   */\n      tag_213\n        /* \"#utility.yul\":10485:10490   */\n      dup2\n        /* \"#utility.yul\":10458:10491   */\n      tag_119\n      jump\t// in\n    tag_213:\n        /* \"#utility.yul\":10354:10497   */\n      swap3\n      swap2\n      pop\n      pop\n      jump\t// out\n        /* \"#utility.yul\":10503:11474   */\n    tag_75:\n        /* \"#utility.yul\":10606:10612   */\n      0x00\n        /* \"#utility.yul\":10614:10620   */\n      dup1\n        /* \"#utility.yul\":10622:10628   */\n      0x00\n        /* \"#utility.yul\":10630:10636   */\n      dup1\n        /* \"#utility.yul\":10638:10644   */\n      0x00\n        /* \"#utility.yul\":10687:10690   */\n      0xa0\n        /* \"#utility.yul\":10675:10684   */\n      dup7\n        /* \"#utility.yul\":10666:10673   */\n      dup9\n        /* \"#utility.yul\":10662:10685   */\n      sub\n        /* \"#utility.yul\":10658:10691   */\n      slt\n        /* \"#utility.yul\":10655:10775   */\n      iszero\n      tag_215\n      jumpi\n        /* \"#utility.yul\":10694:10773   */\n      tag_216\n      tag_87\n      jump\t// in\n    tag_216:\n        /* \"#utility.yul\":10655:10775   */\n    tag_215:\n        /* \"#utility.yul\":10814:10815   */\n      0x00\n        /* \"#utility.yul\":10839:10902   */\n      tag_217\n        /* \"#utility.yul\":10894:10901   */\n      dup9\n        /* \"#utility.yul\":10885:10891   */\n      dup3\n        /* \"#utility.yul\":10874:10883   */\n      dup10\n        /* \"#utility.yul\":10870:10892   */\n      add\n        /* \"#utility.yul\":10839:10902   */\n      tag_116\n      jump\t// in\n    tag_217:\n        /* \"#utility.yul\":10829:10902   */\n      swap6\n      pop\n        /* \"#utility.yul\":10785:10912   */\n      pop\n        /* \"#utility.yul\":10951:10953   */\n      0x20\n        /* \"#utility.yul\":10977:11040   */\n      tag_218\n        /* \"#utility.yul\":11032:11039   */\n      dup9\n        /* \"#utility.yul\":11023:11029   */\n      dup3\n        /* \"#utility.yul\":11012:11021   */\n      dup10\n        /* \"#utility.yul\":11008:11030   */\n      add\n        /* \"#utility.yul\":10977:11040   */\n      tag_118\n      jump\t// in\n    tag_218:\n        /* \"#utility.yul\":10967:11040   */\n      swap5\n      pop\n        /* \"#utility.yul\":10922:11050   */\n      pop\n        /* \"#utility.yul\":11089:11091   */\n      0x40\n        /* \"#utility.yul\":11115:11179   */\n      tag_219\n        /* \"#utility.yul\":11171:11178   */\n      dup9\n        /* \"#utility.yul\":11162:11168   */\n      dup3\n        /* \"#utility.yul\":11151:11160   */\n      dup10\n        /* \"#utility.yul\":11147:11169   */\n      add\n        /* \"#utility.yul\":11115:11179   */\n      tag_120\n      jump\t// in\n    tag_219:\n        /* \"#utility.yul\":11105:11179   */\n      swap4\n      pop\n        /* \"#utility.yul\":11060:11189   */\n      pop\n        /* \"#utility.yul\":11228:11230   */\n      0x60\n        /* \"#utility.yul\":11254:11318   */\n      tag_220\n        /* \"#utility.yul\":11310:11317   */\n      dup9\n        /* \"#utility.yul\":11301:11307   */\n      dup3\n        /* \"#utility.yul\":11290:11299   */\n      dup10\n        /* \"#utility.yul\":11286:11308   */\n      add\n        /* \"#utility.yul\":11254:11318   */\n      tag_120\n      jump\t// in\n    tag_220:\n        /* \"#utility.yul\":11244:11318   */\n      swap3\n      pop\n        /* \"#utility.yul\":11199:11328   */\n      pop\n        /* \"#utility.yul\":11367:11370   */\n      0x80\n        /* \"#utility.yul\":11394:11457   */\n      tag_221\n        /* \"#utility.yul\":11449:11456   */\n      dup9\n        /* \"#utility.yul\":11440:11446   */\n      dup3\n        /* \"#utility.yul\":11429:11438   */\n      dup10\n        /* \"#utility.yul\":11425:11447   */\n      add\n        /* \"#utility.yul\":11394:11457   */\n      tag_116\n      jump\t// in\n    tag_221:\n        /* \"#utility.yul\":11384:11457   */\n      swap2\n      pop\n        /* \"#utility.yul\":11338:11467   */\n      pop\n        /* \"#utility.yul\":10503:11474   */\n      swap3\n      swap6\n      pop\n      swap3\n      swap6\n      swap1\n      swap4\n      pop\n      jump\t// out\n        /* \"#utility.yul\":11480:11890   */\n    tag_83:\n        /* \"#utility.yul\":11520:11527   */\n      0x00\n        /* \"#utility.yul\":11543:11563   */\n      tag_223\n        /* \"#utility.yul\":11561:11562   */\n      dup3\n        /* \"#utility.yul\":11543:11563   */\n      tag_93\n      jump\t// in\n    tag_223:\n        /* \"#utility.yul\":11538:11563   */\n      swap2\n      pop\n        /* \"#utility.yul\":11577:11597   */\n      tag_224\n        /* \"#utility.yul\":11595:11596   */\n      dup4\n        /* \"#utility.yul\":11577:11597   */\n      tag_93\n      jump\t// in\n    tag_224:\n        /* \"#utility.yul\":11572:11597   */\n      swap3\n      pop\n        /* \"#utility.yul\":11632:11633   */\n      dup3\n        /* \"#utility.yul\":11629:11630   */\n      dup3\n        /* \"#utility.yul\":11625:11634   */\n      mul\n        /* \"#utility.yul\":11654:11684   */\n      tag_225\n        /* \"#utility.yul\":11672:11683   */\n      dup2\n        /* \"#utility.yul\":11654:11684   */\n      tag_93\n      jump\t// in\n    tag_225:\n        /* \"#utility.yul\":11643:11684   */\n      swap2\n      pop\n        /* \"#utility.yul\":11833:11834   */\n      dup3\n        /* \"#utility.yul\":11824:11831   */\n      dup3\n        /* \"#utility.yul\":11820:11835   */\n      div\n        /* \"#utility.yul\":11817:11818   */\n      dup5\n        /* \"#utility.yul\":11814:11836   */\n      eq\n        /* \"#utility.yul\":11794:11795   */\n      dup4\n        /* \"#utility.yul\":11787:11796   */\n      iszero\n        /* \"#utility.yul\":11767:11850   */\n      or\n        /* \"#utility.yul\":11744:11883   */\n      tag_226\n      jumpi\n        /* \"#utility.yul\":11863:11881   */\n      tag_227\n      tag_113\n      jump\t// in\n    tag_227:\n        /* \"#utility.yul\":11744:11883   */\n    tag_226:\n        /* \"#utility.yul\":11528:11890   */\n      pop\n        /* \"#utility.yul\":11480:11890   */\n      swap3\n      swap2\n      pop\n      pop\n      jump\t// out\n        /* \"#utility.yul\":11896:12076   */\n    tag_121:\n        /* \"#utility.yul\":11944:12021   */\n      0x4e487b7100000000000000000000000000000000000000000000000000000000\n        /* \"#utility.yul\":11941:11942   */\n      0x00\n        /* \"#utility.yul\":11934:12022   */\n      mstore\n        /* \"#utility.yul\":12041:12045   */\n      0x12\n        /* \"#utility.yul\":12038:12039   */\n      0x04\n        /* \"#utility.yul\":12031:12046   */\n      mstore\n        /* \"#utility.yul\":12065:12069   */\n      0x24\n        /* \"#utility.yul\":12062:12063   */\n      0x00\n        /* \"#utility.yul\":12055:12070   */\n      revert\n        /* \"#utility.yul\":12082:12267   */\n    tag_85:\n        /* \"#utility.yul\":12122:12123   */\n      0x00\n        /* \"#utility.yul\":12139:12159   */\n      tag_230\n        /* \"#utility.yul\":12157:12158   */\n      dup3\n        /* \"#utility.yul\":12139:12159   */\n      tag_93\n      jump\t// in\n    tag_230:\n        /* \"#utility.yul\":12134:12159   */\n      swap2\n      pop\n        /* \"#utility.yul\":12173:12193   */\n      tag_231\n        /* \"#utility.yul\":12191:12192   */\n      dup4\n        /* \"#utility.yul\":12173:12193   */\n      tag_93\n      jump\t// in\n    tag_231:\n        /* \"#utility.yul\":12168:12193   */\n      swap3\n      pop\n        /* \"#utility.yul\":12212:12213   */\n      dup3\n        /* \"#utility.yul\":12202:12237   */\n      tag_232\n      jumpi\n        /* \"#utility.yul\":12217:12235   */\n      tag_233\n      tag_121\n      jump\t// in\n    tag_233:\n        /* \"#utility.yul\":12202:12237   */\n    tag_232:\n        /* \"#utility.yul\":12259:12260   */\n      dup3\n        /* \"#utility.yul\":12256:12257   */\n      dup3\n        /* \"#utility.yul\":12252:12261   */\n      div\n        /* \"#utility.yul\":12247:12261   */\n      swap1\n      pop\n        /* \"#utility.yul\":12082:12267   */\n      swap3\n      swap2\n      pop\n      pop\n      jump\t// out\n\n    auxdata: 0xa264697066735822122052346bd022b0acdf91a8c488de36aebd8264370843889d45c07b46dd53b9879664736f6c63430008180033\n}\n",
				"bytecode": {
					"linkReferences": {},
					"object": "608060405234801561000f575f80fd5b5073694aa1769357215de4fac081bf1f309adc32530660015f6101000a81548173ffffffffffffffffffffffffffffffffffffffff021916908373ffffffffffffffffffffffffffffffffffffffff1602179055503360025f6101000a81548173ffffffffffffffffffffffffffffffffffffffff021916908373ffffffffffffffffffffffffffffffffffffffff160217905550610d4f806100b15f395ff3fe608060405260043610610054575f3560e01c8063590e1ae3146100585780638edd6eb61461006e57806396b9886214610084578063b60d4288146100c0578063bea4dfb5146100ca578063f2fde38b146100f4575b5f80fd5b348015610063575f80fd5b5061006c61011c565b005b348015610079575f80fd5b50610082610317565b005b34801561008f575f80fd5b506100aa60048036038101906100a5919061079d565b6104a7565b6040516100b791906107e0565b60405180910390f35b6100c86104bb565b005b3480156100d5575f80fd5b506100de6105a1565b6040516100eb9190610811565b60405180910390f35b3480156100ff575f80fd5b5061011a6004803603810190610115919061079d565b61063e565b005b683635c9adc5dea0000061012f47610710565b1061016f576040517f08c379a000000000000000000000000000000000000000000000000000000000815260040161016690610884565b60405180910390fd5b5f805f3373ffffffffffffffffffffffffffffffffffffffff1673ffffffffffffffffffffffffffffffffffffffff1681526020019081526020015f2054036101ed576040517f08c379a00000000000000000000000000000000000000000000000000000000081526004016101e4906108ec565b60405180910390fd5b5f3373ffffffffffffffffffffffffffffffffffffffff165f803373ffffffffffffffffffffffffffffffffffffffff1673ffffffffffffffffffffffffffffffffffffffff1681526020019081526020015f205460405161024e90610937565b5f6040518083038185875af1925050503d805f8114610288576040519150601f19603f3d011682016040523d82523d5f602084013e61028d565b606091505b505080915050806102d3576040517f08c379a00000000000000000000000000000000000000000000000000000000081526004016102ca90610995565b60405180910390fd5b5f805f3373ffffffffffffffffffffffffffffffffffffffff1673ffffffffffffffffffffffffffffffffffffffff1681526020019081526020015f208190555050565b60025f9054906101000a900473ffffffffffffffffffffffffffffffffffffffff1673ffffffffffffffffffffffffffffffffffffffff163373ffffffffffffffffffffffffffffffffffffffff16146103a6576040517f08c379a000000000000000000000000000000000000000000000000000000000815260040161039d90610a23565b60405180910390fd5b683635c9adc5dea000006103b947610710565b10156103fa576040517f08c379a00000000000000000000000000000000000000000000000000000000081526004016103f190610a8b565b60405180910390fd5b5f3373ffffffffffffffffffffffffffffffffffffffff164760405161041f90610937565b5f6040518083038185875af1925050503d805f8114610459576040519150601f19603f3d011682016040523d82523d5f602084013e61045e565b606091505b505080915050806104a4576040517f08c379a000000000000000000000000000000000000000000000000000000000815260040161049b90610995565b60405180910390fd5b50565b5f602052805f5260405f205f915090505481565b68056bc75e2d631000006104ce34610710565b101561050f576040517f08c379a000000000000000000000000000000000000000000000000000000000815260040161050690610af3565b60405180910390fd5b5f805f3373ffffffffffffffffffffffffffffffffffffffff1673ffffffffffffffffffffffffffffffffffffffff1681526020019081526020015f20549050348161055b9190610b3e565b9050805f803373ffffffffffffffffffffffffffffffffffffffff1673ffffffffffffffffffffffffffffffffffffffff1681526020019081526020015f208190555050565b5f8060015f9054906101000a900473ffffffffffffffffffffffffffffffffffffffff1673ffffffffffffffffffffffffffffffffffffffff1663feaf968c6040518163ffffffff1660e01b815260040160a060405180830381865afa15801561060d573d5f803e3d5ffd5b505050506040513d601f19601f820116820180604052508101906106319190610c04565b5050509150508091505090565b60025f9054906101000a900473ffffffffffffffffffffffffffffffffffffffff1673ffffffffffffffffffffffffffffffffffffffff163373ffffffffffffffffffffffffffffffffffffffff16146106cd576040517f08c379a00000000000000000000000000000000000000000000000000000000081526004016106c490610a23565b60405180910390fd5b8060025f6101000a81548173ffffffffffffffffffffffffffffffffffffffff021916908373ffffffffffffffffffffffffffffffffffffffff16021790555050565b5f8061071a6105a1565b90506305f5e100818461072d9190610c7b565b6107379190610ce9565b915050919050565b5f80fd5b5f73ffffffffffffffffffffffffffffffffffffffff82169050919050565b5f61076c82610743565b9050919050565b61077c81610762565b8114610786575f80fd5b50565b5f8135905061079781610773565b92915050565b5f602082840312156107b2576107b161073f565b5b5f6107bf84828501610789565b91505092915050565b5f819050919050565b6107da816107c8565b82525050565b5f6020820190506107f35f8301846107d1565b92915050565b5f819050919050565b61080b816107f9565b82525050565b5f6020820190506108245f830184610802565b92915050565b5f82825260208201905092915050565b7f54617267657420697320726561636865642e00000000000000000000000000005f82015250565b5f61086e60128361082a565b91506108798261083a565b602082019050919050565b5f6020820190508181035f83015261089b81610862565b9050919050565b7f5468657265206973206e6f2066756e647320666f7220796f752e0000000000005f82015250565b5f6108d6601a8361082a565b91506108e1826108a2565b602082019050919050565b5f6020820190508181035f830152610903816108ca565b9050919050565b5f81905092915050565b50565b5f6109225f8361090a565b915061092d82610914565b5f82019050919050565b5f61094182610917565b9150819050919050565b7f5472616e73666572207478206661696c65642e000000000000000000000000005f82015250565b5f61097f60138361082a565b915061098a8261094b565b602082019050919050565b5f6020820190508181035f8301526109ac81610973565b9050919050565b7f546869732066756e6374696f6e2063616e206f6e6c792062652063616c6c65645f8201527f206279207468652063757272656e74206f776e65722e00000000000000000000602082015250565b5f610a0d60368361082a565b9150610a18826109b3565b604082019050919050565b5f6020820190508181035f830152610a3a81610a01565b9050919050565b7f546172676574206973206e6f7420726561636865642e000000000000000000005f82015250565b5f610a7560168361082a565b9150610a8082610a41565b602082019050919050565b5f6020820190508181035f830152610aa281610a69565b9050919050565b7f56616c756520697320746f6f206c6f77210000000000000000000000000000005f82015250565b5f610add60118361082a565b9150610ae882610aa9565b602082019050919050565b5f6020820190508181035f830152610b0a81610ad1565b9050919050565b7f4e487b71000000000000000000000000000000000000000000000000000000005f52601160045260245ffd5b5f610b48826107c8565b9150610b53836107c8565b9250828201905080821115610b6b57610b6a610b11565b5b92915050565b5f69ffffffffffffffffffff82169050919050565b610b8f81610b71565b8114610b99575f80fd5b50565b5f81519050610baa81610b86565b92915050565b610bb9816107f9565b8114610bc3575f80fd5b50565b5f81519050610bd481610bb0565b92915050565b610be3816107c8565b8114610bed575f80fd5b50565b5f81519050610bfe81610bda565b92915050565b5f805f805f60a08688031215610c1d57610c1c61073f565b5b5f610c2a88828901610b9c565b9550506020610c3b88828901610bc6565b9450506040610c4c88828901610bf0565b9350506060610c5d88828901610bf0565b9250506080610c6e88828901610b9c565b9150509295509295909350565b5f610c85826107c8565b9150610c90836107c8565b9250828202610c9e816107c8565b91508282048414831517610cb557610cb4610b11565b5b5092915050565b7f4e487b71000000000000000000000000000000000000000000000000000000005f52601260045260245ffd5b5f610cf3826107c8565b9150610cfe836107c8565b925082610d0e57610d0d610cbc565b5b82820490509291505056fea264697066735822122052346bd022b0acdf91a8c488de36aebd8264370843889d45c07b46dd53b9879664736f6c63430008180033",
					"opcodes": "PUSH1 0x80 PUSH1 0x40 MSTORE CALLVALUE DUP1 ISZERO PUSH2 0xF JUMPI PUSH0 DUP1 REVERT JUMPDEST POP PUSH20 0x694AA1769357215DE4FAC081BF1F309ADC325306 PUSH1 0x1 PUSH0 PUSH2 0x100 EXP DUP2 SLOAD DUP2 PUSH20 0xFFFFFFFFFFFFFFFFFFFFFFFFFFFFFFFFFFFFFFFF MUL NOT AND SWAP1 DUP4 PUSH20 0xFFFFFFFFFFFFFFFFFFFFFFFFFFFFFFFFFFFFFFFF AND MUL OR SWAP1 SSTORE POP CALLER PUSH1 0x2 PUSH0 PUSH2 0x100 EXP DUP2 SLOAD DUP2 PUSH20 0xFFFFFFFFFFFFFFFFFFFFFFFFFFFFFFFFFFFFFFFF MUL NOT AND SWAP1 DUP4 PUSH20 0xFFFFFFFFFFFFFFFFFFFFFFFFFFFFFFFFFFFFFFFF AND MUL OR SWAP1 SSTORE POP PUSH2 0xD4F DUP1 PUSH2 0xB1 PUSH0 CODECOPY PUSH0 RETURN INVALID PUSH1 0x80 PUSH1 0x40 MSTORE PUSH1 0x4 CALLDATASIZE LT PUSH2 0x54 JUMPI PUSH0 CALLDATALOAD PUSH1 0xE0 SHR DUP1 PUSH4 0x590E1AE3 EQ PUSH2 0x58 JUMPI DUP1 PUSH4 0x8EDD6EB6 EQ PUSH2 0x6E JUMPI DUP1 PUSH4 0x96B98862 EQ PUSH2 0x84 JUMPI DUP1 PUSH4 0xB60D4288 EQ PUSH2 0xC0 JUMPI DUP1 PUSH4 0xBEA4DFB5 EQ PUSH2 0xCA JUMPI DUP1 PUSH4 0xF2FDE38B EQ PUSH2 0xF4 JUMPI JUMPDEST PUSH0 DUP1 REVERT JUMPDEST CALLVALUE DUP1 ISZERO PUSH2 0x63 JUMPI PUSH0 DUP1 REVERT JUMPDEST POP PUSH2 0x6C PUSH2 0x11C JUMP JUMPDEST STOP JUMPDEST CALLVALUE DUP1 ISZERO PUSH2 0x79 JUMPI PUSH0 DUP1 REVERT JUMPDEST POP PUSH2 0x82 PUSH2 0x317 JUMP JUMPDEST STOP JUMPDEST CALLVALUE DUP1 ISZERO PUSH2 0x8F JUMPI PUSH0 DUP1 REVERT JUMPDEST POP PUSH2 0xAA PUSH1 0x4 DUP1 CALLDATASIZE SUB DUP2 ADD SWAP1 PUSH2 0xA5 SWAP2 SWAP1 PUSH2 0x79D JUMP JUMPDEST PUSH2 0x4A7 JUMP JUMPDEST PUSH1 0x40 MLOAD PUSH2 0xB7 SWAP2 SWAP1 PUSH2 0x7E0 JUMP JUMPDEST PUSH1 0x40 MLOAD DUP1 SWAP2 SUB SWAP1 RETURN JUMPDEST PUSH2 0xC8 PUSH2 0x4BB JUMP JUMPDEST STOP JUMPDEST CALLVALUE DUP1 ISZERO PUSH2 0xD5 JUMPI PUSH0 DUP1 REVERT JUMPDEST POP PUSH2 0xDE PUSH2 0x5A1 JUMP JUMPDEST PUSH1 0x40 MLOAD PUSH2 0xEB SWAP2 SWAP1 PUSH2 0x811 JUMP JUMPDEST PUSH1 0x40 MLOAD DUP1 SWAP2 SUB SWAP1 RETURN JUMPDEST CALLVALUE DUP1 ISZERO PUSH2 0xFF JUMPI PUSH0 DUP1 REVERT JUMPDEST POP PUSH2 0x11A PUSH1 0x4 DUP1 CALLDATASIZE SUB DUP2 ADD SWAP1 PUSH2 0x115 SWAP2 SWAP1 PUSH2 0x79D JUMP JUMPDEST PUSH2 0x63E JUMP JUMPDEST STOP JUMPDEST PUSH9 0x3635C9ADC5DEA00000 PUSH2 0x12F SELFBALANCE PUSH2 0x710 JUMP JUMPDEST LT PUSH2 0x16F JUMPI PUSH1 0x40 MLOAD PUSH32 0x8C379A000000000000000000000000000000000000000000000000000000000 DUP2 MSTORE PUSH1 0x4 ADD PUSH2 0x166 SWAP1 PUSH2 0x884 JUMP JUMPDEST PUSH1 0x40 MLOAD DUP1 SWAP2 SUB SWAP1 REVERT JUMPDEST PUSH0 DUP1 PUSH0 CALLER PUSH20 0xFFFFFFFFFFFFFFFFFFFFFFFFFFFFFFFFFFFFFFFF AND PUSH20 0xFFFFFFFFFFFFFFFFFFFFFFFFFFFFFFFFFFFFFFFF AND DUP2 MSTORE PUSH1 0x20 ADD SWAP1 DUP2 MSTORE PUSH1 0x20 ADD PUSH0 KECCAK256 SLOAD SUB PUSH2 0x1ED JUMPI PUSH1 0x40 MLOAD PUSH32 0x8C379A000000000000000000000000000000000000000000000000000000000 DUP2 MSTORE PUSH1 0x4 ADD PUSH2 0x1E4 SWAP1 PUSH2 0x8EC JUMP JUMPDEST PUSH1 0x40 MLOAD DUP1 SWAP2 SUB SWAP1 REVERT JUMPDEST PUSH0 CALLER PUSH20 0xFFFFFFFFFFFFFFFFFFFFFFFFFFFFFFFFFFFFFFFF AND PUSH0 DUP1 CALLER PUSH20 0xFFFFFFFFFFFFFFFFFFFFFFFFFFFFFFFFFFFFFFFF AND PUSH20 0xFFFFFFFFFFFFFFFFFFFFFFFFFFFFFFFFFFFFFFFF AND DUP2 MSTORE PUSH1 0x20 ADD SWAP1 DUP2 MSTORE PUSH1 0x20 ADD PUSH0 KECCAK256 SLOAD PUSH1 0x40 MLOAD PUSH2 0x24E SWAP1 PUSH2 0x937 JUMP JUMPDEST PUSH0 PUSH1 0x40 MLOAD DUP1 DUP4 SUB DUP2 DUP6 DUP8 GAS CALL SWAP3 POP POP POP RETURNDATASIZE DUP1 PUSH0 DUP2 EQ PUSH2 0x288 JUMPI PUSH1 0x40 MLOAD SWAP2 POP PUSH1 0x1F NOT PUSH1 0x3F RETURNDATASIZE ADD AND DUP3 ADD PUSH1 0x40 MSTORE RETURNDATASIZE DUP3 MSTORE RETURNDATASIZE PUSH0 PUSH1 0x20 DUP5 ADD RETURNDATACOPY PUSH2 0x28D JUMP JUMPDEST PUSH1 0x60 SWAP2 POP JUMPDEST POP POP DUP1 SWAP2 POP POP DUP1 PUSH2 0x2D3 JUMPI PUSH1 0x40 MLOAD PUSH32 0x8C379A000000000000000000000000000000000000000000000000000000000 DUP2 MSTORE PUSH1 0x4 ADD PUSH2 0x2CA SWAP1 PUSH2 0x995 JUMP JUMPDEST PUSH1 0x40 MLOAD DUP1 SWAP2 SUB SWAP1 REVERT JUMPDEST PUSH0 DUP1 PUSH0 CALLER PUSH20 0xFFFFFFFFFFFFFFFFFFFFFFFFFFFFFFFFFFFFFFFF AND PUSH20 0xFFFFFFFFFFFFFFFFFFFFFFFFFFFFFFFFFFFFFFFF AND DUP2 MSTORE PUSH1 0x20 ADD SWAP1 DUP2 MSTORE PUSH1 0x20 ADD PUSH0 KECCAK256 DUP2 SWAP1 SSTORE POP POP JUMP JUMPDEST PUSH1 0x2 PUSH0 SWAP1 SLOAD SWAP1 PUSH2 0x100 EXP SWAP1 DIV PUSH20 0xFFFFFFFFFFFFFFFFFFFFFFFFFFFFFFFFFFFFFFFF AND PUSH20 0xFFFFFFFFFFFFFFFFFFFFFFFFFFFFFFFFFFFFFFFF AND CALLER PUSH20 0xFFFFFFFFFFFFFFFFFFFFFFFFFFFFFFFFFFFFFFFF AND EQ PUSH2 0x3A6 JUMPI PUSH1 0x40 MLOAD PUSH32 0x8C379A000000000000000000000000000000000000000000000000000000000 DUP2 MSTORE PUSH1 0x4 ADD PUSH2 0x39D SWAP1 PUSH2 0xA23 JUMP JUMPDEST PUSH1 0x40 MLOAD DUP1 SWAP2 SUB SWAP1 REVERT JUMPDEST PUSH9 0x3635C9ADC5DEA00000 PUSH2 0x3B9 SELFBALANCE PUSH2 0x710 JUMP JUMPDEST LT ISZERO PUSH2 0x3FA JUMPI PUSH1 0x40 MLOAD PUSH32 0x8C379A000000000000000000000000000000000000000000000000000000000 DUP2 MSTORE PUSH1 0x4 ADD PUSH2 0x3F1 SWAP1 PUSH2 0xA8B JUMP JUMPDEST PUSH1 0x40 MLOAD DUP1 SWAP2 SUB SWAP1 REVERT JUMPDEST PUSH0 CALLER PUSH20 0xFFFFFFFFFFFFFFFFFFFFFFFFFFFFFFFFFFFFFFFF AND SELFBALANCE PUSH1 0x40 MLOAD PUSH2 0x41F SWAP1 PUSH2 0x937 JUMP JUMPDEST PUSH0 PUSH1 0x40 MLOAD DUP1 DUP4 SUB DUP2 DUP6 DUP8 GAS CALL SWAP3 POP POP POP RETURNDATASIZE DUP1 PUSH0 DUP2 EQ PUSH2 0x459 JUMPI PUSH1 0x40 MLOAD SWAP2 POP PUSH1 0x1F NOT PUSH1 0x3F RETURNDATASIZE ADD AND DUP3 ADD PUSH1 0x40 MSTORE RETURNDATASIZE DUP3 MSTORE RETURNDATASIZE PUSH0 PUSH1 0x20 DUP5 ADD RETURNDATACOPY PUSH2 0x45E JUMP JUMPDEST PUSH1 0x60 SWAP2 POP JUMPDEST POP POP DUP1 SWAP2 POP POP DUP1 PUSH2 0x4A4 JUMPI PUSH1 0x40 MLOAD PUSH32 0x8C379A000000000000000000000000000000000000000000000000000000000 DUP2 MSTORE PUSH1 0x4 ADD PUSH2 0x49B SWAP1 PUSH2 0x995 JUMP JUMPDEST PUSH1 0x40 MLOAD DUP1 SWAP2 SUB SWAP1 REVERT JUMPDEST POP JUMP JUMPDEST PUSH0 PUSH1 0x20 MSTORE DUP1 PUSH0 MSTORE PUSH1 0x40 PUSH0 KECCAK256 PUSH0 SWAP2 POP SWAP1 POP SLOAD DUP2 JUMP JUMPDEST PUSH9 0x56BC75E2D63100000 PUSH2 0x4CE CALLVALUE PUSH2 0x710 JUMP JUMPDEST LT ISZERO PUSH2 0x50F JUMPI PUSH1 0x40 MLOAD PUSH32 0x8C379A000000000000000000000000000000000000000000000000000000000 DUP2 MSTORE PUSH1 0x4 ADD PUSH2 0x506 SWAP1 PUSH2 0xAF3 JUMP JUMPDEST PUSH1 0x40 MLOAD DUP1 SWAP2 SUB SWAP1 REVERT JUMPDEST PUSH0 DUP1 PUSH0 CALLER PUSH20 0xFFFFFFFFFFFFFFFFFFFFFFFFFFFFFFFFFFFFFFFF AND PUSH20 0xFFFFFFFFFFFFFFFFFFFFFFFFFFFFFFFFFFFFFFFF AND DUP2 MSTORE PUSH1 0x20 ADD SWAP1 DUP2 MSTORE PUSH1 0x20 ADD PUSH0 KECCAK256 SLOAD SWAP1 POP CALLVALUE DUP2 PUSH2 0x55B SWAP2 SWAP1 PUSH2 0xB3E JUMP JUMPDEST SWAP1 POP DUP1 PUSH0 DUP1 CALLER PUSH20 0xFFFFFFFFFFFFFFFFFFFFFFFFFFFFFFFFFFFFFFFF AND PUSH20 0xFFFFFFFFFFFFFFFFFFFFFFFFFFFFFFFFFFFFFFFF AND DUP2 MSTORE PUSH1 0x20 ADD SWAP1 DUP2 MSTORE PUSH1 0x20 ADD PUSH0 KECCAK256 DUP2 SWAP1 SSTORE POP POP JUMP JUMPDEST PUSH0 DUP1 PUSH1 0x1 PUSH0 SWAP1 SLOAD SWAP1 PUSH2 0x100 EXP SWAP1 DIV PUSH20 0xFFFFFFFFFFFFFFFFFFFFFFFFFFFFFFFFFFFFFFFF AND PUSH20 0xFFFFFFFFFFFFFFFFFFFFFFFFFFFFFFFFFFFFFFFF AND PUSH4 0xFEAF968C PUSH1 0x40 MLOAD DUP2 PUSH4 0xFFFFFFFF AND PUSH1 0xE0 SHL DUP2 MSTORE PUSH1 0x4 ADD PUSH1 0xA0 PUSH1 0x40 MLOAD DUP1 DUP4 SUB DUP2 DUP7 GAS STATICCALL ISZERO DUP1 ISZERO PUSH2 0x60D JUMPI RETURNDATASIZE PUSH0 DUP1 RETURNDATACOPY RETURNDATASIZE PUSH0 REVERT JUMPDEST POP POP POP POP PUSH1 0x40 MLOAD RETURNDATASIZE PUSH1 0x1F NOT PUSH1 0x1F DUP3 ADD AND DUP3 ADD DUP1 PUSH1 0x40 MSTORE POP DUP2 ADD SWAP1 PUSH2 0x631 SWAP2 SWAP1 PUSH2 0xC04 JUMP JUMPDEST POP POP POP SWAP2 POP POP DUP1 SWAP2 POP POP SWAP1 JUMP JUMPDEST PUSH1 0x2 PUSH0 SWAP1 SLOAD SWAP1 PUSH2 0x100 EXP SWAP1 DIV PUSH20 0xFFFFFFFFFFFFFFFFFFFFFFFFFFFFFFFFFFFFFFFF AND PUSH20 0xFFFFFFFFFFFFFFFFFFFFFFFFFFFFFFFFFFFFFFFF AND CALLER PUSH20 0xFFFFFFFFFFFFFFFFFFFFFFFFFFFFFFFFFFFFFFFF AND EQ PUSH2 0x6CD JUMPI PUSH1 0x40 MLOAD PUSH32 0x8C379A000000000000000000000000000000000000000000000000000000000 DUP2 MSTORE PUSH1 0x4 ADD PUSH2 0x6C4 SWAP1 PUSH2 0xA23 JUMP JUMPDEST PUSH1 0x40 MLOAD DUP1 SWAP2 SUB SWAP1 REVERT JUMPDEST DUP1 PUSH1 0x2 PUSH0 PUSH2 0x100 EXP DUP2 SLOAD DUP2 PUSH20 0xFFFFFFFFFFFFFFFFFFFFFFFFFFFFFFFFFFFFFFFF MUL NOT AND SWAP1 DUP4 PUSH20 0xFFFFFFFFFFFFFFFFFFFFFFFFFFFFFFFFFFFFFFFF AND MUL OR SWAP1 SSTORE POP POP JUMP JUMPDEST PUSH0 DUP1 PUSH2 0x71A PUSH2 0x5A1 JUMP JUMPDEST SWAP1 POP PUSH4 0x5F5E100 DUP2 DUP5 PUSH2 0x72D SWAP2 SWAP1 PUSH2 0xC7B JUMP JUMPDEST PUSH2 0x737 SWAP2 SWAP1 PUSH2 0xCE9 JUMP JUMPDEST SWAP2 POP POP SWAP2 SWAP1 POP JUMP JUMPDEST PUSH0 DUP1 REVERT JUMPDEST PUSH0 PUSH20 0xFFFFFFFFFFFFFFFFFFFFFFFFFFFFFFFFFFFFFFFF DUP3 AND SWAP1 POP SWAP2 SWAP1 POP JUMP JUMPDEST PUSH0 PUSH2 0x76C DUP3 PUSH2 0x743 JUMP JUMPDEST SWAP1 POP SWAP2 SWAP1 POP JUMP JUMPDEST PUSH2 0x77C DUP2 PUSH2 0x762 JUMP JUMPDEST DUP2 EQ PUSH2 0x786 JUMPI PUSH0 DUP1 REVERT JUMPDEST POP JUMP JUMPDEST PUSH0 DUP2 CALLDATALOAD SWAP1 POP PUSH2 0x797 DUP2 PUSH2 0x773 JUMP JUMPDEST SWAP3 SWAP2 POP POP JUMP JUMPDEST PUSH0 PUSH1 0x20 DUP3 DUP5 SUB SLT ISZERO PUSH2 0x7B2 JUMPI PUSH2 0x7B1 PUSH2 0x73F JUMP JUMPDEST JUMPDEST PUSH0 PUSH2 0x7BF DUP5 DUP3 DUP6 ADD PUSH2 0x789 JUMP JUMPDEST SWAP2 POP POP SWAP3 SWAP2 POP POP JUMP JUMPDEST PUSH0 DUP2 SWAP1 POP SWAP2 SWAP1 POP JUMP JUMPDEST PUSH2 0x7DA DUP2 PUSH2 0x7C8 JUMP JUMPDEST DUP3 MSTORE POP POP JUMP JUMPDEST PUSH0 PUSH1 0x20 DUP3 ADD SWAP1 POP PUSH2 0x7F3 PUSH0 DUP4 ADD DUP5 PUSH2 0x7D1 JUMP JUMPDEST SWAP3 SWAP2 POP POP JUMP JUMPDEST PUSH0 DUP2 SWAP1 POP SWAP2 SWAP1 POP JUMP JUMPDEST PUSH2 0x80B DUP2 PUSH2 0x7F9 JUMP JUMPDEST DUP3 MSTORE POP POP JUMP JUMPDEST PUSH0 PUSH1 0x20 DUP3 ADD SWAP1 POP PUSH2 0x824 PUSH0 DUP4 ADD DUP5 PUSH2 0x802 JUMP JUMPDEST SWAP3 SWAP2 POP POP JUMP JUMPDEST PUSH0 DUP3 DUP3 MSTORE PUSH1 0x20 DUP3 ADD SWAP1 POP SWAP3 SWAP2 POP POP JUMP JUMPDEST PUSH32 0x54617267657420697320726561636865642E0000000000000000000000000000 PUSH0 DUP3 ADD MSTORE POP JUMP JUMPDEST PUSH0 PUSH2 0x86E PUSH1 0x12 DUP4 PUSH2 0x82A JUMP JUMPDEST SWAP2 POP PUSH2 0x879 DUP3 PUSH2 0x83A JUMP JUMPDEST PUSH1 0x20 DUP3 ADD SWAP1 POP SWAP2 SWAP1 POP JUMP JUMPDEST PUSH0 PUSH1 0x20 DUP3 ADD SWAP1 POP DUP2 DUP2 SUB PUSH0 DUP4 ADD MSTORE PUSH2 0x89B DUP2 PUSH2 0x862 JUMP JUMPDEST SWAP1 POP SWAP2 SWAP1 POP JUMP JUMPDEST PUSH32 0x5468657265206973206E6F2066756E647320666F7220796F752E000000000000 PUSH0 DUP3 ADD MSTORE POP JUMP JUMPDEST PUSH0 PUSH2 0x8D6 PUSH1 0x1A DUP4 PUSH2 0x82A JUMP JUMPDEST SWAP2 POP PUSH2 0x8E1 DUP3 PUSH2 0x8A2 JUMP JUMPDEST PUSH1 0x20 DUP3 ADD SWAP1 POP SWAP2 SWAP1 POP JUMP JUMPDEST PUSH0 PUSH1 0x20 DUP3 ADD SWAP1 POP DUP2 DUP2 SUB PUSH0 DUP4 ADD MSTORE PUSH2 0x903 DUP2 PUSH2 0x8CA JUMP JUMPDEST SWAP1 POP SWAP2 SWAP1 POP JUMP JUMPDEST PUSH0 DUP2 SWAP1 POP SWAP3 SWAP2 POP POP JUMP JUMPDEST POP JUMP JUMPDEST PUSH0 PUSH2 0x922 PUSH0 DUP4 PUSH2 0x90A JUMP JUMPDEST SWAP2 POP PUSH2 0x92D DUP3 PUSH2 0x914 JUMP JUMPDEST PUSH0 DUP3 ADD SWAP1 POP SWAP2 SWAP1 POP JUMP JUMPDEST PUSH0 PUSH2 0x941 DUP3 PUSH2 0x917 JUMP JUMPDEST SWAP2 POP DUP2 SWAP1 POP SWAP2 SWAP1 POP JUMP JUMPDEST PUSH32 0x5472616E73666572207478206661696C65642E00000000000000000000000000 PUSH0 DUP3 ADD MSTORE POP JUMP JUMPDEST PUSH0 PUSH2 0x97F PUSH1 0x13 DUP4 PUSH2 0x82A JUMP JUMPDEST SWAP2 POP PUSH2 0x98A DUP3 PUSH2 0x94B JUMP JUMPDEST PUSH1 0x20 DUP3 ADD SWAP1 POP SWAP2 SWAP1 POP JUMP JUMPDEST PUSH0 PUSH1 0x20 DUP3 ADD SWAP1 POP DUP2 DUP2 SUB PUSH0 DUP4 ADD MSTORE PUSH2 0x9AC DUP2 PUSH2 0x973 JUMP JUMPDEST SWAP1 POP SWAP2 SWAP1 POP JUMP JUMPDEST PUSH32 0x546869732066756E6374696F6E2063616E206F6E6C792062652063616C6C6564 PUSH0 DUP3 ADD MSTORE PUSH32 0x206279207468652063757272656E74206F776E65722E00000000000000000000 PUSH1 0x20 DUP3 ADD MSTORE POP JUMP JUMPDEST PUSH0 PUSH2 0xA0D PUSH1 0x36 DUP4 PUSH2 0x82A JUMP JUMPDEST SWAP2 POP PUSH2 0xA18 DUP3 PUSH2 0x9B3 JUMP JUMPDEST PUSH1 0x40 DUP3 ADD SWAP1 POP SWAP2 SWAP1 POP JUMP JUMPDEST PUSH0 PUSH1 0x20 DUP3 ADD SWAP1 POP DUP2 DUP2 SUB PUSH0 DUP4 ADD MSTORE PUSH2 0xA3A DUP2 PUSH2 0xA01 JUMP JUMPDEST SWAP1 POP SWAP2 SWAP1 POP JUMP JUMPDEST PUSH32 0x546172676574206973206E6F7420726561636865642E00000000000000000000 PUSH0 DUP3 ADD MSTORE POP JUMP JUMPDEST PUSH0 PUSH2 0xA75 PUSH1 0x16 DUP4 PUSH2 0x82A JUMP JUMPDEST SWAP2 POP PUSH2 0xA80 DUP3 PUSH2 0xA41 JUMP JUMPDEST PUSH1 0x20 DUP3 ADD SWAP1 POP SWAP2 SWAP1 POP JUMP JUMPDEST PUSH0 PUSH1 0x20 DUP3 ADD SWAP1 POP DUP2 DUP2 SUB PUSH0 DUP4 ADD MSTORE PUSH2 0xAA2 DUP2 PUSH2 0xA69 JUMP JUMPDEST SWAP1 POP SWAP2 SWAP1 POP JUMP JUMPDEST PUSH32 0x56616C756520697320746F6F206C6F7721000000000000000000000000000000 PUSH0 DUP3 ADD MSTORE POP JUMP JUMPDEST PUSH0 PUSH2 0xADD PUSH1 0x11 DUP4 PUSH2 0x82A JUMP JUMPDEST SWAP2 POP PUSH2 0xAE8 DUP3 PUSH2 0xAA9 JUMP JUMPDEST PUSH1 0x20 DUP3 ADD SWAP1 POP SWAP2 SWAP1 POP JUMP JUMPDEST PUSH0 PUSH1 0x20 DUP3 ADD SWAP1 POP DUP2 DUP2 SUB PUSH0 DUP4 ADD MSTORE PUSH2 0xB0A DUP2 PUSH2 0xAD1 JUMP JUMPDEST SWAP1 POP SWAP2 SWAP1 POP JUMP JUMPDEST PUSH32 0x4E487B7100000000000000000000000000000000000000000000000000000000 PUSH0 MSTORE PUSH1 0x11 PUSH1 0x4 MSTORE PUSH1 0x24 PUSH0 REVERT JUMPDEST PUSH0 PUSH2 0xB48 DUP3 PUSH2 0x7C8 JUMP JUMPDEST SWAP2 POP PUSH2 0xB53 DUP4 PUSH2 0x7C8 JUMP JUMPDEST SWAP3 POP DUP3 DUP3 ADD SWAP1 POP DUP1 DUP3 GT ISZERO PUSH2 0xB6B JUMPI PUSH2 0xB6A PUSH2 0xB11 JUMP JUMPDEST JUMPDEST SWAP3 SWAP2 POP POP JUMP JUMPDEST PUSH0 PUSH10 0xFFFFFFFFFFFFFFFFFFFF DUP3 AND SWAP1 POP SWAP2 SWAP1 POP JUMP JUMPDEST PUSH2 0xB8F DUP2 PUSH2 0xB71 JUMP JUMPDEST DUP2 EQ PUSH2 0xB99 JUMPI PUSH0 DUP1 REVERT JUMPDEST POP JUMP JUMPDEST PUSH0 DUP2 MLOAD SWAP1 POP PUSH2 0xBAA DUP2 PUSH2 0xB86 JUMP JUMPDEST SWAP3 SWAP2 POP POP JUMP JUMPDEST PUSH2 0xBB9 DUP2 PUSH2 0x7F9 JUMP JUMPDEST DUP2 EQ PUSH2 0xBC3 JUMPI PUSH0 DUP1 REVERT JUMPDEST POP JUMP JUMPDEST PUSH0 DUP2 MLOAD SWAP1 POP PUSH2 0xBD4 DUP2 PUSH2 0xBB0 JUMP JUMPDEST SWAP3 SWAP2 POP POP JUMP JUMPDEST PUSH2 0xBE3 DUP2 PUSH2 0x7C8 JUMP JUMPDEST DUP2 EQ PUSH2 0xBED JUMPI PUSH0 DUP1 REVERT JUMPDEST POP JUMP JUMPDEST PUSH0 DUP2 MLOAD SWAP1 POP PUSH2 0xBFE DUP2 PUSH2 0xBDA JUMP JUMPDEST SWAP3 SWAP2 POP POP JUMP JUMPDEST PUSH0 DUP1 PUSH0 DUP1 PUSH0 PUSH1 0xA0 DUP7 DUP9 SUB SLT ISZERO PUSH2 0xC1D JUMPI PUSH2 0xC1C PUSH2 0x73F JUMP JUMPDEST JUMPDEST PUSH0 PUSH2 0xC2A DUP9 DUP3 DUP10 ADD PUSH2 0xB9C JUMP JUMPDEST SWAP6 POP POP PUSH1 0x20 PUSH2 0xC3B DUP9 DUP3 DUP10 ADD PUSH2 0xBC6 JUMP JUMPDEST SWAP5 POP POP PUSH1 0x40 PUSH2 0xC4C DUP9 DUP3 DUP10 ADD PUSH2 0xBF0 JUMP JUMPDEST SWAP4 POP POP PUSH1 0x60 PUSH2 0xC5D DUP9 DUP3 DUP10 ADD PUSH2 0xBF0 JUMP JUMPDEST SWAP3 POP POP PUSH1 0x80 PUSH2 0xC6E DUP9 DUP3 DUP10 ADD PUSH2 0xB9C JUMP JUMPDEST SWAP2 POP POP SWAP3 SWAP6 POP SWAP3 SWAP6 SWAP1 SWAP4 POP JUMP JUMPDEST PUSH0 PUSH2 0xC85 DUP3 PUSH2 0x7C8 JUMP JUMPDEST SWAP2 POP PUSH2 0xC90 DUP4 PUSH2 0x7C8 JUMP JUMPDEST SWAP3 POP DUP3 DUP3 MUL PUSH2 0xC9E DUP2 PUSH2 0x7C8 JUMP JUMPDEST SWAP2 POP DUP3 DUP3 DIV DUP5 EQ DUP4 ISZERO OR PUSH2 0xCB5 JUMPI PUSH2 0xCB4 PUSH2 0xB11 JUMP JUMPDEST JUMPDEST POP SWAP3 SWAP2 POP POP JUMP JUMPDEST PUSH32 0x4E487B7100000000000000000000000000000000000000000000000000000000 PUSH0 MSTORE PUSH1 0x12 PUSH1 0x4 MSTORE PUSH1 0x24 PUSH0 REVERT JUMPDEST PUSH0 PUSH2 0xCF3 DUP3 PUSH2 0x7C8 JUMP JUMPDEST SWAP2 POP PUSH2 0xCFE DUP4 PUSH2 0x7C8 JUMP JUMPDEST SWAP3 POP DUP3 PUSH2 0xD0E JUMPI PUSH2 0xD0D PUSH2 0xCBC JUMP JUMPDEST JUMPDEST DUP3 DUP3 DIV SWAP1 POP SWAP3 SWAP2 POP POP JUMP INVALID LOG2 PUSH5 0x6970667358 0x22 SLT KECCAK256 MSTORE CALLVALUE PUSH12 0xD022B0ACDF91A8C488DE36AE 0xBD DUP3 PUSH5 0x370843889D GASLIMIT 0xC0 PUSH28 0x46DD53B9879664736F6C634300081800330000000000000000000000 "
				},
				"gasEstimates": {
					"creation": {
						"codeDepositCost": "681400",
						"executionCost": "49244",
						"totalCost": "730644"
					},
					"external": {
						"fund()": "infinite",
						"getChainlinkDataFeedLatestAnswer()": "infinite",
						"getFund()": "infinite",
						"investments(address)": "2823",
						"refund()": "infinite",
						"transferOwnership(address)": "26972"
					},
					"internal": {
						"convertEthToUsd(uint256)": "infinite"
					}
				},
				"methodIdentifiers": {
					"fund()": "b60d4288",
					"getChainlinkDataFeedLatestAnswer()": "bea4dfb5",
					"getFund()": "8edd6eb6",
					"investments(address)": "96b98862",
					"refund()": "590e1ae3",
					"transferOwnership(address)": "f2fde38b"
				}
			},
			"storageLayout": {
				"storage": [
					{
						"astId": 53,
						"contract": "contract/fund/FundMe.sol:FunMe",
						"label": "investments",
						"offset": 0,
						"slot": "0",
						"type": "t_mapping(t_address,t_uint256)"
					},
					{
						"astId": 63,
						"contract": "contract/fund/FundMe.sol:FunMe",
						"label": "dataFeed",
						"offset": 0,
						"slot": "1",
						"type": "t_contract(AggregatorV3Interface)45"
					},
					{
						"astId": 72,
						"contract": "contract/fund/FundMe.sol:FunMe",
						"label": "owner",
						"offset": 0,
						"slot": "2",
						"type": "t_address"
					}
				],
				"types": {
					"t_address": {
						"encoding": "inplace",
						"label": "address",
						"numberOfBytes": "20"
					},
					"t_contract(AggregatorV3Interface)45": {
						"encoding": "inplace",
						"label": "contract AggregatorV3Interface",
						"numberOfBytes": "20"
					},
					"t_mapping(t_address,t_uint256)": {
						"encoding": "mapping",
						"key": "t_address",
						"label": "mapping(address => uint256)",
						"numberOfBytes": "32",
						"value": "t_uint256"
					},
					"t_uint256": {
						"encoding": "inplace",
						"label": "uint256",
						"numberOfBytes": "32"
					}
				}
			},
			"userdoc": {
				"kind": "user",
				"methods": {
					"getChainlinkDataFeedLatestAnswer()": {
						"notice": "Returns the latest answer."
					}
				},
				"version": 1
			}
		}
	}
}