{
	"contract/fund/FundMe.sol": {
		"FundMe": {
			"abi": [
				{
					"inputs": [
						{
							"internalType": "uint256",
							"name": "_lockTime",
							"type": "uint256"
						}
					],
					"stateMutability": "nonpayable",
					"type": "constructor"
				},
				{
					"inputs": [],
					"name": "fund",
					"outputs": [],
					"stateMutability": "payable",
					"type": "function"
				},
				{
					"inputs": [],
					"name": "getChainlinkDataFeedLatestAnswer",
					"outputs": [
						{
							"internalType": "int256",
							"name": "",
							"type": "int256"
						}
					],
					"stateMutability": "view",
					"type": "function"
				},
				{
					"inputs": [],
					"name": "getFund",
					"outputs": [],
					"stateMutability": "nonpayable",
					"type": "function"
				},
				{
					"inputs": [],
					"name": "getFundSuccess",
					"outputs": [
						{
							"internalType": "bool",
							"name": "",
							"type": "bool"
						}
					],
					"stateMutability": "view",
					"type": "function"
				},
				{
					"inputs": [
						{
							"internalType": "address",
							"name": "",
							"type": "address"
						}
					],
					"name": "investments",
					"outputs": [
						{
							"internalType": "uint256",
							"name": "",
							"type": "uint256"
						}
					],
					"stateMutability": "view",
					"type": "function"
				},
				{
					"inputs": [],
					"name": "owner",
					"outputs": [
						{
							"internalType": "address",
							"name": "",
							"type": "address"
						}
					],
					"stateMutability": "view",
					"type": "function"
				},
				{
					"inputs": [],
					"name": "refund",
					"outputs": [],
					"stateMutability": "nonpayable",
					"type": "function"
				},
				{
					"inputs": [
						{
							"internalType": "address",
							"name": "_erc20Addr",
							"type": "address"
						}
					],
					"name": "setErc20Addr",
					"outputs": [],
					"stateMutability": "nonpayable",
					"type": "function"
				},
				{
					"inputs": [
						{
							"internalType": "address",
							"name": "newOwner",
							"type": "address"
						}
					],
					"name": "transferOwnership",
					"outputs": [],
					"stateMutability": "nonpayable",
					"type": "function"
				},
				{
					"inputs": [
						{
							"internalType": "address",
							"name": "funder",
							"type": "address"
						},
						{
							"internalType": "uint256",
							"name": "amountToUpdate",
							"type": "uint256"
						}
					],
					"name": "updateInvestments",
					"outputs": [],
					"stateMutability": "nonpayable",
					"type": "function"
				}
			],
			"devdoc": {
				"kind": "dev",
				"methods": {},
				"version": 1
			},
			"evm": {
				"assembly": "    /* \"contract/fund/FundMe.sol\":372:4344  contract FundMe {... */\n  mstore(0x40, 0x80)\n    /* \"contract/fund/FundMe.sol\":854:859  false */\n  0x00\n    /* \"contract/fund/FundMe.sol\":825:859  bool public getFundSuccess = false */\n  0x05\n  exp(0x0100, 0x14)\n  dup2\n  sload\n  dup2\n  0xff\n  mul\n  not\n  and\n  swap1\n  dup4\n  iszero\n  iszero\n  mul\n  or\n  swap1\n  sstore\n  pop\n    /* \"contract/fund/FundMe.sol\":866:1117  constructor(uint256 _lockTime) {... */\n  callvalue\n  dup1\n  iszero\n  tag_1\n  jumpi\n  0x00\n  dup1\n  revert\ntag_1:\n  pop\n  mload(0x40)\n  sub(codesize, bytecodeSize)\n  dup1\n  bytecodeSize\n  dup4\n  codecopy\n  dup2\n  dup2\n  add\n  0x40\n  mstore\n  dup2\n  add\n  swap1\n  tag_2\n  swap2\n  swap1\n  tag_3\n  jump\t// in\ntag_2:\n    /* \"contract/fund/FundMe.sol\":953:995  0x694AA1769357215DE4FAC081bf1f309aDC325306 */\n  0x694aa1769357215de4fac081bf1f309adc325306\n    /* \"contract/fund/FundMe.sol\":907:915  dataFeed */\n  0x01\n  0x00\n    /* \"contract/fund/FundMe.sol\":907:1005  dataFeed = AggregatorV3Interface(... */\n  0x0100\n  exp\n  dup2\n  sload\n  dup2\n  0xffffffffffffffffffffffffffffffffffffffff\n  mul\n  not\n  and\n  swap1\n  dup4\n  0xffffffffffffffffffffffffffffffffffffffff\n  and\n  mul\n  or\n  swap1\n  sstore\n  pop\n    /* \"contract/fund/FundMe.sol\":1023:1033  msg.sender */\n  caller\n    /* \"contract/fund/FundMe.sol\":1015:1020  owner */\n  0x02\n  0x00\n    /* \"contract/fund/FundMe.sol\":1015:1033  owner = msg.sender */\n  0x0100\n  exp\n  dup2\n  sload\n  dup2\n  0xffffffffffffffffffffffffffffffffffffffff\n  mul\n  not\n  and\n  swap1\n  dup4\n  0xffffffffffffffffffffffffffffffffffffffff\n  and\n  mul\n  or\n  swap1\n  sstore\n  pop\n    /* \"contract/fund/FundMe.sol\":1065:1080  block.timestamp */\n  timestamp\n    /* \"contract/fund/FundMe.sol\":1043:1062  deploymentTimestamp */\n  0x03\n    /* \"contract/fund/FundMe.sol\":1043:1080  deploymentTimestamp = block.timestamp */\n  dup2\n  swap1\n  sstore\n  pop\n    /* \"contract/fund/FundMe.sol\":1101:1110  _lockTime */\n  dup1\n    /* \"contract/fund/FundMe.sol\":1090:1098  lockTime */\n  0x04\n    /* \"contract/fund/FundMe.sol\":1090:1110  lockTime = _lockTime */\n  dup2\n  swap1\n  sstore\n  pop\n    /* \"contract/fund/FundMe.sol\":866:1117  constructor(uint256 _lockTime) {... */\n  pop\n    /* \"contract/fund/FundMe.sol\":372:4344  contract FundMe {... */\n  jump(tag_6)\n    /* \"#utility.yul\":88:205   */\ntag_8:\n    /* \"#utility.yul\":197:198   */\n  0x00\n    /* \"#utility.yul\":194:195   */\n  dup1\n    /* \"#utility.yul\":187:199   */\n  revert\n    /* \"#utility.yul\":334:411   */\ntag_10:\n    /* \"#utility.yul\":371:378   */\n  0x00\n    /* \"#utility.yul\":400:405   */\n  dup2\n    /* \"#utility.yul\":389:405   */\n  swap1\n  pop\n    /* \"#utility.yul\":334:411   */\n  swap2\n  swap1\n  pop\n  jump\t// out\n    /* \"#utility.yul\":417:539   */\ntag_11:\n    /* \"#utility.yul\":490:514   */\n  tag_19\n    /* \"#utility.yul\":508:513   */\n  dup2\n    /* \"#utility.yul\":490:514   */\n  tag_10\n  jump\t// in\ntag_19:\n    /* \"#utility.yul\":483:488   */\n  dup2\n    /* \"#utility.yul\":480:515   */\n  eq\n    /* \"#utility.yul\":470:533   */\n  tag_20\n  jumpi\n    /* \"#utility.yul\":529:530   */\n  0x00\n    /* \"#utility.yul\":526:527   */\n  dup1\n    /* \"#utility.yul\":519:531   */\n  revert\n    /* \"#utility.yul\":470:533   */\ntag_20:\n    /* \"#utility.yul\":417:539   */\n  pop\n  jump\t// out\n    /* \"#utility.yul\":545:688   */\ntag_12:\n    /* \"#utility.yul\":602:607   */\n  0x00\n    /* \"#utility.yul\":633:639   */\n  dup2\n    /* \"#utility.yul\":627:640   */\n  mload\n    /* \"#utility.yul\":618:640   */\n  swap1\n  pop\n    /* \"#utility.yul\":649:682   */\n  tag_22\n    /* \"#utility.yul\":676:681   */\n  dup2\n    /* \"#utility.yul\":649:682   */\n  tag_11\n  jump\t// in\ntag_22:\n    /* \"#utility.yul\":545:688   */\n  swap3\n  swap2\n  pop\n  pop\n  jump\t// out\n    /* \"#utility.yul\":694:1045   */\ntag_3:\n    /* \"#utility.yul\":764:770   */\n  0x00\n    /* \"#utility.yul\":813:815   */\n  0x20\n    /* \"#utility.yul\":801:810   */\n  dup3\n    /* \"#utility.yul\":792:799   */\n  dup5\n    /* \"#utility.yul\":788:811   */\n  sub\n    /* \"#utility.yul\":784:816   */\n  slt\n    /* \"#utility.yul\":781:900   */\n  iszero\n  tag_24\n  jumpi\n    /* \"#utility.yul\":819:898   */\n  tag_25\n  tag_8\n  jump\t// in\ntag_25:\n    /* \"#utility.yul\":781:900   */\ntag_24:\n    /* \"#utility.yul\":939:940   */\n  0x00\n    /* \"#utility.yul\":964:1028   */\n  tag_26\n    /* \"#utility.yul\":1020:1027   */\n  dup5\n    /* \"#utility.yul\":1011:1017   */\n  dup3\n    /* \"#utility.yul\":1000:1009   */\n  dup6\n    /* \"#utility.yul\":996:1018   */\n  add\n    /* \"#utility.yul\":964:1028   */\n  tag_12\n  jump\t// in\ntag_26:\n    /* \"#utility.yul\":954:1028   */\n  swap2\n  pop\n    /* \"#utility.yul\":910:1038   */\n  pop\n    /* \"#utility.yul\":694:1045   */\n  swap3\n  swap2\n  pop\n  pop\n  jump\t// out\n    /* \"contract/fund/FundMe.sol\":372:4344  contract FundMe {... */\ntag_6:\n  dataSize(sub_0)\n  dup1\n  dataOffset(sub_0)\n  0x00\n  codecopy\n  0x00\n  return\nstop\n\nsub_0: assembly {\n        /* \"contract/fund/FundMe.sol\":372:4344  contract FundMe {... */\n      mstore(0x40, 0x80)\n      jumpi(tag_1, lt(calldatasize, 0x04))\n      shr(0xe0, calldataload(0x00))\n      dup1\n      0x96b98862\n      gt\n      tag_12\n      jumpi\n      dup1\n      0x96b98862\n      eq\n      tag_7\n      jumpi\n      dup1\n      0xb60d4288\n      eq\n      tag_8\n      jumpi\n      dup1\n      0xbea4dfb5\n      eq\n      tag_9\n      jumpi\n      dup1\n      0xda4658e0\n      eq\n      tag_10\n      jumpi\n      dup1\n      0xf2fde38b\n      eq\n      tag_11\n      jumpi\n      jump(tag_1)\n    tag_12:\n      dup1\n      0x13ffff01\n      eq\n      tag_2\n      jumpi\n      dup1\n      0x590e1ae3\n      eq\n      tag_3\n      jumpi\n      dup1\n      0x8da5cb5b\n      eq\n      tag_4\n      jumpi\n      dup1\n      0x8edd6eb6\n      eq\n      tag_5\n      jumpi\n      dup1\n      0x9505adc7\n      eq\n      tag_6\n      jumpi\n    tag_1:\n      0x00\n      dup1\n      revert\n        /* \"contract/fund/FundMe.sol\":4037:4135  function setErc20Addr(address _erc20Addr) public onlyOwner {... */\n    tag_2:\n      callvalue\n      dup1\n      iszero\n      tag_13\n      jumpi\n      0x00\n      dup1\n      revert\n    tag_13:\n      pop\n      tag_14\n      0x04\n      dup1\n      calldatasize\n      sub\n      dup2\n      add\n      swap1\n      tag_15\n      swap2\n      swap1\n      tag_16\n      jump\t// in\n    tag_15:\n      tag_17\n      jump\t// in\n    tag_14:\n      stop\n        /* \"contract/fund/FundMe.sol\":3615:4031  function refund() external windowClosed {... */\n    tag_3:\n      callvalue\n      dup1\n      iszero\n      tag_18\n      jumpi\n      0x00\n      dup1\n      revert\n    tag_18:\n      pop\n      tag_19\n      tag_20\n      jump\t// in\n    tag_19:\n      stop\n        /* \"contract/fund/FundMe.sol\":673:693  address public owner */\n    tag_4:\n      callvalue\n      dup1\n      iszero\n      tag_21\n      jumpi\n      0x00\n      dup1\n      revert\n    tag_21:\n      pop\n      tag_22\n      tag_23\n      jump\t// in\n    tag_22:\n      mload(0x40)\n      tag_24\n      swap2\n      swap1\n      tag_25\n      jump\t// in\n    tag_24:\n      mload(0x40)\n      dup1\n      swap2\n      sub\n      swap1\n      return\n        /* \"contract/fund/FundMe.sol\":2459:3508  function getFund () external onlyOwner windowClosed {... */\n    tag_5:\n      callvalue\n      dup1\n      iszero\n      tag_26\n      jumpi\n      0x00\n      dup1\n      revert\n    tag_26:\n      pop\n      tag_27\n      tag_28\n      jump\t// in\n    tag_27:\n      stop\n        /* \"contract/fund/FundMe.sol\":4141:4342  function updateInvestments(address funder, uint256 amountToUpdate) external {... */\n    tag_6:\n      callvalue\n      dup1\n      iszero\n      tag_29\n      jumpi\n      0x00\n      dup1\n      revert\n    tag_29:\n      pop\n      tag_30\n      0x04\n      dup1\n      calldatasize\n      sub\n      dup2\n      add\n      swap1\n      tag_31\n      swap2\n      swap1\n      tag_32\n      jump\t// in\n    tag_31:\n      tag_33\n      jump\t// in\n    tag_30:\n      stop\n        /* \"contract/fund/FundMe.sol\":414:460  mapping(address => uint256) public investments */\n    tag_7:\n      callvalue\n      dup1\n      iszero\n      tag_34\n      jumpi\n      0x00\n      dup1\n      revert\n    tag_34:\n      pop\n      tag_35\n      0x04\n      dup1\n      calldatasize\n      sub\n      dup2\n      add\n      swap1\n      tag_36\n      swap2\n      swap1\n      tag_16\n      jump\t// in\n    tag_36:\n      tag_37\n      jump\t// in\n    tag_35:\n      mload(0x40)\n      tag_38\n      swap2\n      swap1\n      tag_39\n      jump\t// in\n    tag_38:\n      mload(0x40)\n      dup1\n      swap2\n      sub\n      swap1\n      return\n        /* \"contract/fund/FundMe.sol\":1406:1846  function fund() external payable {... */\n    tag_8:\n      tag_40\n      tag_41\n      jump\t// in\n    tag_40:\n      stop\n        /* \"contract/fund/FundMe.sol\":1902:2243  function getChainlinkDataFeedLatestAnswer() public view returns (int256) {... */\n    tag_9:\n      callvalue\n      dup1\n      iszero\n      tag_42\n      jumpi\n      0x00\n      dup1\n      revert\n    tag_42:\n      pop\n      tag_43\n      tag_44\n      jump\t// in\n    tag_43:\n      mload(0x40)\n      tag_45\n      swap2\n      swap1\n      tag_46\n      jump\t// in\n    tag_45:\n      mload(0x40)\n      dup1\n      swap2\n      sub\n      swap1\n      return\n        /* \"contract/fund/FundMe.sol\":825:859  bool public getFundSuccess = false */\n    tag_10:\n      callvalue\n      dup1\n      iszero\n      tag_47\n      jumpi\n      0x00\n      dup1\n      revert\n    tag_47:\n      pop\n      tag_48\n      tag_49\n      jump\t// in\n    tag_48:\n      mload(0x40)\n      tag_50\n      swap2\n      swap1\n      tag_51\n      jump\t// in\n    tag_50:\n      mload(0x40)\n      dup1\n      swap2\n      sub\n      swap1\n      return\n        /* \"contract/fund/FundMe.sol\":3514:3609  function transferOwnership(address newOwner) public onlyOwner {... */\n    tag_11:\n      callvalue\n      dup1\n      iszero\n      tag_52\n      jumpi\n      0x00\n      dup1\n      revert\n    tag_52:\n      pop\n      tag_53\n      0x04\n      dup1\n      calldatasize\n      sub\n      dup2\n      add\n      swap1\n      tag_54\n      swap2\n      swap1\n      tag_16\n      jump\t// in\n    tag_54:\n      tag_55\n      jump\t// in\n    tag_53:\n      stop\n        /* \"contract/fund/FundMe.sol\":4037:4135  function setErc20Addr(address _erc20Addr) public onlyOwner {... */\n    tag_17:\n        /* \"contract/fund/FundMe.sol\":1176:1181  owner */\n      0x02\n      0x00\n      swap1\n      sload\n      swap1\n      0x0100\n      exp\n      swap1\n      div\n      0xffffffffffffffffffffffffffffffffffffffff\n      and\n        /* \"contract/fund/FundMe.sol\":1162:1181  msg.sender == owner */\n      0xffffffffffffffffffffffffffffffffffffffff\n      and\n        /* \"contract/fund/FundMe.sol\":1162:1172  msg.sender */\n      caller\n        /* \"contract/fund/FundMe.sol\":1162:1181  msg.sender == owner */\n      0xffffffffffffffffffffffffffffffffffffffff\n      and\n      eq\n        /* \"contract/fund/FundMe.sol\":1154:1240  require(msg.sender == owner, \"This function can only be called by the current owner.\") */\n      tag_57\n      jumpi\n      mload(0x40)\n      0x08c379a000000000000000000000000000000000000000000000000000000000\n      dup2\n      mstore\n      0x04\n      add\n      tag_58\n      swap1\n      tag_59\n      jump\t// in\n    tag_58:\n      mload(0x40)\n      dup1\n      swap2\n      sub\n      swap1\n      revert\n    tag_57:\n        /* \"contract/fund/FundMe.sol\":4118:4128  _erc20Addr */\n      dup1\n        /* \"contract/fund/FundMe.sol\":4106:4115  erc20Addr */\n      0x05\n      0x00\n        /* \"contract/fund/FundMe.sol\":4106:4128  erc20Addr = _erc20Addr */\n      0x0100\n      exp\n      dup2\n      sload\n      dup2\n      0xffffffffffffffffffffffffffffffffffffffff\n      mul\n      not\n      and\n      swap1\n      dup4\n      0xffffffffffffffffffffffffffffffffffffffff\n      and\n      mul\n      or\n      swap1\n      sstore\n      pop\n        /* \"contract/fund/FundMe.sol\":4037:4135  function setErc20Addr(address _erc20Addr) public onlyOwner {... */\n      pop\n      jump\t// out\n        /* \"contract/fund/FundMe.sol\":3615:4031  function refund() external windowClosed {... */\n    tag_20:\n        /* \"contract/fund/FundMe.sol\":1341:1356  block.timestamp */\n      timestamp\n        /* \"contract/fund/FundMe.sol\":1329:1337  lockTime */\n      sload(0x04)\n        /* \"contract/fund/FundMe.sol\":1307:1326  deploymentTimestamp */\n      sload(0x03)\n        /* \"contract/fund/FundMe.sol\":1307:1337  deploymentTimestamp + lockTime */\n      tag_62\n      swap2\n      swap1\n      tag_63\n      jump\t// in\n    tag_62:\n        /* \"contract/fund/FundMe.sol\":1306:1356  (deploymentTimestamp + lockTime) < block.timestamp */\n      lt\n        /* \"contract/fund/FundMe.sol\":1298:1382  require((deploymentTimestamp + lockTime) < block.timestamp, \"Window is not closed.\") */\n      tag_64\n      jumpi\n      mload(0x40)\n      0x08c379a000000000000000000000000000000000000000000000000000000000\n      dup2\n      mstore\n      0x04\n      add\n      tag_65\n      swap1\n      tag_66\n      jump\t// in\n    tag_65:\n      mload(0x40)\n      dup1\n      swap2\n      sub\n      swap1\n      revert\n    tag_64:\n        /* \"contract/fund/FundMe.sol\":629:644  1000 * 10 ** 18 */\n      0x3635c9adc5dea00000\n        /* \"contract/fund/FundMe.sol\":3674:3712  convertEthToUsd(address(this).balance) */\n      tag_68\n        /* \"contract/fund/FundMe.sol\":3690:3711  address(this).balance */\n      selfbalance\n        /* \"contract/fund/FundMe.sol\":3674:3689  convertEthToUsd */\n      tag_69\n        /* \"contract/fund/FundMe.sol\":3674:3712  convertEthToUsd(address(this).balance) */\n      jump\t// in\n    tag_68:\n        /* \"contract/fund/FundMe.sol\":3674:3721  convertEthToUsd(address(this).balance) < TARGET */\n      lt\n        /* \"contract/fund/FundMe.sol\":3665:3745  require((convertEthToUsd(address(this).balance) < TARGET), \"Target is reached.\") */\n      tag_70\n      jumpi\n      mload(0x40)\n      0x08c379a000000000000000000000000000000000000000000000000000000000\n      dup2\n      mstore\n      0x04\n      add\n      tag_71\n      swap1\n      tag_72\n      jump\t// in\n    tag_71:\n      mload(0x40)\n      dup1\n      swap2\n      sub\n      swap1\n      revert\n    tag_70:\n        /* \"contract/fund/FundMe.sol\":3790:3791  0 */\n      0x00\n        /* \"contract/fund/FundMe.sol\":3763:3774  investments */\n      dup1\n        /* \"contract/fund/FundMe.sol\":3763:3786  investments[msg.sender] */\n      0x00\n        /* \"contract/fund/FundMe.sol\":3775:3785  msg.sender */\n      caller\n        /* \"contract/fund/FundMe.sol\":3763:3786  investments[msg.sender] */\n      0xffffffffffffffffffffffffffffffffffffffff\n      and\n      0xffffffffffffffffffffffffffffffffffffffff\n      and\n      dup2\n      mstore\n      0x20\n      add\n      swap1\n      dup2\n      mstore\n      0x20\n      add\n      0x00\n      keccak256\n      sload\n        /* \"contract/fund/FundMe.sol\":3763:3791  investments[msg.sender] != 0 */\n      sub\n        /* \"contract/fund/FundMe.sol\":3755:3822  require(investments[msg.sender] != 0, \"There is no funds for you.\") */\n      tag_73\n      jumpi\n      mload(0x40)\n      0x08c379a000000000000000000000000000000000000000000000000000000000\n      dup2\n      mstore\n      0x04\n      add\n      tag_74\n      swap1\n      tag_75\n      jump\t// in\n    tag_74:\n      mload(0x40)\n      dup1\n      swap2\n      sub\n      swap1\n      revert\n    tag_73:\n        /* \"contract/fund/FundMe.sol\":3833:3848  bool successful */\n      0x00\n        /* \"contract/fund/FundMe.sol\":3883:3893  msg.sender */\n      caller\n        /* \"contract/fund/FundMe.sol\":3875:3899  payable(msg.sender).call */\n      0xffffffffffffffffffffffffffffffffffffffff\n      and\n        /* \"contract/fund/FundMe.sol\":3907:3918  investments */\n      0x00\n        /* \"contract/fund/FundMe.sol\":3907:3930  investments[msg.sender] */\n      dup1\n        /* \"contract/fund/FundMe.sol\":3919:3929  msg.sender */\n      caller\n        /* \"contract/fund/FundMe.sol\":3907:3930  investments[msg.sender] */\n      0xffffffffffffffffffffffffffffffffffffffff\n      and\n      0xffffffffffffffffffffffffffffffffffffffff\n      and\n      dup2\n      mstore\n      0x20\n      add\n      swap1\n      dup2\n      mstore\n      0x20\n      add\n      0x00\n      keccak256\n      sload\n        /* \"contract/fund/FundMe.sol\":3875:3935  payable(msg.sender).call{value: investments[msg.sender]}(\"\") */\n      mload(0x40)\n      tag_76\n      swap1\n      tag_77\n      jump\t// in\n    tag_76:\n      0x00\n      mload(0x40)\n      dup1\n      dup4\n      sub\n      dup2\n      dup6\n      dup8\n      gas\n      call\n      swap3\n      pop\n      pop\n      pop\n      returndatasize\n      dup1\n      0x00\n      dup2\n      eq\n      tag_80\n      jumpi\n      mload(0x40)\n      swap2\n      pop\n      and(add(returndatasize, 0x3f), not(0x1f))\n      dup3\n      add\n      0x40\n      mstore\n      returndatasize\n      dup3\n      mstore\n      returndatasize\n      0x00\n      0x20\n      dup5\n      add\n      returndatacopy\n      jump(tag_79)\n    tag_80:\n      0x60\n      swap2\n      pop\n    tag_79:\n      pop\n        /* \"contract/fund/FundMe.sol\":3858:3935  (successful, ) = payable(msg.sender).call{value: investments[msg.sender]}(\"\") */\n      pop\n      dup1\n      swap2\n      pop\n      pop\n        /* \"contract/fund/FundMe.sol\":3953:3963  successful */\n      dup1\n        /* \"contract/fund/FundMe.sol\":3945:3987  require(successful, \"Transfer tx failed.\") */\n      tag_81\n      jumpi\n      mload(0x40)\n      0x08c379a000000000000000000000000000000000000000000000000000000000\n      dup2\n      mstore\n      0x04\n      add\n      tag_82\n      swap1\n      tag_83\n      jump\t// in\n    tag_82:\n      mload(0x40)\n      dup1\n      swap2\n      sub\n      swap1\n      revert\n    tag_81:\n        /* \"contract/fund/FundMe.sol\":4023:4024  0 */\n      0x00\n        /* \"contract/fund/FundMe.sol\":3997:4008  investments */\n      dup1\n        /* \"contract/fund/FundMe.sol\":3997:4020  investments[msg.sender] */\n      0x00\n        /* \"contract/fund/FundMe.sol\":4009:4019  msg.sender */\n      caller\n        /* \"contract/fund/FundMe.sol\":3997:4020  investments[msg.sender] */\n      0xffffffffffffffffffffffffffffffffffffffff\n      and\n      0xffffffffffffffffffffffffffffffffffffffff\n      and\n      dup2\n      mstore\n      0x20\n      add\n      swap1\n      dup2\n      mstore\n      0x20\n      add\n      0x00\n      keccak256\n        /* \"contract/fund/FundMe.sol\":3997:4024  investments[msg.sender] = 0 */\n      dup2\n      swap1\n      sstore\n      pop\n        /* \"contract/fund/FundMe.sol\":3655:4031  {... */\n      pop\n        /* \"contract/fund/FundMe.sol\":3615:4031  function refund() external windowClosed {... */\n      jump\t// out\n        /* \"contract/fund/FundMe.sol\":673:693  address public owner */\n    tag_23:\n      0x02\n      0x00\n      swap1\n      sload\n      swap1\n      0x0100\n      exp\n      swap1\n      div\n      0xffffffffffffffffffffffffffffffffffffffff\n      and\n      dup2\n      jump\t// out\n        /* \"contract/fund/FundMe.sol\":2459:3508  function getFund () external onlyOwner windowClosed {... */\n    tag_28:\n        /* \"contract/fund/FundMe.sol\":1176:1181  owner */\n      0x02\n      0x00\n      swap1\n      sload\n      swap1\n      0x0100\n      exp\n      swap1\n      div\n      0xffffffffffffffffffffffffffffffffffffffff\n      and\n        /* \"contract/fund/FundMe.sol\":1162:1181  msg.sender == owner */\n      0xffffffffffffffffffffffffffffffffffffffff\n      and\n        /* \"contract/fund/FundMe.sol\":1162:1172  msg.sender */\n      caller\n        /* \"contract/fund/FundMe.sol\":1162:1181  msg.sender == owner */\n      0xffffffffffffffffffffffffffffffffffffffff\n      and\n      eq\n        /* \"contract/fund/FundMe.sol\":1154:1240  require(msg.sender == owner, \"This function can only be called by the current owner.\") */\n      tag_85\n      jumpi\n      mload(0x40)\n      0x08c379a000000000000000000000000000000000000000000000000000000000\n      dup2\n      mstore\n      0x04\n      add\n      tag_86\n      swap1\n      tag_59\n      jump\t// in\n    tag_86:\n      mload(0x40)\n      dup1\n      swap2\n      sub\n      swap1\n      revert\n    tag_85:\n        /* \"contract/fund/FundMe.sol\":1341:1356  block.timestamp */\n      timestamp\n        /* \"contract/fund/FundMe.sol\":1329:1337  lockTime */\n      sload(0x04)\n        /* \"contract/fund/FundMe.sol\":1307:1326  deploymentTimestamp */\n      sload(0x03)\n        /* \"contract/fund/FundMe.sol\":1307:1337  deploymentTimestamp + lockTime */\n      tag_88\n      swap2\n      swap1\n      tag_63\n      jump\t// in\n    tag_88:\n        /* \"contract/fund/FundMe.sol\":1306:1356  (deploymentTimestamp + lockTime) < block.timestamp */\n      lt\n        /* \"contract/fund/FundMe.sol\":1298:1382  require((deploymentTimestamp + lockTime) < block.timestamp, \"Window is not closed.\") */\n      tag_89\n      jumpi\n      mload(0x40)\n      0x08c379a000000000000000000000000000000000000000000000000000000000\n      dup2\n      mstore\n      0x04\n      add\n      tag_90\n      swap1\n      tag_66\n      jump\t// in\n    tag_90:\n      mload(0x40)\n      dup1\n      swap2\n      sub\n      swap1\n      revert\n    tag_89:\n        /* \"contract/fund/FundMe.sol\":629:644  1000 * 10 ** 18 */\n      0x3635c9adc5dea00000\n        /* \"contract/fund/FundMe.sol\":2529:2567  convertEthToUsd(address(this).balance) */\n      tag_92\n        /* \"contract/fund/FundMe.sol\":2545:2566  address(this).balance */\n      selfbalance\n        /* \"contract/fund/FundMe.sol\":2529:2544  convertEthToUsd */\n      tag_69\n        /* \"contract/fund/FundMe.sol\":2529:2567  convertEthToUsd(address(this).balance) */\n      jump\t// in\n    tag_92:\n        /* \"contract/fund/FundMe.sol\":2529:2577  convertEthToUsd(address(this).balance) >= TARGET */\n      lt\n      iszero\n        /* \"contract/fund/FundMe.sol\":2521:2604  require(convertEthToUsd(address(this).balance) >= TARGET, \"Target is not reached.\") */\n      tag_93\n      jumpi\n      mload(0x40)\n      0x08c379a000000000000000000000000000000000000000000000000000000000\n      dup2\n      mstore\n      0x04\n      add\n      tag_94\n      swap1\n      tag_95\n      jump\t// in\n    tag_94:\n      mload(0x40)\n      dup1\n      swap2\n      sub\n      swap1\n      revert\n    tag_93:\n        /* \"contract/fund/FundMe.sol\":3281:3296  bool successful */\n      0x00\n        /* \"contract/fund/FundMe.sol\":3331:3341  msg.sender */\n      caller\n        /* \"contract/fund/FundMe.sol\":3323:3347  payable(msg.sender).call */\n      0xffffffffffffffffffffffffffffffffffffffff\n      and\n        /* \"contract/fund/FundMe.sol\":3355:3376  address(this).balance */\n      selfbalance\n        /* \"contract/fund/FundMe.sol\":3323:3381  payable(msg.sender).call{value: address(this).balance}(\"\") */\n      mload(0x40)\n      tag_96\n      swap1\n      tag_77\n      jump\t// in\n    tag_96:\n      0x00\n      mload(0x40)\n      dup1\n      dup4\n      sub\n      dup2\n      dup6\n      dup8\n      gas\n      call\n      swap3\n      pop\n      pop\n      pop\n      returndatasize\n      dup1\n      0x00\n      dup2\n      eq\n      tag_99\n      jumpi\n      mload(0x40)\n      swap2\n      pop\n      and(add(returndatasize, 0x3f), not(0x1f))\n      dup3\n      add\n      0x40\n      mstore\n      returndatasize\n      dup3\n      mstore\n      returndatasize\n      0x00\n      0x20\n      dup5\n      add\n      returndatacopy\n      jump(tag_98)\n    tag_99:\n      0x60\n      swap2\n      pop\n    tag_98:\n      pop\n        /* \"contract/fund/FundMe.sol\":3306:3381  (successful, ) = payable(msg.sender).call{value: address(this).balance}(\"\") */\n      pop\n      dup1\n      swap2\n      pop\n      pop\n        /* \"contract/fund/FundMe.sol\":3399:3409  successful */\n      dup1\n        /* \"contract/fund/FundMe.sol\":3391:3433  require(successful, \"Transfer tx failed.\") */\n      tag_100\n      jumpi\n      mload(0x40)\n      0x08c379a000000000000000000000000000000000000000000000000000000000\n      dup2\n      mstore\n      0x04\n      add\n      tag_101\n      swap1\n      tag_83\n      jump\t// in\n    tag_101:\n      mload(0x40)\n      dup1\n      swap2\n      sub\n      swap1\n      revert\n    tag_100:\n        /* \"contract/fund/FundMe.sol\":3469:3470  0 */\n      0x00\n        /* \"contract/fund/FundMe.sol\":3443:3454  investments */\n      dup1\n        /* \"contract/fund/FundMe.sol\":3443:3466  investments[msg.sender] */\n      0x00\n        /* \"contract/fund/FundMe.sol\":3455:3465  msg.sender */\n      caller\n        /* \"contract/fund/FundMe.sol\":3443:3466  investments[msg.sender] */\n      0xffffffffffffffffffffffffffffffffffffffff\n      and\n      0xffffffffffffffffffffffffffffffffffffffff\n      and\n      dup2\n      mstore\n      0x20\n      add\n      swap1\n      dup2\n      mstore\n      0x20\n      add\n      0x00\n      keccak256\n        /* \"contract/fund/FundMe.sol\":3443:3470  investments[msg.sender] = 0 */\n      dup2\n      swap1\n      sstore\n      pop\n        /* \"contract/fund/FundMe.sol\":3497:3501  true */\n      0x01\n        /* \"contract/fund/FundMe.sol\":3480:3494  getFundSuccess */\n      0x05\n      0x14\n        /* \"contract/fund/FundMe.sol\":3480:3501  getFundSuccess = true */\n      0x0100\n      exp\n      dup2\n      sload\n      dup2\n      0xff\n      mul\n      not\n      and\n      swap1\n      dup4\n      iszero\n      iszero\n      mul\n      or\n      swap1\n      sstore\n      pop\n        /* \"contract/fund/FundMe.sol\":2511:3508  {... */\n      pop\n        /* \"contract/fund/FundMe.sol\":2459:3508  function getFund () external onlyOwner windowClosed {... */\n      jump\t// out\n        /* \"contract/fund/FundMe.sol\":4141:4342  function updateInvestments(address funder, uint256 amountToUpdate) external {... */\n    tag_33:\n        /* \"contract/fund/FundMe.sol\":4249:4258  erc20Addr */\n      0x05\n      0x00\n      swap1\n      sload\n      swap1\n      0x0100\n      exp\n      swap1\n      div\n      0xffffffffffffffffffffffffffffffffffffffff\n      and\n        /* \"contract/fund/FundMe.sol\":4235:4258  msg.sender == erc20Addr */\n      0xffffffffffffffffffffffffffffffffffffffff\n      and\n        /* \"contract/fund/FundMe.sol\":4235:4245  msg.sender */\n      caller\n        /* \"contract/fund/FundMe.sol\":4235:4258  msg.sender == erc20Addr */\n      0xffffffffffffffffffffffffffffffffffffffff\n      and\n      eq\n        /* \"contract/fund/FundMe.sol\":4227:4289  require(msg.sender == erc20Addr, \"Only erc20Addr can update.\") */\n      tag_103\n      jumpi\n      mload(0x40)\n      0x08c379a000000000000000000000000000000000000000000000000000000000\n      dup2\n      mstore\n      0x04\n      add\n      tag_104\n      swap1\n      tag_105\n      jump\t// in\n    tag_104:\n      mload(0x40)\n      dup1\n      swap2\n      sub\n      swap1\n      revert\n    tag_103:\n        /* \"contract/fund/FundMe.sol\":4321:4335  amountToUpdate */\n      dup1\n        /* \"contract/fund/FundMe.sol\":4299:4310  investments */\n      0x00\n        /* \"contract/fund/FundMe.sol\":4299:4318  investments[funder] */\n      dup1\n        /* \"contract/fund/FundMe.sol\":4311:4317  funder */\n      dup5\n        /* \"contract/fund/FundMe.sol\":4299:4318  investments[funder] */\n      0xffffffffffffffffffffffffffffffffffffffff\n      and\n      0xffffffffffffffffffffffffffffffffffffffff\n      and\n      dup2\n      mstore\n      0x20\n      add\n      swap1\n      dup2\n      mstore\n      0x20\n      add\n      0x00\n      keccak256\n        /* \"contract/fund/FundMe.sol\":4299:4335  investments[funder] = amountToUpdate */\n      dup2\n      swap1\n      sstore\n      pop\n        /* \"contract/fund/FundMe.sol\":4141:4342  function updateInvestments(address funder, uint256 amountToUpdate) external {... */\n      pop\n      pop\n      jump\t// out\n        /* \"contract/fund/FundMe.sol\":414:460  mapping(address => uint256) public investments */\n    tag_37:\n      mstore(0x20, 0x00)\n      dup1\n      0x00\n      mstore\n      keccak256(0x00, 0x40)\n      0x00\n      swap2\n      pop\n      swap1\n      pop\n      sload\n      dup2\n      jump\t// out\n        /* \"contract/fund/FundMe.sol\":1406:1846  function fund() external payable {... */\n    tag_41:\n        /* \"contract/fund/FundMe.sol\":519:531  100 * 10**18 */\n      0x056bc75e2d63100000\n        /* \"contract/fund/FundMe.sol\":1536:1562  convertEthToUsd(msg.value) */\n      tag_107\n        /* \"contract/fund/FundMe.sol\":1552:1561  msg.value */\n      callvalue\n        /* \"contract/fund/FundMe.sol\":1536:1551  convertEthToUsd */\n      tag_69\n        /* \"contract/fund/FundMe.sol\":1536:1562  convertEthToUsd(msg.value) */\n      jump\t// in\n    tag_107:\n        /* \"contract/fund/FundMe.sol\":1536:1579  convertEthToUsd(msg.value) >= MINIMUM_VALUE */\n      lt\n      iszero\n        /* \"contract/fund/FundMe.sol\":1515:1622  require(... */\n      tag_108\n      jumpi\n      mload(0x40)\n      0x08c379a000000000000000000000000000000000000000000000000000000000\n      dup2\n      mstore\n      0x04\n      add\n      tag_109\n      swap1\n      tag_110\n      jump\t// in\n    tag_109:\n      mload(0x40)\n      dup1\n      swap2\n      sub\n      swap1\n      revert\n    tag_108:\n        /* \"contract/fund/FundMe.sol\":1675:1690  block.timestamp */\n      timestamp\n        /* \"contract/fund/FundMe.sol\":1663:1671  lockTime */\n      sload(0x04)\n        /* \"contract/fund/FundMe.sol\":1641:1660  deploymentTimestamp */\n      sload(0x03)\n        /* \"contract/fund/FundMe.sol\":1641:1671  deploymentTimestamp + lockTime */\n      tag_111\n      swap2\n      swap1\n      tag_63\n      jump\t// in\n    tag_111:\n        /* \"contract/fund/FundMe.sol\":1640:1690  (deploymentTimestamp + lockTime) > block.timestamp */\n      gt\n        /* \"contract/fund/FundMe.sol\":1632:1712  require((deploymentTimestamp + lockTime) > block.timestamp, \"Window is closed.\") */\n      tag_112\n      jumpi\n      mload(0x40)\n      0x08c379a000000000000000000000000000000000000000000000000000000000\n      dup2\n      mstore\n      0x04\n      add\n      tag_113\n      swap1\n      tag_114\n      jump\t// in\n    tag_113:\n      mload(0x40)\n      dup1\n      swap2\n      sub\n      swap1\n      revert\n    tag_112:\n        /* \"contract/fund/FundMe.sol\":1722:1738  uint256 myAmount */\n      0x00\n        /* \"contract/fund/FundMe.sol\":1741:1752  investments */\n      dup1\n        /* \"contract/fund/FundMe.sol\":1741:1764  investments[msg.sender] */\n      0x00\n        /* \"contract/fund/FundMe.sol\":1753:1763  msg.sender */\n      caller\n        /* \"contract/fund/FundMe.sol\":1741:1764  investments[msg.sender] */\n      0xffffffffffffffffffffffffffffffffffffffff\n      and\n      0xffffffffffffffffffffffffffffffffffffffff\n      and\n      dup2\n      mstore\n      0x20\n      add\n      swap1\n      dup2\n      mstore\n      0x20\n      add\n      0x00\n      keccak256\n      sload\n        /* \"contract/fund/FundMe.sol\":1722:1764  uint256 myAmount = investments[msg.sender] */\n      swap1\n      pop\n        /* \"contract/fund/FundMe.sol\":1786:1795  msg.value */\n      callvalue\n        /* \"contract/fund/FundMe.sol\":1774:1795  myAmount += msg.value */\n      dup2\n      tag_115\n      swap2\n      swap1\n      tag_63\n      jump\t// in\n    tag_115:\n      swap1\n      pop\n        /* \"contract/fund/FundMe.sol\":1831:1839  myAmount */\n      dup1\n        /* \"contract/fund/FundMe.sol\":1805:1816  investments */\n      0x00\n        /* \"contract/fund/FundMe.sol\":1805:1828  investments[msg.sender] */\n      dup1\n        /* \"contract/fund/FundMe.sol\":1817:1827  msg.sender */\n      caller\n        /* \"contract/fund/FundMe.sol\":1805:1828  investments[msg.sender] */\n      0xffffffffffffffffffffffffffffffffffffffff\n      and\n      0xffffffffffffffffffffffffffffffffffffffff\n      and\n      dup2\n      mstore\n      0x20\n      add\n      swap1\n      dup2\n      mstore\n      0x20\n      add\n      0x00\n      keccak256\n        /* \"contract/fund/FundMe.sol\":1805:1839  investments[msg.sender] = myAmount */\n      dup2\n      swap1\n      sstore\n      pop\n        /* \"contract/fund/FundMe.sol\":1439:1846  {... */\n      pop\n        /* \"contract/fund/FundMe.sol\":1406:1846  function fund() external payable {... */\n      jump\t// out\n        /* \"contract/fund/FundMe.sol\":1902:2243  function getChainlinkDataFeedLatestAnswer() public view returns (int256) {... */\n    tag_44:\n        /* \"contract/fund/FundMe.sol\":1967:1973  int256 */\n      0x00\n        /* \"contract/fund/FundMe.sol\":2060:2070  int answer */\n      dup1\n        /* \"contract/fund/FundMe.sol\":2187:2195  dataFeed */\n      0x01\n      0x00\n      swap1\n      sload\n      swap1\n      0x0100\n      exp\n      swap1\n      div\n      0xffffffffffffffffffffffffffffffffffffffff\n      and\n        /* \"contract/fund/FundMe.sol\":2187:2211  dataFeed.latestRoundData */\n      0xffffffffffffffffffffffffffffffffffffffff\n      and\n      0xfeaf968c\n        /* \"contract/fund/FundMe.sol\":2187:2213  dataFeed.latestRoundData() */\n      mload(0x40)\n      dup2\n      0xffffffff\n      and\n      0xe0\n      shl\n      dup2\n      mstore\n      0x04\n      add\n      0xa0\n      mload(0x40)\n      dup1\n      dup4\n      sub\n      dup2\n      dup7\n      gas\n      staticcall\n      iszero\n      dup1\n      iszero\n      tag_118\n      jumpi\n      returndatasize\n      0x00\n      dup1\n      returndatacopy\n      revert(0x00, returndatasize)\n    tag_118:\n      pop\n      pop\n      pop\n      pop\n      mload(0x40)\n      returndatasize\n      not(0x1f)\n      0x1f\n      dup3\n      add\n      and\n      dup3\n      add\n      dup1\n      0x40\n      mstore\n      pop\n      dup2\n      add\n      swap1\n      tag_119\n      swap2\n      swap1\n      tag_120\n      jump\t// in\n    tag_119:\n        /* \"contract/fund/FundMe.sol\":2012:2213  (... */\n      pop\n      pop\n      pop\n      swap2\n      pop\n      pop\n        /* \"contract/fund/FundMe.sol\":2230:2236  answer */\n      dup1\n        /* \"contract/fund/FundMe.sol\":2223:2236  return answer */\n      swap2\n      pop\n      pop\n        /* \"contract/fund/FundMe.sol\":1902:2243  function getChainlinkDataFeedLatestAnswer() public view returns (int256) {... */\n      swap1\n      jump\t// out\n        /* \"contract/fund/FundMe.sol\":825:859  bool public getFundSuccess = false */\n    tag_49:\n      0x05\n      0x14\n      swap1\n      sload\n      swap1\n      0x0100\n      exp\n      swap1\n      div\n      0xff\n      and\n      dup2\n      jump\t// out\n        /* \"contract/fund/FundMe.sol\":3514:3609  function transferOwnership(address newOwner) public onlyOwner {... */\n    tag_55:\n        /* \"contract/fund/FundMe.sol\":1176:1181  owner */\n      0x02\n      0x00\n      swap1\n      sload\n      swap1\n      0x0100\n      exp\n      swap1\n      div\n      0xffffffffffffffffffffffffffffffffffffffff\n      and\n        /* \"contract/fund/FundMe.sol\":1162:1181  msg.sender == owner */\n      0xffffffffffffffffffffffffffffffffffffffff\n      and\n        /* \"contract/fund/FundMe.sol\":1162:1172  msg.sender */\n      caller\n        /* \"contract/fund/FundMe.sol\":1162:1181  msg.sender == owner */\n      0xffffffffffffffffffffffffffffffffffffffff\n      and\n      eq\n        /* \"contract/fund/FundMe.sol\":1154:1240  require(msg.sender == owner, \"This function can only be called by the current owner.\") */\n      tag_122\n      jumpi\n      mload(0x40)\n      0x08c379a000000000000000000000000000000000000000000000000000000000\n      dup2\n      mstore\n      0x04\n      add\n      tag_123\n      swap1\n      tag_59\n      jump\t// in\n    tag_123:\n      mload(0x40)\n      dup1\n      swap2\n      sub\n      swap1\n      revert\n    tag_122:\n        /* \"contract/fund/FundMe.sol\":3594:3602  newOwner */\n      dup1\n        /* \"contract/fund/FundMe.sol\":3586:3591  owner */\n      0x02\n      0x00\n        /* \"contract/fund/FundMe.sol\":3586:3602  owner = newOwner */\n      0x0100\n      exp\n      dup2\n      sload\n      dup2\n      0xffffffffffffffffffffffffffffffffffffffff\n      mul\n      not\n      and\n      swap1\n      dup4\n      0xffffffffffffffffffffffffffffffffffffffff\n      and\n      mul\n      or\n      swap1\n      sstore\n      pop\n        /* \"contract/fund/FundMe.sol\":3514:3609  function transferOwnership(address newOwner) public onlyOwner {... */\n      pop\n      jump\t// out\n        /* \"contract/fund/FundMe.sol\":2249:2453  function convertEthToUsd(uint256 ethAmount) internal view returns (uint256) {... */\n    tag_69:\n        /* \"contract/fund/FundMe.sol\":2316:2323  uint256 */\n      0x00\n        /* \"contract/fund/FundMe.sol\":2335:2351  uint256 ethPrice */\n      dup1\n        /* \"contract/fund/FundMe.sol\":2362:2396  getChainlinkDataFeedLatestAnswer() */\n      tag_126\n        /* \"contract/fund/FundMe.sol\":2362:2394  getChainlinkDataFeedLatestAnswer */\n      tag_44\n        /* \"contract/fund/FundMe.sol\":2362:2396  getChainlinkDataFeedLatestAnswer() */\n      jump\t// in\n    tag_126:\n        /* \"contract/fund/FundMe.sol\":2335:2397  uint256 ethPrice = uint256(getChainlinkDataFeedLatestAnswer()) */\n      swap1\n      pop\n        /* \"contract/fund/FundMe.sol\":2440:2445  10**8 */\n      0x05f5e100\n        /* \"contract/fund/FundMe.sol\":2427:2435  ethPrice */\n      dup2\n        /* \"contract/fund/FundMe.sol\":2415:2424  ethAmount */\n      dup5\n        /* \"contract/fund/FundMe.sol\":2415:2435  ethAmount * ethPrice */\n      tag_127\n      swap2\n      swap1\n      tag_128\n      jump\t// in\n    tag_127:\n        /* \"contract/fund/FundMe.sol\":2414:2446  (ethAmount * ethPrice) / (10**8) */\n      tag_129\n      swap2\n      swap1\n      tag_130\n      jump\t// in\n    tag_129:\n        /* \"contract/fund/FundMe.sol\":2407:2446  return (ethAmount * ethPrice) / (10**8) */\n      swap2\n      pop\n      pop\n        /* \"contract/fund/FundMe.sol\":2249:2453  function convertEthToUsd(uint256 ethAmount) internal view returns (uint256) {... */\n      swap2\n      swap1\n      pop\n      jump\t// out\n        /* \"#utility.yul\":88:205   */\n    tag_132:\n        /* \"#utility.yul\":197:198   */\n      0x00\n        /* \"#utility.yul\":194:195   */\n      dup1\n        /* \"#utility.yul\":187:199   */\n      revert\n        /* \"#utility.yul\":334:460   */\n    tag_134:\n        /* \"#utility.yul\":371:378   */\n      0x00\n        /* \"#utility.yul\":411:453   */\n      0xffffffffffffffffffffffffffffffffffffffff\n        /* \"#utility.yul\":404:409   */\n      dup3\n        /* \"#utility.yul\":400:454   */\n      and\n        /* \"#utility.yul\":389:454   */\n      swap1\n      pop\n        /* \"#utility.yul\":334:460   */\n      swap2\n      swap1\n      pop\n      jump\t// out\n        /* \"#utility.yul\":466:562   */\n    tag_135:\n        /* \"#utility.yul\":503:510   */\n      0x00\n        /* \"#utility.yul\":532:556   */\n      tag_183\n        /* \"#utility.yul\":550:555   */\n      dup3\n        /* \"#utility.yul\":532:556   */\n      tag_134\n      jump\t// in\n    tag_183:\n        /* \"#utility.yul\":521:556   */\n      swap1\n      pop\n        /* \"#utility.yul\":466:562   */\n      swap2\n      swap1\n      pop\n      jump\t// out\n        /* \"#utility.yul\":568:690   */\n    tag_136:\n        /* \"#utility.yul\":641:665   */\n      tag_185\n        /* \"#utility.yul\":659:664   */\n      dup2\n        /* \"#utility.yul\":641:665   */\n      tag_135\n      jump\t// in\n    tag_185:\n        /* \"#utility.yul\":634:639   */\n      dup2\n        /* \"#utility.yul\":631:666   */\n      eq\n        /* \"#utility.yul\":621:684   */\n      tag_186\n      jumpi\n        /* \"#utility.yul\":680:681   */\n      0x00\n        /* \"#utility.yul\":677:678   */\n      dup1\n        /* \"#utility.yul\":670:682   */\n      revert\n        /* \"#utility.yul\":621:684   */\n    tag_186:\n        /* \"#utility.yul\":568:690   */\n      pop\n      jump\t// out\n        /* \"#utility.yul\":696:835   */\n    tag_137:\n        /* \"#utility.yul\":742:747   */\n      0x00\n        /* \"#utility.yul\":780:786   */\n      dup2\n        /* \"#utility.yul\":767:787   */\n      calldataload\n        /* \"#utility.yul\":758:787   */\n      swap1\n      pop\n        /* \"#utility.yul\":796:829   */\n      tag_188\n        /* \"#utility.yul\":823:828   */\n      dup2\n        /* \"#utility.yul\":796:829   */\n      tag_136\n      jump\t// in\n    tag_188:\n        /* \"#utility.yul\":696:835   */\n      swap3\n      swap2\n      pop\n      pop\n      jump\t// out\n        /* \"#utility.yul\":841:1170   */\n    tag_16:\n        /* \"#utility.yul\":900:906   */\n      0x00\n        /* \"#utility.yul\":949:951   */\n      0x20\n        /* \"#utility.yul\":937:946   */\n      dup3\n        /* \"#utility.yul\":928:935   */\n      dup5\n        /* \"#utility.yul\":924:947   */\n      sub\n        /* \"#utility.yul\":920:952   */\n      slt\n        /* \"#utility.yul\":917:1036   */\n      iszero\n      tag_190\n      jumpi\n        /* \"#utility.yul\":955:1034   */\n      tag_191\n      tag_132\n      jump\t// in\n    tag_191:\n        /* \"#utility.yul\":917:1036   */\n    tag_190:\n        /* \"#utility.yul\":1075:1076   */\n      0x00\n        /* \"#utility.yul\":1100:1153   */\n      tag_192\n        /* \"#utility.yul\":1145:1152   */\n      dup5\n        /* \"#utility.yul\":1136:1142   */\n      dup3\n        /* \"#utility.yul\":1125:1134   */\n      dup6\n        /* \"#utility.yul\":1121:1143   */\n      add\n        /* \"#utility.yul\":1100:1153   */\n      tag_137\n      jump\t// in\n    tag_192:\n        /* \"#utility.yul\":1090:1153   */\n      swap2\n      pop\n        /* \"#utility.yul\":1046:1163   */\n      pop\n        /* \"#utility.yul\":841:1170   */\n      swap3\n      swap2\n      pop\n      pop\n      jump\t// out\n        /* \"#utility.yul\":1176:1294   */\n    tag_138:\n        /* \"#utility.yul\":1263:1287   */\n      tag_194\n        /* \"#utility.yul\":1281:1286   */\n      dup2\n        /* \"#utility.yul\":1263:1287   */\n      tag_135\n      jump\t// in\n    tag_194:\n        /* \"#utility.yul\":1258:1261   */\n      dup3\n        /* \"#utility.yul\":1251:1288   */\n      mstore\n        /* \"#utility.yul\":1176:1294   */\n      pop\n      pop\n      jump\t// out\n        /* \"#utility.yul\":1300:1522   */\n    tag_25:\n        /* \"#utility.yul\":1393:1397   */\n      0x00\n        /* \"#utility.yul\":1431:1433   */\n      0x20\n        /* \"#utility.yul\":1420:1429   */\n      dup3\n        /* \"#utility.yul\":1416:1434   */\n      add\n        /* \"#utility.yul\":1408:1434   */\n      swap1\n      pop\n        /* \"#utility.yul\":1444:1515   */\n      tag_196\n        /* \"#utility.yul\":1512:1513   */\n      0x00\n        /* \"#utility.yul\":1501:1510   */\n      dup4\n        /* \"#utility.yul\":1497:1514   */\n      add\n        /* \"#utility.yul\":1488:1494   */\n      dup5\n        /* \"#utility.yul\":1444:1515   */\n      tag_138\n      jump\t// in\n    tag_196:\n        /* \"#utility.yul\":1300:1522   */\n      swap3\n      swap2\n      pop\n      pop\n      jump\t// out\n        /* \"#utility.yul\":1528:1605   */\n    tag_139:\n        /* \"#utility.yul\":1565:1572   */\n      0x00\n        /* \"#utility.yul\":1594:1599   */\n      dup2\n        /* \"#utility.yul\":1583:1599   */\n      swap1\n      pop\n        /* \"#utility.yul\":1528:1605   */\n      swap2\n      swap1\n      pop\n      jump\t// out\n        /* \"#utility.yul\":1611:1733   */\n    tag_140:\n        /* \"#utility.yul\":1684:1708   */\n      tag_199\n        /* \"#utility.yul\":1702:1707   */\n      dup2\n        /* \"#utility.yul\":1684:1708   */\n      tag_139\n      jump\t// in\n    tag_199:\n        /* \"#utility.yul\":1677:1682   */\n      dup2\n        /* \"#utility.yul\":1674:1709   */\n      eq\n        /* \"#utility.yul\":1664:1727   */\n      tag_200\n      jumpi\n        /* \"#utility.yul\":1723:1724   */\n      0x00\n        /* \"#utility.yul\":1720:1721   */\n      dup1\n        /* \"#utility.yul\":1713:1725   */\n      revert\n        /* \"#utility.yul\":1664:1727   */\n    tag_200:\n        /* \"#utility.yul\":1611:1733   */\n      pop\n      jump\t// out\n        /* \"#utility.yul\":1739:1878   */\n    tag_141:\n        /* \"#utility.yul\":1785:1790   */\n      0x00\n        /* \"#utility.yul\":1823:1829   */\n      dup2\n        /* \"#utility.yul\":1810:1830   */\n      calldataload\n        /* \"#utility.yul\":1801:1830   */\n      swap1\n      pop\n        /* \"#utility.yul\":1839:1872   */\n      tag_202\n        /* \"#utility.yul\":1866:1871   */\n      dup2\n        /* \"#utility.yul\":1839:1872   */\n      tag_140\n      jump\t// in\n    tag_202:\n        /* \"#utility.yul\":1739:1878   */\n      swap3\n      swap2\n      pop\n      pop\n      jump\t// out\n        /* \"#utility.yul\":1884:2358   */\n    tag_32:\n        /* \"#utility.yul\":1952:1958   */\n      0x00\n        /* \"#utility.yul\":1960:1966   */\n      dup1\n        /* \"#utility.yul\":2009:2011   */\n      0x40\n        /* \"#utility.yul\":1997:2006   */\n      dup4\n        /* \"#utility.yul\":1988:1995   */\n      dup6\n        /* \"#utility.yul\":1984:2007   */\n      sub\n        /* \"#utility.yul\":1980:2012   */\n      slt\n        /* \"#utility.yul\":1977:2096   */\n      iszero\n      tag_204\n      jumpi\n        /* \"#utility.yul\":2015:2094   */\n      tag_205\n      tag_132\n      jump\t// in\n    tag_205:\n        /* \"#utility.yul\":1977:2096   */\n    tag_204:\n        /* \"#utility.yul\":2135:2136   */\n      0x00\n        /* \"#utility.yul\":2160:2213   */\n      tag_206\n        /* \"#utility.yul\":2205:2212   */\n      dup6\n        /* \"#utility.yul\":2196:2202   */\n      dup3\n        /* \"#utility.yul\":2185:2194   */\n      dup7\n        /* \"#utility.yul\":2181:2203   */\n      add\n        /* \"#utility.yul\":2160:2213   */\n      tag_137\n      jump\t// in\n    tag_206:\n        /* \"#utility.yul\":2150:2213   */\n      swap3\n      pop\n        /* \"#utility.yul\":2106:2223   */\n      pop\n        /* \"#utility.yul\":2262:2264   */\n      0x20\n        /* \"#utility.yul\":2288:2341   */\n      tag_207\n        /* \"#utility.yul\":2333:2340   */\n      dup6\n        /* \"#utility.yul\":2324:2330   */\n      dup3\n        /* \"#utility.yul\":2313:2322   */\n      dup7\n        /* \"#utility.yul\":2309:2331   */\n      add\n        /* \"#utility.yul\":2288:2341   */\n      tag_141\n      jump\t// in\n    tag_207:\n        /* \"#utility.yul\":2278:2341   */\n      swap2\n      pop\n        /* \"#utility.yul\":2233:2351   */\n      pop\n        /* \"#utility.yul\":1884:2358   */\n      swap3\n      pop\n      swap3\n      swap1\n      pop\n      jump\t// out\n        /* \"#utility.yul\":2364:2482   */\n    tag_142:\n        /* \"#utility.yul\":2451:2475   */\n      tag_209\n        /* \"#utility.yul\":2469:2474   */\n      dup2\n        /* \"#utility.yul\":2451:2475   */\n      tag_139\n      jump\t// in\n    tag_209:\n        /* \"#utility.yul\":2446:2449   */\n      dup3\n        /* \"#utility.yul\":2439:2476   */\n      mstore\n        /* \"#utility.yul\":2364:2482   */\n      pop\n      pop\n      jump\t// out\n        /* \"#utility.yul\":2488:2710   */\n    tag_39:\n        /* \"#utility.yul\":2581:2585   */\n      0x00\n        /* \"#utility.yul\":2619:2621   */\n      0x20\n        /* \"#utility.yul\":2608:2617   */\n      dup3\n        /* \"#utility.yul\":2604:2622   */\n      add\n        /* \"#utility.yul\":2596:2622   */\n      swap1\n      pop\n        /* \"#utility.yul\":2632:2703   */\n      tag_211\n        /* \"#utility.yul\":2700:2701   */\n      0x00\n        /* \"#utility.yul\":2689:2698   */\n      dup4\n        /* \"#utility.yul\":2685:2702   */\n      add\n        /* \"#utility.yul\":2676:2682   */\n      dup5\n        /* \"#utility.yul\":2632:2703   */\n      tag_142\n      jump\t// in\n    tag_211:\n        /* \"#utility.yul\":2488:2710   */\n      swap3\n      swap2\n      pop\n      pop\n      jump\t// out\n        /* \"#utility.yul\":2716:2792   */\n    tag_143:\n        /* \"#utility.yul\":2752:2759   */\n      0x00\n        /* \"#utility.yul\":2781:2786   */\n      dup2\n        /* \"#utility.yul\":2770:2786   */\n      swap1\n      pop\n        /* \"#utility.yul\":2716:2792   */\n      swap2\n      swap1\n      pop\n      jump\t// out\n        /* \"#utility.yul\":2798:2913   */\n    tag_144:\n        /* \"#utility.yul\":2883:2906   */\n      tag_214\n        /* \"#utility.yul\":2900:2905   */\n      dup2\n        /* \"#utility.yul\":2883:2906   */\n      tag_143\n      jump\t// in\n    tag_214:\n        /* \"#utility.yul\":2878:2881   */\n      dup3\n        /* \"#utility.yul\":2871:2907   */\n      mstore\n        /* \"#utility.yul\":2798:2913   */\n      pop\n      pop\n      jump\t// out\n        /* \"#utility.yul\":2919:3137   */\n    tag_46:\n        /* \"#utility.yul\":3010:3014   */\n      0x00\n        /* \"#utility.yul\":3048:3050   */\n      0x20\n        /* \"#utility.yul\":3037:3046   */\n      dup3\n        /* \"#utility.yul\":3033:3051   */\n      add\n        /* \"#utility.yul\":3025:3051   */\n      swap1\n      pop\n        /* \"#utility.yul\":3061:3130   */\n      tag_216\n        /* \"#utility.yul\":3127:3128   */\n      0x00\n        /* \"#utility.yul\":3116:3125   */\n      dup4\n        /* \"#utility.yul\":3112:3129   */\n      add\n        /* \"#utility.yul\":3103:3109   */\n      dup5\n        /* \"#utility.yul\":3061:3130   */\n      tag_144\n      jump\t// in\n    tag_216:\n        /* \"#utility.yul\":2919:3137   */\n      swap3\n      swap2\n      pop\n      pop\n      jump\t// out\n        /* \"#utility.yul\":3143:3233   */\n    tag_145:\n        /* \"#utility.yul\":3177:3184   */\n      0x00\n        /* \"#utility.yul\":3220:3225   */\n      dup2\n        /* \"#utility.yul\":3213:3226   */\n      iszero\n        /* \"#utility.yul\":3206:3227   */\n      iszero\n        /* \"#utility.yul\":3195:3227   */\n      swap1\n      pop\n        /* \"#utility.yul\":3143:3233   */\n      swap2\n      swap1\n      pop\n      jump\t// out\n        /* \"#utility.yul\":3239:3348   */\n    tag_146:\n        /* \"#utility.yul\":3320:3341   */\n      tag_219\n        /* \"#utility.yul\":3335:3340   */\n      dup2\n        /* \"#utility.yul\":3320:3341   */\n      tag_145\n      jump\t// in\n    tag_219:\n        /* \"#utility.yul\":3315:3318   */\n      dup3\n        /* \"#utility.yul\":3308:3342   */\n      mstore\n        /* \"#utility.yul\":3239:3348   */\n      pop\n      pop\n      jump\t// out\n        /* \"#utility.yul\":3354:3564   */\n    tag_51:\n        /* \"#utility.yul\":3441:3445   */\n      0x00\n        /* \"#utility.yul\":3479:3481   */\n      0x20\n        /* \"#utility.yul\":3468:3477   */\n      dup3\n        /* \"#utility.yul\":3464:3482   */\n      add\n        /* \"#utility.yul\":3456:3482   */\n      swap1\n      pop\n        /* \"#utility.yul\":3492:3557   */\n      tag_221\n        /* \"#utility.yul\":3554:3555   */\n      0x00\n        /* \"#utility.yul\":3543:3552   */\n      dup4\n        /* \"#utility.yul\":3539:3556   */\n      add\n        /* \"#utility.yul\":3530:3536   */\n      dup5\n        /* \"#utility.yul\":3492:3557   */\n      tag_146\n      jump\t// in\n    tag_221:\n        /* \"#utility.yul\":3354:3564   */\n      swap3\n      swap2\n      pop\n      pop\n      jump\t// out\n        /* \"#utility.yul\":3570:3739   */\n    tag_147:\n        /* \"#utility.yul\":3654:3665   */\n      0x00\n        /* \"#utility.yul\":3688:3694   */\n      dup3\n        /* \"#utility.yul\":3683:3686   */\n      dup3\n        /* \"#utility.yul\":3676:3695   */\n      mstore\n        /* \"#utility.yul\":3728:3732   */\n      0x20\n        /* \"#utility.yul\":3723:3726   */\n      dup3\n        /* \"#utility.yul\":3719:3733   */\n      add\n        /* \"#utility.yul\":3704:3733   */\n      swap1\n      pop\n        /* \"#utility.yul\":3570:3739   */\n      swap3\n      swap2\n      pop\n      pop\n      jump\t// out\n        /* \"#utility.yul\":3745:3986   */\n    tag_148:\n        /* \"#utility.yul\":3885:3919   */\n      0x546869732066756e6374696f6e2063616e206f6e6c792062652063616c6c6564\n        /* \"#utility.yul\":3881:3882   */\n      0x00\n        /* \"#utility.yul\":3873:3879   */\n      dup3\n        /* \"#utility.yul\":3869:3883   */\n      add\n        /* \"#utility.yul\":3862:3920   */\n      mstore\n        /* \"#utility.yul\":3954:3978   */\n      0x206279207468652063757272656e74206f776e65722e00000000000000000000\n        /* \"#utility.yul\":3949:3951   */\n      0x20\n        /* \"#utility.yul\":3941:3947   */\n      dup3\n        /* \"#utility.yul\":3937:3952   */\n      add\n        /* \"#utility.yul\":3930:3979   */\n      mstore\n        /* \"#utility.yul\":3745:3986   */\n      pop\n      jump\t// out\n        /* \"#utility.yul\":3992:4358   */\n    tag_149:\n        /* \"#utility.yul\":4134:4137   */\n      0x00\n        /* \"#utility.yul\":4155:4222   */\n      tag_225\n        /* \"#utility.yul\":4219:4221   */\n      0x36\n        /* \"#utility.yul\":4214:4217   */\n      dup4\n        /* \"#utility.yul\":4155:4222   */\n      tag_147\n      jump\t// in\n    tag_225:\n        /* \"#utility.yul\":4148:4222   */\n      swap2\n      pop\n        /* \"#utility.yul\":4231:4324   */\n      tag_226\n        /* \"#utility.yul\":4320:4323   */\n      dup3\n        /* \"#utility.yul\":4231:4324   */\n      tag_148\n      jump\t// in\n    tag_226:\n        /* \"#utility.yul\":4349:4351   */\n      0x40\n        /* \"#utility.yul\":4344:4347   */\n      dup3\n        /* \"#utility.yul\":4340:4352   */\n      add\n        /* \"#utility.yul\":4333:4352   */\n      swap1\n      pop\n        /* \"#utility.yul\":3992:4358   */\n      swap2\n      swap1\n      pop\n      jump\t// out\n        /* \"#utility.yul\":4364:4783   */\n    tag_59:\n        /* \"#utility.yul\":4530:4534   */\n      0x00\n        /* \"#utility.yul\":4568:4570   */\n      0x20\n        /* \"#utility.yul\":4557:4566   */\n      dup3\n        /* \"#utility.yul\":4553:4571   */\n      add\n        /* \"#utility.yul\":4545:4571   */\n      swap1\n      pop\n        /* \"#utility.yul\":4617:4626   */\n      dup2\n        /* \"#utility.yul\":4611:4615   */\n      dup2\n        /* \"#utility.yul\":4607:4627   */\n      sub\n        /* \"#utility.yul\":4603:4604   */\n      0x00\n        /* \"#utility.yul\":4592:4601   */\n      dup4\n        /* \"#utility.yul\":4588:4605   */\n      add\n        /* \"#utility.yul\":4581:4628   */\n      mstore\n        /* \"#utility.yul\":4645:4776   */\n      tag_228\n        /* \"#utility.yul\":4771:4775   */\n      dup2\n        /* \"#utility.yul\":4645:4776   */\n      tag_149\n      jump\t// in\n    tag_228:\n        /* \"#utility.yul\":4637:4776   */\n      swap1\n      pop\n        /* \"#utility.yul\":4364:4783   */\n      swap2\n      swap1\n      pop\n      jump\t// out\n        /* \"#utility.yul\":4789:4969   */\n    tag_150:\n        /* \"#utility.yul\":4837:4914   */\n      0x4e487b7100000000000000000000000000000000000000000000000000000000\n        /* \"#utility.yul\":4834:4835   */\n      0x00\n        /* \"#utility.yul\":4827:4915   */\n      mstore\n        /* \"#utility.yul\":4934:4938   */\n      0x11\n        /* \"#utility.yul\":4931:4932   */\n      0x04\n        /* \"#utility.yul\":4924:4939   */\n      mstore\n        /* \"#utility.yul\":4958:4962   */\n      0x24\n        /* \"#utility.yul\":4955:4956   */\n      0x00\n        /* \"#utility.yul\":4948:4963   */\n      revert\n        /* \"#utility.yul\":4975:5166   */\n    tag_63:\n        /* \"#utility.yul\":5015:5018   */\n      0x00\n        /* \"#utility.yul\":5034:5054   */\n      tag_231\n        /* \"#utility.yul\":5052:5053   */\n      dup3\n        /* \"#utility.yul\":5034:5054   */\n      tag_139\n      jump\t// in\n    tag_231:\n        /* \"#utility.yul\":5029:5054   */\n      swap2\n      pop\n        /* \"#utility.yul\":5068:5088   */\n      tag_232\n        /* \"#utility.yul\":5086:5087   */\n      dup4\n        /* \"#utility.yul\":5068:5088   */\n      tag_139\n      jump\t// in\n    tag_232:\n        /* \"#utility.yul\":5063:5088   */\n      swap3\n      pop\n        /* \"#utility.yul\":5111:5112   */\n      dup3\n        /* \"#utility.yul\":5108:5109   */\n      dup3\n        /* \"#utility.yul\":5104:5113   */\n      add\n        /* \"#utility.yul\":5097:5113   */\n      swap1\n      pop\n        /* \"#utility.yul\":5132:5135   */\n      dup1\n        /* \"#utility.yul\":5129:5130   */\n      dup3\n        /* \"#utility.yul\":5126:5136   */\n      gt\n        /* \"#utility.yul\":5123:5159   */\n      iszero\n      tag_233\n      jumpi\n        /* \"#utility.yul\":5139:5157   */\n      tag_234\n      tag_150\n      jump\t// in\n    tag_234:\n        /* \"#utility.yul\":5123:5159   */\n    tag_233:\n        /* \"#utility.yul\":4975:5166   */\n      swap3\n      swap2\n      pop\n      pop\n      jump\t// out\n        /* \"#utility.yul\":5172:5343   */\n    tag_151:\n        /* \"#utility.yul\":5312:5335   */\n      0x57696e646f77206973206e6f7420636c6f7365642e0000000000000000000000\n        /* \"#utility.yul\":5308:5309   */\n      0x00\n        /* \"#utility.yul\":5300:5306   */\n      dup3\n        /* \"#utility.yul\":5296:5310   */\n      add\n        /* \"#utility.yul\":5289:5336   */\n      mstore\n        /* \"#utility.yul\":5172:5343   */\n      pop\n      jump\t// out\n        /* \"#utility.yul\":5349:5715   */\n    tag_152:\n        /* \"#utility.yul\":5491:5494   */\n      0x00\n        /* \"#utility.yul\":5512:5579   */\n      tag_237\n        /* \"#utility.yul\":5576:5578   */\n      0x15\n        /* \"#utility.yul\":5571:5574   */\n      dup4\n        /* \"#utility.yul\":5512:5579   */\n      tag_147\n      jump\t// in\n    tag_237:\n        /* \"#utility.yul\":5505:5579   */\n      swap2\n      pop\n        /* \"#utility.yul\":5588:5681   */\n      tag_238\n        /* \"#utility.yul\":5677:5680   */\n      dup3\n        /* \"#utility.yul\":5588:5681   */\n      tag_151\n      jump\t// in\n    tag_238:\n        /* \"#utility.yul\":5706:5708   */\n      0x20\n        /* \"#utility.yul\":5701:5704   */\n      dup3\n        /* \"#utility.yul\":5697:5709   */\n      add\n        /* \"#utility.yul\":5690:5709   */\n      swap1\n      pop\n        /* \"#utility.yul\":5349:5715   */\n      swap2\n      swap1\n      pop\n      jump\t// out\n        /* \"#utility.yul\":5721:6140   */\n    tag_66:\n        /* \"#utility.yul\":5887:5891   */\n      0x00\n        /* \"#utility.yul\":5925:5927   */\n      0x20\n        /* \"#utility.yul\":5914:5923   */\n      dup3\n        /* \"#utility.yul\":5910:5928   */\n      add\n        /* \"#utility.yul\":5902:5928   */\n      swap1\n      pop\n        /* \"#utility.yul\":5974:5983   */\n      dup2\n        /* \"#utility.yul\":5968:5972   */\n      dup2\n        /* \"#utility.yul\":5964:5984   */\n      sub\n        /* \"#utility.yul\":5960:5961   */\n      0x00\n        /* \"#utility.yul\":5949:5958   */\n      dup4\n        /* \"#utility.yul\":5945:5962   */\n      add\n        /* \"#utility.yul\":5938:5985   */\n      mstore\n        /* \"#utility.yul\":6002:6133   */\n      tag_240\n        /* \"#utility.yul\":6128:6132   */\n      dup2\n        /* \"#utility.yul\":6002:6133   */\n      tag_152\n      jump\t// in\n    tag_240:\n        /* \"#utility.yul\":5994:6133   */\n      swap1\n      pop\n        /* \"#utility.yul\":5721:6140   */\n      swap2\n      swap1\n      pop\n      jump\t// out\n        /* \"#utility.yul\":6146:6314   */\n    tag_153:\n        /* \"#utility.yul\":6286:6306   */\n      0x54617267657420697320726561636865642e0000000000000000000000000000\n        /* \"#utility.yul\":6282:6283   */\n      0x00\n        /* \"#utility.yul\":6274:6280   */\n      dup3\n        /* \"#utility.yul\":6270:6284   */\n      add\n        /* \"#utility.yul\":6263:6307   */\n      mstore\n        /* \"#utility.yul\":6146:6314   */\n      pop\n      jump\t// out\n        /* \"#utility.yul\":6320:6686   */\n    tag_154:\n        /* \"#utility.yul\":6462:6465   */\n      0x00\n        /* \"#utility.yul\":6483:6550   */\n      tag_243\n        /* \"#utility.yul\":6547:6549   */\n      0x12\n        /* \"#utility.yul\":6542:6545   */\n      dup4\n        /* \"#utility.yul\":6483:6550   */\n      tag_147\n      jump\t// in\n    tag_243:\n        /* \"#utility.yul\":6476:6550   */\n      swap2\n      pop\n        /* \"#utility.yul\":6559:6652   */\n      tag_244\n        /* \"#utility.yul\":6648:6651   */\n      dup3\n        /* \"#utility.yul\":6559:6652   */\n      tag_153\n      jump\t// in\n    tag_244:\n        /* \"#utility.yul\":6677:6679   */\n      0x20\n        /* \"#utility.yul\":6672:6675   */\n      dup3\n        /* \"#utility.yul\":6668:6680   */\n      add\n        /* \"#utility.yul\":6661:6680   */\n      swap1\n      pop\n        /* \"#utility.yul\":6320:6686   */\n      swap2\n      swap1\n      pop\n      jump\t// out\n        /* \"#utility.yul\":6692:7111   */\n    tag_72:\n        /* \"#utility.yul\":6858:6862   */\n      0x00\n        /* \"#utility.yul\":6896:6898   */\n      0x20\n        /* \"#utility.yul\":6885:6894   */\n      dup3\n        /* \"#utility.yul\":6881:6899   */\n      add\n        /* \"#utility.yul\":6873:6899   */\n      swap1\n      pop\n        /* \"#utility.yul\":6945:6954   */\n      dup2\n        /* \"#utility.yul\":6939:6943   */\n      dup2\n        /* \"#utility.yul\":6935:6955   */\n      sub\n        /* \"#utility.yul\":6931:6932   */\n      0x00\n        /* \"#utility.yul\":6920:6929   */\n      dup4\n        /* \"#utility.yul\":6916:6933   */\n      add\n        /* \"#utility.yul\":6909:6956   */\n      mstore\n        /* \"#utility.yul\":6973:7104   */\n      tag_246\n        /* \"#utility.yul\":7099:7103   */\n      dup2\n        /* \"#utility.yul\":6973:7104   */\n      tag_154\n      jump\t// in\n    tag_246:\n        /* \"#utility.yul\":6965:7104   */\n      swap1\n      pop\n        /* \"#utility.yul\":6692:7111   */\n      swap2\n      swap1\n      pop\n      jump\t// out\n        /* \"#utility.yul\":7117:7293   */\n    tag_155:\n        /* \"#utility.yul\":7257:7285   */\n      0x5468657265206973206e6f2066756e647320666f7220796f752e000000000000\n        /* \"#utility.yul\":7253:7254   */\n      0x00\n        /* \"#utility.yul\":7245:7251   */\n      dup3\n        /* \"#utility.yul\":7241:7255   */\n      add\n        /* \"#utility.yul\":7234:7286   */\n      mstore\n        /* \"#utility.yul\":7117:7293   */\n      pop\n      jump\t// out\n        /* \"#utility.yul\":7299:7665   */\n    tag_156:\n        /* \"#utility.yul\":7441:7444   */\n      0x00\n        /* \"#utility.yul\":7462:7529   */\n      tag_249\n        /* \"#utility.yul\":7526:7528   */\n      0x1a\n        /* \"#utility.yul\":7521:7524   */\n      dup4\n        /* \"#utility.yul\":7462:7529   */\n      tag_147\n      jump\t// in\n    tag_249:\n        /* \"#utility.yul\":7455:7529   */\n      swap2\n      pop\n        /* \"#utility.yul\":7538:7631   */\n      tag_250\n        /* \"#utility.yul\":7627:7630   */\n      dup3\n        /* \"#utility.yul\":7538:7631   */\n      tag_155\n      jump\t// in\n    tag_250:\n        /* \"#utility.yul\":7656:7658   */\n      0x20\n        /* \"#utility.yul\":7651:7654   */\n      dup3\n        /* \"#utility.yul\":7647:7659   */\n      add\n        /* \"#utility.yul\":7640:7659   */\n      swap1\n      pop\n        /* \"#utility.yul\":7299:7665   */\n      swap2\n      swap1\n      pop\n      jump\t// out\n        /* \"#utility.yul\":7671:8090   */\n    tag_75:\n        /* \"#utility.yul\":7837:7841   */\n      0x00\n        /* \"#utility.yul\":7875:7877   */\n      0x20\n        /* \"#utility.yul\":7864:7873   */\n      dup3\n        /* \"#utility.yul\":7860:7878   */\n      add\n        /* \"#utility.yul\":7852:7878   */\n      swap1\n      pop\n        /* \"#utility.yul\":7924:7933   */\n      dup2\n        /* \"#utility.yul\":7918:7922   */\n      dup2\n        /* \"#utility.yul\":7914:7934   */\n      sub\n        /* \"#utility.yul\":7910:7911   */\n      0x00\n        /* \"#utility.yul\":7899:7908   */\n      dup4\n        /* \"#utility.yul\":7895:7912   */\n      add\n        /* \"#utility.yul\":7888:7935   */\n      mstore\n        /* \"#utility.yul\":7952:8083   */\n      tag_252\n        /* \"#utility.yul\":8078:8082   */\n      dup2\n        /* \"#utility.yul\":7952:8083   */\n      tag_156\n      jump\t// in\n    tag_252:\n        /* \"#utility.yul\":7944:8083   */\n      swap1\n      pop\n        /* \"#utility.yul\":7671:8090   */\n      swap2\n      swap1\n      pop\n      jump\t// out\n        /* \"#utility.yul\":8096:8243   */\n    tag_157:\n        /* \"#utility.yul\":8197:8208   */\n      0x00\n        /* \"#utility.yul\":8234:8237   */\n      dup2\n        /* \"#utility.yul\":8219:8237   */\n      swap1\n      pop\n        /* \"#utility.yul\":8096:8243   */\n      swap3\n      swap2\n      pop\n      pop\n      jump\t// out\n        /* \"#utility.yul\":8249:8363   */\n    tag_158:\n      pop\n      jump\t// out\n        /* \"#utility.yul\":8369:8767   */\n    tag_159:\n        /* \"#utility.yul\":8528:8531   */\n      0x00\n        /* \"#utility.yul\":8549:8632   */\n      tag_256\n        /* \"#utility.yul\":8630:8631   */\n      0x00\n        /* \"#utility.yul\":8625:8628   */\n      dup4\n        /* \"#utility.yul\":8549:8632   */\n      tag_157\n      jump\t// in\n    tag_256:\n        /* \"#utility.yul\":8542:8632   */\n      swap2\n      pop\n        /* \"#utility.yul\":8641:8734   */\n      tag_257\n        /* \"#utility.yul\":8730:8733   */\n      dup3\n        /* \"#utility.yul\":8641:8734   */\n      tag_158\n      jump\t// in\n    tag_257:\n        /* \"#utility.yul\":8759:8760   */\n      0x00\n        /* \"#utility.yul\":8754:8757   */\n      dup3\n        /* \"#utility.yul\":8750:8761   */\n      add\n        /* \"#utility.yul\":8743:8761   */\n      swap1\n      pop\n        /* \"#utility.yul\":8369:8767   */\n      swap2\n      swap1\n      pop\n      jump\t// out\n        /* \"#utility.yul\":8773:9152   */\n    tag_77:\n        /* \"#utility.yul\":8957:8960   */\n      0x00\n        /* \"#utility.yul\":8979:9126   */\n      tag_259\n        /* \"#utility.yul\":9122:9125   */\n      dup3\n        /* \"#utility.yul\":8979:9126   */\n      tag_159\n      jump\t// in\n    tag_259:\n        /* \"#utility.yul\":8972:9126   */\n      swap2\n      pop\n        /* \"#utility.yul\":9143:9146   */\n      dup2\n        /* \"#utility.yul\":9136:9146   */\n      swap1\n      pop\n        /* \"#utility.yul\":8773:9152   */\n      swap2\n      swap1\n      pop\n      jump\t// out\n        /* \"#utility.yul\":9158:9327   */\n    tag_160:\n        /* \"#utility.yul\":9298:9319   */\n      0x5472616e73666572207478206661696c65642e00000000000000000000000000\n        /* \"#utility.yul\":9294:9295   */\n      0x00\n        /* \"#utility.yul\":9286:9292   */\n      dup3\n        /* \"#utility.yul\":9282:9296   */\n      add\n        /* \"#utility.yul\":9275:9320   */\n      mstore\n        /* \"#utility.yul\":9158:9327   */\n      pop\n      jump\t// out\n        /* \"#utility.yul\":9333:9699   */\n    tag_161:\n        /* \"#utility.yul\":9475:9478   */\n      0x00\n        /* \"#utility.yul\":9496:9563   */\n      tag_262\n        /* \"#utility.yul\":9560:9562   */\n      0x13\n        /* \"#utility.yul\":9555:9558   */\n      dup4\n        /* \"#utility.yul\":9496:9563   */\n      tag_147\n      jump\t// in\n    tag_262:\n        /* \"#utility.yul\":9489:9563   */\n      swap2\n      pop\n        /* \"#utility.yul\":9572:9665   */\n      tag_263\n        /* \"#utility.yul\":9661:9664   */\n      dup3\n        /* \"#utility.yul\":9572:9665   */\n      tag_160\n      jump\t// in\n    tag_263:\n        /* \"#utility.yul\":9690:9692   */\n      0x20\n        /* \"#utility.yul\":9685:9688   */\n      dup3\n        /* \"#utility.yul\":9681:9693   */\n      add\n        /* \"#utility.yul\":9674:9693   */\n      swap1\n      pop\n        /* \"#utility.yul\":9333:9699   */\n      swap2\n      swap1\n      pop\n      jump\t// out\n        /* \"#utility.yul\":9705:10124   */\n    tag_83:\n        /* \"#utility.yul\":9871:9875   */\n      0x00\n        /* \"#utility.yul\":9909:9911   */\n      0x20\n        /* \"#utility.yul\":9898:9907   */\n      dup3\n        /* \"#utility.yul\":9894:9912   */\n      add\n        /* \"#utility.yul\":9886:9912   */\n      swap1\n      pop\n        /* \"#utility.yul\":9958:9967   */\n      dup2\n        /* \"#utility.yul\":9952:9956   */\n      dup2\n        /* \"#utility.yul\":9948:9968   */\n      sub\n        /* \"#utility.yul\":9944:9945   */\n      0x00\n        /* \"#utility.yul\":9933:9942   */\n      dup4\n        /* \"#utility.yul\":9929:9946   */\n      add\n        /* \"#utility.yul\":9922:9969   */\n      mstore\n        /* \"#utility.yul\":9986:10117   */\n      tag_265\n        /* \"#utility.yul\":10112:10116   */\n      dup2\n        /* \"#utility.yul\":9986:10117   */\n      tag_161\n      jump\t// in\n    tag_265:\n        /* \"#utility.yul\":9978:10117   */\n      swap1\n      pop\n        /* \"#utility.yul\":9705:10124   */\n      swap2\n      swap1\n      pop\n      jump\t// out\n        /* \"#utility.yul\":10130:10302   */\n    tag_162:\n        /* \"#utility.yul\":10270:10294   */\n      0x546172676574206973206e6f7420726561636865642e00000000000000000000\n        /* \"#utility.yul\":10266:10267   */\n      0x00\n        /* \"#utility.yul\":10258:10264   */\n      dup3\n        /* \"#utility.yul\":10254:10268   */\n      add\n        /* \"#utility.yul\":10247:10295   */\n      mstore\n        /* \"#utility.yul\":10130:10302   */\n      pop\n      jump\t// out\n        /* \"#utility.yul\":10308:10674   */\n    tag_163:\n        /* \"#utility.yul\":10450:10453   */\n      0x00\n        /* \"#utility.yul\":10471:10538   */\n      tag_268\n        /* \"#utility.yul\":10535:10537   */\n      0x16\n        /* \"#utility.yul\":10530:10533   */\n      dup4\n        /* \"#utility.yul\":10471:10538   */\n      tag_147\n      jump\t// in\n    tag_268:\n        /* \"#utility.yul\":10464:10538   */\n      swap2\n      pop\n        /* \"#utility.yul\":10547:10640   */\n      tag_269\n        /* \"#utility.yul\":10636:10639   */\n      dup3\n        /* \"#utility.yul\":10547:10640   */\n      tag_162\n      jump\t// in\n    tag_269:\n        /* \"#utility.yul\":10665:10667   */\n      0x20\n        /* \"#utility.yul\":10660:10663   */\n      dup3\n        /* \"#utility.yul\":10656:10668   */\n      add\n        /* \"#utility.yul\":10649:10668   */\n      swap1\n      pop\n        /* \"#utility.yul\":10308:10674   */\n      swap2\n      swap1\n      pop\n      jump\t// out\n        /* \"#utility.yul\":10680:11099   */\n    tag_95:\n        /* \"#utility.yul\":10846:10850   */\n      0x00\n        /* \"#utility.yul\":10884:10886   */\n      0x20\n        /* \"#utility.yul\":10873:10882   */\n      dup3\n        /* \"#utility.yul\":10869:10887   */\n      add\n        /* \"#utility.yul\":10861:10887   */\n      swap1\n      pop\n        /* \"#utility.yul\":10933:10942   */\n      dup2\n        /* \"#utility.yul\":10927:10931   */\n      dup2\n        /* \"#utility.yul\":10923:10943   */\n      sub\n        /* \"#utility.yul\":10919:10920   */\n      0x00\n        /* \"#utility.yul\":10908:10917   */\n      dup4\n        /* \"#utility.yul\":10904:10921   */\n      add\n        /* \"#utility.yul\":10897:10944   */\n      mstore\n        /* \"#utility.yul\":10961:11092   */\n      tag_271\n        /* \"#utility.yul\":11087:11091   */\n      dup2\n        /* \"#utility.yul\":10961:11092   */\n      tag_163\n      jump\t// in\n    tag_271:\n        /* \"#utility.yul\":10953:11092   */\n      swap1\n      pop\n        /* \"#utility.yul\":10680:11099   */\n      swap2\n      swap1\n      pop\n      jump\t// out\n        /* \"#utility.yul\":11105:11281   */\n    tag_164:\n        /* \"#utility.yul\":11245:11273   */\n      0x4f6e6c79206572633230416464722063616e207570646174652e000000000000\n        /* \"#utility.yul\":11241:11242   */\n      0x00\n        /* \"#utility.yul\":11233:11239   */\n      dup3\n        /* \"#utility.yul\":11229:11243   */\n      add\n        /* \"#utility.yul\":11222:11274   */\n      mstore\n        /* \"#utility.yul\":11105:11281   */\n      pop\n      jump\t// out\n        /* \"#utility.yul\":11287:11653   */\n    tag_165:\n        /* \"#utility.yul\":11429:11432   */\n      0x00\n        /* \"#utility.yul\":11450:11517   */\n      tag_274\n        /* \"#utility.yul\":11514:11516   */\n      0x1a\n        /* \"#utility.yul\":11509:11512   */\n      dup4\n        /* \"#utility.yul\":11450:11517   */\n      tag_147\n      jump\t// in\n    tag_274:\n        /* \"#utility.yul\":11443:11517   */\n      swap2\n      pop\n        /* \"#utility.yul\":11526:11619   */\n      tag_275\n        /* \"#utility.yul\":11615:11618   */\n      dup3\n        /* \"#utility.yul\":11526:11619   */\n      tag_164\n      jump\t// in\n    tag_275:\n        /* \"#utility.yul\":11644:11646   */\n      0x20\n        /* \"#utility.yul\":11639:11642   */\n      dup3\n        /* \"#utility.yul\":11635:11647   */\n      add\n        /* \"#utility.yul\":11628:11647   */\n      swap1\n      pop\n        /* \"#utility.yul\":11287:11653   */\n      swap2\n      swap1\n      pop\n      jump\t// out\n        /* \"#utility.yul\":11659:12078   */\n    tag_105:\n        /* \"#utility.yul\":11825:11829   */\n      0x00\n        /* \"#utility.yul\":11863:11865   */\n      0x20\n        /* \"#utility.yul\":11852:11861   */\n      dup3\n        /* \"#utility.yul\":11848:11866   */\n      add\n        /* \"#utility.yul\":11840:11866   */\n      swap1\n      pop\n        /* \"#utility.yul\":11912:11921   */\n      dup2\n        /* \"#utility.yul\":11906:11910   */\n      dup2\n        /* \"#utility.yul\":11902:11922   */\n      sub\n        /* \"#utility.yul\":11898:11899   */\n      0x00\n        /* \"#utility.yul\":11887:11896   */\n      dup4\n        /* \"#utility.yul\":11883:11900   */\n      add\n        /* \"#utility.yul\":11876:11923   */\n      mstore\n        /* \"#utility.yul\":11940:12071   */\n      tag_277\n        /* \"#utility.yul\":12066:12070   */\n      dup2\n        /* \"#utility.yul\":11940:12071   */\n      tag_165\n      jump\t// in\n    tag_277:\n        /* \"#utility.yul\":11932:12071   */\n      swap1\n      pop\n        /* \"#utility.yul\":11659:12078   */\n      swap2\n      swap1\n      pop\n      jump\t// out\n        /* \"#utility.yul\":12084:12251   */\n    tag_166:\n        /* \"#utility.yul\":12224:12243   */\n      0x56616c756520697320746f6f206c6f7721000000000000000000000000000000\n        /* \"#utility.yul\":12220:12221   */\n      0x00\n        /* \"#utility.yul\":12212:12218   */\n      dup3\n        /* \"#utility.yul\":12208:12222   */\n      add\n        /* \"#utility.yul\":12201:12244   */\n      mstore\n        /* \"#utility.yul\":12084:12251   */\n      pop\n      jump\t// out\n        /* \"#utility.yul\":12257:12623   */\n    tag_167:\n        /* \"#utility.yul\":12399:12402   */\n      0x00\n        /* \"#utility.yul\":12420:12487   */\n      tag_280\n        /* \"#utility.yul\":12484:12486   */\n      0x11\n        /* \"#utility.yul\":12479:12482   */\n      dup4\n        /* \"#utility.yul\":12420:12487   */\n      tag_147\n      jump\t// in\n    tag_280:\n        /* \"#utility.yul\":12413:12487   */\n      swap2\n      pop\n        /* \"#utility.yul\":12496:12589   */\n      tag_281\n        /* \"#utility.yul\":12585:12588   */\n      dup3\n        /* \"#utility.yul\":12496:12589   */\n      tag_166\n      jump\t// in\n    tag_281:\n        /* \"#utility.yul\":12614:12616   */\n      0x20\n        /* \"#utility.yul\":12609:12612   */\n      dup3\n        /* \"#utility.yul\":12605:12617   */\n      add\n        /* \"#utility.yul\":12598:12617   */\n      swap1\n      pop\n        /* \"#utility.yul\":12257:12623   */\n      swap2\n      swap1\n      pop\n      jump\t// out\n        /* \"#utility.yul\":12629:13048   */\n    tag_110:\n        /* \"#utility.yul\":12795:12799   */\n      0x00\n        /* \"#utility.yul\":12833:12835   */\n      0x20\n        /* \"#utility.yul\":12822:12831   */\n      dup3\n        /* \"#utility.yul\":12818:12836   */\n      add\n        /* \"#utility.yul\":12810:12836   */\n      swap1\n      pop\n        /* \"#utility.yul\":12882:12891   */\n      dup2\n        /* \"#utility.yul\":12876:12880   */\n      dup2\n        /* \"#utility.yul\":12872:12892   */\n      sub\n        /* \"#utility.yul\":12868:12869   */\n      0x00\n        /* \"#utility.yul\":12857:12866   */\n      dup4\n        /* \"#utility.yul\":12853:12870   */\n      add\n        /* \"#utility.yul\":12846:12893   */\n      mstore\n        /* \"#utility.yul\":12910:13041   */\n      tag_283\n        /* \"#utility.yul\":13036:13040   */\n      dup2\n        /* \"#utility.yul\":12910:13041   */\n      tag_167\n      jump\t// in\n    tag_283:\n        /* \"#utility.yul\":12902:13041   */\n      swap1\n      pop\n        /* \"#utility.yul\":12629:13048   */\n      swap2\n      swap1\n      pop\n      jump\t// out\n        /* \"#utility.yul\":13054:13221   */\n    tag_168:\n        /* \"#utility.yul\":13194:13213   */\n      0x57696e646f7720697320636c6f7365642e000000000000000000000000000000\n        /* \"#utility.yul\":13190:13191   */\n      0x00\n        /* \"#utility.yul\":13182:13188   */\n      dup3\n        /* \"#utility.yul\":13178:13192   */\n      add\n        /* \"#utility.yul\":13171:13214   */\n      mstore\n        /* \"#utility.yul\":13054:13221   */\n      pop\n      jump\t// out\n        /* \"#utility.yul\":13227:13593   */\n    tag_169:\n        /* \"#utility.yul\":13369:13372   */\n      0x00\n        /* \"#utility.yul\":13390:13457   */\n      tag_286\n        /* \"#utility.yul\":13454:13456   */\n      0x11\n        /* \"#utility.yul\":13449:13452   */\n      dup4\n        /* \"#utility.yul\":13390:13457   */\n      tag_147\n      jump\t// in\n    tag_286:\n        /* \"#utility.yul\":13383:13457   */\n      swap2\n      pop\n        /* \"#utility.yul\":13466:13559   */\n      tag_287\n        /* \"#utility.yul\":13555:13558   */\n      dup3\n        /* \"#utility.yul\":13466:13559   */\n      tag_168\n      jump\t// in\n    tag_287:\n        /* \"#utility.yul\":13584:13586   */\n      0x20\n        /* \"#utility.yul\":13579:13582   */\n      dup3\n        /* \"#utility.yul\":13575:13587   */\n      add\n        /* \"#utility.yul\":13568:13587   */\n      swap1\n      pop\n        /* \"#utility.yul\":13227:13593   */\n      swap2\n      swap1\n      pop\n      jump\t// out\n        /* \"#utility.yul\":13599:14018   */\n    tag_114:\n        /* \"#utility.yul\":13765:13769   */\n      0x00\n        /* \"#utility.yul\":13803:13805   */\n      0x20\n        /* \"#utility.yul\":13792:13801   */\n      dup3\n        /* \"#utility.yul\":13788:13806   */\n      add\n        /* \"#utility.yul\":13780:13806   */\n      swap1\n      pop\n        /* \"#utility.yul\":13852:13861   */\n      dup2\n        /* \"#utility.yul\":13846:13850   */\n      dup2\n        /* \"#utility.yul\":13842:13862   */\n      sub\n        /* \"#utility.yul\":13838:13839   */\n      0x00\n        /* \"#utility.yul\":13827:13836   */\n      dup4\n        /* \"#utility.yul\":13823:13840   */\n      add\n        /* \"#utility.yul\":13816:13863   */\n      mstore\n        /* \"#utility.yul\":13880:14011   */\n      tag_289\n        /* \"#utility.yul\":14006:14010   */\n      dup2\n        /* \"#utility.yul\":13880:14011   */\n      tag_169\n      jump\t// in\n    tag_289:\n        /* \"#utility.yul\":13872:14011   */\n      swap1\n      pop\n        /* \"#utility.yul\":13599:14018   */\n      swap2\n      swap1\n      pop\n      jump\t// out\n        /* \"#utility.yul\":14024:14129   */\n    tag_170:\n        /* \"#utility.yul\":14060:14067   */\n      0x00\n        /* \"#utility.yul\":14100:14122   */\n      0xffffffffffffffffffff\n        /* \"#utility.yul\":14093:14098   */\n      dup3\n        /* \"#utility.yul\":14089:14123   */\n      and\n        /* \"#utility.yul\":14078:14123   */\n      swap1\n      pop\n        /* \"#utility.yul\":14024:14129   */\n      swap2\n      swap1\n      pop\n      jump\t// out\n        /* \"#utility.yul\":14135:14255   */\n    tag_171:\n        /* \"#utility.yul\":14207:14230   */\n      tag_292\n        /* \"#utility.yul\":14224:14229   */\n      dup2\n        /* \"#utility.yul\":14207:14230   */\n      tag_170\n      jump\t// in\n    tag_292:\n        /* \"#utility.yul\":14200:14205   */\n      dup2\n        /* \"#utility.yul\":14197:14231   */\n      eq\n        /* \"#utility.yul\":14187:14249   */\n      tag_293\n      jumpi\n        /* \"#utility.yul\":14245:14246   */\n      0x00\n        /* \"#utility.yul\":14242:14243   */\n      dup1\n        /* \"#utility.yul\":14235:14247   */\n      revert\n        /* \"#utility.yul\":14187:14249   */\n    tag_293:\n        /* \"#utility.yul\":14135:14255   */\n      pop\n      jump\t// out\n        /* \"#utility.yul\":14261:14402   */\n    tag_172:\n        /* \"#utility.yul\":14317:14322   */\n      0x00\n        /* \"#utility.yul\":14348:14354   */\n      dup2\n        /* \"#utility.yul\":14342:14355   */\n      mload\n        /* \"#utility.yul\":14333:14355   */\n      swap1\n      pop\n        /* \"#utility.yul\":14364:14396   */\n      tag_295\n        /* \"#utility.yul\":14390:14395   */\n      dup2\n        /* \"#utility.yul\":14364:14396   */\n      tag_171\n      jump\t// in\n    tag_295:\n        /* \"#utility.yul\":14261:14402   */\n      swap3\n      swap2\n      pop\n      pop\n      jump\t// out\n        /* \"#utility.yul\":14408:14528   */\n    tag_173:\n        /* \"#utility.yul\":14480:14503   */\n      tag_297\n        /* \"#utility.yul\":14497:14502   */\n      dup2\n        /* \"#utility.yul\":14480:14503   */\n      tag_143\n      jump\t// in\n    tag_297:\n        /* \"#utility.yul\":14473:14478   */\n      dup2\n        /* \"#utility.yul\":14470:14504   */\n      eq\n        /* \"#utility.yul\":14460:14522   */\n      tag_298\n      jumpi\n        /* \"#utility.yul\":14518:14519   */\n      0x00\n        /* \"#utility.yul\":14515:14516   */\n      dup1\n        /* \"#utility.yul\":14508:14520   */\n      revert\n        /* \"#utility.yul\":14460:14522   */\n    tag_298:\n        /* \"#utility.yul\":14408:14528   */\n      pop\n      jump\t// out\n        /* \"#utility.yul\":14534:14675   */\n    tag_174:\n        /* \"#utility.yul\":14590:14595   */\n      0x00\n        /* \"#utility.yul\":14621:14627   */\n      dup2\n        /* \"#utility.yul\":14615:14628   */\n      mload\n        /* \"#utility.yul\":14606:14628   */\n      swap1\n      pop\n        /* \"#utility.yul\":14637:14669   */\n      tag_300\n        /* \"#utility.yul\":14663:14668   */\n      dup2\n        /* \"#utility.yul\":14637:14669   */\n      tag_173\n      jump\t// in\n    tag_300:\n        /* \"#utility.yul\":14534:14675   */\n      swap3\n      swap2\n      pop\n      pop\n      jump\t// out\n        /* \"#utility.yul\":14681:14824   */\n    tag_175:\n        /* \"#utility.yul\":14738:14743   */\n      0x00\n        /* \"#utility.yul\":14769:14775   */\n      dup2\n        /* \"#utility.yul\":14763:14776   */\n      mload\n        /* \"#utility.yul\":14754:14776   */\n      swap1\n      pop\n        /* \"#utility.yul\":14785:14818   */\n      tag_302\n        /* \"#utility.yul\":14812:14817   */\n      dup2\n        /* \"#utility.yul\":14785:14818   */\n      tag_140\n      jump\t// in\n    tag_302:\n        /* \"#utility.yul\":14681:14824   */\n      swap3\n      swap2\n      pop\n      pop\n      jump\t// out\n        /* \"#utility.yul\":14830:15801   */\n    tag_120:\n        /* \"#utility.yul\":14933:14939   */\n      0x00\n        /* \"#utility.yul\":14941:14947   */\n      dup1\n        /* \"#utility.yul\":14949:14955   */\n      0x00\n        /* \"#utility.yul\":14957:14963   */\n      dup1\n        /* \"#utility.yul\":14965:14971   */\n      0x00\n        /* \"#utility.yul\":15014:15017   */\n      0xa0\n        /* \"#utility.yul\":15002:15011   */\n      dup7\n        /* \"#utility.yul\":14993:15000   */\n      dup9\n        /* \"#utility.yul\":14989:15012   */\n      sub\n        /* \"#utility.yul\":14985:15018   */\n      slt\n        /* \"#utility.yul\":14982:15102   */\n      iszero\n      tag_304\n      jumpi\n        /* \"#utility.yul\":15021:15100   */\n      tag_305\n      tag_132\n      jump\t// in\n    tag_305:\n        /* \"#utility.yul\":14982:15102   */\n    tag_304:\n        /* \"#utility.yul\":15141:15142   */\n      0x00\n        /* \"#utility.yul\":15166:15229   */\n      tag_306\n        /* \"#utility.yul\":15221:15228   */\n      dup9\n        /* \"#utility.yul\":15212:15218   */\n      dup3\n        /* \"#utility.yul\":15201:15210   */\n      dup10\n        /* \"#utility.yul\":15197:15219   */\n      add\n        /* \"#utility.yul\":15166:15229   */\n      tag_172\n      jump\t// in\n    tag_306:\n        /* \"#utility.yul\":15156:15229   */\n      swap6\n      pop\n        /* \"#utility.yul\":15112:15239   */\n      pop\n        /* \"#utility.yul\":15278:15280   */\n      0x20\n        /* \"#utility.yul\":15304:15367   */\n      tag_307\n        /* \"#utility.yul\":15359:15366   */\n      dup9\n        /* \"#utility.yul\":15350:15356   */\n      dup3\n        /* \"#utility.yul\":15339:15348   */\n      dup10\n        /* \"#utility.yul\":15335:15357   */\n      add\n        /* \"#utility.yul\":15304:15367   */\n      tag_174\n      jump\t// in\n    tag_307:\n        /* \"#utility.yul\":15294:15367   */\n      swap5\n      pop\n        /* \"#utility.yul\":15249:15377   */\n      pop\n        /* \"#utility.yul\":15416:15418   */\n      0x40\n        /* \"#utility.yul\":15442:15506   */\n      tag_308\n        /* \"#utility.yul\":15498:15505   */\n      dup9\n        /* \"#utility.yul\":15489:15495   */\n      dup3\n        /* \"#utility.yul\":15478:15487   */\n      dup10\n        /* \"#utility.yul\":15474:15496   */\n      add\n        /* \"#utility.yul\":15442:15506   */\n      tag_175\n      jump\t// in\n    tag_308:\n        /* \"#utility.yul\":15432:15506   */\n      swap4\n      pop\n        /* \"#utility.yul\":15387:15516   */\n      pop\n        /* \"#utility.yul\":15555:15557   */\n      0x60\n        /* \"#utility.yul\":15581:15645   */\n      tag_309\n        /* \"#utility.yul\":15637:15644   */\n      dup9\n        /* \"#utility.yul\":15628:15634   */\n      dup3\n        /* \"#utility.yul\":15617:15626   */\n      dup10\n        /* \"#utility.yul\":15613:15635   */\n      add\n        /* \"#utility.yul\":15581:15645   */\n      tag_175\n      jump\t// in\n    tag_309:\n        /* \"#utility.yul\":15571:15645   */\n      swap3\n      pop\n        /* \"#utility.yul\":15526:15655   */\n      pop\n        /* \"#utility.yul\":15694:15697   */\n      0x80\n        /* \"#utility.yul\":15721:15784   */\n      tag_310\n        /* \"#utility.yul\":15776:15783   */\n      dup9\n        /* \"#utility.yul\":15767:15773   */\n      dup3\n        /* \"#utility.yul\":15756:15765   */\n      dup10\n        /* \"#utility.yul\":15752:15774   */\n      add\n        /* \"#utility.yul\":15721:15784   */\n      tag_172\n      jump\t// in\n    tag_310:\n        /* \"#utility.yul\":15711:15784   */\n      swap2\n      pop\n        /* \"#utility.yul\":15665:15794   */\n      pop\n        /* \"#utility.yul\":14830:15801   */\n      swap3\n      swap6\n      pop\n      swap3\n      swap6\n      swap1\n      swap4\n      pop\n      jump\t// out\n        /* \"#utility.yul\":15807:16217   */\n    tag_128:\n        /* \"#utility.yul\":15847:15854   */\n      0x00\n        /* \"#utility.yul\":15870:15890   */\n      tag_312\n        /* \"#utility.yul\":15888:15889   */\n      dup3\n        /* \"#utility.yul\":15870:15890   */\n      tag_139\n      jump\t// in\n    tag_312:\n        /* \"#utility.yul\":15865:15890   */\n      swap2\n      pop\n        /* \"#utility.yul\":15904:15924   */\n      tag_313\n        /* \"#utility.yul\":15922:15923   */\n      dup4\n        /* \"#utility.yul\":15904:15924   */\n      tag_139\n      jump\t// in\n    tag_313:\n        /* \"#utility.yul\":15899:15924   */\n      swap3\n      pop\n        /* \"#utility.yul\":15959:15960   */\n      dup3\n        /* \"#utility.yul\":15956:15957   */\n      dup3\n        /* \"#utility.yul\":15952:15961   */\n      mul\n        /* \"#utility.yul\":15981:16011   */\n      tag_314\n        /* \"#utility.yul\":15999:16010   */\n      dup2\n        /* \"#utility.yul\":15981:16011   */\n      tag_139\n      jump\t// in\n    tag_314:\n        /* \"#utility.yul\":15970:16011   */\n      swap2\n      pop\n        /* \"#utility.yul\":16160:16161   */\n      dup3\n        /* \"#utility.yul\":16151:16158   */\n      dup3\n        /* \"#utility.yul\":16147:16162   */\n      div\n        /* \"#utility.yul\":16144:16145   */\n      dup5\n        /* \"#utility.yul\":16141:16163   */\n      eq\n        /* \"#utility.yul\":16121:16122   */\n      dup4\n        /* \"#utility.yul\":16114:16123   */\n      iszero\n        /* \"#utility.yul\":16094:16177   */\n      or\n        /* \"#utility.yul\":16071:16210   */\n      tag_315\n      jumpi\n        /* \"#utility.yul\":16190:16208   */\n      tag_316\n      tag_150\n      jump\t// in\n    tag_316:\n        /* \"#utility.yul\":16071:16210   */\n    tag_315:\n        /* \"#utility.yul\":15855:16217   */\n      pop\n        /* \"#utility.yul\":15807:16217   */\n      swap3\n      swap2\n      pop\n      pop\n      jump\t// out\n        /* \"#utility.yul\":16223:16403   */\n    tag_176:\n        /* \"#utility.yul\":16271:16348   */\n      0x4e487b7100000000000000000000000000000000000000000000000000000000\n        /* \"#utility.yul\":16268:16269   */\n      0x00\n        /* \"#utility.yul\":16261:16349   */\n      mstore\n        /* \"#utility.yul\":16368:16372   */\n      0x12\n        /* \"#utility.yul\":16365:16366   */\n      0x04\n        /* \"#utility.yul\":16358:16373   */\n      mstore\n        /* \"#utility.yul\":16392:16396   */\n      0x24\n        /* \"#utility.yul\":16389:16390   */\n      0x00\n        /* \"#utility.yul\":16382:16397   */\n      revert\n        /* \"#utility.yul\":16409:16594   */\n    tag_130:\n        /* \"#utility.yul\":16449:16450   */\n      0x00\n        /* \"#utility.yul\":16466:16486   */\n      tag_319\n        /* \"#utility.yul\":16484:16485   */\n      dup3\n        /* \"#utility.yul\":16466:16486   */\n      tag_139\n      jump\t// in\n    tag_319:\n        /* \"#utility.yul\":16461:16486   */\n      swap2\n      pop\n        /* \"#utility.yul\":16500:16520   */\n      tag_320\n        /* \"#utility.yul\":16518:16519   */\n      dup4\n        /* \"#utility.yul\":16500:16520   */\n      tag_139\n      jump\t// in\n    tag_320:\n        /* \"#utility.yul\":16495:16520   */\n      swap3\n      pop\n        /* \"#utility.yul\":16539:16540   */\n      dup3\n        /* \"#utility.yul\":16529:16564   */\n      tag_321\n      jumpi\n        /* \"#utility.yul\":16544:16562   */\n      tag_322\n      tag_176\n      jump\t// in\n    tag_322:\n        /* \"#utility.yul\":16529:16564   */\n    tag_321:\n        /* \"#utility.yul\":16586:16587   */\n      dup3\n        /* \"#utility.yul\":16583:16584   */\n      dup3\n        /* \"#utility.yul\":16579:16588   */\n      div\n        /* \"#utility.yul\":16574:16588   */\n      swap1\n      pop\n        /* \"#utility.yul\":16409:16594   */\n      swap3\n      swap2\n      pop\n      pop\n      jump\t// out\n\n    auxdata: 0xa2646970667358221220201c16e3ccb48d3c439f585a5b2e963f8fbf99dfa2e88ef9309106e6ac9c860064736f6c63430008180033\n}\n",
				"bytecode": {
					"linkReferences": {},
					"object": "60806040525f600560146101000a81548160ff0219169083151502179055503480156200002a575f80fd5b50604051620014b4380380620014b4833981810160405281019062000050919062000135565b73694aa1769357215de4fac081bf1f309adc32530660015f6101000a81548173ffffffffffffffffffffffffffffffffffffffff021916908373ffffffffffffffffffffffffffffffffffffffff1602179055503360025f6101000a81548173ffffffffffffffffffffffffffffffffffffffff021916908373ffffffffffffffffffffffffffffffffffffffff16021790555042600381905550806004819055505062000165565b5f80fd5b5f819050919050565b6200011181620000fd565b81146200011c575f80fd5b50565b5f815190506200012f8162000106565b92915050565b5f602082840312156200014d576200014c620000f9565b5b5f6200015c848285016200011f565b91505092915050565b61134180620001735f395ff3fe608060405260043610610090575f3560e01c806396b988621161005857806396b988621461013a578063b60d428814610176578063bea4dfb514610180578063da4658e0146101aa578063f2fde38b146101d457610090565b806313ffff0114610094578063590e1ae3146100bc5780638da5cb5b146100d25780638edd6eb6146100fc5780639505adc714610112575b5f80fd5b34801561009f575f80fd5b506100ba60048036038101906100b59190610baa565b6101fc565b005b3480156100c7575f80fd5b506100d06102ce565b005b3480156100dd575f80fd5b506100e661051a565b6040516100f39190610be4565b60405180910390f35b348015610107575f80fd5b5061011061053f565b005b34801561011d575f80fd5b5061013860048036038101906101339190610c30565b61077c565b005b348015610145575f80fd5b50610160600480360381019061015b9190610baa565b610850565b60405161016d9190610c7d565b60405180910390f35b61017e610864565b005b34801561018b575f80fd5b5061019461099b565b6040516101a19190610cae565b60405180910390f35b3480156101b5575f80fd5b506101be610a38565b6040516101cb9190610ce1565b60405180910390f35b3480156101df575f80fd5b506101fa60048036038101906101f59190610baa565b610a4b565b005b60025f9054906101000a900473ffffffffffffffffffffffffffffffffffffffff1673ffffffffffffffffffffffffffffffffffffffff163373ffffffffffffffffffffffffffffffffffffffff161461028b576040517f08c379a000000000000000000000000000000000000000000000000000000000815260040161028290610d7a565b60405180910390fd5b8060055f6101000a81548173ffffffffffffffffffffffffffffffffffffffff021916908373ffffffffffffffffffffffffffffffffffffffff16021790555050565b426004546003546102df9190610dc5565b1061031f576040517f08c379a000000000000000000000000000000000000000000000000000000000815260040161031690610e42565b60405180910390fd5b683635c9adc5dea0000061033247610b1d565b10610372576040517f08c379a000000000000000000000000000000000000000000000000000000000815260040161036990610eaa565b60405180910390fd5b5f805f3373ffffffffffffffffffffffffffffffffffffffff1673ffffffffffffffffffffffffffffffffffffffff1681526020019081526020015f2054036103f0576040517f08c379a00000000000000000000000000000000000000000000000000000000081526004016103e790610f12565b60405180910390fd5b5f3373ffffffffffffffffffffffffffffffffffffffff165f803373ffffffffffffffffffffffffffffffffffffffff1673ffffffffffffffffffffffffffffffffffffffff1681526020019081526020015f205460405161045190610f5d565b5f6040518083038185875af1925050503d805f811461048b576040519150601f19603f3d011682016040523d82523d5f602084013e610490565b606091505b505080915050806104d6576040517f08c379a00000000000000000000000000000000000000000000000000000000081526004016104cd90610fbb565b60405180910390fd5b5f805f3373ffffffffffffffffffffffffffffffffffffffff1673ffffffffffffffffffffffffffffffffffffffff1681526020019081526020015f208190555050565b60025f9054906101000a900473ffffffffffffffffffffffffffffffffffffffff1681565b60025f9054906101000a900473ffffffffffffffffffffffffffffffffffffffff1673ffffffffffffffffffffffffffffffffffffffff163373ffffffffffffffffffffffffffffffffffffffff16146105ce576040517f08c379a00000000000000000000000000000000000000000000000000000000081526004016105c590610d7a565b60405180910390fd5b426004546003546105df9190610dc5565b1061061f576040517f08c379a000000000000000000000000000000000000000000000000000000000815260040161061690610e42565b60405180910390fd5b683635c9adc5dea0000061063247610b1d565b1015610673576040517f08c379a000000000000000000000000000000000000000000000000000000000815260040161066a90611023565b60405180910390fd5b5f3373ffffffffffffffffffffffffffffffffffffffff164760405161069890610f5d565b5f6040518083038185875af1925050503d805f81146106d2576040519150601f19603f3d011682016040523d82523d5f602084013e6106d7565b606091505b5050809150508061071d576040517f08c379a000000000000000000000000000000000000000000000000000000000815260040161071490610fbb565b60405180910390fd5b5f805f3373ffffffffffffffffffffffffffffffffffffffff1673ffffffffffffffffffffffffffffffffffffffff1681526020019081526020015f20819055506001600560146101000a81548160ff02191690831515021790555050565b60055f9054906101000a900473ffffffffffffffffffffffffffffffffffffffff1673ffffffffffffffffffffffffffffffffffffffff163373ffffffffffffffffffffffffffffffffffffffff161461080b576040517f08c379a00000000000000000000000000000000000000000000000000000000081526004016108029061108b565b60405180910390fd5b805f808473ffffffffffffffffffffffffffffffffffffffff1673ffffffffffffffffffffffffffffffffffffffff1681526020019081526020015f20819055505050565b5f602052805f5260405f205f915090505481565b68056bc75e2d6310000061087734610b1d565b10156108b8576040517f08c379a00000000000000000000000000000000000000000000000000000000081526004016108af906110f3565b60405180910390fd5b426004546003546108c99190610dc5565b11610909576040517f08c379a00000000000000000000000000000000000000000000000000000000081526004016109009061115b565b60405180910390fd5b5f805f3373ffffffffffffffffffffffffffffffffffffffff1673ffffffffffffffffffffffffffffffffffffffff1681526020019081526020015f2054905034816109559190610dc5565b9050805f803373ffffffffffffffffffffffffffffffffffffffff1673ffffffffffffffffffffffffffffffffffffffff1681526020019081526020015f208190555050565b5f8060015f9054906101000a900473ffffffffffffffffffffffffffffffffffffffff1673ffffffffffffffffffffffffffffffffffffffff1663feaf968c6040518163ffffffff1660e01b815260040160a060405180830381865afa158015610a07573d5f803e3d5ffd5b505050506040513d601f19601f82011682018060405250810190610a2b91906111f6565b5050509150508091505090565b600560149054906101000a900460ff1681565b60025f9054906101000a900473ffffffffffffffffffffffffffffffffffffffff1673ffffffffffffffffffffffffffffffffffffffff163373ffffffffffffffffffffffffffffffffffffffff1614610ada576040517f08c379a0000000000000000000000000000000000000000000000000000000008152600401610ad190610d7a565b60405180910390fd5b8060025f6101000a81548173ffffffffffffffffffffffffffffffffffffffff021916908373ffffffffffffffffffffffffffffffffffffffff16021790555050565b5f80610b2761099b565b90506305f5e1008184610b3a919061126d565b610b4491906112db565b915050919050565b5f80fd5b5f73ffffffffffffffffffffffffffffffffffffffff82169050919050565b5f610b7982610b50565b9050919050565b610b8981610b6f565b8114610b93575f80fd5b50565b5f81359050610ba481610b80565b92915050565b5f60208284031215610bbf57610bbe610b4c565b5b5f610bcc84828501610b96565b91505092915050565b610bde81610b6f565b82525050565b5f602082019050610bf75f830184610bd5565b92915050565b5f819050919050565b610c0f81610bfd565b8114610c19575f80fd5b50565b5f81359050610c2a81610c06565b92915050565b5f8060408385031215610c4657610c45610b4c565b5b5f610c5385828601610b96565b9250506020610c6485828601610c1c565b9150509250929050565b610c7781610bfd565b82525050565b5f602082019050610c905f830184610c6e565b92915050565b5f819050919050565b610ca881610c96565b82525050565b5f602082019050610cc15f830184610c9f565b92915050565b5f8115159050919050565b610cdb81610cc7565b82525050565b5f602082019050610cf45f830184610cd2565b92915050565b5f82825260208201905092915050565b7f546869732066756e6374696f6e2063616e206f6e6c792062652063616c6c65645f8201527f206279207468652063757272656e74206f776e65722e00000000000000000000602082015250565b5f610d64603683610cfa565b9150610d6f82610d0a565b604082019050919050565b5f6020820190508181035f830152610d9181610d58565b9050919050565b7f4e487b71000000000000000000000000000000000000000000000000000000005f52601160045260245ffd5b5f610dcf82610bfd565b9150610dda83610bfd565b9250828201905080821115610df257610df1610d98565b5b92915050565b7f57696e646f77206973206e6f7420636c6f7365642e00000000000000000000005f82015250565b5f610e2c601583610cfa565b9150610e3782610df8565b602082019050919050565b5f6020820190508181035f830152610e5981610e20565b9050919050565b7f54617267657420697320726561636865642e00000000000000000000000000005f82015250565b5f610e94601283610cfa565b9150610e9f82610e60565b602082019050919050565b5f6020820190508181035f830152610ec181610e88565b9050919050565b7f5468657265206973206e6f2066756e647320666f7220796f752e0000000000005f82015250565b5f610efc601a83610cfa565b9150610f0782610ec8565b602082019050919050565b5f6020820190508181035f830152610f2981610ef0565b9050919050565b5f81905092915050565b50565b5f610f485f83610f30565b9150610f5382610f3a565b5f82019050919050565b5f610f6782610f3d565b9150819050919050565b7f5472616e73666572207478206661696c65642e000000000000000000000000005f82015250565b5f610fa5601383610cfa565b9150610fb082610f71565b602082019050919050565b5f6020820190508181035f830152610fd281610f99565b9050919050565b7f546172676574206973206e6f7420726561636865642e000000000000000000005f82015250565b5f61100d601683610cfa565b915061101882610fd9565b602082019050919050565b5f6020820190508181035f83015261103a81611001565b9050919050565b7f4f6e6c79206572633230416464722063616e207570646174652e0000000000005f82015250565b5f611075601a83610cfa565b915061108082611041565b602082019050919050565b5f6020820190508181035f8301526110a281611069565b9050919050565b7f56616c756520697320746f6f206c6f77210000000000000000000000000000005f82015250565b5f6110dd601183610cfa565b91506110e8826110a9565b602082019050919050565b5f6020820190508181035f83015261110a816110d1565b9050919050565b7f57696e646f7720697320636c6f7365642e0000000000000000000000000000005f82015250565b5f611145601183610cfa565b915061115082611111565b602082019050919050565b5f6020820190508181035f83015261117281611139565b9050919050565b5f69ffffffffffffffffffff82169050919050565b61119781611179565b81146111a1575f80fd5b50565b5f815190506111b28161118e565b92915050565b6111c181610c96565b81146111cb575f80fd5b50565b5f815190506111dc816111b8565b92915050565b5f815190506111f081610c06565b92915050565b5f805f805f60a0868803121561120f5761120e610b4c565b5b5f61121c888289016111a4565b955050602061122d888289016111ce565b945050604061123e888289016111e2565b935050606061124f888289016111e2565b9250506080611260888289016111a4565b9150509295509295909350565b5f61127782610bfd565b915061128283610bfd565b925082820261129081610bfd565b915082820484148315176112a7576112a6610d98565b5b5092915050565b7f4e487b71000000000000000000000000000000000000000000000000000000005f52601260045260245ffd5b5f6112e582610bfd565b91506112f083610bfd565b925082611300576112ff6112ae565b5b82820490509291505056fea2646970667358221220201c16e3ccb48d3c439f585a5b2e963f8fbf99dfa2e88ef9309106e6ac9c860064736f6c63430008180033",
					"opcodes": "PUSH1 0x80 PUSH1 0x40 MSTORE PUSH0 PUSH1 0x5 PUSH1 0x14 PUSH2 0x100 EXP DUP2 SLOAD DUP2 PUSH1 0xFF MUL NOT AND SWAP1 DUP4 ISZERO ISZERO MUL OR SWAP1 SSTORE POP CALLVALUE DUP1 ISZERO PUSH3 0x2A JUMPI PUSH0 DUP1 REVERT JUMPDEST POP PUSH1 0x40 MLOAD PUSH3 0x14B4 CODESIZE SUB DUP1 PUSH3 0x14B4 DUP4 CODECOPY DUP2 DUP2 ADD PUSH1 0x40 MSTORE DUP2 ADD SWAP1 PUSH3 0x50 SWAP2 SWAP1 PUSH3 0x135 JUMP JUMPDEST PUSH20 0x694AA1769357215DE4FAC081BF1F309ADC325306 PUSH1 0x1 PUSH0 PUSH2 0x100 EXP DUP2 SLOAD DUP2 PUSH20 0xFFFFFFFFFFFFFFFFFFFFFFFFFFFFFFFFFFFFFFFF MUL NOT AND SWAP1 DUP4 PUSH20 0xFFFFFFFFFFFFFFFFFFFFFFFFFFFFFFFFFFFFFFFF AND MUL OR SWAP1 SSTORE POP CALLER PUSH1 0x2 PUSH0 PUSH2 0x100 EXP DUP2 SLOAD DUP2 PUSH20 0xFFFFFFFFFFFFFFFFFFFFFFFFFFFFFFFFFFFFFFFF MUL NOT AND SWAP1 DUP4 PUSH20 0xFFFFFFFFFFFFFFFFFFFFFFFFFFFFFFFFFFFFFFFF AND MUL OR SWAP1 SSTORE POP TIMESTAMP PUSH1 0x3 DUP2 SWAP1 SSTORE POP DUP1 PUSH1 0x4 DUP2 SWAP1 SSTORE POP POP PUSH3 0x165 JUMP JUMPDEST PUSH0 DUP1 REVERT JUMPDEST PUSH0 DUP2 SWAP1 POP SWAP2 SWAP1 POP JUMP JUMPDEST PUSH3 0x111 DUP2 PUSH3 0xFD JUMP JUMPDEST DUP2 EQ PUSH3 0x11C JUMPI PUSH0 DUP1 REVERT JUMPDEST POP JUMP JUMPDEST PUSH0 DUP2 MLOAD SWAP1 POP PUSH3 0x12F DUP2 PUSH3 0x106 JUMP JUMPDEST SWAP3 SWAP2 POP POP JUMP JUMPDEST PUSH0 PUSH1 0x20 DUP3 DUP5 SUB SLT ISZERO PUSH3 0x14D JUMPI PUSH3 0x14C PUSH3 0xF9 JUMP JUMPDEST JUMPDEST PUSH0 PUSH3 0x15C DUP5 DUP3 DUP6 ADD PUSH3 0x11F JUMP JUMPDEST SWAP2 POP POP SWAP3 SWAP2 POP POP JUMP JUMPDEST PUSH2 0x1341 DUP1 PUSH3 0x173 PUSH0 CODECOPY PUSH0 RETURN INVALID PUSH1 0x80 PUSH1 0x40 MSTORE PUSH1 0x4 CALLDATASIZE LT PUSH2 0x90 JUMPI PUSH0 CALLDATALOAD PUSH1 0xE0 SHR DUP1 PUSH4 0x96B98862 GT PUSH2 0x58 JUMPI DUP1 PUSH4 0x96B98862 EQ PUSH2 0x13A JUMPI DUP1 PUSH4 0xB60D4288 EQ PUSH2 0x176 JUMPI DUP1 PUSH4 0xBEA4DFB5 EQ PUSH2 0x180 JUMPI DUP1 PUSH4 0xDA4658E0 EQ PUSH2 0x1AA JUMPI DUP1 PUSH4 0xF2FDE38B EQ PUSH2 0x1D4 JUMPI PUSH2 0x90 JUMP JUMPDEST DUP1 PUSH4 0x13FFFF01 EQ PUSH2 0x94 JUMPI DUP1 PUSH4 0x590E1AE3 EQ PUSH2 0xBC JUMPI DUP1 PUSH4 0x8DA5CB5B EQ PUSH2 0xD2 JUMPI DUP1 PUSH4 0x8EDD6EB6 EQ PUSH2 0xFC JUMPI DUP1 PUSH4 0x9505ADC7 EQ PUSH2 0x112 JUMPI JUMPDEST PUSH0 DUP1 REVERT JUMPDEST CALLVALUE DUP1 ISZERO PUSH2 0x9F JUMPI PUSH0 DUP1 REVERT JUMPDEST POP PUSH2 0xBA PUSH1 0x4 DUP1 CALLDATASIZE SUB DUP2 ADD SWAP1 PUSH2 0xB5 SWAP2 SWAP1 PUSH2 0xBAA JUMP JUMPDEST PUSH2 0x1FC JUMP JUMPDEST STOP JUMPDEST CALLVALUE DUP1 ISZERO PUSH2 0xC7 JUMPI PUSH0 DUP1 REVERT JUMPDEST POP PUSH2 0xD0 PUSH2 0x2CE JUMP JUMPDEST STOP JUMPDEST CALLVALUE DUP1 ISZERO PUSH2 0xDD JUMPI PUSH0 DUP1 REVERT JUMPDEST POP PUSH2 0xE6 PUSH2 0x51A JUMP JUMPDEST PUSH1 0x40 MLOAD PUSH2 0xF3 SWAP2 SWAP1 PUSH2 0xBE4 JUMP JUMPDEST PUSH1 0x40 MLOAD DUP1 SWAP2 SUB SWAP1 RETURN JUMPDEST CALLVALUE DUP1 ISZERO PUSH2 0x107 JUMPI PUSH0 DUP1 REVERT JUMPDEST POP PUSH2 0x110 PUSH2 0x53F JUMP JUMPDEST STOP JUMPDEST CALLVALUE DUP1 ISZERO PUSH2 0x11D JUMPI PUSH0 DUP1 REVERT JUMPDEST POP PUSH2 0x138 PUSH1 0x4 DUP1 CALLDATASIZE SUB DUP2 ADD SWAP1 PUSH2 0x133 SWAP2 SWAP1 PUSH2 0xC30 JUMP JUMPDEST PUSH2 0x77C JUMP JUMPDEST STOP JUMPDEST CALLVALUE DUP1 ISZERO PUSH2 0x145 JUMPI PUSH0 DUP1 REVERT JUMPDEST POP PUSH2 0x160 PUSH1 0x4 DUP1 CALLDATASIZE SUB DUP2 ADD SWAP1 PUSH2 0x15B SWAP2 SWAP1 PUSH2 0xBAA JUMP JUMPDEST PUSH2 0x850 JUMP JUMPDEST PUSH1 0x40 MLOAD PUSH2 0x16D SWAP2 SWAP1 PUSH2 0xC7D JUMP JUMPDEST PUSH1 0x40 MLOAD DUP1 SWAP2 SUB SWAP1 RETURN JUMPDEST PUSH2 0x17E PUSH2 0x864 JUMP JUMPDEST STOP JUMPDEST CALLVALUE DUP1 ISZERO PUSH2 0x18B JUMPI PUSH0 DUP1 REVERT JUMPDEST POP PUSH2 0x194 PUSH2 0x99B JUMP JUMPDEST PUSH1 0x40 MLOAD PUSH2 0x1A1 SWAP2 SWAP1 PUSH2 0xCAE JUMP JUMPDEST PUSH1 0x40 MLOAD DUP1 SWAP2 SUB SWAP1 RETURN JUMPDEST CALLVALUE DUP1 ISZERO PUSH2 0x1B5 JUMPI PUSH0 DUP1 REVERT JUMPDEST POP PUSH2 0x1BE PUSH2 0xA38 JUMP JUMPDEST PUSH1 0x40 MLOAD PUSH2 0x1CB SWAP2 SWAP1 PUSH2 0xCE1 JUMP JUMPDEST PUSH1 0x40 MLOAD DUP1 SWAP2 SUB SWAP1 RETURN JUMPDEST CALLVALUE DUP1 ISZERO PUSH2 0x1DF JUMPI PUSH0 DUP1 REVERT JUMPDEST POP PUSH2 0x1FA PUSH1 0x4 DUP1 CALLDATASIZE SUB DUP2 ADD SWAP1 PUSH2 0x1F5 SWAP2 SWAP1 PUSH2 0xBAA JUMP JUMPDEST PUSH2 0xA4B JUMP JUMPDEST STOP JUMPDEST PUSH1 0x2 PUSH0 SWAP1 SLOAD SWAP1 PUSH2 0x100 EXP SWAP1 DIV PUSH20 0xFFFFFFFFFFFFFFFFFFFFFFFFFFFFFFFFFFFFFFFF AND PUSH20 0xFFFFFFFFFFFFFFFFFFFFFFFFFFFFFFFFFFFFFFFF AND CALLER PUSH20 0xFFFFFFFFFFFFFFFFFFFFFFFFFFFFFFFFFFFFFFFF AND EQ PUSH2 0x28B JUMPI PUSH1 0x40 MLOAD PUSH32 0x8C379A000000000000000000000000000000000000000000000000000000000 DUP2 MSTORE PUSH1 0x4 ADD PUSH2 0x282 SWAP1 PUSH2 0xD7A JUMP JUMPDEST PUSH1 0x40 MLOAD DUP1 SWAP2 SUB SWAP1 REVERT JUMPDEST DUP1 PUSH1 0x5 PUSH0 PUSH2 0x100 EXP DUP2 SLOAD DUP2 PUSH20 0xFFFFFFFFFFFFFFFFFFFFFFFFFFFFFFFFFFFFFFFF MUL NOT AND SWAP1 DUP4 PUSH20 0xFFFFFFFFFFFFFFFFFFFFFFFFFFFFFFFFFFFFFFFF AND MUL OR SWAP1 SSTORE POP POP JUMP JUMPDEST TIMESTAMP PUSH1 0x4 SLOAD PUSH1 0x3 SLOAD PUSH2 0x2DF SWAP2 SWAP1 PUSH2 0xDC5 JUMP JUMPDEST LT PUSH2 0x31F JUMPI PUSH1 0x40 MLOAD PUSH32 0x8C379A000000000000000000000000000000000000000000000000000000000 DUP2 MSTORE PUSH1 0x4 ADD PUSH2 0x316 SWAP1 PUSH2 0xE42 JUMP JUMPDEST PUSH1 0x40 MLOAD DUP1 SWAP2 SUB SWAP1 REVERT JUMPDEST PUSH9 0x3635C9ADC5DEA00000 PUSH2 0x332 SELFBALANCE PUSH2 0xB1D JUMP JUMPDEST LT PUSH2 0x372 JUMPI PUSH1 0x40 MLOAD PUSH32 0x8C379A000000000000000000000000000000000000000000000000000000000 DUP2 MSTORE PUSH1 0x4 ADD PUSH2 0x369 SWAP1 PUSH2 0xEAA JUMP JUMPDEST PUSH1 0x40 MLOAD DUP1 SWAP2 SUB SWAP1 REVERT JUMPDEST PUSH0 DUP1 PUSH0 CALLER PUSH20 0xFFFFFFFFFFFFFFFFFFFFFFFFFFFFFFFFFFFFFFFF AND PUSH20 0xFFFFFFFFFFFFFFFFFFFFFFFFFFFFFFFFFFFFFFFF AND DUP2 MSTORE PUSH1 0x20 ADD SWAP1 DUP2 MSTORE PUSH1 0x20 ADD PUSH0 KECCAK256 SLOAD SUB PUSH2 0x3F0 JUMPI PUSH1 0x40 MLOAD PUSH32 0x8C379A000000000000000000000000000000000000000000000000000000000 DUP2 MSTORE PUSH1 0x4 ADD PUSH2 0x3E7 SWAP1 PUSH2 0xF12 JUMP JUMPDEST PUSH1 0x40 MLOAD DUP1 SWAP2 SUB SWAP1 REVERT JUMPDEST PUSH0 CALLER PUSH20 0xFFFFFFFFFFFFFFFFFFFFFFFFFFFFFFFFFFFFFFFF AND PUSH0 DUP1 CALLER PUSH20 0xFFFFFFFFFFFFFFFFFFFFFFFFFFFFFFFFFFFFFFFF AND PUSH20 0xFFFFFFFFFFFFFFFFFFFFFFFFFFFFFFFFFFFFFFFF AND DUP2 MSTORE PUSH1 0x20 ADD SWAP1 DUP2 MSTORE PUSH1 0x20 ADD PUSH0 KECCAK256 SLOAD PUSH1 0x40 MLOAD PUSH2 0x451 SWAP1 PUSH2 0xF5D JUMP JUMPDEST PUSH0 PUSH1 0x40 MLOAD DUP1 DUP4 SUB DUP2 DUP6 DUP8 GAS CALL SWAP3 POP POP POP RETURNDATASIZE DUP1 PUSH0 DUP2 EQ PUSH2 0x48B JUMPI PUSH1 0x40 MLOAD SWAP2 POP PUSH1 0x1F NOT PUSH1 0x3F RETURNDATASIZE ADD AND DUP3 ADD PUSH1 0x40 MSTORE RETURNDATASIZE DUP3 MSTORE RETURNDATASIZE PUSH0 PUSH1 0x20 DUP5 ADD RETURNDATACOPY PUSH2 0x490 JUMP JUMPDEST PUSH1 0x60 SWAP2 POP JUMPDEST POP POP DUP1 SWAP2 POP POP DUP1 PUSH2 0x4D6 JUMPI PUSH1 0x40 MLOAD PUSH32 0x8C379A000000000000000000000000000000000000000000000000000000000 DUP2 MSTORE PUSH1 0x4 ADD PUSH2 0x4CD SWAP1 PUSH2 0xFBB JUMP JUMPDEST PUSH1 0x40 MLOAD DUP1 SWAP2 SUB SWAP1 REVERT JUMPDEST PUSH0 DUP1 PUSH0 CALLER PUSH20 0xFFFFFFFFFFFFFFFFFFFFFFFFFFFFFFFFFFFFFFFF AND PUSH20 0xFFFFFFFFFFFFFFFFFFFFFFFFFFFFFFFFFFFFFFFF AND DUP2 MSTORE PUSH1 0x20 ADD SWAP1 DUP2 MSTORE PUSH1 0x20 ADD PUSH0 KECCAK256 DUP2 SWAP1 SSTORE POP POP JUMP JUMPDEST PUSH1 0x2 PUSH0 SWAP1 SLOAD SWAP1 PUSH2 0x100 EXP SWAP1 DIV PUSH20 0xFFFFFFFFFFFFFFFFFFFFFFFFFFFFFFFFFFFFFFFF AND DUP2 JUMP JUMPDEST PUSH1 0x2 PUSH0 SWAP1 SLOAD SWAP1 PUSH2 0x100 EXP SWAP1 DIV PUSH20 0xFFFFFFFFFFFFFFFFFFFFFFFFFFFFFFFFFFFFFFFF AND PUSH20 0xFFFFFFFFFFFFFFFFFFFFFFFFFFFFFFFFFFFFFFFF AND CALLER PUSH20 0xFFFFFFFFFFFFFFFFFFFFFFFFFFFFFFFFFFFFFFFF AND EQ PUSH2 0x5CE JUMPI PUSH1 0x40 MLOAD PUSH32 0x8C379A000000000000000000000000000000000000000000000000000000000 DUP2 MSTORE PUSH1 0x4 ADD PUSH2 0x5C5 SWAP1 PUSH2 0xD7A JUMP JUMPDEST PUSH1 0x40 MLOAD DUP1 SWAP2 SUB SWAP1 REVERT JUMPDEST TIMESTAMP PUSH1 0x4 SLOAD PUSH1 0x3 SLOAD PUSH2 0x5DF SWAP2 SWAP1 PUSH2 0xDC5 JUMP JUMPDEST LT PUSH2 0x61F JUMPI PUSH1 0x40 MLOAD PUSH32 0x8C379A000000000000000000000000000000000000000000000000000000000 DUP2 MSTORE PUSH1 0x4 ADD PUSH2 0x616 SWAP1 PUSH2 0xE42 JUMP JUMPDEST PUSH1 0x40 MLOAD DUP1 SWAP2 SUB SWAP1 REVERT JUMPDEST PUSH9 0x3635C9ADC5DEA00000 PUSH2 0x632 SELFBALANCE PUSH2 0xB1D JUMP JUMPDEST LT ISZERO PUSH2 0x673 JUMPI PUSH1 0x40 MLOAD PUSH32 0x8C379A000000000000000000000000000000000000000000000000000000000 DUP2 MSTORE PUSH1 0x4 ADD PUSH2 0x66A SWAP1 PUSH2 0x1023 JUMP JUMPDEST PUSH1 0x40 MLOAD DUP1 SWAP2 SUB SWAP1 REVERT JUMPDEST PUSH0 CALLER PUSH20 0xFFFFFFFFFFFFFFFFFFFFFFFFFFFFFFFFFFFFFFFF AND SELFBALANCE PUSH1 0x40 MLOAD PUSH2 0x698 SWAP1 PUSH2 0xF5D JUMP JUMPDEST PUSH0 PUSH1 0x40 MLOAD DUP1 DUP4 SUB DUP2 DUP6 DUP8 GAS CALL SWAP3 POP POP POP RETURNDATASIZE DUP1 PUSH0 DUP2 EQ PUSH2 0x6D2 JUMPI PUSH1 0x40 MLOAD SWAP2 POP PUSH1 0x1F NOT PUSH1 0x3F RETURNDATASIZE ADD AND DUP3 ADD PUSH1 0x40 MSTORE RETURNDATASIZE DUP3 MSTORE RETURNDATASIZE PUSH0 PUSH1 0x20 DUP5 ADD RETURNDATACOPY PUSH2 0x6D7 JUMP JUMPDEST PUSH1 0x60 SWAP2 POP JUMPDEST POP POP DUP1 SWAP2 POP POP DUP1 PUSH2 0x71D JUMPI PUSH1 0x40 MLOAD PUSH32 0x8C379A000000000000000000000000000000000000000000000000000000000 DUP2 MSTORE PUSH1 0x4 ADD PUSH2 0x714 SWAP1 PUSH2 0xFBB JUMP JUMPDEST PUSH1 0x40 MLOAD DUP1 SWAP2 SUB SWAP1 REVERT JUMPDEST PUSH0 DUP1 PUSH0 CALLER PUSH20 0xFFFFFFFFFFFFFFFFFFFFFFFFFFFFFFFFFFFFFFFF AND PUSH20 0xFFFFFFFFFFFFFFFFFFFFFFFFFFFFFFFFFFFFFFFF AND DUP2 MSTORE PUSH1 0x20 ADD SWAP1 DUP2 MSTORE PUSH1 0x20 ADD PUSH0 KECCAK256 DUP2 SWAP1 SSTORE POP PUSH1 0x1 PUSH1 0x5 PUSH1 0x14 PUSH2 0x100 EXP DUP2 SLOAD DUP2 PUSH1 0xFF MUL NOT AND SWAP1 DUP4 ISZERO ISZERO MUL OR SWAP1 SSTORE POP POP JUMP JUMPDEST PUSH1 0x5 PUSH0 SWAP1 SLOAD SWAP1 PUSH2 0x100 EXP SWAP1 DIV PUSH20 0xFFFFFFFFFFFFFFFFFFFFFFFFFFFFFFFFFFFFFFFF AND PUSH20 0xFFFFFFFFFFFFFFFFFFFFFFFFFFFFFFFFFFFFFFFF AND CALLER PUSH20 0xFFFFFFFFFFFFFFFFFFFFFFFFFFFFFFFFFFFFFFFF AND EQ PUSH2 0x80B JUMPI PUSH1 0x40 MLOAD PUSH32 0x8C379A000000000000000000000000000000000000000000000000000000000 DUP2 MSTORE PUSH1 0x4 ADD PUSH2 0x802 SWAP1 PUSH2 0x108B JUMP JUMPDEST PUSH1 0x40 MLOAD DUP1 SWAP2 SUB SWAP1 REVERT JUMPDEST DUP1 PUSH0 DUP1 DUP5 PUSH20 0xFFFFFFFFFFFFFFFFFFFFFFFFFFFFFFFFFFFFFFFF AND PUSH20 0xFFFFFFFFFFFFFFFFFFFFFFFFFFFFFFFFFFFFFFFF AND DUP2 MSTORE PUSH1 0x20 ADD SWAP1 DUP2 MSTORE PUSH1 0x20 ADD PUSH0 KECCAK256 DUP2 SWAP1 SSTORE POP POP POP JUMP JUMPDEST PUSH0 PUSH1 0x20 MSTORE DUP1 PUSH0 MSTORE PUSH1 0x40 PUSH0 KECCAK256 PUSH0 SWAP2 POP SWAP1 POP SLOAD DUP2 JUMP JUMPDEST PUSH9 0x56BC75E2D63100000 PUSH2 0x877 CALLVALUE PUSH2 0xB1D JUMP JUMPDEST LT ISZERO PUSH2 0x8B8 JUMPI PUSH1 0x40 MLOAD PUSH32 0x8C379A000000000000000000000000000000000000000000000000000000000 DUP2 MSTORE PUSH1 0x4 ADD PUSH2 0x8AF SWAP1 PUSH2 0x10F3 JUMP JUMPDEST PUSH1 0x40 MLOAD DUP1 SWAP2 SUB SWAP1 REVERT JUMPDEST TIMESTAMP PUSH1 0x4 SLOAD PUSH1 0x3 SLOAD PUSH2 0x8C9 SWAP2 SWAP1 PUSH2 0xDC5 JUMP JUMPDEST GT PUSH2 0x909 JUMPI PUSH1 0x40 MLOAD PUSH32 0x8C379A000000000000000000000000000000000000000000000000000000000 DUP2 MSTORE PUSH1 0x4 ADD PUSH2 0x900 SWAP1 PUSH2 0x115B JUMP JUMPDEST PUSH1 0x40 MLOAD DUP1 SWAP2 SUB SWAP1 REVERT JUMPDEST PUSH0 DUP1 PUSH0 CALLER PUSH20 0xFFFFFFFFFFFFFFFFFFFFFFFFFFFFFFFFFFFFFFFF AND PUSH20 0xFFFFFFFFFFFFFFFFFFFFFFFFFFFFFFFFFFFFFFFF AND DUP2 MSTORE PUSH1 0x20 ADD SWAP1 DUP2 MSTORE PUSH1 0x20 ADD PUSH0 KECCAK256 SLOAD SWAP1 POP CALLVALUE DUP2 PUSH2 0x955 SWAP2 SWAP1 PUSH2 0xDC5 JUMP JUMPDEST SWAP1 POP DUP1 PUSH0 DUP1 CALLER PUSH20 0xFFFFFFFFFFFFFFFFFFFFFFFFFFFFFFFFFFFFFFFF AND PUSH20 0xFFFFFFFFFFFFFFFFFFFFFFFFFFFFFFFFFFFFFFFF AND DUP2 MSTORE PUSH1 0x20 ADD SWAP1 DUP2 MSTORE PUSH1 0x20 ADD PUSH0 KECCAK256 DUP2 SWAP1 SSTORE POP POP JUMP JUMPDEST PUSH0 DUP1 PUSH1 0x1 PUSH0 SWAP1 SLOAD SWAP1 PUSH2 0x100 EXP SWAP1 DIV PUSH20 0xFFFFFFFFFFFFFFFFFFFFFFFFFFFFFFFFFFFFFFFF AND PUSH20 0xFFFFFFFFFFFFFFFFFFFFFFFFFFFFFFFFFFFFFFFF AND PUSH4 0xFEAF968C PUSH1 0x40 MLOAD DUP2 PUSH4 0xFFFFFFFF AND PUSH1 0xE0 SHL DUP2 MSTORE PUSH1 0x4 ADD PUSH1 0xA0 PUSH1 0x40 MLOAD DUP1 DUP4 SUB DUP2 DUP7 GAS STATICCALL ISZERO DUP1 ISZERO PUSH2 0xA07 JUMPI RETURNDATASIZE PUSH0 DUP1 RETURNDATACOPY RETURNDATASIZE PUSH0 REVERT JUMPDEST POP POP POP POP PUSH1 0x40 MLOAD RETURNDATASIZE PUSH1 0x1F NOT PUSH1 0x1F DUP3 ADD AND DUP3 ADD DUP1 PUSH1 0x40 MSTORE POP DUP2 ADD SWAP1 PUSH2 0xA2B SWAP2 SWAP1 PUSH2 0x11F6 JUMP JUMPDEST POP POP POP SWAP2 POP POP DUP1 SWAP2 POP POP SWAP1 JUMP JUMPDEST PUSH1 0x5 PUSH1 0x14 SWAP1 SLOAD SWAP1 PUSH2 0x100 EXP SWAP1 DIV PUSH1 0xFF AND DUP2 JUMP JUMPDEST PUSH1 0x2 PUSH0 SWAP1 SLOAD SWAP1 PUSH2 0x100 EXP SWAP1 DIV PUSH20 0xFFFFFFFFFFFFFFFFFFFFFFFFFFFFFFFFFFFFFFFF AND PUSH20 0xFFFFFFFFFFFFFFFFFFFFFFFFFFFFFFFFFFFFFFFF AND CALLER PUSH20 0xFFFFFFFFFFFFFFFFFFFFFFFFFFFFFFFFFFFFFFFF AND EQ PUSH2 0xADA JUMPI PUSH1 0x40 MLOAD PUSH32 0x8C379A000000000000000000000000000000000000000000000000000000000 DUP2 MSTORE PUSH1 0x4 ADD PUSH2 0xAD1 SWAP1 PUSH2 0xD7A JUMP JUMPDEST PUSH1 0x40 MLOAD DUP1 SWAP2 SUB SWAP1 REVERT JUMPDEST DUP1 PUSH1 0x2 PUSH0 PUSH2 0x100 EXP DUP2 SLOAD DUP2 PUSH20 0xFFFFFFFFFFFFFFFFFFFFFFFFFFFFFFFFFFFFFFFF MUL NOT AND SWAP1 DUP4 PUSH20 0xFFFFFFFFFFFFFFFFFFFFFFFFFFFFFFFFFFFFFFFF AND MUL OR SWAP1 SSTORE POP POP JUMP JUMPDEST PUSH0 DUP1 PUSH2 0xB27 PUSH2 0x99B JUMP JUMPDEST SWAP1 POP PUSH4 0x5F5E100 DUP2 DUP5 PUSH2 0xB3A SWAP2 SWAP1 PUSH2 0x126D JUMP JUMPDEST PUSH2 0xB44 SWAP2 SWAP1 PUSH2 0x12DB JUMP JUMPDEST SWAP2 POP POP SWAP2 SWAP1 POP JUMP JUMPDEST PUSH0 DUP1 REVERT JUMPDEST PUSH0 PUSH20 0xFFFFFFFFFFFFFFFFFFFFFFFFFFFFFFFFFFFFFFFF DUP3 AND SWAP1 POP SWAP2 SWAP1 POP JUMP JUMPDEST PUSH0 PUSH2 0xB79 DUP3 PUSH2 0xB50 JUMP JUMPDEST SWAP1 POP SWAP2 SWAP1 POP JUMP JUMPDEST PUSH2 0xB89 DUP2 PUSH2 0xB6F JUMP JUMPDEST DUP2 EQ PUSH2 0xB93 JUMPI PUSH0 DUP1 REVERT JUMPDEST POP JUMP JUMPDEST PUSH0 DUP2 CALLDATALOAD SWAP1 POP PUSH2 0xBA4 DUP2 PUSH2 0xB80 JUMP JUMPDEST SWAP3 SWAP2 POP POP JUMP JUMPDEST PUSH0 PUSH1 0x20 DUP3 DUP5 SUB SLT ISZERO PUSH2 0xBBF JUMPI PUSH2 0xBBE PUSH2 0xB4C JUMP JUMPDEST JUMPDEST PUSH0 PUSH2 0xBCC DUP5 DUP3 DUP6 ADD PUSH2 0xB96 JUMP JUMPDEST SWAP2 POP POP SWAP3 SWAP2 POP POP JUMP JUMPDEST PUSH2 0xBDE DUP2 PUSH2 0xB6F JUMP JUMPDEST DUP3 MSTORE POP POP JUMP JUMPDEST PUSH0 PUSH1 0x20 DUP3 ADD SWAP1 POP PUSH2 0xBF7 PUSH0 DUP4 ADD DUP5 PUSH2 0xBD5 JUMP JUMPDEST SWAP3 SWAP2 POP POP JUMP JUMPDEST PUSH0 DUP2 SWAP1 POP SWAP2 SWAP1 POP JUMP JUMPDEST PUSH2 0xC0F DUP2 PUSH2 0xBFD JUMP JUMPDEST DUP2 EQ PUSH2 0xC19 JUMPI PUSH0 DUP1 REVERT JUMPDEST POP JUMP JUMPDEST PUSH0 DUP2 CALLDATALOAD SWAP1 POP PUSH2 0xC2A DUP2 PUSH2 0xC06 JUMP JUMPDEST SWAP3 SWAP2 POP POP JUMP JUMPDEST PUSH0 DUP1 PUSH1 0x40 DUP4 DUP6 SUB SLT ISZERO PUSH2 0xC46 JUMPI PUSH2 0xC45 PUSH2 0xB4C JUMP JUMPDEST JUMPDEST PUSH0 PUSH2 0xC53 DUP6 DUP3 DUP7 ADD PUSH2 0xB96 JUMP JUMPDEST SWAP3 POP POP PUSH1 0x20 PUSH2 0xC64 DUP6 DUP3 DUP7 ADD PUSH2 0xC1C JUMP JUMPDEST SWAP2 POP POP SWAP3 POP SWAP3 SWAP1 POP JUMP JUMPDEST PUSH2 0xC77 DUP2 PUSH2 0xBFD JUMP JUMPDEST DUP3 MSTORE POP POP JUMP JUMPDEST PUSH0 PUSH1 0x20 DUP3 ADD SWAP1 POP PUSH2 0xC90 PUSH0 DUP4 ADD DUP5 PUSH2 0xC6E JUMP JUMPDEST SWAP3 SWAP2 POP POP JUMP JUMPDEST PUSH0 DUP2 SWAP1 POP SWAP2 SWAP1 POP JUMP JUMPDEST PUSH2 0xCA8 DUP2 PUSH2 0xC96 JUMP JUMPDEST DUP3 MSTORE POP POP JUMP JUMPDEST PUSH0 PUSH1 0x20 DUP3 ADD SWAP1 POP PUSH2 0xCC1 PUSH0 DUP4 ADD DUP5 PUSH2 0xC9F JUMP JUMPDEST SWAP3 SWAP2 POP POP JUMP JUMPDEST PUSH0 DUP2 ISZERO ISZERO SWAP1 POP SWAP2 SWAP1 POP JUMP JUMPDEST PUSH2 0xCDB DUP2 PUSH2 0xCC7 JUMP JUMPDEST DUP3 MSTORE POP POP JUMP JUMPDEST PUSH0 PUSH1 0x20 DUP3 ADD SWAP1 POP PUSH2 0xCF4 PUSH0 DUP4 ADD DUP5 PUSH2 0xCD2 JUMP JUMPDEST SWAP3 SWAP2 POP POP JUMP JUMPDEST PUSH0 DUP3 DUP3 MSTORE PUSH1 0x20 DUP3 ADD SWAP1 POP SWAP3 SWAP2 POP POP JUMP JUMPDEST PUSH32 0x546869732066756E6374696F6E2063616E206F6E6C792062652063616C6C6564 PUSH0 DUP3 ADD MSTORE PUSH32 0x206279207468652063757272656E74206F776E65722E00000000000000000000 PUSH1 0x20 DUP3 ADD MSTORE POP JUMP JUMPDEST PUSH0 PUSH2 0xD64 PUSH1 0x36 DUP4 PUSH2 0xCFA JUMP JUMPDEST SWAP2 POP PUSH2 0xD6F DUP3 PUSH2 0xD0A JUMP JUMPDEST PUSH1 0x40 DUP3 ADD SWAP1 POP SWAP2 SWAP1 POP JUMP JUMPDEST PUSH0 PUSH1 0x20 DUP3 ADD SWAP1 POP DUP2 DUP2 SUB PUSH0 DUP4 ADD MSTORE PUSH2 0xD91 DUP2 PUSH2 0xD58 JUMP JUMPDEST SWAP1 POP SWAP2 SWAP1 POP JUMP JUMPDEST PUSH32 0x4E487B7100000000000000000000000000000000000000000000000000000000 PUSH0 MSTORE PUSH1 0x11 PUSH1 0x4 MSTORE PUSH1 0x24 PUSH0 REVERT JUMPDEST PUSH0 PUSH2 0xDCF DUP3 PUSH2 0xBFD JUMP JUMPDEST SWAP2 POP PUSH2 0xDDA DUP4 PUSH2 0xBFD JUMP JUMPDEST SWAP3 POP DUP3 DUP3 ADD SWAP1 POP DUP1 DUP3 GT ISZERO PUSH2 0xDF2 JUMPI PUSH2 0xDF1 PUSH2 0xD98 JUMP JUMPDEST JUMPDEST SWAP3 SWAP2 POP POP JUMP JUMPDEST PUSH32 0x57696E646F77206973206E6F7420636C6F7365642E0000000000000000000000 PUSH0 DUP3 ADD MSTORE POP JUMP JUMPDEST PUSH0 PUSH2 0xE2C PUSH1 0x15 DUP4 PUSH2 0xCFA JUMP JUMPDEST SWAP2 POP PUSH2 0xE37 DUP3 PUSH2 0xDF8 JUMP JUMPDEST PUSH1 0x20 DUP3 ADD SWAP1 POP SWAP2 SWAP1 POP JUMP JUMPDEST PUSH0 PUSH1 0x20 DUP3 ADD SWAP1 POP DUP2 DUP2 SUB PUSH0 DUP4 ADD MSTORE PUSH2 0xE59 DUP2 PUSH2 0xE20 JUMP JUMPDEST SWAP1 POP SWAP2 SWAP1 POP JUMP JUMPDEST PUSH32 0x54617267657420697320726561636865642E0000000000000000000000000000 PUSH0 DUP3 ADD MSTORE POP JUMP JUMPDEST PUSH0 PUSH2 0xE94 PUSH1 0x12 DUP4 PUSH2 0xCFA JUMP JUMPDEST SWAP2 POP PUSH2 0xE9F DUP3 PUSH2 0xE60 JUMP JUMPDEST PUSH1 0x20 DUP3 ADD SWAP1 POP SWAP2 SWAP1 POP JUMP JUMPDEST PUSH0 PUSH1 0x20 DUP3 ADD SWAP1 POP DUP2 DUP2 SUB PUSH0 DUP4 ADD MSTORE PUSH2 0xEC1 DUP2 PUSH2 0xE88 JUMP JUMPDEST SWAP1 POP SWAP2 SWAP1 POP JUMP JUMPDEST PUSH32 0x5468657265206973206E6F2066756E647320666F7220796F752E000000000000 PUSH0 DUP3 ADD MSTORE POP JUMP JUMPDEST PUSH0 PUSH2 0xEFC PUSH1 0x1A DUP4 PUSH2 0xCFA JUMP JUMPDEST SWAP2 POP PUSH2 0xF07 DUP3 PUSH2 0xEC8 JUMP JUMPDEST PUSH1 0x20 DUP3 ADD SWAP1 POP SWAP2 SWAP1 POP JUMP JUMPDEST PUSH0 PUSH1 0x20 DUP3 ADD SWAP1 POP DUP2 DUP2 SUB PUSH0 DUP4 ADD MSTORE PUSH2 0xF29 DUP2 PUSH2 0xEF0 JUMP JUMPDEST SWAP1 POP SWAP2 SWAP1 POP JUMP JUMPDEST PUSH0 DUP2 SWAP1 POP SWAP3 SWAP2 POP POP JUMP JUMPDEST POP JUMP JUMPDEST PUSH0 PUSH2 0xF48 PUSH0 DUP4 PUSH2 0xF30 JUMP JUMPDEST SWAP2 POP PUSH2 0xF53 DUP3 PUSH2 0xF3A JUMP JUMPDEST PUSH0 DUP3 ADD SWAP1 POP SWAP2 SWAP1 POP JUMP JUMPDEST PUSH0 PUSH2 0xF67 DUP3 PUSH2 0xF3D JUMP JUMPDEST SWAP2 POP DUP2 SWAP1 POP SWAP2 SWAP1 POP JUMP JUMPDEST PUSH32 0x5472616E73666572207478206661696C65642E00000000000000000000000000 PUSH0 DUP3 ADD MSTORE POP JUMP JUMPDEST PUSH0 PUSH2 0xFA5 PUSH1 0x13 DUP4 PUSH2 0xCFA JUMP JUMPDEST SWAP2 POP PUSH2 0xFB0 DUP3 PUSH2 0xF71 JUMP JUMPDEST PUSH1 0x20 DUP3 ADD SWAP1 POP SWAP2 SWAP1 POP JUMP JUMPDEST PUSH0 PUSH1 0x20 DUP3 ADD SWAP1 POP DUP2 DUP2 SUB PUSH0 DUP4 ADD MSTORE PUSH2 0xFD2 DUP2 PUSH2 0xF99 JUMP JUMPDEST SWAP1 POP SWAP2 SWAP1 POP JUMP JUMPDEST PUSH32 0x546172676574206973206E6F7420726561636865642E00000000000000000000 PUSH0 DUP3 ADD MSTORE POP JUMP JUMPDEST PUSH0 PUSH2 0x100D PUSH1 0x16 DUP4 PUSH2 0xCFA JUMP JUMPDEST SWAP2 POP PUSH2 0x1018 DUP3 PUSH2 0xFD9 JUMP JUMPDEST PUSH1 0x20 DUP3 ADD SWAP1 POP SWAP2 SWAP1 POP JUMP JUMPDEST PUSH0 PUSH1 0x20 DUP3 ADD SWAP1 POP DUP2 DUP2 SUB PUSH0 DUP4 ADD MSTORE PUSH2 0x103A DUP2 PUSH2 0x1001 JUMP JUMPDEST SWAP1 POP SWAP2 SWAP1 POP JUMP JUMPDEST PUSH32 0x4F6E6C79206572633230416464722063616E207570646174652E000000000000 PUSH0 DUP3 ADD MSTORE POP JUMP JUMPDEST PUSH0 PUSH2 0x1075 PUSH1 0x1A DUP4 PUSH2 0xCFA JUMP JUMPDEST SWAP2 POP PUSH2 0x1080 DUP3 PUSH2 0x1041 JUMP JUMPDEST PUSH1 0x20 DUP3 ADD SWAP1 POP SWAP2 SWAP1 POP JUMP JUMPDEST PUSH0 PUSH1 0x20 DUP3 ADD SWAP1 POP DUP2 DUP2 SUB PUSH0 DUP4 ADD MSTORE PUSH2 0x10A2 DUP2 PUSH2 0x1069 JUMP JUMPDEST SWAP1 POP SWAP2 SWAP1 POP JUMP JUMPDEST PUSH32 0x56616C756520697320746F6F206C6F7721000000000000000000000000000000 PUSH0 DUP3 ADD MSTORE POP JUMP JUMPDEST PUSH0 PUSH2 0x10DD PUSH1 0x11 DUP4 PUSH2 0xCFA JUMP JUMPDEST SWAP2 POP PUSH2 0x10E8 DUP3 PUSH2 0x10A9 JUMP JUMPDEST PUSH1 0x20 DUP3 ADD SWAP1 POP SWAP2 SWAP1 POP JUMP JUMPDEST PUSH0 PUSH1 0x20 DUP3 ADD SWAP1 POP DUP2 DUP2 SUB PUSH0 DUP4 ADD MSTORE PUSH2 0x110A DUP2 PUSH2 0x10D1 JUMP JUMPDEST SWAP1 POP SWAP2 SWAP1 POP JUMP JUMPDEST PUSH32 0x57696E646F7720697320636C6F7365642E000000000000000000000000000000 PUSH0 DUP3 ADD MSTORE POP JUMP JUMPDEST PUSH0 PUSH2 0x1145 PUSH1 0x11 DUP4 PUSH2 0xCFA JUMP JUMPDEST SWAP2 POP PUSH2 0x1150 DUP3 PUSH2 0x1111 JUMP JUMPDEST PUSH1 0x20 DUP3 ADD SWAP1 POP SWAP2 SWAP1 POP JUMP JUMPDEST PUSH0 PUSH1 0x20 DUP3 ADD SWAP1 POP DUP2 DUP2 SUB PUSH0 DUP4 ADD MSTORE PUSH2 0x1172 DUP2 PUSH2 0x1139 JUMP JUMPDEST SWAP1 POP SWAP2 SWAP1 POP JUMP JUMPDEST PUSH0 PUSH10 0xFFFFFFFFFFFFFFFFFFFF DUP3 AND SWAP1 POP SWAP2 SWAP1 POP JUMP JUMPDEST PUSH2 0x1197 DUP2 PUSH2 0x1179 JUMP JUMPDEST DUP2 EQ PUSH2 0x11A1 JUMPI PUSH0 DUP1 REVERT JUMPDEST POP JUMP JUMPDEST PUSH0 DUP2 MLOAD SWAP1 POP PUSH2 0x11B2 DUP2 PUSH2 0x118E JUMP JUMPDEST SWAP3 SWAP2 POP POP JUMP JUMPDEST PUSH2 0x11C1 DUP2 PUSH2 0xC96 JUMP JUMPDEST DUP2 EQ PUSH2 0x11CB JUMPI PUSH0 DUP1 REVERT JUMPDEST POP JUMP JUMPDEST PUSH0 DUP2 MLOAD SWAP1 POP PUSH2 0x11DC DUP2 PUSH2 0x11B8 JUMP JUMPDEST SWAP3 SWAP2 POP POP JUMP JUMPDEST PUSH0 DUP2 MLOAD SWAP1 POP PUSH2 0x11F0 DUP2 PUSH2 0xC06 JUMP JUMPDEST SWAP3 SWAP2 POP POP JUMP JUMPDEST PUSH0 DUP1 PUSH0 DUP1 PUSH0 PUSH1 0xA0 DUP7 DUP9 SUB SLT ISZERO PUSH2 0x120F JUMPI PUSH2 0x120E PUSH2 0xB4C JUMP JUMPDEST JUMPDEST PUSH0 PUSH2 0x121C DUP9 DUP3 DUP10 ADD PUSH2 0x11A4 JUMP JUMPDEST SWAP6 POP POP PUSH1 0x20 PUSH2 0x122D DUP9 DUP3 DUP10 ADD PUSH2 0x11CE JUMP JUMPDEST SWAP5 POP POP PUSH1 0x40 PUSH2 0x123E DUP9 DUP3 DUP10 ADD PUSH2 0x11E2 JUMP JUMPDEST SWAP4 POP POP PUSH1 0x60 PUSH2 0x124F DUP9 DUP3 DUP10 ADD PUSH2 0x11E2 JUMP JUMPDEST SWAP3 POP POP PUSH1 0x80 PUSH2 0x1260 DUP9 DUP3 DUP10 ADD PUSH2 0x11A4 JUMP JUMPDEST SWAP2 POP POP SWAP3 SWAP6 POP SWAP3 SWAP6 SWAP1 SWAP4 POP JUMP JUMPDEST PUSH0 PUSH2 0x1277 DUP3 PUSH2 0xBFD JUMP JUMPDEST SWAP2 POP PUSH2 0x1282 DUP4 PUSH2 0xBFD JUMP JUMPDEST SWAP3 POP DUP3 DUP3 MUL PUSH2 0x1290 DUP2 PUSH2 0xBFD JUMP JUMPDEST SWAP2 POP DUP3 DUP3 DIV DUP5 EQ DUP4 ISZERO OR PUSH2 0x12A7 JUMPI PUSH2 0x12A6 PUSH2 0xD98 JUMP JUMPDEST JUMPDEST POP SWAP3 SWAP2 POP POP JUMP JUMPDEST PUSH32 0x4E487B7100000000000000000000000000000000000000000000000000000000 PUSH0 MSTORE PUSH1 0x12 PUSH1 0x4 MSTORE PUSH1 0x24 PUSH0 REVERT JUMPDEST PUSH0 PUSH2 0x12E5 DUP3 PUSH2 0xBFD JUMP JUMPDEST SWAP2 POP PUSH2 0x12F0 DUP4 PUSH2 0xBFD JUMP JUMPDEST SWAP3 POP DUP3 PUSH2 0x1300 JUMPI PUSH2 0x12FF PUSH2 0x12AE JUMP JUMPDEST JUMPDEST DUP3 DUP3 DIV SWAP1 POP SWAP3 SWAP2 POP POP JUMP INVALID LOG2 PUSH5 0x6970667358 0x22 SLT KECCAK256 KECCAK256 SHR AND 0xE3 0xCC 0xB4 DUP14 EXTCODECOPY NUMBER SWAP16 PC GAS JUMPDEST 0x2E SWAP7 EXTCODEHASH DUP16 0xBF SWAP10 0xDF LOG2 0xE8 DUP15 0xF9 ADDRESS SWAP2 MOD 0xE6 0xAC SWAP13 DUP7 STOP PUSH5 0x736F6C6343 STOP ADDMOD XOR STOP CALLER "
				},
				"gasEstimates": {
					"creation": {
						"codeDepositCost": "985800",
						"executionCost": "infinite",
						"totalCost": "infinite"
					},
					"external": {
						"fund()": "infinite",
						"getChainlinkDataFeedLatestAnswer()": "infinite",
						"getFund()": "infinite",
						"getFundSuccess()": "2583",
						"investments(address)": "2801",
						"owner()": "2553",
						"refund()": "infinite",
						"setErc20Addr(address)": "26885",
						"transferOwnership(address)": "26972",
						"updateInvestments(address,uint256)": "25080"
					},
					"internal": {
						"convertEthToUsd(uint256)": "infinite"
					}
				},
				"methodIdentifiers": {
					"fund()": "b60d4288",
					"getChainlinkDataFeedLatestAnswer()": "bea4dfb5",
					"getFund()": "8edd6eb6",
					"getFundSuccess()": "da4658e0",
					"investments(address)": "96b98862",
					"owner()": "8da5cb5b",
					"refund()": "590e1ae3",
					"setErc20Addr(address)": "13ffff01",
					"transferOwnership(address)": "f2fde38b",
					"updateInvestments(address,uint256)": "9505adc7"
				}
			},
			"storageLayout": {
				"storage": [
					{
						"astId": 53,
						"contract": "contract/fund/FundMe.sol:FundMe",
						"label": "investments",
						"offset": 0,
						"slot": "0",
						"type": "t_mapping(t_address,t_uint256)"
					},
					{
						"astId": 63,
						"contract": "contract/fund/FundMe.sol:FundMe",
						"label": "dataFeed",
						"offset": 0,
						"slot": "1",
						"type": "t_contract(AggregatorV3Interface)45"
					},
					{
						"astId": 72,
						"contract": "contract/fund/FundMe.sol:FundMe",
						"label": "owner",
						"offset": 0,
						"slot": "2",
						"type": "t_address"
					},
					{
						"astId": 74,
						"contract": "contract/fund/FundMe.sol:FundMe",
						"label": "deploymentTimestamp",
						"offset": 0,
						"slot": "3",
						"type": "t_uint256"
					},
					{
						"astId": 76,
						"contract": "contract/fund/FundMe.sol:FundMe",
						"label": "lockTime",
						"offset": 0,
						"slot": "4",
						"type": "t_uint256"
					},
					{
						"astId": 78,
						"contract": "contract/fund/FundMe.sol:FundMe",
						"label": "erc20Addr",
						"offset": 0,
						"slot": "5",
						"type": "t_address"
					},
					{
						"astId": 81,
						"contract": "contract/fund/FundMe.sol:FundMe",
						"label": "getFundSuccess",
						"offset": 20,
						"slot": "5",
						"type": "t_bool"
					}
				],
				"types": {
					"t_address": {
						"encoding": "inplace",
						"label": "address",
						"numberOfBytes": "20"
					},
					"t_bool": {
						"encoding": "inplace",
						"label": "bool",
						"numberOfBytes": "1"
					},
					"t_contract(AggregatorV3Interface)45": {
						"encoding": "inplace",
						"label": "contract AggregatorV3Interface",
						"numberOfBytes": "20"
					},
					"t_mapping(t_address,t_uint256)": {
						"encoding": "mapping",
						"key": "t_address",
						"label": "mapping(address => uint256)",
						"numberOfBytes": "32",
						"value": "t_uint256"
					},
					"t_uint256": {
						"encoding": "inplace",
						"label": "uint256",
						"numberOfBytes": "32"
					}
				}
			},
			"userdoc": {
				"kind": "user",
				"methods": {
					"getChainlinkDataFeedLatestAnswer()": {
						"notice": "Returns the latest answer."
					}
				},
				"version": 1
			}
		}
	}
}