{
	"data": {
		"bytecode": {
			"linkReferences": {},
			"object": "608060405234801561000f575f80fd5b506108268061001d5f395ff3fe608060405234801561000f575f80fd5b5060043610610034575f3560e01c80634cfd4c9a14610038578063e650f53614610054575b5f80fd5b610052600480360381019061004d91906103f9565b610073565b005b61005c610110565b60405161006a9291906104e9565b60405180910390f35b815f803373ffffffffffffffffffffffffffffffffffffffff1673ffffffffffffffffffffffffffffffffffffffff1681526020019081526020015f205f0190816100be9190610721565b50805f803373ffffffffffffffffffffffffffffffffffffffff1673ffffffffffffffffffffffffffffffffffffffff1681526020019081526020015f20600101908161010b9190610721565b505050565b6060805f803373ffffffffffffffffffffffffffffffffffffffff1673ffffffffffffffffffffffffffffffffffffffff1681526020019081526020015f205f015f803373ffffffffffffffffffffffffffffffffffffffff1673ffffffffffffffffffffffffffffffffffffffff1681526020019081526020015f2060010181805461019c9061054b565b80601f01602080910402602001604051908101604052809291908181526020018280546101c89061054b565b80156102135780601f106101ea57610100808354040283529160200191610213565b820191905f5260205f20905b8154815290600101906020018083116101f657829003601f168201915b505050505091508080546102269061054b565b80601f01602080910402602001604051908101604052809291908181526020018280546102529061054b565b801561029d5780601f106102745761010080835404028352916020019161029d565b820191905f5260205f20905b81548152906001019060200180831161028057829003601f168201915b50505050509050915091509091565b5f604051905090565b5f80fd5b5f80fd5b5f80fd5b5f80fd5b5f601f19601f8301169050919050565b7f4e487b71000000000000000000000000000000000000000000000000000000005f52604160045260245ffd5b61030b826102c5565b810181811067ffffffffffffffff8211171561032a576103296102d5565b5b80604052505050565b5f61033c6102ac565b90506103488282610302565b919050565b5f67ffffffffffffffff821115610367576103666102d5565b5b610370826102c5565b9050602081019050919050565b828183375f83830152505050565b5f61039d6103988461034d565b610333565b9050828152602081018484840111156103b9576103b86102c1565b5b6103c484828561037d565b509392505050565b5f82601f8301126103e0576103df6102bd565b5b81356103f084826020860161038b565b91505092915050565b5f806040838503121561040f5761040e6102b5565b5b5f83013567ffffffffffffffff81111561042c5761042b6102b9565b5b610438858286016103cc565b925050602083013567ffffffffffffffff811115610459576104586102b9565b5b610465858286016103cc565b9150509250929050565b5f81519050919050565b5f82825260208201905092915050565b5f5b838110156104a657808201518184015260208101905061048b565b5f8484015250505050565b5f6104bb8261046f565b6104c58185610479565b93506104d5818560208601610489565b6104de816102c5565b840191505092915050565b5f6040820190508181035f83015261050181856104b1565b9050818103602083015261051581846104b1565b90509392505050565b7f4e487b71000000000000000000000000000000000000000000000000000000005f52602260045260245ffd5b5f600282049050600182168061056257607f821691505b6020821081036105755761057461051e565b5b50919050565b5f819050815f5260205f209050919050565b5f6020601f8301049050919050565b5f82821b905092915050565b5f600883026105d77fffffffffffffffffffffffffffffffffffffffffffffffffffffffffffffffff8261059c565b6105e1868361059c565b95508019841693508086168417925050509392505050565b5f819050919050565b5f819050919050565b5f61062561062061061b846105f9565b610602565b6105f9565b9050919050565b5f819050919050565b61063e8361060b565b61065261064a8261062c565b8484546105a8565b825550505050565b5f90565b61066661065a565b610671818484610635565b505050565b5b81811015610694576106895f8261065e565b600181019050610677565b5050565b601f8211156106d9576106aa8161057b565b6106b38461058d565b810160208510156106c2578190505b6106d66106ce8561058d565b830182610676565b50505b505050565b5f82821c905092915050565b5f6106f95f19846008026106de565b1980831691505092915050565b5f61071183836106ea565b9150826002028217905092915050565b61072a8261046f565b67ffffffffffffffff811115610743576107426102d5565b5b61074d825461054b565b610758828285610698565b5f60209050601f831160018114610789575f8415610777578287015190505b6107818582610706565b8655506107e8565b601f1984166107978661057b565b5f5b828110156107be57848901518255600182019150602085019450602081019050610799565b868310156107db57848901516107d7601f8916826106ea565b8355505b6001600288020188555050505b50505050505056fea26469706673582212206c50f0ed357e1f7359c5372a8d9400ee6f8a8a02f6ca090c7af9b310c816670064736f6c63430008180033",
			"opcodes": "PUSH1 0x80 PUSH1 0x40 MSTORE CALLVALUE DUP1 ISZERO PUSH2 0xF JUMPI PUSH0 DUP1 REVERT JUMPDEST POP PUSH2 0x826 DUP1 PUSH2 0x1D PUSH0 CODECOPY PUSH0 RETURN INVALID PUSH1 0x80 PUSH1 0x40 MSTORE CALLVALUE DUP1 ISZERO PUSH2 0xF JUMPI PUSH0 DUP1 REVERT JUMPDEST POP PUSH1 0x4 CALLDATASIZE LT PUSH2 0x34 JUMPI PUSH0 CALLDATALOAD PUSH1 0xE0 SHR DUP1 PUSH4 0x4CFD4C9A EQ PUSH2 0x38 JUMPI DUP1 PUSH4 0xE650F536 EQ PUSH2 0x54 JUMPI JUMPDEST PUSH0 DUP1 REVERT JUMPDEST PUSH2 0x52 PUSH1 0x4 DUP1 CALLDATASIZE SUB DUP2 ADD SWAP1 PUSH2 0x4D SWAP2 SWAP1 PUSH2 0x3F9 JUMP JUMPDEST PUSH2 0x73 JUMP JUMPDEST STOP JUMPDEST PUSH2 0x5C PUSH2 0x110 JUMP JUMPDEST PUSH1 0x40 MLOAD PUSH2 0x6A SWAP3 SWAP2 SWAP1 PUSH2 0x4E9 JUMP JUMPDEST PUSH1 0x40 MLOAD DUP1 SWAP2 SUB SWAP1 RETURN JUMPDEST DUP2 PUSH0 DUP1 CALLER PUSH20 0xFFFFFFFFFFFFFFFFFFFFFFFFFFFFFFFFFFFFFFFF AND PUSH20 0xFFFFFFFFFFFFFFFFFFFFFFFFFFFFFFFFFFFFFFFF AND DUP2 MSTORE PUSH1 0x20 ADD SWAP1 DUP2 MSTORE PUSH1 0x20 ADD PUSH0 KECCAK256 PUSH0 ADD SWAP1 DUP2 PUSH2 0xBE SWAP2 SWAP1 PUSH2 0x721 JUMP JUMPDEST POP DUP1 PUSH0 DUP1 CALLER PUSH20 0xFFFFFFFFFFFFFFFFFFFFFFFFFFFFFFFFFFFFFFFF AND PUSH20 0xFFFFFFFFFFFFFFFFFFFFFFFFFFFFFFFFFFFFFFFF AND DUP2 MSTORE PUSH1 0x20 ADD SWAP1 DUP2 MSTORE PUSH1 0x20 ADD PUSH0 KECCAK256 PUSH1 0x1 ADD SWAP1 DUP2 PUSH2 0x10B SWAP2 SWAP1 PUSH2 0x721 JUMP JUMPDEST POP POP POP JUMP JUMPDEST PUSH1 0x60 DUP1 PUSH0 DUP1 CALLER PUSH20 0xFFFFFFFFFFFFFFFFFFFFFFFFFFFFFFFFFFFFFFFF AND PUSH20 0xFFFFFFFFFFFFFFFFFFFFFFFFFFFFFFFFFFFFFFFF AND DUP2 MSTORE PUSH1 0x20 ADD SWAP1 DUP2 MSTORE PUSH1 0x20 ADD PUSH0 KECCAK256 PUSH0 ADD PUSH0 DUP1 CALLER PUSH20 0xFFFFFFFFFFFFFFFFFFFFFFFFFFFFFFFFFFFFFFFF AND PUSH20 0xFFFFFFFFFFFFFFFFFFFFFFFFFFFFFFFFFFFFFFFF AND DUP2 MSTORE PUSH1 0x20 ADD SWAP1 DUP2 MSTORE PUSH1 0x20 ADD PUSH0 KECCAK256 PUSH1 0x1 ADD DUP2 DUP1 SLOAD PUSH2 0x19C SWAP1 PUSH2 0x54B JUMP JUMPDEST DUP1 PUSH1 0x1F ADD PUSH1 0x20 DUP1 SWAP2 DIV MUL PUSH1 0x20 ADD PUSH1 0x40 MLOAD SWAP1 DUP2 ADD PUSH1 0x40 MSTORE DUP1 SWAP3 SWAP2 SWAP1 DUP2 DUP2 MSTORE PUSH1 0x20 ADD DUP3 DUP1 SLOAD PUSH2 0x1C8 SWAP1 PUSH2 0x54B JUMP JUMPDEST DUP1 ISZERO PUSH2 0x213 JUMPI DUP1 PUSH1 0x1F LT PUSH2 0x1EA JUMPI PUSH2 0x100 DUP1 DUP4 SLOAD DIV MUL DUP4 MSTORE SWAP2 PUSH1 0x20 ADD SWAP2 PUSH2 0x213 JUMP JUMPDEST DUP3 ADD SWAP2 SWAP1 PUSH0 MSTORE PUSH1 0x20 PUSH0 KECCAK256 SWAP1 JUMPDEST DUP2 SLOAD DUP2 MSTORE SWAP1 PUSH1 0x1 ADD SWAP1 PUSH1 0x20 ADD DUP1 DUP4 GT PUSH2 0x1F6 JUMPI DUP3 SWAP1 SUB PUSH1 0x1F AND DUP3 ADD SWAP2 JUMPDEST POP POP POP POP POP SWAP2 POP DUP1 DUP1 SLOAD PUSH2 0x226 SWAP1 PUSH2 0x54B JUMP JUMPDEST DUP1 PUSH1 0x1F ADD PUSH1 0x20 DUP1 SWAP2 DIV MUL PUSH1 0x20 ADD PUSH1 0x40 MLOAD SWAP1 DUP2 ADD PUSH1 0x40 MSTORE DUP1 SWAP3 SWAP2 SWAP1 DUP2 DUP2 MSTORE PUSH1 0x20 ADD DUP3 DUP1 SLOAD PUSH2 0x252 SWAP1 PUSH2 0x54B JUMP JUMPDEST DUP1 ISZERO PUSH2 0x29D JUMPI DUP1 PUSH1 0x1F LT PUSH2 0x274 JUMPI PUSH2 0x100 DUP1 DUP4 SLOAD DIV MUL DUP4 MSTORE SWAP2 PUSH1 0x20 ADD SWAP2 PUSH2 0x29D JUMP JUMPDEST DUP3 ADD SWAP2 SWAP1 PUSH0 MSTORE PUSH1 0x20 PUSH0 KECCAK256 SWAP1 JUMPDEST DUP2 SLOAD DUP2 MSTORE SWAP1 PUSH1 0x1 ADD SWAP1 PUSH1 0x20 ADD DUP1 DUP4 GT PUSH2 0x280 JUMPI DUP3 SWAP1 SUB PUSH1 0x1F AND DUP3 ADD SWAP2 JUMPDEST POP POP POP POP POP SWAP1 POP SWAP2 POP SWAP2 POP SWAP1 SWAP2 JUMP JUMPDEST PUSH0 PUSH1 0x40 MLOAD SWAP1 POP SWAP1 JUMP JUMPDEST PUSH0 DUP1 REVERT JUMPDEST PUSH0 DUP1 REVERT JUMPDEST PUSH0 DUP1 REVERT JUMPDEST PUSH0 DUP1 REVERT JUMPDEST PUSH0 PUSH1 0x1F NOT PUSH1 0x1F DUP4 ADD AND SWAP1 POP SWAP2 SWAP1 POP JUMP JUMPDEST PUSH32 0x4E487B7100000000000000000000000000000000000000000000000000000000 PUSH0 MSTORE PUSH1 0x41 PUSH1 0x4 MSTORE PUSH1 0x24 PUSH0 REVERT JUMPDEST PUSH2 0x30B DUP3 PUSH2 0x2C5 JUMP JUMPDEST DUP2 ADD DUP2 DUP2 LT PUSH8 0xFFFFFFFFFFFFFFFF DUP3 GT OR ISZERO PUSH2 0x32A JUMPI PUSH2 0x329 PUSH2 0x2D5 JUMP JUMPDEST JUMPDEST DUP1 PUSH1 0x40 MSTORE POP POP POP JUMP JUMPDEST PUSH0 PUSH2 0x33C PUSH2 0x2AC JUMP JUMPDEST SWAP1 POP PUSH2 0x348 DUP3 DUP3 PUSH2 0x302 JUMP JUMPDEST SWAP2 SWAP1 POP JUMP JUMPDEST PUSH0 PUSH8 0xFFFFFFFFFFFFFFFF DUP3 GT ISZERO PUSH2 0x367 JUMPI PUSH2 0x366 PUSH2 0x2D5 JUMP JUMPDEST JUMPDEST PUSH2 0x370 DUP3 PUSH2 0x2C5 JUMP JUMPDEST SWAP1 POP PUSH1 0x20 DUP2 ADD SWAP1 POP SWAP2 SWAP1 POP JUMP JUMPDEST DUP3 DUP2 DUP4 CALLDATACOPY PUSH0 DUP4 DUP4 ADD MSTORE POP POP POP JUMP JUMPDEST PUSH0 PUSH2 0x39D PUSH2 0x398 DUP5 PUSH2 0x34D JUMP JUMPDEST PUSH2 0x333 JUMP JUMPDEST SWAP1 POP DUP3 DUP2 MSTORE PUSH1 0x20 DUP2 ADD DUP5 DUP5 DUP5 ADD GT ISZERO PUSH2 0x3B9 JUMPI PUSH2 0x3B8 PUSH2 0x2C1 JUMP JUMPDEST JUMPDEST PUSH2 0x3C4 DUP5 DUP3 DUP6 PUSH2 0x37D JUMP JUMPDEST POP SWAP4 SWAP3 POP POP POP JUMP JUMPDEST PUSH0 DUP3 PUSH1 0x1F DUP4 ADD SLT PUSH2 0x3E0 JUMPI PUSH2 0x3DF PUSH2 0x2BD JUMP JUMPDEST JUMPDEST DUP2 CALLDATALOAD PUSH2 0x3F0 DUP5 DUP3 PUSH1 0x20 DUP7 ADD PUSH2 0x38B JUMP JUMPDEST SWAP2 POP POP SWAP3 SWAP2 POP POP JUMP JUMPDEST PUSH0 DUP1 PUSH1 0x40 DUP4 DUP6 SUB SLT ISZERO PUSH2 0x40F JUMPI PUSH2 0x40E PUSH2 0x2B5 JUMP JUMPDEST JUMPDEST PUSH0 DUP4 ADD CALLDATALOAD PUSH8 0xFFFFFFFFFFFFFFFF DUP2 GT ISZERO PUSH2 0x42C JUMPI PUSH2 0x42B PUSH2 0x2B9 JUMP JUMPDEST JUMPDEST PUSH2 0x438 DUP6 DUP3 DUP7 ADD PUSH2 0x3CC JUMP JUMPDEST SWAP3 POP POP PUSH1 0x20 DUP4 ADD CALLDATALOAD PUSH8 0xFFFFFFFFFFFFFFFF DUP2 GT ISZERO PUSH2 0x459 JUMPI PUSH2 0x458 PUSH2 0x2B9 JUMP JUMPDEST JUMPDEST PUSH2 0x465 DUP6 DUP3 DUP7 ADD PUSH2 0x3CC JUMP JUMPDEST SWAP2 POP POP SWAP3 POP SWAP3 SWAP1 POP JUMP JUMPDEST PUSH0 DUP2 MLOAD SWAP1 POP SWAP2 SWAP1 POP JUMP JUMPDEST PUSH0 DUP3 DUP3 MSTORE PUSH1 0x20 DUP3 ADD SWAP1 POP SWAP3 SWAP2 POP POP JUMP JUMPDEST PUSH0 JUMPDEST DUP4 DUP2 LT ISZERO PUSH2 0x4A6 JUMPI DUP1 DUP3 ADD MLOAD DUP2 DUP5 ADD MSTORE PUSH1 0x20 DUP2 ADD SWAP1 POP PUSH2 0x48B JUMP JUMPDEST PUSH0 DUP5 DUP5 ADD MSTORE POP POP POP POP JUMP JUMPDEST PUSH0 PUSH2 0x4BB DUP3 PUSH2 0x46F JUMP JUMPDEST PUSH2 0x4C5 DUP2 DUP6 PUSH2 0x479 JUMP JUMPDEST SWAP4 POP PUSH2 0x4D5 DUP2 DUP6 PUSH1 0x20 DUP7 ADD PUSH2 0x489 JUMP JUMPDEST PUSH2 0x4DE DUP2 PUSH2 0x2C5 JUMP JUMPDEST DUP5 ADD SWAP2 POP POP SWAP3 SWAP2 POP POP JUMP JUMPDEST PUSH0 PUSH1 0x40 DUP3 ADD SWAP1 POP DUP2 DUP2 SUB PUSH0 DUP4 ADD MSTORE PUSH2 0x501 DUP2 DUP6 PUSH2 0x4B1 JUMP JUMPDEST SWAP1 POP DUP2 DUP2 SUB PUSH1 0x20 DUP4 ADD MSTORE PUSH2 0x515 DUP2 DUP5 PUSH2 0x4B1 JUMP JUMPDEST SWAP1 POP SWAP4 SWAP3 POP POP POP JUMP JUMPDEST PUSH32 0x4E487B7100000000000000000000000000000000000000000000000000000000 PUSH0 MSTORE PUSH1 0x22 PUSH1 0x4 MSTORE PUSH1 0x24 PUSH0 REVERT JUMPDEST PUSH0 PUSH1 0x2 DUP3 DIV SWAP1 POP PUSH1 0x1 DUP3 AND DUP1 PUSH2 0x562 JUMPI PUSH1 0x7F DUP3 AND SWAP2 POP JUMPDEST PUSH1 0x20 DUP3 LT DUP2 SUB PUSH2 0x575 JUMPI PUSH2 0x574 PUSH2 0x51E JUMP JUMPDEST JUMPDEST POP SWAP2 SWAP1 POP JUMP JUMPDEST PUSH0 DUP2 SWAP1 POP DUP2 PUSH0 MSTORE PUSH1 0x20 PUSH0 KECCAK256 SWAP1 POP SWAP2 SWAP1 POP JUMP JUMPDEST PUSH0 PUSH1 0x20 PUSH1 0x1F DUP4 ADD DIV SWAP1 POP SWAP2 SWAP1 POP JUMP JUMPDEST PUSH0 DUP3 DUP3 SHL SWAP1 POP SWAP3 SWAP2 POP POP JUMP JUMPDEST PUSH0 PUSH1 0x8 DUP4 MUL PUSH2 0x5D7 PUSH32 0xFFFFFFFFFFFFFFFFFFFFFFFFFFFFFFFFFFFFFFFFFFFFFFFFFFFFFFFFFFFFFFFF DUP3 PUSH2 0x59C JUMP JUMPDEST PUSH2 0x5E1 DUP7 DUP4 PUSH2 0x59C JUMP JUMPDEST SWAP6 POP DUP1 NOT DUP5 AND SWAP4 POP DUP1 DUP7 AND DUP5 OR SWAP3 POP POP POP SWAP4 SWAP3 POP POP POP JUMP JUMPDEST PUSH0 DUP2 SWAP1 POP SWAP2 SWAP1 POP JUMP JUMPDEST PUSH0 DUP2 SWAP1 POP SWAP2 SWAP1 POP JUMP JUMPDEST PUSH0 PUSH2 0x625 PUSH2 0x620 PUSH2 0x61B DUP5 PUSH2 0x5F9 JUMP JUMPDEST PUSH2 0x602 JUMP JUMPDEST PUSH2 0x5F9 JUMP JUMPDEST SWAP1 POP SWAP2 SWAP1 POP JUMP JUMPDEST PUSH0 DUP2 SWAP1 POP SWAP2 SWAP1 POP JUMP JUMPDEST PUSH2 0x63E DUP4 PUSH2 0x60B JUMP JUMPDEST PUSH2 0x652 PUSH2 0x64A DUP3 PUSH2 0x62C JUMP JUMPDEST DUP5 DUP5 SLOAD PUSH2 0x5A8 JUMP JUMPDEST DUP3 SSTORE POP POP POP POP JUMP JUMPDEST PUSH0 SWAP1 JUMP JUMPDEST PUSH2 0x666 PUSH2 0x65A JUMP JUMPDEST PUSH2 0x671 DUP2 DUP5 DUP5 PUSH2 0x635 JUMP JUMPDEST POP POP POP JUMP JUMPDEST JUMPDEST DUP2 DUP2 LT ISZERO PUSH2 0x694 JUMPI PUSH2 0x689 PUSH0 DUP3 PUSH2 0x65E JUMP JUMPDEST PUSH1 0x1 DUP2 ADD SWAP1 POP PUSH2 0x677 JUMP JUMPDEST POP POP JUMP JUMPDEST PUSH1 0x1F DUP3 GT ISZERO PUSH2 0x6D9 JUMPI PUSH2 0x6AA DUP2 PUSH2 0x57B JUMP JUMPDEST PUSH2 0x6B3 DUP5 PUSH2 0x58D JUMP JUMPDEST DUP2 ADD PUSH1 0x20 DUP6 LT ISZERO PUSH2 0x6C2 JUMPI DUP2 SWAP1 POP JUMPDEST PUSH2 0x6D6 PUSH2 0x6CE DUP6 PUSH2 0x58D JUMP JUMPDEST DUP4 ADD DUP3 PUSH2 0x676 JUMP JUMPDEST POP POP JUMPDEST POP POP POP JUMP JUMPDEST PUSH0 DUP3 DUP3 SHR SWAP1 POP SWAP3 SWAP2 POP POP JUMP JUMPDEST PUSH0 PUSH2 0x6F9 PUSH0 NOT DUP5 PUSH1 0x8 MUL PUSH2 0x6DE JUMP JUMPDEST NOT DUP1 DUP4 AND SWAP2 POP POP SWAP3 SWAP2 POP POP JUMP JUMPDEST PUSH0 PUSH2 0x711 DUP4 DUP4 PUSH2 0x6EA JUMP JUMPDEST SWAP2 POP DUP3 PUSH1 0x2 MUL DUP3 OR SWAP1 POP SWAP3 SWAP2 POP POP JUMP JUMPDEST PUSH2 0x72A DUP3 PUSH2 0x46F JUMP JUMPDEST PUSH8 0xFFFFFFFFFFFFFFFF DUP2 GT ISZERO PUSH2 0x743 JUMPI PUSH2 0x742 PUSH2 0x2D5 JUMP JUMPDEST JUMPDEST PUSH2 0x74D DUP3 SLOAD PUSH2 0x54B JUMP JUMPDEST PUSH2 0x758 DUP3 DUP3 DUP6 PUSH2 0x698 JUMP JUMPDEST PUSH0 PUSH1 0x20 SWAP1 POP PUSH1 0x1F DUP4 GT PUSH1 0x1 DUP2 EQ PUSH2 0x789 JUMPI PUSH0 DUP5 ISZERO PUSH2 0x777 JUMPI DUP3 DUP8 ADD MLOAD SWAP1 POP JUMPDEST PUSH2 0x781 DUP6 DUP3 PUSH2 0x706 JUMP JUMPDEST DUP7 SSTORE POP PUSH2 0x7E8 JUMP JUMPDEST PUSH1 0x1F NOT DUP5 AND PUSH2 0x797 DUP7 PUSH2 0x57B JUMP JUMPDEST PUSH0 JUMPDEST DUP3 DUP2 LT ISZERO PUSH2 0x7BE JUMPI DUP5 DUP10 ADD MLOAD DUP3 SSTORE PUSH1 0x1 DUP3 ADD SWAP2 POP PUSH1 0x20 DUP6 ADD SWAP5 POP PUSH1 0x20 DUP2 ADD SWAP1 POP PUSH2 0x799 JUMP JUMPDEST DUP7 DUP4 LT ISZERO PUSH2 0x7DB JUMPI DUP5 DUP10 ADD MLOAD PUSH2 0x7D7 PUSH1 0x1F DUP10 AND DUP3 PUSH2 0x6EA JUMP JUMPDEST DUP4 SSTORE POP JUMPDEST PUSH1 0x1 PUSH1 0x2 DUP9 MUL ADD DUP9 SSTORE POP POP POP JUMPDEST POP POP POP POP POP POP JUMP INVALID LOG2 PUSH5 0x6970667358 0x22 SLT KECCAK256 PUSH13 0x50F0ED357E1F7359C5372A8D94 STOP 0xEE PUSH16 0x8A8A02F6CA090C7AF9B310C816670064 PUSH20 0x6F6C634300081800330000000000000000000000 "
		},
		"gasEstimates": {
			"creation": {
				"codeDepositCost": "417200",
				"executionCost": "453",
				"totalCost": "417653"
			},
			"external": {
				"createOrUpdateStatus(string,string)": "infinite",
				"getUserStatus()": "infinite"
			}
		},
		"methodIdentifiers": {
			"createOrUpdateStatus(string,string)": "4cfd4c9a",
			"getUserStatus()": "e650f536"
		}
	},
	"abi": [
		{
			"inputs": [
				{
					"internalType": "string",
					"name": "_name",
					"type": "string"
				},
				{
					"internalType": "string",
					"name": "_message",
					"type": "string"
				}
			],
			"name": "createOrUpdateStatus",
			"outputs": [],
			"stateMutability": "nonpayable",
			"type": "function"
		},
		{
			"inputs": [],
			"name": "getUserStatus",
			"outputs": [
				{
					"internalType": "string",
					"name": "",
					"type": "string"
				},
				{
					"internalType": "string",
					"name": "",
					"type": "string"
				}
			],
			"stateMutability": "view",
			"type": "function"
		}
	]
}