{
	"contract/TipJar.sol": {
		"TipJar": {
			"abi": [
				{
					"inputs": [],
					"stateMutability": "nonpayable",
					"type": "constructor"
				},
				{
					"inputs": [],
					"name": "getBalance",
					"outputs": [
						{
							"internalType": "uint256",
							"name": "",
							"type": "uint256"
						}
					],
					"stateMutability": "view",
					"type": "function"
				},
				{
					"inputs": [],
					"name": "owner",
					"outputs": [
						{
							"internalType": "address",
							"name": "",
							"type": "address"
						}
					],
					"stateMutability": "view",
					"type": "function"
				},
				{
					"inputs": [],
					"name": "tip",
					"outputs": [],
					"stateMutability": "payable",
					"type": "function"
				},
				{
					"inputs": [],
					"name": "withdraw",
					"outputs": [],
					"stateMutability": "nonpayable",
					"type": "function"
				}
			],
			"devdoc": {
				"kind": "dev",
				"methods": {},
				"version": 1
			},
			"evm": {
				"assembly": "    /* \"contract/TipJar.sol\":288:1016  contract TipJar {... */\n  mstore(0x40, 0x80)\n    /* \"contract/TipJar.sol\":340:391  constructor() {... */\n  callvalue\n  dup1\n  iszero\n  tag_1\n  jumpi\n  0x00\n  dup1\n  revert\ntag_1:\n  pop\n    /* \"contract/TipJar.sol\":373:383  msg.sender */\n  caller\n    /* \"contract/TipJar.sol\":365:370  owner */\n  0x00\n  dup1\n    /* \"contract/TipJar.sol\":365:383  owner = msg.sender */\n  0x0100\n  exp\n  dup2\n  sload\n  dup2\n  0xffffffffffffffffffffffffffffffffffffffff\n  mul\n  not\n  and\n  swap1\n  dup4\n  0xffffffffffffffffffffffffffffffffffffffff\n  and\n  mul\n  or\n  swap1\n  sstore\n  pop\n    /* \"contract/TipJar.sol\":288:1016  contract TipJar {... */\n  dataSize(sub_0)\n  dup1\n  dataOffset(sub_0)\n  0x00\n  codecopy\n  0x00\n  return\nstop\n\nsub_0: assembly {\n        /* \"contract/TipJar.sol\":288:1016  contract TipJar {... */\n      mstore(0x40, 0x80)\n      jumpi(tag_1, lt(calldatasize, 0x04))\n      shr(0xe0, calldataload(0x00))\n      dup1\n      0x12065fe0\n      eq\n      tag_2\n      jumpi\n      dup1\n      0x2755cd2d\n      eq\n      tag_3\n      jumpi\n      dup1\n      0x3ccfd60b\n      eq\n      tag_4\n      jumpi\n      dup1\n      0x8da5cb5b\n      eq\n      tag_5\n      jumpi\n    tag_1:\n      0x00\n      dup1\n      revert\n        /* \"contract/TipJar.sol\":904:1013  function getBalance() public onlyOwner view returns (uint256) {... */\n    tag_2:\n      callvalue\n      dup1\n      iszero\n      tag_6\n      jumpi\n      0x00\n      dup1\n      revert\n    tag_6:\n      pop\n      tag_7\n      tag_8\n      jump\t// in\n    tag_7:\n      mload(0x40)\n      tag_9\n      swap2\n      swap1\n      tag_10\n      jump\t// in\n    tag_9:\n      mload(0x40)\n      dup1\n      swap2\n      sub\n      swap1\n      return\n        /* \"contract/TipJar.sol\":521:639  function tip() public payable {... */\n    tag_3:\n      tag_11\n      tag_12\n      jump\t// in\n    tag_11:\n      stop\n        /* \"contract/TipJar.sol\":647:896  function withdraw() public onlyOwner {... */\n    tag_4:\n      callvalue\n      dup1\n      iszero\n      tag_13\n      jumpi\n      0x00\n      dup1\n      revert\n    tag_13:\n      pop\n      tag_14\n      tag_15\n      jump\t// in\n    tag_14:\n      stop\n        /* \"contract/TipJar.sol\":311:331  address public owner */\n    tag_5:\n      callvalue\n      dup1\n      iszero\n      tag_16\n      jumpi\n      0x00\n      dup1\n      revert\n    tag_16:\n      pop\n      tag_17\n      tag_18\n      jump\t// in\n    tag_17:\n      mload(0x40)\n      tag_19\n      swap2\n      swap1\n      tag_20\n      jump\t// in\n    tag_19:\n      mload(0x40)\n      dup1\n      swap2\n      sub\n      swap1\n      return\n        /* \"contract/TipJar.sol\":904:1013  function getBalance() public onlyOwner view returns (uint256) {... */\n    tag_8:\n        /* \"contract/TipJar.sol\":957:964  uint256 */\n      0x00\n        /* \"contract/TipJar.sol\":453:458  owner */\n      dup1\n      0x00\n      swap1\n      sload\n      swap1\n      0x0100\n      exp\n      swap1\n      div\n      0xffffffffffffffffffffffffffffffffffffffff\n      and\n        /* \"contract/TipJar.sol\":439:458  msg.sender == owner */\n      0xffffffffffffffffffffffffffffffffffffffff\n      and\n        /* \"contract/TipJar.sol\":439:449  msg.sender */\n      caller\n        /* \"contract/TipJar.sol\":439:458  msg.sender == owner */\n      0xffffffffffffffffffffffffffffffffffffffff\n      and\n      eq\n        /* \"contract/TipJar.sol\":431:493  require(msg.sender == owner, \"There are no tips to withdraw.\") */\n      tag_22\n      jumpi\n      mload(0x40)\n      0x08c379a000000000000000000000000000000000000000000000000000000000\n      dup2\n      mstore\n      0x04\n      add\n      tag_23\n      swap1\n      tag_24\n      jump\t// in\n    tag_23:\n      mload(0x40)\n      dup1\n      swap2\n      sub\n      swap1\n      revert\n    tag_22:\n        /* \"contract/TipJar.sol\":984:1005  address(this).balance */\n      selfbalance\n        /* \"contract/TipJar.sol\":977:1005  return address(this).balance */\n      swap1\n      pop\n        /* \"contract/TipJar.sol\":904:1013  function getBalance() public onlyOwner view returns (uint256) {... */\n      swap1\n      jump\t// out\n        /* \"contract/TipJar.sol\":521:639  function tip() public payable {... */\n    tag_12:\n        /* \"contract/TipJar.sol\":582:583  0 */\n      0x00\n        /* \"contract/TipJar.sol\":570:579  msg.value */\n      callvalue\n        /* \"contract/TipJar.sol\":570:583  msg.value > 0 */\n      gt\n        /* \"contract/TipJar.sol\":562:631  require(msg.value > 0, \"You should send a tip to use this function.\") */\n      tag_27\n      jumpi\n      mload(0x40)\n      0x08c379a000000000000000000000000000000000000000000000000000000000\n      dup2\n      mstore\n      0x04\n      add\n      tag_28\n      swap1\n      tag_29\n      jump\t// in\n    tag_28:\n      mload(0x40)\n      dup1\n      swap2\n      sub\n      swap1\n      revert\n    tag_27:\n        /* \"contract/TipJar.sol\":521:639  function tip() public payable {... */\n      jump\t// out\n        /* \"contract/TipJar.sol\":647:896  function withdraw() public onlyOwner {... */\n    tag_15:\n        /* \"contract/TipJar.sol\":453:458  owner */\n      0x00\n      dup1\n      sload\n      swap1\n      0x0100\n      exp\n      swap1\n      div\n      0xffffffffffffffffffffffffffffffffffffffff\n      and\n        /* \"contract/TipJar.sol\":439:458  msg.sender == owner */\n      0xffffffffffffffffffffffffffffffffffffffff\n      and\n        /* \"contract/TipJar.sol\":439:449  msg.sender */\n      caller\n        /* \"contract/TipJar.sol\":439:458  msg.sender == owner */\n      0xffffffffffffffffffffffffffffffffffffffff\n      and\n      eq\n        /* \"contract/TipJar.sol\":431:493  require(msg.sender == owner, \"There are no tips to withdraw.\") */\n      tag_31\n      jumpi\n      mload(0x40)\n      0x08c379a000000000000000000000000000000000000000000000000000000000\n      dup2\n      mstore\n      0x04\n      add\n      tag_32\n      swap1\n      tag_24\n      jump\t// in\n    tag_32:\n      mload(0x40)\n      dup1\n      swap2\n      sub\n      swap1\n      revert\n    tag_31:\n        /* \"contract/TipJar.sol\":705:728  uint256 contractBalance */\n      0x00\n        /* \"contract/TipJar.sol\":731:752  address(this).balance */\n      selfbalance\n        /* \"contract/TipJar.sol\":705:752  uint256 contractBalance = address(this).balance */\n      swap1\n      pop\n        /* \"contract/TipJar.sol\":799:800  0 */\n      0x00\n        /* \"contract/TipJar.sol\":781:796  contractBalance */\n      dup2\n        /* \"contract/TipJar.sol\":781:800  contractBalance > 0 */\n      gt\n        /* \"contract/TipJar.sol\":773:835  require(contractBalance > 0, \"There are no tips to withdraw.\") */\n      tag_34\n      jumpi\n      mload(0x40)\n      0x08c379a000000000000000000000000000000000000000000000000000000000\n      dup2\n      mstore\n      0x04\n      add\n      tag_35\n      swap1\n      tag_24\n      jump\t// in\n    tag_35:\n      mload(0x40)\n      dup1\n      swap2\n      sub\n      swap1\n      revert\n    tag_34:\n        /* \"contract/TipJar.sol\":856:861  owner */\n      0x00\n      dup1\n      sload\n      swap1\n      0x0100\n      exp\n      swap1\n      div\n      0xffffffffffffffffffffffffffffffffffffffff\n      and\n        /* \"contract/TipJar.sol\":848:871  payable(owner).transfer */\n      0xffffffffffffffffffffffffffffffffffffffff\n      and\n        /* \"contract/TipJar.sol\":848:888  payable(owner).transfer(contractBalance) */\n      0x08fc\n        /* \"contract/TipJar.sol\":872:887  contractBalance */\n      dup3\n        /* \"contract/TipJar.sol\":848:888  payable(owner).transfer(contractBalance) */\n      swap1\n      dup2\n      iszero\n      mul\n      swap1\n      mload(0x40)\n      0x00\n      mload(0x40)\n      dup1\n      dup4\n      sub\n      dup2\n      dup6\n      dup9\n      dup9\n      call\n      swap4\n      pop\n      pop\n      pop\n      pop\n      iszero\n      dup1\n      iszero\n      tag_37\n      jumpi\n      returndatasize\n      0x00\n      dup1\n      returndatacopy\n      revert(0x00, returndatasize)\n    tag_37:\n      pop\n        /* \"contract/TipJar.sol\":684:896  {... */\n      pop\n        /* \"contract/TipJar.sol\":647:896  function withdraw() public onlyOwner {... */\n      jump\t// out\n        /* \"contract/TipJar.sol\":311:331  address public owner */\n    tag_18:\n      0x00\n      dup1\n      sload\n      swap1\n      0x0100\n      exp\n      swap1\n      div\n      0xffffffffffffffffffffffffffffffffffffffff\n      and\n      dup2\n      jump\t// out\n        /* \"#utility.yul\":7:84   */\n    tag_38:\n        /* \"#utility.yul\":44:51   */\n      0x00\n        /* \"#utility.yul\":73:78   */\n      dup2\n        /* \"#utility.yul\":62:78   */\n      swap1\n      pop\n        /* \"#utility.yul\":7:84   */\n      swap2\n      swap1\n      pop\n      jump\t// out\n        /* \"#utility.yul\":90:208   */\n    tag_39:\n        /* \"#utility.yul\":177:201   */\n      tag_51\n        /* \"#utility.yul\":195:200   */\n      dup2\n        /* \"#utility.yul\":177:201   */\n      tag_38\n      jump\t// in\n    tag_51:\n        /* \"#utility.yul\":172:175   */\n      dup3\n        /* \"#utility.yul\":165:202   */\n      mstore\n        /* \"#utility.yul\":90:208   */\n      pop\n      pop\n      jump\t// out\n        /* \"#utility.yul\":214:436   */\n    tag_10:\n        /* \"#utility.yul\":307:311   */\n      0x00\n        /* \"#utility.yul\":345:347   */\n      0x20\n        /* \"#utility.yul\":334:343   */\n      dup3\n        /* \"#utility.yul\":330:348   */\n      add\n        /* \"#utility.yul\":322:348   */\n      swap1\n      pop\n        /* \"#utility.yul\":358:429   */\n      tag_53\n        /* \"#utility.yul\":426:427   */\n      0x00\n        /* \"#utility.yul\":415:424   */\n      dup4\n        /* \"#utility.yul\":411:428   */\n      add\n        /* \"#utility.yul\":402:408   */\n      dup5\n        /* \"#utility.yul\":358:429   */\n      tag_39\n      jump\t// in\n    tag_53:\n        /* \"#utility.yul\":214:436   */\n      swap3\n      swap2\n      pop\n      pop\n      jump\t// out\n        /* \"#utility.yul\":442:568   */\n    tag_40:\n        /* \"#utility.yul\":479:486   */\n      0x00\n        /* \"#utility.yul\":519:561   */\n      0xffffffffffffffffffffffffffffffffffffffff\n        /* \"#utility.yul\":512:517   */\n      dup3\n        /* \"#utility.yul\":508:562   */\n      and\n        /* \"#utility.yul\":497:562   */\n      swap1\n      pop\n        /* \"#utility.yul\":442:568   */\n      swap2\n      swap1\n      pop\n      jump\t// out\n        /* \"#utility.yul\":574:670   */\n    tag_41:\n        /* \"#utility.yul\":611:618   */\n      0x00\n        /* \"#utility.yul\":640:664   */\n      tag_56\n        /* \"#utility.yul\":658:663   */\n      dup3\n        /* \"#utility.yul\":640:664   */\n      tag_40\n      jump\t// in\n    tag_56:\n        /* \"#utility.yul\":629:664   */\n      swap1\n      pop\n        /* \"#utility.yul\":574:670   */\n      swap2\n      swap1\n      pop\n      jump\t// out\n        /* \"#utility.yul\":676:794   */\n    tag_42:\n        /* \"#utility.yul\":763:787   */\n      tag_58\n        /* \"#utility.yul\":781:786   */\n      dup2\n        /* \"#utility.yul\":763:787   */\n      tag_41\n      jump\t// in\n    tag_58:\n        /* \"#utility.yul\":758:761   */\n      dup3\n        /* \"#utility.yul\":751:788   */\n      mstore\n        /* \"#utility.yul\":676:794   */\n      pop\n      pop\n      jump\t// out\n        /* \"#utility.yul\":800:1022   */\n    tag_20:\n        /* \"#utility.yul\":893:897   */\n      0x00\n        /* \"#utility.yul\":931:933   */\n      0x20\n        /* \"#utility.yul\":920:929   */\n      dup3\n        /* \"#utility.yul\":916:934   */\n      add\n        /* \"#utility.yul\":908:934   */\n      swap1\n      pop\n        /* \"#utility.yul\":944:1015   */\n      tag_60\n        /* \"#utility.yul\":1012:1013   */\n      0x00\n        /* \"#utility.yul\":1001:1010   */\n      dup4\n        /* \"#utility.yul\":997:1014   */\n      add\n        /* \"#utility.yul\":988:994   */\n      dup5\n        /* \"#utility.yul\":944:1015   */\n      tag_42\n      jump\t// in\n    tag_60:\n        /* \"#utility.yul\":800:1022   */\n      swap3\n      swap2\n      pop\n      pop\n      jump\t// out\n        /* \"#utility.yul\":1028:1197   */\n    tag_43:\n        /* \"#utility.yul\":1112:1123   */\n      0x00\n        /* \"#utility.yul\":1146:1152   */\n      dup3\n        /* \"#utility.yul\":1141:1144   */\n      dup3\n        /* \"#utility.yul\":1134:1153   */\n      mstore\n        /* \"#utility.yul\":1186:1190   */\n      0x20\n        /* \"#utility.yul\":1181:1184   */\n      dup3\n        /* \"#utility.yul\":1177:1191   */\n      add\n        /* \"#utility.yul\":1162:1191   */\n      swap1\n      pop\n        /* \"#utility.yul\":1028:1197   */\n      swap3\n      swap2\n      pop\n      pop\n      jump\t// out\n        /* \"#utility.yul\":1203:1383   */\n    tag_44:\n        /* \"#utility.yul\":1343:1375   */\n      0x546865726520617265206e6f207469707320746f2077697468647261772e0000\n        /* \"#utility.yul\":1339:1340   */\n      0x00\n        /* \"#utility.yul\":1331:1337   */\n      dup3\n        /* \"#utility.yul\":1327:1341   */\n      add\n        /* \"#utility.yul\":1320:1376   */\n      mstore\n        /* \"#utility.yul\":1203:1383   */\n      pop\n      jump\t// out\n        /* \"#utility.yul\":1389:1755   */\n    tag_45:\n        /* \"#utility.yul\":1531:1534   */\n      0x00\n        /* \"#utility.yul\":1552:1619   */\n      tag_64\n        /* \"#utility.yul\":1616:1618   */\n      0x1e\n        /* \"#utility.yul\":1611:1614   */\n      dup4\n        /* \"#utility.yul\":1552:1619   */\n      tag_43\n      jump\t// in\n    tag_64:\n        /* \"#utility.yul\":1545:1619   */\n      swap2\n      pop\n        /* \"#utility.yul\":1628:1721   */\n      tag_65\n        /* \"#utility.yul\":1717:1720   */\n      dup3\n        /* \"#utility.yul\":1628:1721   */\n      tag_44\n      jump\t// in\n    tag_65:\n        /* \"#utility.yul\":1746:1748   */\n      0x20\n        /* \"#utility.yul\":1741:1744   */\n      dup3\n        /* \"#utility.yul\":1737:1749   */\n      add\n        /* \"#utility.yul\":1730:1749   */\n      swap1\n      pop\n        /* \"#utility.yul\":1389:1755   */\n      swap2\n      swap1\n      pop\n      jump\t// out\n        /* \"#utility.yul\":1761:2180   */\n    tag_24:\n        /* \"#utility.yul\":1927:1931   */\n      0x00\n        /* \"#utility.yul\":1965:1967   */\n      0x20\n        /* \"#utility.yul\":1954:1963   */\n      dup3\n        /* \"#utility.yul\":1950:1968   */\n      add\n        /* \"#utility.yul\":1942:1968   */\n      swap1\n      pop\n        /* \"#utility.yul\":2014:2023   */\n      dup2\n        /* \"#utility.yul\":2008:2012   */\n      dup2\n        /* \"#utility.yul\":2004:2024   */\n      sub\n        /* \"#utility.yul\":2000:2001   */\n      0x00\n        /* \"#utility.yul\":1989:1998   */\n      dup4\n        /* \"#utility.yul\":1985:2002   */\n      add\n        /* \"#utility.yul\":1978:2025   */\n      mstore\n        /* \"#utility.yul\":2042:2173   */\n      tag_67\n        /* \"#utility.yul\":2168:2172   */\n      dup2\n        /* \"#utility.yul\":2042:2173   */\n      tag_45\n      jump\t// in\n    tag_67:\n        /* \"#utility.yul\":2034:2173   */\n      swap1\n      pop\n        /* \"#utility.yul\":1761:2180   */\n      swap2\n      swap1\n      pop\n      jump\t// out\n        /* \"#utility.yul\":2186:2416   */\n    tag_46:\n        /* \"#utility.yul\":2326:2360   */\n      0x596f752073686f756c642073656e6420612074697020746f2075736520746869\n        /* \"#utility.yul\":2322:2323   */\n      0x00\n        /* \"#utility.yul\":2314:2320   */\n      dup3\n        /* \"#utility.yul\":2310:2324   */\n      add\n        /* \"#utility.yul\":2303:2361   */\n      mstore\n        /* \"#utility.yul\":2395:2408   */\n      0x732066756e6374696f6e2e000000000000000000000000000000000000000000\n        /* \"#utility.yul\":2390:2392   */\n      0x20\n        /* \"#utility.yul\":2382:2388   */\n      dup3\n        /* \"#utility.yul\":2378:2393   */\n      add\n        /* \"#utility.yul\":2371:2409   */\n      mstore\n        /* \"#utility.yul\":2186:2416   */\n      pop\n      jump\t// out\n        /* \"#utility.yul\":2422:2788   */\n    tag_47:\n        /* \"#utility.yul\":2564:2567   */\n      0x00\n        /* \"#utility.yul\":2585:2652   */\n      tag_70\n        /* \"#utility.yul\":2649:2651   */\n      0x2b\n        /* \"#utility.yul\":2644:2647   */\n      dup4\n        /* \"#utility.yul\":2585:2652   */\n      tag_43\n      jump\t// in\n    tag_70:\n        /* \"#utility.yul\":2578:2652   */\n      swap2\n      pop\n        /* \"#utility.yul\":2661:2754   */\n      tag_71\n        /* \"#utility.yul\":2750:2753   */\n      dup3\n        /* \"#utility.yul\":2661:2754   */\n      tag_46\n      jump\t// in\n    tag_71:\n        /* \"#utility.yul\":2779:2781   */\n      0x40\n        /* \"#utility.yul\":2774:2777   */\n      dup3\n        /* \"#utility.yul\":2770:2782   */\n      add\n        /* \"#utility.yul\":2763:2782   */\n      swap1\n      pop\n        /* \"#utility.yul\":2422:2788   */\n      swap2\n      swap1\n      pop\n      jump\t// out\n        /* \"#utility.yul\":2794:3213   */\n    tag_29:\n        /* \"#utility.yul\":2960:2964   */\n      0x00\n        /* \"#utility.yul\":2998:3000   */\n      0x20\n        /* \"#utility.yul\":2987:2996   */\n      dup3\n        /* \"#utility.yul\":2983:3001   */\n      add\n        /* \"#utility.yul\":2975:3001   */\n      swap1\n      pop\n        /* \"#utility.yul\":3047:3056   */\n      dup2\n        /* \"#utility.yul\":3041:3045   */\n      dup2\n        /* \"#utility.yul\":3037:3057   */\n      sub\n        /* \"#utility.yul\":3033:3034   */\n      0x00\n        /* \"#utility.yul\":3022:3031   */\n      dup4\n        /* \"#utility.yul\":3018:3035   */\n      add\n        /* \"#utility.yul\":3011:3058   */\n      mstore\n        /* \"#utility.yul\":3075:3206   */\n      tag_73\n        /* \"#utility.yul\":3201:3205   */\n      dup2\n        /* \"#utility.yul\":3075:3206   */\n      tag_47\n      jump\t// in\n    tag_73:\n        /* \"#utility.yul\":3067:3206   */\n      swap1\n      pop\n        /* \"#utility.yul\":2794:3213   */\n      swap2\n      swap1\n      pop\n      jump\t// out\n\n    auxdata: 0xa26469706673582212204f22a4e9fc1d2f9e42a6256d33383cad59d7229d64f69dd66c9ba005b06e1fa164736f6c63430008180033\n}\n",
				"bytecode": {
					"linkReferences": {},
					"object": "608060405234801561000f575f80fd5b50335f806101000a81548173ffffffffffffffffffffffffffffffffffffffff021916908373ffffffffffffffffffffffffffffffffffffffff1602179055506104b08061005c5f395ff3fe60806040526004361061003e575f3560e01c806312065fe0146100425780632755cd2d1461006c5780633ccfd60b146100765780638da5cb5b1461008c575b5f80fd5b34801561004d575f80fd5b506100566100b6565b6040516100639190610303565b60405180910390f35b61007461014b565b005b348015610081575f80fd5b5061008a61018f565b005b348015610097575f80fd5b506100a06102c8565b6040516100ad919061035b565b60405180910390f35b5f805f9054906101000a900473ffffffffffffffffffffffffffffffffffffffff1673ffffffffffffffffffffffffffffffffffffffff163373ffffffffffffffffffffffffffffffffffffffff1614610145576040517f08c379a000000000000000000000000000000000000000000000000000000000815260040161013c906103ce565b60405180910390fd5b47905090565b5f341161018d576040517f08c379a00000000000000000000000000000000000000000000000000000000081526004016101849061045c565b60405180910390fd5b565b5f8054906101000a900473ffffffffffffffffffffffffffffffffffffffff1673ffffffffffffffffffffffffffffffffffffffff163373ffffffffffffffffffffffffffffffffffffffff161461021c576040517f08c379a0000000000000000000000000000000000000000000000000000000008152600401610213906103ce565b60405180910390fd5b5f4790505f8111610262576040517f08c379a0000000000000000000000000000000000000000000000000000000008152600401610259906103ce565b60405180910390fd5b5f8054906101000a900473ffffffffffffffffffffffffffffffffffffffff1673ffffffffffffffffffffffffffffffffffffffff166108fc8290811502906040515f60405180830381858888f193505050501580156102c4573d5f803e3d5ffd5b5050565b5f8054906101000a900473ffffffffffffffffffffffffffffffffffffffff1681565b5f819050919050565b6102fd816102eb565b82525050565b5f6020820190506103165f8301846102f4565b92915050565b5f73ffffffffffffffffffffffffffffffffffffffff82169050919050565b5f6103458261031c565b9050919050565b6103558161033b565b82525050565b5f60208201905061036e5f83018461034c565b92915050565b5f82825260208201905092915050565b7f546865726520617265206e6f207469707320746f2077697468647261772e00005f82015250565b5f6103b8601e83610374565b91506103c382610384565b602082019050919050565b5f6020820190508181035f8301526103e5816103ac565b9050919050565b7f596f752073686f756c642073656e6420612074697020746f20757365207468695f8201527f732066756e6374696f6e2e000000000000000000000000000000000000000000602082015250565b5f610446602b83610374565b9150610451826103ec565b604082019050919050565b5f6020820190508181035f8301526104738161043a565b905091905056fea26469706673582212204f22a4e9fc1d2f9e42a6256d33383cad59d7229d64f69dd66c9ba005b06e1fa164736f6c63430008180033",
					"opcodes": "PUSH1 0x80 PUSH1 0x40 MSTORE CALLVALUE DUP1 ISZERO PUSH2 0xF JUMPI PUSH0 DUP1 REVERT JUMPDEST POP CALLER PUSH0 DUP1 PUSH2 0x100 EXP DUP2 SLOAD DUP2 PUSH20 0xFFFFFFFFFFFFFFFFFFFFFFFFFFFFFFFFFFFFFFFF MUL NOT AND SWAP1 DUP4 PUSH20 0xFFFFFFFFFFFFFFFFFFFFFFFFFFFFFFFFFFFFFFFF AND MUL OR SWAP1 SSTORE POP PUSH2 0x4B0 DUP1 PUSH2 0x5C PUSH0 CODECOPY PUSH0 RETURN INVALID PUSH1 0x80 PUSH1 0x40 MSTORE PUSH1 0x4 CALLDATASIZE LT PUSH2 0x3E JUMPI PUSH0 CALLDATALOAD PUSH1 0xE0 SHR DUP1 PUSH4 0x12065FE0 EQ PUSH2 0x42 JUMPI DUP1 PUSH4 0x2755CD2D EQ PUSH2 0x6C JUMPI DUP1 PUSH4 0x3CCFD60B EQ PUSH2 0x76 JUMPI DUP1 PUSH4 0x8DA5CB5B EQ PUSH2 0x8C JUMPI JUMPDEST PUSH0 DUP1 REVERT JUMPDEST CALLVALUE DUP1 ISZERO PUSH2 0x4D JUMPI PUSH0 DUP1 REVERT JUMPDEST POP PUSH2 0x56 PUSH2 0xB6 JUMP JUMPDEST PUSH1 0x40 MLOAD PUSH2 0x63 SWAP2 SWAP1 PUSH2 0x303 JUMP JUMPDEST PUSH1 0x40 MLOAD DUP1 SWAP2 SUB SWAP1 RETURN JUMPDEST PUSH2 0x74 PUSH2 0x14B JUMP JUMPDEST STOP JUMPDEST CALLVALUE DUP1 ISZERO PUSH2 0x81 JUMPI PUSH0 DUP1 REVERT JUMPDEST POP PUSH2 0x8A PUSH2 0x18F JUMP JUMPDEST STOP JUMPDEST CALLVALUE DUP1 ISZERO PUSH2 0x97 JUMPI PUSH0 DUP1 REVERT JUMPDEST POP PUSH2 0xA0 PUSH2 0x2C8 JUMP JUMPDEST PUSH1 0x40 MLOAD PUSH2 0xAD SWAP2 SWAP1 PUSH2 0x35B JUMP JUMPDEST PUSH1 0x40 MLOAD DUP1 SWAP2 SUB SWAP1 RETURN JUMPDEST PUSH0 DUP1 PUSH0 SWAP1 SLOAD SWAP1 PUSH2 0x100 EXP SWAP1 DIV PUSH20 0xFFFFFFFFFFFFFFFFFFFFFFFFFFFFFFFFFFFFFFFF AND PUSH20 0xFFFFFFFFFFFFFFFFFFFFFFFFFFFFFFFFFFFFFFFF AND CALLER PUSH20 0xFFFFFFFFFFFFFFFFFFFFFFFFFFFFFFFFFFFFFFFF AND EQ PUSH2 0x145 JUMPI PUSH1 0x40 MLOAD PUSH32 0x8C379A000000000000000000000000000000000000000000000000000000000 DUP2 MSTORE PUSH1 0x4 ADD PUSH2 0x13C SWAP1 PUSH2 0x3CE JUMP JUMPDEST PUSH1 0x40 MLOAD DUP1 SWAP2 SUB SWAP1 REVERT JUMPDEST SELFBALANCE SWAP1 POP SWAP1 JUMP JUMPDEST PUSH0 CALLVALUE GT PUSH2 0x18D JUMPI PUSH1 0x40 MLOAD PUSH32 0x8C379A000000000000000000000000000000000000000000000000000000000 DUP2 MSTORE PUSH1 0x4 ADD PUSH2 0x184 SWAP1 PUSH2 0x45C JUMP JUMPDEST PUSH1 0x40 MLOAD DUP1 SWAP2 SUB SWAP1 REVERT JUMPDEST JUMP JUMPDEST PUSH0 DUP1 SLOAD SWAP1 PUSH2 0x100 EXP SWAP1 DIV PUSH20 0xFFFFFFFFFFFFFFFFFFFFFFFFFFFFFFFFFFFFFFFF AND PUSH20 0xFFFFFFFFFFFFFFFFFFFFFFFFFFFFFFFFFFFFFFFF AND CALLER PUSH20 0xFFFFFFFFFFFFFFFFFFFFFFFFFFFFFFFFFFFFFFFF AND EQ PUSH2 0x21C JUMPI PUSH1 0x40 MLOAD PUSH32 0x8C379A000000000000000000000000000000000000000000000000000000000 DUP2 MSTORE PUSH1 0x4 ADD PUSH2 0x213 SWAP1 PUSH2 0x3CE JUMP JUMPDEST PUSH1 0x40 MLOAD DUP1 SWAP2 SUB SWAP1 REVERT JUMPDEST PUSH0 SELFBALANCE SWAP1 POP PUSH0 DUP2 GT PUSH2 0x262 JUMPI PUSH1 0x40 MLOAD PUSH32 0x8C379A000000000000000000000000000000000000000000000000000000000 DUP2 MSTORE PUSH1 0x4 ADD PUSH2 0x259 SWAP1 PUSH2 0x3CE JUMP JUMPDEST PUSH1 0x40 MLOAD DUP1 SWAP2 SUB SWAP1 REVERT JUMPDEST PUSH0 DUP1 SLOAD SWAP1 PUSH2 0x100 EXP SWAP1 DIV PUSH20 0xFFFFFFFFFFFFFFFFFFFFFFFFFFFFFFFFFFFFFFFF AND PUSH20 0xFFFFFFFFFFFFFFFFFFFFFFFFFFFFFFFFFFFFFFFF AND PUSH2 0x8FC DUP3 SWAP1 DUP2 ISZERO MUL SWAP1 PUSH1 0x40 MLOAD PUSH0 PUSH1 0x40 MLOAD DUP1 DUP4 SUB DUP2 DUP6 DUP9 DUP9 CALL SWAP4 POP POP POP POP ISZERO DUP1 ISZERO PUSH2 0x2C4 JUMPI RETURNDATASIZE PUSH0 DUP1 RETURNDATACOPY RETURNDATASIZE PUSH0 REVERT JUMPDEST POP POP JUMP JUMPDEST PUSH0 DUP1 SLOAD SWAP1 PUSH2 0x100 EXP SWAP1 DIV PUSH20 0xFFFFFFFFFFFFFFFFFFFFFFFFFFFFFFFFFFFFFFFF AND DUP2 JUMP JUMPDEST PUSH0 DUP2 SWAP1 POP SWAP2 SWAP1 POP JUMP JUMPDEST PUSH2 0x2FD DUP2 PUSH2 0x2EB JUMP JUMPDEST DUP3 MSTORE POP POP JUMP JUMPDEST PUSH0 PUSH1 0x20 DUP3 ADD SWAP1 POP PUSH2 0x316 PUSH0 DUP4 ADD DUP5 PUSH2 0x2F4 JUMP JUMPDEST SWAP3 SWAP2 POP POP JUMP JUMPDEST PUSH0 PUSH20 0xFFFFFFFFFFFFFFFFFFFFFFFFFFFFFFFFFFFFFFFF DUP3 AND SWAP1 POP SWAP2 SWAP1 POP JUMP JUMPDEST PUSH0 PUSH2 0x345 DUP3 PUSH2 0x31C JUMP JUMPDEST SWAP1 POP SWAP2 SWAP1 POP JUMP JUMPDEST PUSH2 0x355 DUP2 PUSH2 0x33B JUMP JUMPDEST DUP3 MSTORE POP POP JUMP JUMPDEST PUSH0 PUSH1 0x20 DUP3 ADD SWAP1 POP PUSH2 0x36E PUSH0 DUP4 ADD DUP5 PUSH2 0x34C JUMP JUMPDEST SWAP3 SWAP2 POP POP JUMP JUMPDEST PUSH0 DUP3 DUP3 MSTORE PUSH1 0x20 DUP3 ADD SWAP1 POP SWAP3 SWAP2 POP POP JUMP JUMPDEST PUSH32 0x546865726520617265206E6F207469707320746F2077697468647261772E0000 PUSH0 DUP3 ADD MSTORE POP JUMP JUMPDEST PUSH0 PUSH2 0x3B8 PUSH1 0x1E DUP4 PUSH2 0x374 JUMP JUMPDEST SWAP2 POP PUSH2 0x3C3 DUP3 PUSH2 0x384 JUMP JUMPDEST PUSH1 0x20 DUP3 ADD SWAP1 POP SWAP2 SWAP1 POP JUMP JUMPDEST PUSH0 PUSH1 0x20 DUP3 ADD SWAP1 POP DUP2 DUP2 SUB PUSH0 DUP4 ADD MSTORE PUSH2 0x3E5 DUP2 PUSH2 0x3AC JUMP JUMPDEST SWAP1 POP SWAP2 SWAP1 POP JUMP JUMPDEST PUSH32 0x596F752073686F756C642073656E6420612074697020746F2075736520746869 PUSH0 DUP3 ADD MSTORE PUSH32 0x732066756E6374696F6E2E000000000000000000000000000000000000000000 PUSH1 0x20 DUP3 ADD MSTORE POP JUMP JUMPDEST PUSH0 PUSH2 0x446 PUSH1 0x2B DUP4 PUSH2 0x374 JUMP JUMPDEST SWAP2 POP PUSH2 0x451 DUP3 PUSH2 0x3EC JUMP JUMPDEST PUSH1 0x40 DUP3 ADD SWAP1 POP SWAP2 SWAP1 POP JUMP JUMPDEST PUSH0 PUSH1 0x20 DUP3 ADD SWAP1 POP DUP2 DUP2 SUB PUSH0 DUP4 ADD MSTORE PUSH2 0x473 DUP2 PUSH2 0x43A JUMP JUMPDEST SWAP1 POP SWAP2 SWAP1 POP JUMP INVALID LOG2 PUSH5 0x6970667358 0x22 SLT KECCAK256 0x4F 0x22 LOG4 0xE9 0xFC SAR 0x2F SWAP15 TIMESTAMP 0xA6 0x25 PUSH14 0x33383CAD59D7229D64F69DD66C9B LOG0 SDIV 0xB0 PUSH15 0x1FA164736F6C634300081800330000 "
				},
				"gasEstimates": {
					"creation": {
						"codeDepositCost": "240000",
						"executionCost": "24544",
						"totalCost": "264544"
					},
					"external": {
						"getBalance()": "2576",
						"owner()": "2549",
						"tip()": "442",
						"withdraw()": "infinite"
					}
				},
				"methodIdentifiers": {
					"getBalance()": "12065fe0",
					"owner()": "8da5cb5b",
					"tip()": "2755cd2d",
					"withdraw()": "3ccfd60b"
				}
			},
			"storageLayout": {
				"storage": [
					{
						"astId": 102,
						"contract": "contract/TipJar.sol:TipJar",
						"label": "owner",
						"offset": 0,
						"slot": "0",
						"type": "t_address"
					}
				],
				"types": {
					"t_address": {
						"encoding": "inplace",
						"label": "address",
						"numberOfBytes": "20"
					}
				}
			},
			"userdoc": {
				"kind": "user",
				"methods": {},
				"version": 1
			}
		}
	}
}