{
	"contract/TestFactory.sol": {
		"TestFactory": {
			"abi": [
				{
					"inputs": [
						{
							"internalType": "string",
							"name": "_name",
							"type": "string"
						}
					],
					"name": "callGetBalance",
					"outputs": [
						{
							"internalType": "uint256",
							"name": "",
							"type": "uint256"
						}
					],
					"stateMutability": "view",
					"type": "function"
				},
				{
					"inputs": [
						{
							"internalType": "string",
							"name": "_name",
							"type": "string"
						}
					],
					"name": "callTipJarTip",
					"outputs": [],
					"stateMutability": "payable",
					"type": "function"
				},
				{
					"inputs": [
						{
							"internalType": "string",
							"name": "_name",
							"type": "string"
						}
					],
					"name": "callTipJarWithdraw",
					"outputs": [],
					"stateMutability": "nonpayable",
					"type": "function"
				},
				{
					"inputs": [
						{
							"internalType": "string",
							"name": "_name",
							"type": "string"
						}
					],
					"name": "createContranct",
					"outputs": [],
					"stateMutability": "nonpayable",
					"type": "function"
				},
				{
					"inputs": [
						{
							"internalType": "string",
							"name": "_name",
							"type": "string"
						}
					],
					"name": "deleteContranct",
					"outputs": [],
					"stateMutability": "nonpayable",
					"type": "function"
				},
				{
					"inputs": [
						{
							"internalType": "string",
							"name": "_name",
							"type": "string"
						}
					],
					"name": "getTipJar",
					"outputs": [
						{
							"internalType": "contract TipJar",
							"name": "",
							"type": "address"
						}
					],
					"stateMutability": "view",
					"type": "function"
				}
			],
			"devdoc": {
				"kind": "dev",
				"methods": {},
				"version": 1
			},
			"evm": {
				"assembly": "    /* \"contract/TestFactory.sol\":405:1215  contract TestFactory{... */\n  mstore(0x40, 0x80)\n  callvalue\n  dup1\n  iszero\n  tag_1\n  jumpi\n  0x00\n  dup1\n  revert\ntag_1:\n  pop\n  dataSize(sub_0)\n  dup1\n  dataOffset(sub_0)\n  0x00\n  codecopy\n  0x00\n  return\nstop\n\nsub_0: assembly {\n        /* \"contract/TestFactory.sol\":405:1215  contract TestFactory{... */\n      mstore(0x40, 0x80)\n      jumpi(tag_1, lt(calldatasize, 0x04))\n      shr(0xe0, calldataload(0x00))\n      dup1\n      0x2af1c341\n      eq\n      tag_2\n      jumpi\n      dup1\n      0x658c76dc\n      eq\n      tag_3\n      jumpi\n      dup1\n      0x66c69318\n      eq\n      tag_4\n      jumpi\n      dup1\n      0x7ea99a94\n      eq\n      tag_5\n      jumpi\n      dup1\n      0xa67a28e3\n      eq\n      tag_6\n      jumpi\n      dup1\n      0xb3f0a4fe\n      eq\n      tag_7\n      jumpi\n    tag_1:\n      0x00\n      dup1\n      revert\n        /* \"contract/TestFactory.sol\":881:975  function callTipJarTip(string memory _name) public payable {... */\n    tag_2:\n      tag_8\n      0x04\n      dup1\n      calldatasize\n      sub\n      dup2\n      add\n      swap1\n      tag_9\n      swap2\n      swap1\n      tag_10\n      jump\t// in\n    tag_9:\n      tag_11\n      jump\t// in\n    tag_8:\n      stop\n        /* \"contract/TestFactory.sol\":614:772  function getTipJar(string memory _name) public view returns (TipJar){... */\n    tag_3:\n      callvalue\n      dup1\n      iszero\n      tag_12\n      jumpi\n      0x00\n      dup1\n      revert\n    tag_12:\n      pop\n      tag_13\n      0x04\n      dup1\n      calldatasize\n      sub\n      dup2\n      add\n      swap1\n      tag_14\n      swap2\n      swap1\n      tag_10\n      jump\t// in\n    tag_14:\n      tag_15\n      jump\t// in\n    tag_13:\n      mload(0x40)\n      tag_16\n      swap2\n      swap1\n      tag_17\n      jump\t// in\n    tag_16:\n      mload(0x40)\n      dup1\n      swap2\n      sub\n      swap1\n      return\n        /* \"contract/TestFactory.sol\":1088:1212  function callGetBalance(string memory _name) public view returns (uint256) {... */\n    tag_4:\n      callvalue\n      dup1\n      iszero\n      tag_18\n      jumpi\n      0x00\n      dup1\n      revert\n    tag_18:\n      pop\n      tag_19\n      0x04\n      dup1\n      calldatasize\n      sub\n      dup2\n      add\n      swap1\n      tag_20\n      swap2\n      swap1\n      tag_10\n      jump\t// in\n    tag_20:\n      tag_21\n      jump\t// in\n    tag_19:\n      mload(0x40)\n      tag_22\n      swap2\n      swap1\n      tag_23\n      jump\t// in\n    tag_22:\n      mload(0x40)\n      dup1\n      swap2\n      sub\n      swap1\n      return\n        /* \"contract/TestFactory.sol\":784:873  function deleteContranct(string memory _name) public {... */\n    tag_5:\n      callvalue\n      dup1\n      iszero\n      tag_24\n      jumpi\n      0x00\n      dup1\n      revert\n    tag_24:\n      pop\n      tag_25\n      0x04\n      dup1\n      calldatasize\n      sub\n      dup2\n      add\n      swap1\n      tag_26\n      swap2\n      swap1\n      tag_10\n      jump\t// in\n    tag_26:\n      tag_27\n      jump\t// in\n    tag_25:\n      stop\n        /* \"contract/TestFactory.sol\":491:606  function createContranct(string memory _name) public {... */\n    tag_6:\n      callvalue\n      dup1\n      iszero\n      tag_28\n      jumpi\n      0x00\n      dup1\n      revert\n    tag_28:\n      pop\n      tag_29\n      0x04\n      dup1\n      calldatasize\n      sub\n      dup2\n      add\n      swap1\n      tag_30\n      swap2\n      swap1\n      tag_10\n      jump\t// in\n    tag_30:\n      tag_31\n      jump\t// in\n    tag_29:\n      stop\n        /* \"contract/TestFactory.sol\":983:1080  function callTipJarWithdraw(string memory _name) public  {... */\n    tag_7:\n      callvalue\n      dup1\n      iszero\n      tag_32\n      jumpi\n      0x00\n      dup1\n      revert\n    tag_32:\n      pop\n      tag_33\n      0x04\n      dup1\n      calldatasize\n      sub\n      dup2\n      add\n      swap1\n      tag_34\n      swap2\n      swap1\n      tag_10\n      jump\t// in\n    tag_34:\n      tag_35\n      jump\t// in\n    tag_33:\n      stop\n        /* \"contract/TestFactory.sol\":881:975  function callTipJarTip(string memory _name) public payable {... */\n    tag_11:\n        /* \"contract/TestFactory.sol\":951:954  tjs */\n      0x01\n        /* \"contract/TestFactory.sol\":955:960  _name */\n      dup2\n        /* \"contract/TestFactory.sol\":951:961  tjs[_name] */\n      mload(0x40)\n      tag_37\n      swap2\n      swap1\n      tag_38\n      jump\t// in\n    tag_37:\n      swap1\n      dup2\n      mstore\n      0x20\n      add\n      mload(0x40)\n      dup1\n      swap2\n      sub\n      swap1\n      keccak256\n      0x00\n      swap1\n      sload\n      swap1\n      0x0100\n      exp\n      swap1\n      div\n      0xffffffffffffffffffffffffffffffffffffffff\n      and\n        /* \"contract/TestFactory.sol\":951:965  tjs[_name].tip */\n      0xffffffffffffffffffffffffffffffffffffffff\n      and\n      0x2755cd2d\n        /* \"contract/TestFactory.sol\":951:967  tjs[_name].tip() */\n      mload(0x40)\n      dup2\n      0xffffffff\n      and\n      0xe0\n      shl\n      dup2\n      mstore\n      0x04\n      add\n      0x00\n      mload(0x40)\n      dup1\n      dup4\n      sub\n      dup2\n      0x00\n      dup8\n      dup1\n      extcodesize\n      iszero\n      dup1\n      iszero\n      tag_39\n      jumpi\n      0x00\n      dup1\n      revert\n    tag_39:\n      pop\n      gas\n      call\n      iszero\n      dup1\n      iszero\n      tag_41\n      jumpi\n      returndatasize\n      0x00\n      dup1\n      returndatacopy\n      revert(0x00, returndatasize)\n    tag_41:\n      pop\n      pop\n      pop\n      pop\n        /* \"contract/TestFactory.sol\":881:975  function callTipJarTip(string memory _name) public payable {... */\n      pop\n      jump\t// out\n        /* \"contract/TestFactory.sol\":614:772  function getTipJar(string memory _name) public view returns (TipJar){... */\n    tag_15:\n        /* \"contract/TestFactory.sol\":675:681  TipJar */\n      0x00\n        /* \"contract/TestFactory.sol\":693:707  TipJar namedTj */\n      dup1\n        /* \"contract/TestFactory.sol\":711:714  tjs */\n      0x01\n        /* \"contract/TestFactory.sol\":715:720  _name */\n      dup4\n        /* \"contract/TestFactory.sol\":711:721  tjs[_name] */\n      mload(0x40)\n      tag_43\n      swap2\n      swap1\n      tag_38\n      jump\t// in\n    tag_43:\n      swap1\n      dup2\n      mstore\n      0x20\n      add\n      mload(0x40)\n      dup1\n      swap2\n      sub\n      swap1\n      keccak256\n      0x00\n      swap1\n      sload\n      swap1\n      0x0100\n      exp\n      swap1\n      div\n      0xffffffffffffffffffffffffffffffffffffffff\n      and\n        /* \"contract/TestFactory.sol\":693:721  TipJar namedTj =  tjs[_name] */\n      swap1\n      pop\n        /* \"contract/TestFactory.sol\":755:762  namedTj */\n      dup1\n        /* \"contract/TestFactory.sol\":748:762  return namedTj */\n      swap2\n      pop\n      pop\n        /* \"contract/TestFactory.sol\":614:772  function getTipJar(string memory _name) public view returns (TipJar){... */\n      swap2\n      swap1\n      pop\n      jump\t// out\n        /* \"contract/TestFactory.sol\":1088:1212  function callGetBalance(string memory _name) public view returns (uint256) {... */\n    tag_21:\n        /* \"contract/TestFactory.sol\":1154:1161  uint256 */\n      0x00\n        /* \"contract/TestFactory.sol\":1181:1184  tjs */\n      0x01\n        /* \"contract/TestFactory.sol\":1185:1190  _name */\n      dup3\n        /* \"contract/TestFactory.sol\":1181:1191  tjs[_name] */\n      mload(0x40)\n      tag_45\n      swap2\n      swap1\n      tag_38\n      jump\t// in\n    tag_45:\n      swap1\n      dup2\n      mstore\n      0x20\n      add\n      mload(0x40)\n      dup1\n      swap2\n      sub\n      swap1\n      keccak256\n      0x00\n      swap1\n      sload\n      swap1\n      0x0100\n      exp\n      swap1\n      div\n      0xffffffffffffffffffffffffffffffffffffffff\n      and\n        /* \"contract/TestFactory.sol\":1181:1202  tjs[_name].getBalance */\n      0xffffffffffffffffffffffffffffffffffffffff\n      and\n      0x12065fe0\n        /* \"contract/TestFactory.sol\":1181:1204  tjs[_name].getBalance() */\n      mload(0x40)\n      dup2\n      0xffffffff\n      and\n      0xe0\n      shl\n      dup2\n      mstore\n      0x04\n      add\n      0x20\n      mload(0x40)\n      dup1\n      dup4\n      sub\n      dup2\n      dup7\n      gas\n      staticcall\n      iszero\n      dup1\n      iszero\n      tag_47\n      jumpi\n      returndatasize\n      0x00\n      dup1\n      returndatacopy\n      revert(0x00, returndatasize)\n    tag_47:\n      pop\n      pop\n      pop\n      pop\n      mload(0x40)\n      returndatasize\n      not(0x1f)\n      0x1f\n      dup3\n      add\n      and\n      dup3\n      add\n      dup1\n      0x40\n      mstore\n      pop\n      dup2\n      add\n      swap1\n      tag_48\n      swap2\n      swap1\n      tag_49\n      jump\t// in\n    tag_48:\n        /* \"contract/TestFactory.sol\":1174:1204  return tjs[_name].getBalance() */\n      swap1\n      pop\n        /* \"contract/TestFactory.sol\":1088:1212  function callGetBalance(string memory _name) public view returns (uint256) {... */\n      swap2\n      swap1\n      pop\n      jump\t// out\n        /* \"contract/TestFactory.sol\":784:873  function deleteContranct(string memory _name) public {... */\n    tag_27:\n        /* \"contract/TestFactory.sol\":855:858  tjs */\n      0x01\n        /* \"contract/TestFactory.sol\":859:864  _name */\n      dup2\n        /* \"contract/TestFactory.sol\":855:865  tjs[_name] */\n      mload(0x40)\n      tag_51\n      swap2\n      swap1\n      tag_38\n      jump\t// in\n    tag_51:\n      swap1\n      dup2\n      mstore\n      0x20\n      add\n      mload(0x40)\n      dup1\n      swap2\n      sub\n      swap1\n      keccak256\n      0x00\n        /* \"contract/TestFactory.sol\":848:865  delete tjs[_name] */\n      0x0100\n      exp\n      dup2\n      sload\n      swap1\n      0xffffffffffffffffffffffffffffffffffffffff\n      mul\n      not\n      and\n      swap1\n      sstore\n        /* \"contract/TestFactory.sol\":784:873  function deleteContranct(string memory _name) public {... */\n      pop\n      jump\t// out\n        /* \"contract/TestFactory.sol\":491:606  function createContranct(string memory _name) public {... */\n    tag_31:\n        /* \"contract/TestFactory.sol\":560:572  new TipJar() */\n      mload(0x40)\n      tag_53\n      swap1\n      tag_54\n      jump\t// in\n    tag_53:\n      mload(0x40)\n      dup1\n      swap2\n      sub\n      swap1\n      0x00\n      create\n      dup1\n      iszero\n      dup1\n      iszero\n      tag_55\n      jumpi\n      returndatasize\n      0x00\n      dup1\n      returndatacopy\n      revert(0x00, returndatasize)\n    tag_55:\n      pop\n        /* \"contract/TestFactory.sol\":555:557  tj */\n      0x00\n      dup1\n        /* \"contract/TestFactory.sol\":555:572  tj = new TipJar() */\n      0x0100\n      exp\n      dup2\n      sload\n      dup2\n      0xffffffffffffffffffffffffffffffffffffffff\n      mul\n      not\n      and\n      swap1\n      dup4\n      0xffffffffffffffffffffffffffffffffffffffff\n      and\n      mul\n      or\n      swap1\n      sstore\n      pop\n        /* \"contract/TestFactory.sol\":596:598  tj */\n      0x00\n      dup1\n      sload\n      swap1\n      0x0100\n      exp\n      swap1\n      div\n      0xffffffffffffffffffffffffffffffffffffffff\n      and\n        /* \"contract/TestFactory.sol\":583:586  tjs */\n      0x01\n        /* \"contract/TestFactory.sol\":587:592  _name */\n      dup3\n        /* \"contract/TestFactory.sol\":583:593  tjs[_name] */\n      mload(0x40)\n      tag_56\n      swap2\n      swap1\n      tag_38\n      jump\t// in\n    tag_56:\n      swap1\n      dup2\n      mstore\n      0x20\n      add\n      mload(0x40)\n      dup1\n      swap2\n      sub\n      swap1\n      keccak256\n      0x00\n        /* \"contract/TestFactory.sol\":583:598  tjs[_name] = tj */\n      0x0100\n      exp\n      dup2\n      sload\n      dup2\n      0xffffffffffffffffffffffffffffffffffffffff\n      mul\n      not\n      and\n      swap1\n      dup4\n      0xffffffffffffffffffffffffffffffffffffffff\n      and\n      mul\n      or\n      swap1\n      sstore\n      pop\n        /* \"contract/TestFactory.sol\":491:606  function createContranct(string memory _name) public {... */\n      pop\n      jump\t// out\n        /* \"contract/TestFactory.sol\":983:1080  function callTipJarWithdraw(string memory _name) public  {... */\n    tag_35:\n        /* \"contract/TestFactory.sol\":1051:1054  tjs */\n      0x01\n        /* \"contract/TestFactory.sol\":1055:1060  _name */\n      dup2\n        /* \"contract/TestFactory.sol\":1051:1061  tjs[_name] */\n      mload(0x40)\n      tag_58\n      swap2\n      swap1\n      tag_38\n      jump\t// in\n    tag_58:\n      swap1\n      dup2\n      mstore\n      0x20\n      add\n      mload(0x40)\n      dup1\n      swap2\n      sub\n      swap1\n      keccak256\n      0x00\n      swap1\n      sload\n      swap1\n      0x0100\n      exp\n      swap1\n      div\n      0xffffffffffffffffffffffffffffffffffffffff\n      and\n        /* \"contract/TestFactory.sol\":1051:1070  tjs[_name].withdraw */\n      0xffffffffffffffffffffffffffffffffffffffff\n      and\n      0x3ccfd60b\n        /* \"contract/TestFactory.sol\":1051:1072  tjs[_name].withdraw() */\n      mload(0x40)\n      dup2\n      0xffffffff\n      and\n      0xe0\n      shl\n      dup2\n      mstore\n      0x04\n      add\n      0x00\n      mload(0x40)\n      dup1\n      dup4\n      sub\n      dup2\n      0x00\n      dup8\n      dup1\n      extcodesize\n      iszero\n      dup1\n      iszero\n      tag_59\n      jumpi\n      0x00\n      dup1\n      revert\n    tag_59:\n      pop\n      gas\n      call\n      iszero\n      dup1\n      iszero\n      tag_61\n      jumpi\n      returndatasize\n      0x00\n      dup1\n      returndatacopy\n      revert(0x00, returndatasize)\n    tag_61:\n      pop\n      pop\n      pop\n      pop\n        /* \"contract/TestFactory.sol\":983:1080  function callTipJarWithdraw(string memory _name) public  {... */\n      pop\n      jump\t// out\n    tag_54:\n      dataSize(sub_0)\n      dup1\n      dataOffset(sub_0)\n      dup4\n      codecopy\n      add\n      swap1\n      jump\t// out\n        /* \"#utility.yul\":7:82   */\n    tag_62:\n        /* \"#utility.yul\":40:46   */\n      0x00\n        /* \"#utility.yul\":73:75   */\n      0x40\n        /* \"#utility.yul\":67:76   */\n      mload\n        /* \"#utility.yul\":57:76   */\n      swap1\n      pop\n        /* \"#utility.yul\":7:82   */\n      swap1\n      jump\t// out\n        /* \"#utility.yul\":88:205   */\n    tag_63:\n        /* \"#utility.yul\":197:198   */\n      0x00\n        /* \"#utility.yul\":194:195   */\n      dup1\n        /* \"#utility.yul\":187:199   */\n      revert\n        /* \"#utility.yul\":211:328   */\n    tag_64:\n        /* \"#utility.yul\":320:321   */\n      0x00\n        /* \"#utility.yul\":317:318   */\n      dup1\n        /* \"#utility.yul\":310:322   */\n      revert\n        /* \"#utility.yul\":334:451   */\n    tag_65:\n        /* \"#utility.yul\":443:444   */\n      0x00\n        /* \"#utility.yul\":440:441   */\n      dup1\n        /* \"#utility.yul\":433:445   */\n      revert\n        /* \"#utility.yul\":457:574   */\n    tag_66:\n        /* \"#utility.yul\":566:567   */\n      0x00\n        /* \"#utility.yul\":563:564   */\n      dup1\n        /* \"#utility.yul\":556:568   */\n      revert\n        /* \"#utility.yul\":580:682   */\n    tag_67:\n        /* \"#utility.yul\":621:627   */\n      0x00\n        /* \"#utility.yul\":672:674   */\n      0x1f\n        /* \"#utility.yul\":668:675   */\n      not\n        /* \"#utility.yul\":663:665   */\n      0x1f\n        /* \"#utility.yul\":656:661   */\n      dup4\n        /* \"#utility.yul\":652:666   */\n      add\n        /* \"#utility.yul\":648:676   */\n      and\n        /* \"#utility.yul\":638:676   */\n      swap1\n      pop\n        /* \"#utility.yul\":580:682   */\n      swap2\n      swap1\n      pop\n      jump\t// out\n        /* \"#utility.yul\":688:868   */\n    tag_68:\n        /* \"#utility.yul\":736:813   */\n      0x4e487b7100000000000000000000000000000000000000000000000000000000\n        /* \"#utility.yul\":733:734   */\n      0x00\n        /* \"#utility.yul\":726:814   */\n      mstore\n        /* \"#utility.yul\":833:837   */\n      0x41\n        /* \"#utility.yul\":830:831   */\n      0x04\n        /* \"#utility.yul\":823:838   */\n      mstore\n        /* \"#utility.yul\":857:861   */\n      0x24\n        /* \"#utility.yul\":854:855   */\n      0x00\n        /* \"#utility.yul\":847:862   */\n      revert\n        /* \"#utility.yul\":874:1155   */\n    tag_69:\n        /* \"#utility.yul\":957:984   */\n      tag_98\n        /* \"#utility.yul\":979:983   */\n      dup3\n        /* \"#utility.yul\":957:984   */\n      tag_67\n      jump\t// in\n    tag_98:\n        /* \"#utility.yul\":949:955   */\n      dup2\n        /* \"#utility.yul\":945:985   */\n      add\n        /* \"#utility.yul\":1087:1093   */\n      dup2\n        /* \"#utility.yul\":1075:1085   */\n      dup2\n        /* \"#utility.yul\":1072:1094   */\n      lt\n        /* \"#utility.yul\":1051:1069   */\n      0xffffffffffffffff\n        /* \"#utility.yul\":1039:1049   */\n      dup3\n        /* \"#utility.yul\":1036:1070   */\n      gt\n        /* \"#utility.yul\":1033:1095   */\n      or\n        /* \"#utility.yul\":1030:1118   */\n      iszero\n      tag_99\n      jumpi\n        /* \"#utility.yul\":1098:1116   */\n      tag_100\n      tag_68\n      jump\t// in\n    tag_100:\n        /* \"#utility.yul\":1030:1118   */\n    tag_99:\n        /* \"#utility.yul\":1138:1148   */\n      dup1\n        /* \"#utility.yul\":1134:1136   */\n      0x40\n        /* \"#utility.yul\":1127:1149   */\n      mstore\n        /* \"#utility.yul\":917:1155   */\n      pop\n        /* \"#utility.yul\":874:1155   */\n      pop\n      pop\n      jump\t// out\n        /* \"#utility.yul\":1161:1290   */\n    tag_70:\n        /* \"#utility.yul\":1195:1201   */\n      0x00\n        /* \"#utility.yul\":1222:1242   */\n      tag_102\n      tag_62\n      jump\t// in\n    tag_102:\n        /* \"#utility.yul\":1212:1242   */\n      swap1\n      pop\n        /* \"#utility.yul\":1251:1284   */\n      tag_103\n        /* \"#utility.yul\":1279:1283   */\n      dup3\n        /* \"#utility.yul\":1271:1277   */\n      dup3\n        /* \"#utility.yul\":1251:1284   */\n      tag_69\n      jump\t// in\n    tag_103:\n        /* \"#utility.yul\":1161:1290   */\n      swap2\n      swap1\n      pop\n      jump\t// out\n        /* \"#utility.yul\":1296:1604   */\n    tag_71:\n        /* \"#utility.yul\":1358:1362   */\n      0x00\n        /* \"#utility.yul\":1448:1466   */\n      0xffffffffffffffff\n        /* \"#utility.yul\":1440:1446   */\n      dup3\n        /* \"#utility.yul\":1437:1467   */\n      gt\n        /* \"#utility.yul\":1434:1490   */\n      iszero\n      tag_105\n      jumpi\n        /* \"#utility.yul\":1470:1488   */\n      tag_106\n      tag_68\n      jump\t// in\n    tag_106:\n        /* \"#utility.yul\":1434:1490   */\n    tag_105:\n        /* \"#utility.yul\":1508:1537   */\n      tag_107\n        /* \"#utility.yul\":1530:1536   */\n      dup3\n        /* \"#utility.yul\":1508:1537   */\n      tag_67\n      jump\t// in\n    tag_107:\n        /* \"#utility.yul\":1500:1537   */\n      swap1\n      pop\n        /* \"#utility.yul\":1592:1596   */\n      0x20\n        /* \"#utility.yul\":1586:1590   */\n      dup2\n        /* \"#utility.yul\":1582:1597   */\n      add\n        /* \"#utility.yul\":1574:1597   */\n      swap1\n      pop\n        /* \"#utility.yul\":1296:1604   */\n      swap2\n      swap1\n      pop\n      jump\t// out\n        /* \"#utility.yul\":1610:1756   */\n    tag_72:\n        /* \"#utility.yul\":1707:1713   */\n      dup3\n        /* \"#utility.yul\":1702:1705   */\n      dup2\n        /* \"#utility.yul\":1697:1700   */\n      dup4\n        /* \"#utility.yul\":1684:1714   */\n      calldatacopy\n        /* \"#utility.yul\":1748:1749   */\n      0x00\n        /* \"#utility.yul\":1739:1745   */\n      dup4\n        /* \"#utility.yul\":1734:1737   */\n      dup4\n        /* \"#utility.yul\":1730:1746   */\n      add\n        /* \"#utility.yul\":1723:1750   */\n      mstore\n        /* \"#utility.yul\":1610:1756   */\n      pop\n      pop\n      pop\n      jump\t// out\n        /* \"#utility.yul\":1762:2187   */\n    tag_73:\n        /* \"#utility.yul\":1840:1845   */\n      0x00\n        /* \"#utility.yul\":1865:1931   */\n      tag_110\n        /* \"#utility.yul\":1881:1930   */\n      tag_111\n        /* \"#utility.yul\":1923:1929   */\n      dup5\n        /* \"#utility.yul\":1881:1930   */\n      tag_71\n      jump\t// in\n    tag_111:\n        /* \"#utility.yul\":1865:1931   */\n      tag_70\n      jump\t// in\n    tag_110:\n        /* \"#utility.yul\":1856:1931   */\n      swap1\n      pop\n        /* \"#utility.yul\":1954:1960   */\n      dup3\n        /* \"#utility.yul\":1947:1952   */\n      dup2\n        /* \"#utility.yul\":1940:1961   */\n      mstore\n        /* \"#utility.yul\":1992:1996   */\n      0x20\n        /* \"#utility.yul\":1985:1990   */\n      dup2\n        /* \"#utility.yul\":1981:1997   */\n      add\n        /* \"#utility.yul\":2030:2033   */\n      dup5\n        /* \"#utility.yul\":2021:2027   */\n      dup5\n        /* \"#utility.yul\":2016:2019   */\n      dup5\n        /* \"#utility.yul\":2012:2028   */\n      add\n        /* \"#utility.yul\":2009:2034   */\n      gt\n        /* \"#utility.yul\":2006:2118   */\n      iszero\n      tag_112\n      jumpi\n        /* \"#utility.yul\":2037:2116   */\n      tag_113\n      tag_66\n      jump\t// in\n    tag_113:\n        /* \"#utility.yul\":2006:2118   */\n    tag_112:\n        /* \"#utility.yul\":2127:2181   */\n      tag_114\n        /* \"#utility.yul\":2174:2180   */\n      dup5\n        /* \"#utility.yul\":2169:2172   */\n      dup3\n        /* \"#utility.yul\":2164:2167   */\n      dup6\n        /* \"#utility.yul\":2127:2181   */\n      tag_72\n      jump\t// in\n    tag_114:\n        /* \"#utility.yul\":1846:2187   */\n      pop\n        /* \"#utility.yul\":1762:2187   */\n      swap4\n      swap3\n      pop\n      pop\n      pop\n      jump\t// out\n        /* \"#utility.yul\":2207:2547   */\n    tag_74:\n        /* \"#utility.yul\":2263:2268   */\n      0x00\n        /* \"#utility.yul\":2312:2315   */\n      dup3\n        /* \"#utility.yul\":2305:2309   */\n      0x1f\n        /* \"#utility.yul\":2297:2303   */\n      dup4\n        /* \"#utility.yul\":2293:2310   */\n      add\n        /* \"#utility.yul\":2289:2316   */\n      slt\n        /* \"#utility.yul\":2279:2401   */\n      tag_116\n      jumpi\n        /* \"#utility.yul\":2320:2399   */\n      tag_117\n      tag_65\n      jump\t// in\n    tag_117:\n        /* \"#utility.yul\":2279:2401   */\n    tag_116:\n        /* \"#utility.yul\":2437:2443   */\n      dup2\n        /* \"#utility.yul\":2424:2444   */\n      calldataload\n        /* \"#utility.yul\":2462:2541   */\n      tag_118\n        /* \"#utility.yul\":2537:2540   */\n      dup5\n        /* \"#utility.yul\":2529:2535   */\n      dup3\n        /* \"#utility.yul\":2522:2526   */\n      0x20\n        /* \"#utility.yul\":2514:2520   */\n      dup7\n        /* \"#utility.yul\":2510:2527   */\n      add\n        /* \"#utility.yul\":2462:2541   */\n      tag_73\n      jump\t// in\n    tag_118:\n        /* \"#utility.yul\":2453:2541   */\n      swap2\n      pop\n        /* \"#utility.yul\":2269:2547   */\n      pop\n        /* \"#utility.yul\":2207:2547   */\n      swap3\n      swap2\n      pop\n      pop\n      jump\t// out\n        /* \"#utility.yul\":2553:3062   */\n    tag_10:\n        /* \"#utility.yul\":2622:2628   */\n      0x00\n        /* \"#utility.yul\":2671:2673   */\n      0x20\n        /* \"#utility.yul\":2659:2668   */\n      dup3\n        /* \"#utility.yul\":2650:2657   */\n      dup5\n        /* \"#utility.yul\":2646:2669   */\n      sub\n        /* \"#utility.yul\":2642:2674   */\n      slt\n        /* \"#utility.yul\":2639:2758   */\n      iszero\n      tag_120\n      jumpi\n        /* \"#utility.yul\":2677:2756   */\n      tag_121\n      tag_63\n      jump\t// in\n    tag_121:\n        /* \"#utility.yul\":2639:2758   */\n    tag_120:\n        /* \"#utility.yul\":2825:2826   */\n      0x00\n        /* \"#utility.yul\":2814:2823   */\n      dup3\n        /* \"#utility.yul\":2810:2827   */\n      add\n        /* \"#utility.yul\":2797:2828   */\n      calldataload\n        /* \"#utility.yul\":2855:2873   */\n      0xffffffffffffffff\n        /* \"#utility.yul\":2847:2853   */\n      dup2\n        /* \"#utility.yul\":2844:2874   */\n      gt\n        /* \"#utility.yul\":2841:2958   */\n      iszero\n      tag_122\n      jumpi\n        /* \"#utility.yul\":2877:2956   */\n      tag_123\n      tag_64\n      jump\t// in\n    tag_123:\n        /* \"#utility.yul\":2841:2958   */\n    tag_122:\n        /* \"#utility.yul\":2982:3045   */\n      tag_124\n        /* \"#utility.yul\":3037:3044   */\n      dup5\n        /* \"#utility.yul\":3028:3034   */\n      dup3\n        /* \"#utility.yul\":3017:3026   */\n      dup6\n        /* \"#utility.yul\":3013:3035   */\n      add\n        /* \"#utility.yul\":2982:3045   */\n      tag_74\n      jump\t// in\n    tag_124:\n        /* \"#utility.yul\":2972:3045   */\n      swap2\n      pop\n        /* \"#utility.yul\":2768:3055   */\n      pop\n        /* \"#utility.yul\":2553:3062   */\n      swap3\n      swap2\n      pop\n      pop\n      jump\t// out\n        /* \"#utility.yul\":3068:3194   */\n    tag_75:\n        /* \"#utility.yul\":3105:3112   */\n      0x00\n        /* \"#utility.yul\":3145:3187   */\n      0xffffffffffffffffffffffffffffffffffffffff\n        /* \"#utility.yul\":3138:3143   */\n      dup3\n        /* \"#utility.yul\":3134:3188   */\n      and\n        /* \"#utility.yul\":3123:3188   */\n      swap1\n      pop\n        /* \"#utility.yul\":3068:3194   */\n      swap2\n      swap1\n      pop\n      jump\t// out\n        /* \"#utility.yul\":3200:3260   */\n    tag_76:\n        /* \"#utility.yul\":3228:3231   */\n      0x00\n        /* \"#utility.yul\":3249:3254   */\n      dup2\n        /* \"#utility.yul\":3242:3254   */\n      swap1\n      pop\n        /* \"#utility.yul\":3200:3260   */\n      swap2\n      swap1\n      pop\n      jump\t// out\n        /* \"#utility.yul\":3266:3408   */\n    tag_77:\n        /* \"#utility.yul\":3316:3325   */\n      0x00\n        /* \"#utility.yul\":3349:3402   */\n      tag_128\n        /* \"#utility.yul\":3367:3401   */\n      tag_129\n        /* \"#utility.yul\":3376:3400   */\n      tag_130\n        /* \"#utility.yul\":3394:3399   */\n      dup5\n        /* \"#utility.yul\":3376:3400   */\n      tag_75\n      jump\t// in\n    tag_130:\n        /* \"#utility.yul\":3367:3401   */\n      tag_76\n      jump\t// in\n    tag_129:\n        /* \"#utility.yul\":3349:3402   */\n      tag_75\n      jump\t// in\n    tag_128:\n        /* \"#utility.yul\":3336:3402   */\n      swap1\n      pop\n        /* \"#utility.yul\":3266:3408   */\n      swap2\n      swap1\n      pop\n      jump\t// out\n        /* \"#utility.yul\":3414:3540   */\n    tag_78:\n        /* \"#utility.yul\":3464:3473   */\n      0x00\n        /* \"#utility.yul\":3497:3534   */\n      tag_132\n        /* \"#utility.yul\":3528:3533   */\n      dup3\n        /* \"#utility.yul\":3497:3534   */\n      tag_77\n      jump\t// in\n    tag_132:\n        /* \"#utility.yul\":3484:3534   */\n      swap1\n      pop\n        /* \"#utility.yul\":3414:3540   */\n      swap2\n      swap1\n      pop\n      jump\t// out\n        /* \"#utility.yul\":3546:3686   */\n    tag_79:\n        /* \"#utility.yul\":3610:3619   */\n      0x00\n        /* \"#utility.yul\":3643:3680   */\n      tag_134\n        /* \"#utility.yul\":3674:3679   */\n      dup3\n        /* \"#utility.yul\":3643:3680   */\n      tag_78\n      jump\t// in\n    tag_134:\n        /* \"#utility.yul\":3630:3680   */\n      swap1\n      pop\n        /* \"#utility.yul\":3546:3686   */\n      swap2\n      swap1\n      pop\n      jump\t// out\n        /* \"#utility.yul\":3692:3851   */\n    tag_80:\n        /* \"#utility.yul\":3793:3844   */\n      tag_136\n        /* \"#utility.yul\":3838:3843   */\n      dup2\n        /* \"#utility.yul\":3793:3844   */\n      tag_79\n      jump\t// in\n    tag_136:\n        /* \"#utility.yul\":3788:3791   */\n      dup3\n        /* \"#utility.yul\":3781:3845   */\n      mstore\n        /* \"#utility.yul\":3692:3851   */\n      pop\n      pop\n      jump\t// out\n        /* \"#utility.yul\":3857:4107   */\n    tag_17:\n        /* \"#utility.yul\":3964:3968   */\n      0x00\n        /* \"#utility.yul\":4002:4004   */\n      0x20\n        /* \"#utility.yul\":3991:4000   */\n      dup3\n        /* \"#utility.yul\":3987:4005   */\n      add\n        /* \"#utility.yul\":3979:4005   */\n      swap1\n      pop\n        /* \"#utility.yul\":4015:4100   */\n      tag_138\n        /* \"#utility.yul\":4097:4098   */\n      0x00\n        /* \"#utility.yul\":4086:4095   */\n      dup4\n        /* \"#utility.yul\":4082:4099   */\n      add\n        /* \"#utility.yul\":4073:4079   */\n      dup5\n        /* \"#utility.yul\":4015:4100   */\n      tag_80\n      jump\t// in\n    tag_138:\n        /* \"#utility.yul\":3857:4107   */\n      swap3\n      swap2\n      pop\n      pop\n      jump\t// out\n        /* \"#utility.yul\":4113:4190   */\n    tag_81:\n        /* \"#utility.yul\":4150:4157   */\n      0x00\n        /* \"#utility.yul\":4179:4184   */\n      dup2\n        /* \"#utility.yul\":4168:4184   */\n      swap1\n      pop\n        /* \"#utility.yul\":4113:4190   */\n      swap2\n      swap1\n      pop\n      jump\t// out\n        /* \"#utility.yul\":4196:4314   */\n    tag_82:\n        /* \"#utility.yul\":4283:4307   */\n      tag_141\n        /* \"#utility.yul\":4301:4306   */\n      dup2\n        /* \"#utility.yul\":4283:4307   */\n      tag_81\n      jump\t// in\n    tag_141:\n        /* \"#utility.yul\":4278:4281   */\n      dup3\n        /* \"#utility.yul\":4271:4308   */\n      mstore\n        /* \"#utility.yul\":4196:4314   */\n      pop\n      pop\n      jump\t// out\n        /* \"#utility.yul\":4320:4542   */\n    tag_23:\n        /* \"#utility.yul\":4413:4417   */\n      0x00\n        /* \"#utility.yul\":4451:4453   */\n      0x20\n        /* \"#utility.yul\":4440:4449   */\n      dup3\n        /* \"#utility.yul\":4436:4454   */\n      add\n        /* \"#utility.yul\":4428:4454   */\n      swap1\n      pop\n        /* \"#utility.yul\":4464:4535   */\n      tag_143\n        /* \"#utility.yul\":4532:4533   */\n      0x00\n        /* \"#utility.yul\":4521:4530   */\n      dup4\n        /* \"#utility.yul\":4517:4534   */\n      add\n        /* \"#utility.yul\":4508:4514   */\n      dup5\n        /* \"#utility.yul\":4464:4535   */\n      tag_82\n      jump\t// in\n    tag_143:\n        /* \"#utility.yul\":4320:4542   */\n      swap3\n      swap2\n      pop\n      pop\n      jump\t// out\n        /* \"#utility.yul\":4548:4647   */\n    tag_83:\n        /* \"#utility.yul\":4600:4606   */\n      0x00\n        /* \"#utility.yul\":4634:4639   */\n      dup2\n        /* \"#utility.yul\":4628:4640   */\n      mload\n        /* \"#utility.yul\":4618:4640   */\n      swap1\n      pop\n        /* \"#utility.yul\":4548:4647   */\n      swap2\n      swap1\n      pop\n      jump\t// out\n        /* \"#utility.yul\":4653:4801   */\n    tag_84:\n        /* \"#utility.yul\":4755:4766   */\n      0x00\n        /* \"#utility.yul\":4792:4795   */\n      dup2\n        /* \"#utility.yul\":4777:4795   */\n      swap1\n      pop\n        /* \"#utility.yul\":4653:4801   */\n      swap3\n      swap2\n      pop\n      pop\n      jump\t// out\n        /* \"#utility.yul\":4807:5053   */\n    tag_85:\n        /* \"#utility.yul\":4888:4889   */\n      0x00\n        /* \"#utility.yul\":4898:5011   */\n    tag_147:\n        /* \"#utility.yul\":4912:4918   */\n      dup4\n        /* \"#utility.yul\":4909:4910   */\n      dup2\n        /* \"#utility.yul\":4906:4919   */\n      lt\n        /* \"#utility.yul\":4898:5011   */\n      iszero\n      tag_149\n      jumpi\n        /* \"#utility.yul\":4997:4998   */\n      dup1\n        /* \"#utility.yul\":4992:4995   */\n      dup3\n        /* \"#utility.yul\":4988:4999   */\n      add\n        /* \"#utility.yul\":4982:5000   */\n      mload\n        /* \"#utility.yul\":4978:4979   */\n      dup2\n        /* \"#utility.yul\":4973:4976   */\n      dup5\n        /* \"#utility.yul\":4969:4980   */\n      add\n        /* \"#utility.yul\":4962:5001   */\n      mstore\n        /* \"#utility.yul\":4934:4936   */\n      0x20\n        /* \"#utility.yul\":4931:4932   */\n      dup2\n        /* \"#utility.yul\":4927:4937   */\n      add\n        /* \"#utility.yul\":4922:4937   */\n      swap1\n      pop\n        /* \"#utility.yul\":4898:5011   */\n      jump(tag_147)\n    tag_149:\n        /* \"#utility.yul\":5045:5046   */\n      0x00\n        /* \"#utility.yul\":5036:5042   */\n      dup5\n        /* \"#utility.yul\":5031:5034   */\n      dup5\n        /* \"#utility.yul\":5027:5043   */\n      add\n        /* \"#utility.yul\":5020:5047   */\n      mstore\n        /* \"#utility.yul\":4869:5053   */\n      pop\n        /* \"#utility.yul\":4807:5053   */\n      pop\n      pop\n      pop\n      jump\t// out\n        /* \"#utility.yul\":5059:5449   */\n    tag_86:\n        /* \"#utility.yul\":5165:5168   */\n      0x00\n        /* \"#utility.yul\":5193:5232   */\n      tag_151\n        /* \"#utility.yul\":5226:5231   */\n      dup3\n        /* \"#utility.yul\":5193:5232   */\n      tag_83\n      jump\t// in\n    tag_151:\n        /* \"#utility.yul\":5248:5337   */\n      tag_152\n        /* \"#utility.yul\":5330:5336   */\n      dup2\n        /* \"#utility.yul\":5325:5328   */\n      dup6\n        /* \"#utility.yul\":5248:5337   */\n      tag_84\n      jump\t// in\n    tag_152:\n        /* \"#utility.yul\":5241:5337   */\n      swap4\n      pop\n        /* \"#utility.yul\":5346:5411   */\n      tag_153\n        /* \"#utility.yul\":5404:5410   */\n      dup2\n        /* \"#utility.yul\":5399:5402   */\n      dup6\n        /* \"#utility.yul\":5392:5396   */\n      0x20\n        /* \"#utility.yul\":5385:5390   */\n      dup7\n        /* \"#utility.yul\":5381:5397   */\n      add\n        /* \"#utility.yul\":5346:5411   */\n      tag_85\n      jump\t// in\n    tag_153:\n        /* \"#utility.yul\":5436:5442   */\n      dup1\n        /* \"#utility.yul\":5431:5434   */\n      dup5\n        /* \"#utility.yul\":5427:5443   */\n      add\n        /* \"#utility.yul\":5420:5443   */\n      swap2\n      pop\n        /* \"#utility.yul\":5169:5449   */\n      pop\n        /* \"#utility.yul\":5059:5449   */\n      swap3\n      swap2\n      pop\n      pop\n      jump\t// out\n        /* \"#utility.yul\":5455:5730   */\n    tag_38:\n        /* \"#utility.yul\":5587:5590   */\n      0x00\n        /* \"#utility.yul\":5609:5704   */\n      tag_155\n        /* \"#utility.yul\":5700:5703   */\n      dup3\n        /* \"#utility.yul\":5691:5697   */\n      dup5\n        /* \"#utility.yul\":5609:5704   */\n      tag_86\n      jump\t// in\n    tag_155:\n        /* \"#utility.yul\":5602:5704   */\n      swap2\n      pop\n        /* \"#utility.yul\":5721:5724   */\n      dup2\n        /* \"#utility.yul\":5714:5724   */\n      swap1\n      pop\n        /* \"#utility.yul\":5455:5730   */\n      swap3\n      swap2\n      pop\n      pop\n      jump\t// out\n        /* \"#utility.yul\":5736:5858   */\n    tag_87:\n        /* \"#utility.yul\":5809:5833   */\n      tag_157\n        /* \"#utility.yul\":5827:5832   */\n      dup2\n        /* \"#utility.yul\":5809:5833   */\n      tag_81\n      jump\t// in\n    tag_157:\n        /* \"#utility.yul\":5802:5807   */\n      dup2\n        /* \"#utility.yul\":5799:5834   */\n      eq\n        /* \"#utility.yul\":5789:5852   */\n      tag_158\n      jumpi\n        /* \"#utility.yul\":5848:5849   */\n      0x00\n        /* \"#utility.yul\":5845:5846   */\n      dup1\n        /* \"#utility.yul\":5838:5850   */\n      revert\n        /* \"#utility.yul\":5789:5852   */\n    tag_158:\n        /* \"#utility.yul\":5736:5858   */\n      pop\n      jump\t// out\n        /* \"#utility.yul\":5864:6007   */\n    tag_88:\n        /* \"#utility.yul\":5921:5926   */\n      0x00\n        /* \"#utility.yul\":5952:5958   */\n      dup2\n        /* \"#utility.yul\":5946:5959   */\n      mload\n        /* \"#utility.yul\":5937:5959   */\n      swap1\n      pop\n        /* \"#utility.yul\":5968:6001   */\n      tag_160\n        /* \"#utility.yul\":5995:6000   */\n      dup2\n        /* \"#utility.yul\":5968:6001   */\n      tag_87\n      jump\t// in\n    tag_160:\n        /* \"#utility.yul\":5864:6007   */\n      swap3\n      swap2\n      pop\n      pop\n      jump\t// out\n        /* \"#utility.yul\":6013:6364   */\n    tag_49:\n        /* \"#utility.yul\":6083:6089   */\n      0x00\n        /* \"#utility.yul\":6132:6134   */\n      0x20\n        /* \"#utility.yul\":6120:6129   */\n      dup3\n        /* \"#utility.yul\":6111:6118   */\n      dup5\n        /* \"#utility.yul\":6107:6130   */\n      sub\n        /* \"#utility.yul\":6103:6135   */\n      slt\n        /* \"#utility.yul\":6100:6219   */\n      iszero\n      tag_162\n      jumpi\n        /* \"#utility.yul\":6138:6217   */\n      tag_163\n      tag_63\n      jump\t// in\n    tag_163:\n        /* \"#utility.yul\":6100:6219   */\n    tag_162:\n        /* \"#utility.yul\":6258:6259   */\n      0x00\n        /* \"#utility.yul\":6283:6347   */\n      tag_164\n        /* \"#utility.yul\":6339:6346   */\n      dup5\n        /* \"#utility.yul\":6330:6336   */\n      dup3\n        /* \"#utility.yul\":6319:6328   */\n      dup6\n        /* \"#utility.yul\":6315:6337   */\n      add\n        /* \"#utility.yul\":6283:6347   */\n      tag_88\n      jump\t// in\n    tag_164:\n        /* \"#utility.yul\":6273:6347   */\n      swap2\n      pop\n        /* \"#utility.yul\":6229:6357   */\n      pop\n        /* \"#utility.yul\":6013:6364   */\n      swap3\n      swap2\n      pop\n      pop\n      jump\t// out\n    stop\n\n    sub_0: assembly {\n            /* \"contract/TipJar.sol\":288:1016  contract TipJar {... */\n          mstore(0x40, 0x80)\n            /* \"contract/TipJar.sol\":340:391  constructor() {... */\n          callvalue\n          dup1\n          iszero\n          tag_1\n          jumpi\n          0x00\n          dup1\n          revert\n        tag_1:\n          pop\n            /* \"contract/TipJar.sol\":373:383  msg.sender */\n          caller\n            /* \"contract/TipJar.sol\":365:370  owner */\n          0x00\n          dup1\n            /* \"contract/TipJar.sol\":365:383  owner = msg.sender */\n          0x0100\n          exp\n          dup2\n          sload\n          dup2\n          0xffffffffffffffffffffffffffffffffffffffff\n          mul\n          not\n          and\n          swap1\n          dup4\n          0xffffffffffffffffffffffffffffffffffffffff\n          and\n          mul\n          or\n          swap1\n          sstore\n          pop\n            /* \"contract/TipJar.sol\":288:1016  contract TipJar {... */\n          dataSize(sub_0)\n          dup1\n          dataOffset(sub_0)\n          0x00\n          codecopy\n          0x00\n          return\n        stop\n\n        sub_0: assembly {\n                /* \"contract/TipJar.sol\":288:1016  contract TipJar {... */\n              mstore(0x40, 0x80)\n              jumpi(tag_1, lt(calldatasize, 0x04))\n              shr(0xe0, calldataload(0x00))\n              dup1\n              0x12065fe0\n              eq\n              tag_2\n              jumpi\n              dup1\n              0x2755cd2d\n              eq\n              tag_3\n              jumpi\n              dup1\n              0x3ccfd60b\n              eq\n              tag_4\n              jumpi\n              dup1\n              0x8da5cb5b\n              eq\n              tag_5\n              jumpi\n            tag_1:\n              0x00\n              dup1\n              revert\n                /* \"contract/TipJar.sol\":904:1013  function getBalance() public onlyOwner view returns (uint256) {... */\n            tag_2:\n              callvalue\n              dup1\n              iszero\n              tag_6\n              jumpi\n              0x00\n              dup1\n              revert\n            tag_6:\n              pop\n              tag_7\n              tag_8\n              jump\t// in\n            tag_7:\n              mload(0x40)\n              tag_9\n              swap2\n              swap1\n              tag_10\n              jump\t// in\n            tag_9:\n              mload(0x40)\n              dup1\n              swap2\n              sub\n              swap1\n              return\n                /* \"contract/TipJar.sol\":521:639  function tip() public payable {... */\n            tag_3:\n              tag_11\n              tag_12\n              jump\t// in\n            tag_11:\n              stop\n                /* \"contract/TipJar.sol\":647:896  function withdraw() public onlyOwner {... */\n            tag_4:\n              callvalue\n              dup1\n              iszero\n              tag_13\n              jumpi\n              0x00\n              dup1\n              revert\n            tag_13:\n              pop\n              tag_14\n              tag_15\n              jump\t// in\n            tag_14:\n              stop\n                /* \"contract/TipJar.sol\":311:331  address public owner */\n            tag_5:\n              callvalue\n              dup1\n              iszero\n              tag_16\n              jumpi\n              0x00\n              dup1\n              revert\n            tag_16:\n              pop\n              tag_17\n              tag_18\n              jump\t// in\n            tag_17:\n              mload(0x40)\n              tag_19\n              swap2\n              swap1\n              tag_20\n              jump\t// in\n            tag_19:\n              mload(0x40)\n              dup1\n              swap2\n              sub\n              swap1\n              return\n                /* \"contract/TipJar.sol\":904:1013  function getBalance() public onlyOwner view returns (uint256) {... */\n            tag_8:\n                /* \"contract/TipJar.sol\":957:964  uint256 */\n              0x00\n                /* \"contract/TipJar.sol\":453:458  owner */\n              dup1\n              0x00\n              swap1\n              sload\n              swap1\n              0x0100\n              exp\n              swap1\n              div\n              0xffffffffffffffffffffffffffffffffffffffff\n              and\n                /* \"contract/TipJar.sol\":439:458  msg.sender == owner */\n              0xffffffffffffffffffffffffffffffffffffffff\n              and\n                /* \"contract/TipJar.sol\":439:449  msg.sender */\n              caller\n                /* \"contract/TipJar.sol\":439:458  msg.sender == owner */\n              0xffffffffffffffffffffffffffffffffffffffff\n              and\n              eq\n                /* \"contract/TipJar.sol\":431:493  require(msg.sender == owner, \"There are no tips to withdraw.\") */\n              tag_22\n              jumpi\n              mload(0x40)\n              0x08c379a000000000000000000000000000000000000000000000000000000000\n              dup2\n              mstore\n              0x04\n              add\n              tag_23\n              swap1\n              tag_24\n              jump\t// in\n            tag_23:\n              mload(0x40)\n              dup1\n              swap2\n              sub\n              swap1\n              revert\n            tag_22:\n                /* \"contract/TipJar.sol\":984:1005  address(this).balance */\n              selfbalance\n                /* \"contract/TipJar.sol\":977:1005  return address(this).balance */\n              swap1\n              pop\n                /* \"contract/TipJar.sol\":904:1013  function getBalance() public onlyOwner view returns (uint256) {... */\n              swap1\n              jump\t// out\n                /* \"contract/TipJar.sol\":521:639  function tip() public payable {... */\n            tag_12:\n                /* \"contract/TipJar.sol\":582:583  0 */\n              0x00\n                /* \"contract/TipJar.sol\":570:579  msg.value */\n              callvalue\n                /* \"contract/TipJar.sol\":570:583  msg.value > 0 */\n              gt\n                /* \"contract/TipJar.sol\":562:631  require(msg.value > 0, \"You should send a tip to use this function.\") */\n              tag_27\n              jumpi\n              mload(0x40)\n              0x08c379a000000000000000000000000000000000000000000000000000000000\n              dup2\n              mstore\n              0x04\n              add\n              tag_28\n              swap1\n              tag_29\n              jump\t// in\n            tag_28:\n              mload(0x40)\n              dup1\n              swap2\n              sub\n              swap1\n              revert\n            tag_27:\n                /* \"contract/TipJar.sol\":521:639  function tip() public payable {... */\n              jump\t// out\n                /* \"contract/TipJar.sol\":647:896  function withdraw() public onlyOwner {... */\n            tag_15:\n                /* \"contract/TipJar.sol\":453:458  owner */\n              0x00\n              dup1\n              sload\n              swap1\n              0x0100\n              exp\n              swap1\n              div\n              0xffffffffffffffffffffffffffffffffffffffff\n              and\n                /* \"contract/TipJar.sol\":439:458  msg.sender == owner */\n              0xffffffffffffffffffffffffffffffffffffffff\n              and\n                /* \"contract/TipJar.sol\":439:449  msg.sender */\n              caller\n                /* \"contract/TipJar.sol\":439:458  msg.sender == owner */\n              0xffffffffffffffffffffffffffffffffffffffff\n              and\n              eq\n                /* \"contract/TipJar.sol\":431:493  require(msg.sender == owner, \"There are no tips to withdraw.\") */\n              tag_31\n              jumpi\n              mload(0x40)\n              0x08c379a000000000000000000000000000000000000000000000000000000000\n              dup2\n              mstore\n              0x04\n              add\n              tag_32\n              swap1\n              tag_24\n              jump\t// in\n            tag_32:\n              mload(0x40)\n              dup1\n              swap2\n              sub\n              swap1\n              revert\n            tag_31:\n                /* \"contract/TipJar.sol\":705:728  uint256 contractBalance */\n              0x00\n                /* \"contract/TipJar.sol\":731:752  address(this).balance */\n              selfbalance\n                /* \"contract/TipJar.sol\":705:752  uint256 contractBalance = address(this).balance */\n              swap1\n              pop\n                /* \"contract/TipJar.sol\":799:800  0 */\n              0x00\n                /* \"contract/TipJar.sol\":781:796  contractBalance */\n              dup2\n                /* \"contract/TipJar.sol\":781:800  contractBalance > 0 */\n              gt\n                /* \"contract/TipJar.sol\":773:835  require(contractBalance > 0, \"There are no tips to withdraw.\") */\n              tag_34\n              jumpi\n              mload(0x40)\n              0x08c379a000000000000000000000000000000000000000000000000000000000\n              dup2\n              mstore\n              0x04\n              add\n              tag_35\n              swap1\n              tag_24\n              jump\t// in\n            tag_35:\n              mload(0x40)\n              dup1\n              swap2\n              sub\n              swap1\n              revert\n            tag_34:\n                /* \"contract/TipJar.sol\":856:861  owner */\n              0x00\n              dup1\n              sload\n              swap1\n              0x0100\n              exp\n              swap1\n              div\n              0xffffffffffffffffffffffffffffffffffffffff\n              and\n                /* \"contract/TipJar.sol\":848:871  payable(owner).transfer */\n              0xffffffffffffffffffffffffffffffffffffffff\n              and\n                /* \"contract/TipJar.sol\":848:888  payable(owner).transfer(contractBalance) */\n              0x08fc\n                /* \"contract/TipJar.sol\":872:887  contractBalance */\n              dup3\n                /* \"contract/TipJar.sol\":848:888  payable(owner).transfer(contractBalance) */\n              swap1\n              dup2\n              iszero\n              mul\n              swap1\n              mload(0x40)\n              0x00\n              mload(0x40)\n              dup1\n              dup4\n              sub\n              dup2\n              dup6\n              dup9\n              dup9\n              call\n              swap4\n              pop\n              pop\n              pop\n              pop\n              iszero\n              dup1\n              iszero\n              tag_37\n              jumpi\n              returndatasize\n              0x00\n              dup1\n              returndatacopy\n              revert(0x00, returndatasize)\n            tag_37:\n              pop\n                /* \"contract/TipJar.sol\":684:896  {... */\n              pop\n                /* \"contract/TipJar.sol\":647:896  function withdraw() public onlyOwner {... */\n              jump\t// out\n                /* \"contract/TipJar.sol\":311:331  address public owner */\n            tag_18:\n              0x00\n              dup1\n              sload\n              swap1\n              0x0100\n              exp\n              swap1\n              div\n              0xffffffffffffffffffffffffffffffffffffffff\n              and\n              dup2\n              jump\t// out\n                /* \"#utility.yul\":7:84   */\n            tag_38:\n                /* \"#utility.yul\":44:51   */\n              0x00\n                /* \"#utility.yul\":73:78   */\n              dup2\n                /* \"#utility.yul\":62:78   */\n              swap1\n              pop\n                /* \"#utility.yul\":7:84   */\n              swap2\n              swap1\n              pop\n              jump\t// out\n                /* \"#utility.yul\":90:208   */\n            tag_39:\n                /* \"#utility.yul\":177:201   */\n              tag_51\n                /* \"#utility.yul\":195:200   */\n              dup2\n                /* \"#utility.yul\":177:201   */\n              tag_38\n              jump\t// in\n            tag_51:\n                /* \"#utility.yul\":172:175   */\n              dup3\n                /* \"#utility.yul\":165:202   */\n              mstore\n                /* \"#utility.yul\":90:208   */\n              pop\n              pop\n              jump\t// out\n                /* \"#utility.yul\":214:436   */\n            tag_10:\n                /* \"#utility.yul\":307:311   */\n              0x00\n                /* \"#utility.yul\":345:347   */\n              0x20\n                /* \"#utility.yul\":334:343   */\n              dup3\n                /* \"#utility.yul\":330:348   */\n              add\n                /* \"#utility.yul\":322:348   */\n              swap1\n              pop\n                /* \"#utility.yul\":358:429   */\n              tag_53\n                /* \"#utility.yul\":426:427   */\n              0x00\n                /* \"#utility.yul\":415:424   */\n              dup4\n                /* \"#utility.yul\":411:428   */\n              add\n                /* \"#utility.yul\":402:408   */\n              dup5\n                /* \"#utility.yul\":358:429   */\n              tag_39\n              jump\t// in\n            tag_53:\n                /* \"#utility.yul\":214:436   */\n              swap3\n              swap2\n              pop\n              pop\n              jump\t// out\n                /* \"#utility.yul\":442:568   */\n            tag_40:\n                /* \"#utility.yul\":479:486   */\n              0x00\n                /* \"#utility.yul\":519:561   */\n              0xffffffffffffffffffffffffffffffffffffffff\n                /* \"#utility.yul\":512:517   */\n              dup3\n                /* \"#utility.yul\":508:562   */\n              and\n                /* \"#utility.yul\":497:562   */\n              swap1\n              pop\n                /* \"#utility.yul\":442:568   */\n              swap2\n              swap1\n              pop\n              jump\t// out\n                /* \"#utility.yul\":574:670   */\n            tag_41:\n                /* \"#utility.yul\":611:618   */\n              0x00\n                /* \"#utility.yul\":640:664   */\n              tag_56\n                /* \"#utility.yul\":658:663   */\n              dup3\n                /* \"#utility.yul\":640:664   */\n              tag_40\n              jump\t// in\n            tag_56:\n                /* \"#utility.yul\":629:664   */\n              swap1\n              pop\n                /* \"#utility.yul\":574:670   */\n              swap2\n              swap1\n              pop\n              jump\t// out\n                /* \"#utility.yul\":676:794   */\n            tag_42:\n                /* \"#utility.yul\":763:787   */\n              tag_58\n                /* \"#utility.yul\":781:786   */\n              dup2\n                /* \"#utility.yul\":763:787   */\n              tag_41\n              jump\t// in\n            tag_58:\n                /* \"#utility.yul\":758:761   */\n              dup3\n                /* \"#utility.yul\":751:788   */\n              mstore\n                /* \"#utility.yul\":676:794   */\n              pop\n              pop\n              jump\t// out\n                /* \"#utility.yul\":800:1022   */\n            tag_20:\n                /* \"#utility.yul\":893:897   */\n              0x00\n                /* \"#utility.yul\":931:933   */\n              0x20\n                /* \"#utility.yul\":920:929   */\n              dup3\n                /* \"#utility.yul\":916:934   */\n              add\n                /* \"#utility.yul\":908:934   */\n              swap1\n              pop\n                /* \"#utility.yul\":944:1015   */\n              tag_60\n                /* \"#utility.yul\":1012:1013   */\n              0x00\n                /* \"#utility.yul\":1001:1010   */\n              dup4\n                /* \"#utility.yul\":997:1014   */\n              add\n                /* \"#utility.yul\":988:994   */\n              dup5\n                /* \"#utility.yul\":944:1015   */\n              tag_42\n              jump\t// in\n            tag_60:\n                /* \"#utility.yul\":800:1022   */\n              swap3\n              swap2\n              pop\n              pop\n              jump\t// out\n                /* \"#utility.yul\":1028:1197   */\n            tag_43:\n                /* \"#utility.yul\":1112:1123   */\n              0x00\n                /* \"#utility.yul\":1146:1152   */\n              dup3\n                /* \"#utility.yul\":1141:1144   */\n              dup3\n                /* \"#utility.yul\":1134:1153   */\n              mstore\n                /* \"#utility.yul\":1186:1190   */\n              0x20\n                /* \"#utility.yul\":1181:1184   */\n              dup3\n                /* \"#utility.yul\":1177:1191   */\n              add\n                /* \"#utility.yul\":1162:1191   */\n              swap1\n              pop\n                /* \"#utility.yul\":1028:1197   */\n              swap3\n              swap2\n              pop\n              pop\n              jump\t// out\n                /* \"#utility.yul\":1203:1383   */\n            tag_44:\n                /* \"#utility.yul\":1343:1375   */\n              0x546865726520617265206e6f207469707320746f2077697468647261772e0000\n                /* \"#utility.yul\":1339:1340   */\n              0x00\n                /* \"#utility.yul\":1331:1337   */\n              dup3\n                /* \"#utility.yul\":1327:1341   */\n              add\n                /* \"#utility.yul\":1320:1376   */\n              mstore\n                /* \"#utility.yul\":1203:1383   */\n              pop\n              jump\t// out\n                /* \"#utility.yul\":1389:1755   */\n            tag_45:\n                /* \"#utility.yul\":1531:1534   */\n              0x00\n                /* \"#utility.yul\":1552:1619   */\n              tag_64\n                /* \"#utility.yul\":1616:1618   */\n              0x1e\n                /* \"#utility.yul\":1611:1614   */\n              dup4\n                /* \"#utility.yul\":1552:1619   */\n              tag_43\n              jump\t// in\n            tag_64:\n                /* \"#utility.yul\":1545:1619   */\n              swap2\n              pop\n                /* \"#utility.yul\":1628:1721   */\n              tag_65\n                /* \"#utility.yul\":1717:1720   */\n              dup3\n                /* \"#utility.yul\":1628:1721   */\n              tag_44\n              jump\t// in\n            tag_65:\n                /* \"#utility.yul\":1746:1748   */\n              0x20\n                /* \"#utility.yul\":1741:1744   */\n              dup3\n                /* \"#utility.yul\":1737:1749   */\n              add\n                /* \"#utility.yul\":1730:1749   */\n              swap1\n              pop\n                /* \"#utility.yul\":1389:1755   */\n              swap2\n              swap1\n              pop\n              jump\t// out\n                /* \"#utility.yul\":1761:2180   */\n            tag_24:\n                /* \"#utility.yul\":1927:1931   */\n              0x00\n                /* \"#utility.yul\":1965:1967   */\n              0x20\n                /* \"#utility.yul\":1954:1963   */\n              dup3\n                /* \"#utility.yul\":1950:1968   */\n              add\n                /* \"#utility.yul\":1942:1968   */\n              swap1\n              pop\n                /* \"#utility.yul\":2014:2023   */\n              dup2\n                /* \"#utility.yul\":2008:2012   */\n              dup2\n                /* \"#utility.yul\":2004:2024   */\n              sub\n                /* \"#utility.yul\":2000:2001   */\n              0x00\n                /* \"#utility.yul\":1989:1998   */\n              dup4\n                /* \"#utility.yul\":1985:2002   */\n              add\n                /* \"#utility.yul\":1978:2025   */\n              mstore\n                /* \"#utility.yul\":2042:2173   */\n              tag_67\n                /* \"#utility.yul\":2168:2172   */\n              dup2\n                /* \"#utility.yul\":2042:2173   */\n              tag_45\n              jump\t// in\n            tag_67:\n                /* \"#utility.yul\":2034:2173   */\n              swap1\n              pop\n                /* \"#utility.yul\":1761:2180   */\n              swap2\n              swap1\n              pop\n              jump\t// out\n                /* \"#utility.yul\":2186:2416   */\n            tag_46:\n                /* \"#utility.yul\":2326:2360   */\n              0x596f752073686f756c642073656e6420612074697020746f2075736520746869\n                /* \"#utility.yul\":2322:2323   */\n              0x00\n                /* \"#utility.yul\":2314:2320   */\n              dup3\n                /* \"#utility.yul\":2310:2324   */\n              add\n                /* \"#utility.yul\":2303:2361   */\n              mstore\n                /* \"#utility.yul\":2395:2408   */\n              0x732066756e6374696f6e2e000000000000000000000000000000000000000000\n                /* \"#utility.yul\":2390:2392   */\n              0x20\n                /* \"#utility.yul\":2382:2388   */\n              dup3\n                /* \"#utility.yul\":2378:2393   */\n              add\n                /* \"#utility.yul\":2371:2409   */\n              mstore\n                /* \"#utility.yul\":2186:2416   */\n              pop\n              jump\t// out\n                /* \"#utility.yul\":2422:2788   */\n            tag_47:\n                /* \"#utility.yul\":2564:2567   */\n              0x00\n                /* \"#utility.yul\":2585:2652   */\n              tag_70\n                /* \"#utility.yul\":2649:2651   */\n              0x2b\n                /* \"#utility.yul\":2644:2647   */\n              dup4\n                /* \"#utility.yul\":2585:2652   */\n              tag_43\n              jump\t// in\n            tag_70:\n                /* \"#utility.yul\":2578:2652   */\n              swap2\n              pop\n                /* \"#utility.yul\":2661:2754   */\n              tag_71\n                /* \"#utility.yul\":2750:2753   */\n              dup3\n                /* \"#utility.yul\":2661:2754   */\n              tag_46\n              jump\t// in\n            tag_71:\n                /* \"#utility.yul\":2779:2781   */\n              0x40\n                /* \"#utility.yul\":2774:2777   */\n              dup3\n                /* \"#utility.yul\":2770:2782   */\n              add\n                /* \"#utility.yul\":2763:2782   */\n              swap1\n              pop\n                /* \"#utility.yul\":2422:2788   */\n              swap2\n              swap1\n              pop\n              jump\t// out\n                /* \"#utility.yul\":2794:3213   */\n            tag_29:\n                /* \"#utility.yul\":2960:2964   */\n              0x00\n                /* \"#utility.yul\":2998:3000   */\n              0x20\n                /* \"#utility.yul\":2987:2996   */\n              dup3\n                /* \"#utility.yul\":2983:3001   */\n              add\n                /* \"#utility.yul\":2975:3001   */\n              swap1\n              pop\n                /* \"#utility.yul\":3047:3056   */\n              dup2\n                /* \"#utility.yul\":3041:3045   */\n              dup2\n                /* \"#utility.yul\":3037:3057   */\n              sub\n                /* \"#utility.yul\":3033:3034   */\n              0x00\n                /* \"#utility.yul\":3022:3031   */\n              dup4\n                /* \"#utility.yul\":3018:3035   */\n              add\n                /* \"#utility.yul\":3011:3058   */\n              mstore\n                /* \"#utility.yul\":3075:3206   */\n              tag_73\n                /* \"#utility.yul\":3201:3205   */\n              dup2\n                /* \"#utility.yul\":3075:3206   */\n              tag_47\n              jump\t// in\n            tag_73:\n                /* \"#utility.yul\":3067:3206   */\n              swap1\n              pop\n                /* \"#utility.yul\":2794:3213   */\n              swap2\n              swap1\n              pop\n              jump\t// out\n\n            auxdata: 0xa26469706673582212204f22a4e9fc1d2f9e42a6256d33383cad59d7229d64f69dd66c9ba005b06e1fa164736f6c63430008180033\n        }\n    }\n\n    auxdata: 0xa2646970667358221220a710d1d828a17112ce4c7aee2424b1e03b982cfdf96609540aac6c3c61854a2564736f6c63430008180033\n}\n",
				"bytecode": {
					"linkReferences": {},
					"object": "608060405234801561000f575f80fd5b50610d3a8061001d5f395ff3fe608060405260043610610054575f3560e01c80632af1c34114610058578063658c76dc1461007457806366c69318146100b05780637ea99a94146100ec578063a67a28e314610114578063b3f0a4fe1461013c575b5f80fd5b610072600480360381019061006d9190610616565b610164565b005b34801561007f575f80fd5b5061009a60048036038101906100959190610616565b6101ff565b6040516100a791906106d7565b60405180910390f35b3480156100bb575f80fd5b506100d660048036038101906100d19190610616565b61024a565b6040516100e39190610708565b60405180910390f35b3480156100f7575f80fd5b50610112600480360381019061010d9190610616565b6102fc565b005b34801561011f575f80fd5b5061013a60048036038101906101359190610616565b61033f565b005b348015610147575f80fd5b50610162600480360381019061015d9190610616565b610421565b005b600181604051610174919061078d565b90815260200160405180910390205f9054906101000a900473ffffffffffffffffffffffffffffffffffffffff1673ffffffffffffffffffffffffffffffffffffffff16632755cd2d6040518163ffffffff1660e01b81526004015f604051808303815f87803b1580156101e6575f80fd5b505af11580156101f8573d5f803e3d5ffd5b5050505050565b5f80600183604051610211919061078d565b90815260200160405180910390205f9054906101000a900473ffffffffffffffffffffffffffffffffffffffff16905080915050919050565b5f60018260405161025b919061078d565b90815260200160405180910390205f9054906101000a900473ffffffffffffffffffffffffffffffffffffffff1673ffffffffffffffffffffffffffffffffffffffff166312065fe06040518163ffffffff1660e01b8152600401602060405180830381865afa1580156102d1573d5f803e3d5ffd5b505050506040513d601f19601f820116820180604052508101906102f591906107cd565b9050919050565b60018160405161030c919061078d565b90815260200160405180910390205f6101000a81549073ffffffffffffffffffffffffffffffffffffffff021916905550565b60405161034b906104bc565b604051809103905ff080158015610364573d5f803e3d5ffd5b505f806101000a81548173ffffffffffffffffffffffffffffffffffffffff021916908373ffffffffffffffffffffffffffffffffffffffff1602179055505f8054906101000a900473ffffffffffffffffffffffffffffffffffffffff166001826040516103d3919061078d565b90815260200160405180910390205f6101000a81548173ffffffffffffffffffffffffffffffffffffffff021916908373ffffffffffffffffffffffffffffffffffffffff16021790555050565b600181604051610431919061078d565b90815260200160405180910390205f9054906101000a900473ffffffffffffffffffffffffffffffffffffffff1673ffffffffffffffffffffffffffffffffffffffff16633ccfd60b6040518163ffffffff1660e01b81526004015f604051808303815f87803b1580156104a3575f80fd5b505af11580156104b5573d5f803e3d5ffd5b5050505050565b61050c806107f983390190565b5f604051905090565b5f80fd5b5f80fd5b5f80fd5b5f80fd5b5f601f19601f8301169050919050565b7f4e487b71000000000000000000000000000000000000000000000000000000005f52604160045260245ffd5b610528826104e2565b810181811067ffffffffffffffff82111715610547576105466104f2565b5b80604052505050565b5f6105596104c9565b9050610565828261051f565b919050565b5f67ffffffffffffffff821115610584576105836104f2565b5b61058d826104e2565b9050602081019050919050565b828183375f83830152505050565b5f6105ba6105b58461056a565b610550565b9050828152602081018484840111156105d6576105d56104de565b5b6105e184828561059a565b509392505050565b5f82601f8301126105fd576105fc6104da565b5b813561060d8482602086016105a8565b91505092915050565b5f6020828403121561062b5761062a6104d2565b5b5f82013567ffffffffffffffff811115610648576106476104d6565b5b610654848285016105e9565b91505092915050565b5f73ffffffffffffffffffffffffffffffffffffffff82169050919050565b5f819050919050565b5f61069f61069a6106958461065d565b61067c565b61065d565b9050919050565b5f6106b082610685565b9050919050565b5f6106c1826106a6565b9050919050565b6106d1816106b7565b82525050565b5f6020820190506106ea5f8301846106c8565b92915050565b5f819050919050565b610702816106f0565b82525050565b5f60208201905061071b5f8301846106f9565b92915050565b5f81519050919050565b5f81905092915050565b5f5b83811015610752578082015181840152602081019050610737565b5f8484015250505050565b5f61076782610721565b610771818561072b565b9350610781818560208601610735565b80840191505092915050565b5f610798828461075d565b915081905092915050565b6107ac816106f0565b81146107b6575f80fd5b50565b5f815190506107c7816107a3565b92915050565b5f602082840312156107e2576107e16104d2565b5b5f6107ef848285016107b9565b9150509291505056fe608060405234801561000f575f80fd5b50335f806101000a81548173ffffffffffffffffffffffffffffffffffffffff021916908373ffffffffffffffffffffffffffffffffffffffff1602179055506104b08061005c5f395ff3fe60806040526004361061003e575f3560e01c806312065fe0146100425780632755cd2d1461006c5780633ccfd60b146100765780638da5cb5b1461008c575b5f80fd5b34801561004d575f80fd5b506100566100b6565b6040516100639190610303565b60405180910390f35b61007461014b565b005b348015610081575f80fd5b5061008a61018f565b005b348015610097575f80fd5b506100a06102c8565b6040516100ad919061035b565b60405180910390f35b5f805f9054906101000a900473ffffffffffffffffffffffffffffffffffffffff1673ffffffffffffffffffffffffffffffffffffffff163373ffffffffffffffffffffffffffffffffffffffff1614610145576040517f08c379a000000000000000000000000000000000000000000000000000000000815260040161013c906103ce565b60405180910390fd5b47905090565b5f341161018d576040517f08c379a00000000000000000000000000000000000000000000000000000000081526004016101849061045c565b60405180910390fd5b565b5f8054906101000a900473ffffffffffffffffffffffffffffffffffffffff1673ffffffffffffffffffffffffffffffffffffffff163373ffffffffffffffffffffffffffffffffffffffff161461021c576040517f08c379a0000000000000000000000000000000000000000000000000000000008152600401610213906103ce565b60405180910390fd5b5f4790505f8111610262576040517f08c379a0000000000000000000000000000000000000000000000000000000008152600401610259906103ce565b60405180910390fd5b5f8054906101000a900473ffffffffffffffffffffffffffffffffffffffff1673ffffffffffffffffffffffffffffffffffffffff166108fc8290811502906040515f60405180830381858888f193505050501580156102c4573d5f803e3d5ffd5b5050565b5f8054906101000a900473ffffffffffffffffffffffffffffffffffffffff1681565b5f819050919050565b6102fd816102eb565b82525050565b5f6020820190506103165f8301846102f4565b92915050565b5f73ffffffffffffffffffffffffffffffffffffffff82169050919050565b5f6103458261031c565b9050919050565b6103558161033b565b82525050565b5f60208201905061036e5f83018461034c565b92915050565b5f82825260208201905092915050565b7f546865726520617265206e6f207469707320746f2077697468647261772e00005f82015250565b5f6103b8601e83610374565b91506103c382610384565b602082019050919050565b5f6020820190508181035f8301526103e5816103ac565b9050919050565b7f596f752073686f756c642073656e6420612074697020746f20757365207468695f8201527f732066756e6374696f6e2e000000000000000000000000000000000000000000602082015250565b5f610446602b83610374565b9150610451826103ec565b604082019050919050565b5f6020820190508181035f8301526104738161043a565b905091905056fea26469706673582212204f22a4e9fc1d2f9e42a6256d33383cad59d7229d64f69dd66c9ba005b06e1fa164736f6c63430008180033a2646970667358221220a710d1d828a17112ce4c7aee2424b1e03b982cfdf96609540aac6c3c61854a2564736f6c63430008180033",
					"opcodes": "PUSH1 0x80 PUSH1 0x40 MSTORE CALLVALUE DUP1 ISZERO PUSH2 0xF JUMPI PUSH0 DUP1 REVERT JUMPDEST POP PUSH2 0xD3A DUP1 PUSH2 0x1D PUSH0 CODECOPY PUSH0 RETURN INVALID PUSH1 0x80 PUSH1 0x40 MSTORE PUSH1 0x4 CALLDATASIZE LT PUSH2 0x54 JUMPI PUSH0 CALLDATALOAD PUSH1 0xE0 SHR DUP1 PUSH4 0x2AF1C341 EQ PUSH2 0x58 JUMPI DUP1 PUSH4 0x658C76DC EQ PUSH2 0x74 JUMPI DUP1 PUSH4 0x66C69318 EQ PUSH2 0xB0 JUMPI DUP1 PUSH4 0x7EA99A94 EQ PUSH2 0xEC JUMPI DUP1 PUSH4 0xA67A28E3 EQ PUSH2 0x114 JUMPI DUP1 PUSH4 0xB3F0A4FE EQ PUSH2 0x13C JUMPI JUMPDEST PUSH0 DUP1 REVERT JUMPDEST PUSH2 0x72 PUSH1 0x4 DUP1 CALLDATASIZE SUB DUP2 ADD SWAP1 PUSH2 0x6D SWAP2 SWAP1 PUSH2 0x616 JUMP JUMPDEST PUSH2 0x164 JUMP JUMPDEST STOP JUMPDEST CALLVALUE DUP1 ISZERO PUSH2 0x7F JUMPI PUSH0 DUP1 REVERT JUMPDEST POP PUSH2 0x9A PUSH1 0x4 DUP1 CALLDATASIZE SUB DUP2 ADD SWAP1 PUSH2 0x95 SWAP2 SWAP1 PUSH2 0x616 JUMP JUMPDEST PUSH2 0x1FF JUMP JUMPDEST PUSH1 0x40 MLOAD PUSH2 0xA7 SWAP2 SWAP1 PUSH2 0x6D7 JUMP JUMPDEST PUSH1 0x40 MLOAD DUP1 SWAP2 SUB SWAP1 RETURN JUMPDEST CALLVALUE DUP1 ISZERO PUSH2 0xBB JUMPI PUSH0 DUP1 REVERT JUMPDEST POP PUSH2 0xD6 PUSH1 0x4 DUP1 CALLDATASIZE SUB DUP2 ADD SWAP1 PUSH2 0xD1 SWAP2 SWAP1 PUSH2 0x616 JUMP JUMPDEST PUSH2 0x24A JUMP JUMPDEST PUSH1 0x40 MLOAD PUSH2 0xE3 SWAP2 SWAP1 PUSH2 0x708 JUMP JUMPDEST PUSH1 0x40 MLOAD DUP1 SWAP2 SUB SWAP1 RETURN JUMPDEST CALLVALUE DUP1 ISZERO PUSH2 0xF7 JUMPI PUSH0 DUP1 REVERT JUMPDEST POP PUSH2 0x112 PUSH1 0x4 DUP1 CALLDATASIZE SUB DUP2 ADD SWAP1 PUSH2 0x10D SWAP2 SWAP1 PUSH2 0x616 JUMP JUMPDEST PUSH2 0x2FC JUMP JUMPDEST STOP JUMPDEST CALLVALUE DUP1 ISZERO PUSH2 0x11F JUMPI PUSH0 DUP1 REVERT JUMPDEST POP PUSH2 0x13A PUSH1 0x4 DUP1 CALLDATASIZE SUB DUP2 ADD SWAP1 PUSH2 0x135 SWAP2 SWAP1 PUSH2 0x616 JUMP JUMPDEST PUSH2 0x33F JUMP JUMPDEST STOP JUMPDEST CALLVALUE DUP1 ISZERO PUSH2 0x147 JUMPI PUSH0 DUP1 REVERT JUMPDEST POP PUSH2 0x162 PUSH1 0x4 DUP1 CALLDATASIZE SUB DUP2 ADD SWAP1 PUSH2 0x15D SWAP2 SWAP1 PUSH2 0x616 JUMP JUMPDEST PUSH2 0x421 JUMP JUMPDEST STOP JUMPDEST PUSH1 0x1 DUP2 PUSH1 0x40 MLOAD PUSH2 0x174 SWAP2 SWAP1 PUSH2 0x78D JUMP JUMPDEST SWAP1 DUP2 MSTORE PUSH1 0x20 ADD PUSH1 0x40 MLOAD DUP1 SWAP2 SUB SWAP1 KECCAK256 PUSH0 SWAP1 SLOAD SWAP1 PUSH2 0x100 EXP SWAP1 DIV PUSH20 0xFFFFFFFFFFFFFFFFFFFFFFFFFFFFFFFFFFFFFFFF AND PUSH20 0xFFFFFFFFFFFFFFFFFFFFFFFFFFFFFFFFFFFFFFFF AND PUSH4 0x2755CD2D PUSH1 0x40 MLOAD DUP2 PUSH4 0xFFFFFFFF AND PUSH1 0xE0 SHL DUP2 MSTORE PUSH1 0x4 ADD PUSH0 PUSH1 0x40 MLOAD DUP1 DUP4 SUB DUP2 PUSH0 DUP8 DUP1 EXTCODESIZE ISZERO DUP1 ISZERO PUSH2 0x1E6 JUMPI PUSH0 DUP1 REVERT JUMPDEST POP GAS CALL ISZERO DUP1 ISZERO PUSH2 0x1F8 JUMPI RETURNDATASIZE PUSH0 DUP1 RETURNDATACOPY RETURNDATASIZE PUSH0 REVERT JUMPDEST POP POP POP POP POP JUMP JUMPDEST PUSH0 DUP1 PUSH1 0x1 DUP4 PUSH1 0x40 MLOAD PUSH2 0x211 SWAP2 SWAP1 PUSH2 0x78D JUMP JUMPDEST SWAP1 DUP2 MSTORE PUSH1 0x20 ADD PUSH1 0x40 MLOAD DUP1 SWAP2 SUB SWAP1 KECCAK256 PUSH0 SWAP1 SLOAD SWAP1 PUSH2 0x100 EXP SWAP1 DIV PUSH20 0xFFFFFFFFFFFFFFFFFFFFFFFFFFFFFFFFFFFFFFFF AND SWAP1 POP DUP1 SWAP2 POP POP SWAP2 SWAP1 POP JUMP JUMPDEST PUSH0 PUSH1 0x1 DUP3 PUSH1 0x40 MLOAD PUSH2 0x25B SWAP2 SWAP1 PUSH2 0x78D JUMP JUMPDEST SWAP1 DUP2 MSTORE PUSH1 0x20 ADD PUSH1 0x40 MLOAD DUP1 SWAP2 SUB SWAP1 KECCAK256 PUSH0 SWAP1 SLOAD SWAP1 PUSH2 0x100 EXP SWAP1 DIV PUSH20 0xFFFFFFFFFFFFFFFFFFFFFFFFFFFFFFFFFFFFFFFF AND PUSH20 0xFFFFFFFFFFFFFFFFFFFFFFFFFFFFFFFFFFFFFFFF AND PUSH4 0x12065FE0 PUSH1 0x40 MLOAD DUP2 PUSH4 0xFFFFFFFF AND PUSH1 0xE0 SHL DUP2 MSTORE PUSH1 0x4 ADD PUSH1 0x20 PUSH1 0x40 MLOAD DUP1 DUP4 SUB DUP2 DUP7 GAS STATICCALL ISZERO DUP1 ISZERO PUSH2 0x2D1 JUMPI RETURNDATASIZE PUSH0 DUP1 RETURNDATACOPY RETURNDATASIZE PUSH0 REVERT JUMPDEST POP POP POP POP PUSH1 0x40 MLOAD RETURNDATASIZE PUSH1 0x1F NOT PUSH1 0x1F DUP3 ADD AND DUP3 ADD DUP1 PUSH1 0x40 MSTORE POP DUP2 ADD SWAP1 PUSH2 0x2F5 SWAP2 SWAP1 PUSH2 0x7CD JUMP JUMPDEST SWAP1 POP SWAP2 SWAP1 POP JUMP JUMPDEST PUSH1 0x1 DUP2 PUSH1 0x40 MLOAD PUSH2 0x30C SWAP2 SWAP1 PUSH2 0x78D JUMP JUMPDEST SWAP1 DUP2 MSTORE PUSH1 0x20 ADD PUSH1 0x40 MLOAD DUP1 SWAP2 SUB SWAP1 KECCAK256 PUSH0 PUSH2 0x100 EXP DUP2 SLOAD SWAP1 PUSH20 0xFFFFFFFFFFFFFFFFFFFFFFFFFFFFFFFFFFFFFFFF MUL NOT AND SWAP1 SSTORE POP JUMP JUMPDEST PUSH1 0x40 MLOAD PUSH2 0x34B SWAP1 PUSH2 0x4BC JUMP JUMPDEST PUSH1 0x40 MLOAD DUP1 SWAP2 SUB SWAP1 PUSH0 CREATE DUP1 ISZERO DUP1 ISZERO PUSH2 0x364 JUMPI RETURNDATASIZE PUSH0 DUP1 RETURNDATACOPY RETURNDATASIZE PUSH0 REVERT JUMPDEST POP PUSH0 DUP1 PUSH2 0x100 EXP DUP2 SLOAD DUP2 PUSH20 0xFFFFFFFFFFFFFFFFFFFFFFFFFFFFFFFFFFFFFFFF MUL NOT AND SWAP1 DUP4 PUSH20 0xFFFFFFFFFFFFFFFFFFFFFFFFFFFFFFFFFFFFFFFF AND MUL OR SWAP1 SSTORE POP PUSH0 DUP1 SLOAD SWAP1 PUSH2 0x100 EXP SWAP1 DIV PUSH20 0xFFFFFFFFFFFFFFFFFFFFFFFFFFFFFFFFFFFFFFFF AND PUSH1 0x1 DUP3 PUSH1 0x40 MLOAD PUSH2 0x3D3 SWAP2 SWAP1 PUSH2 0x78D JUMP JUMPDEST SWAP1 DUP2 MSTORE PUSH1 0x20 ADD PUSH1 0x40 MLOAD DUP1 SWAP2 SUB SWAP1 KECCAK256 PUSH0 PUSH2 0x100 EXP DUP2 SLOAD DUP2 PUSH20 0xFFFFFFFFFFFFFFFFFFFFFFFFFFFFFFFFFFFFFFFF MUL NOT AND SWAP1 DUP4 PUSH20 0xFFFFFFFFFFFFFFFFFFFFFFFFFFFFFFFFFFFFFFFF AND MUL OR SWAP1 SSTORE POP POP JUMP JUMPDEST PUSH1 0x1 DUP2 PUSH1 0x40 MLOAD PUSH2 0x431 SWAP2 SWAP1 PUSH2 0x78D JUMP JUMPDEST SWAP1 DUP2 MSTORE PUSH1 0x20 ADD PUSH1 0x40 MLOAD DUP1 SWAP2 SUB SWAP1 KECCAK256 PUSH0 SWAP1 SLOAD SWAP1 PUSH2 0x100 EXP SWAP1 DIV PUSH20 0xFFFFFFFFFFFFFFFFFFFFFFFFFFFFFFFFFFFFFFFF AND PUSH20 0xFFFFFFFFFFFFFFFFFFFFFFFFFFFFFFFFFFFFFFFF AND PUSH4 0x3CCFD60B PUSH1 0x40 MLOAD DUP2 PUSH4 0xFFFFFFFF AND PUSH1 0xE0 SHL DUP2 MSTORE PUSH1 0x4 ADD PUSH0 PUSH1 0x40 MLOAD DUP1 DUP4 SUB DUP2 PUSH0 DUP8 DUP1 EXTCODESIZE ISZERO DUP1 ISZERO PUSH2 0x4A3 JUMPI PUSH0 DUP1 REVERT JUMPDEST POP GAS CALL ISZERO DUP1 ISZERO PUSH2 0x4B5 JUMPI RETURNDATASIZE PUSH0 DUP1 RETURNDATACOPY RETURNDATASIZE PUSH0 REVERT JUMPDEST POP POP POP POP POP JUMP JUMPDEST PUSH2 0x50C DUP1 PUSH2 0x7F9 DUP4 CODECOPY ADD SWAP1 JUMP JUMPDEST PUSH0 PUSH1 0x40 MLOAD SWAP1 POP SWAP1 JUMP JUMPDEST PUSH0 DUP1 REVERT JUMPDEST PUSH0 DUP1 REVERT JUMPDEST PUSH0 DUP1 REVERT JUMPDEST PUSH0 DUP1 REVERT JUMPDEST PUSH0 PUSH1 0x1F NOT PUSH1 0x1F DUP4 ADD AND SWAP1 POP SWAP2 SWAP1 POP JUMP JUMPDEST PUSH32 0x4E487B7100000000000000000000000000000000000000000000000000000000 PUSH0 MSTORE PUSH1 0x41 PUSH1 0x4 MSTORE PUSH1 0x24 PUSH0 REVERT JUMPDEST PUSH2 0x528 DUP3 PUSH2 0x4E2 JUMP JUMPDEST DUP2 ADD DUP2 DUP2 LT PUSH8 0xFFFFFFFFFFFFFFFF DUP3 GT OR ISZERO PUSH2 0x547 JUMPI PUSH2 0x546 PUSH2 0x4F2 JUMP JUMPDEST JUMPDEST DUP1 PUSH1 0x40 MSTORE POP POP POP JUMP JUMPDEST PUSH0 PUSH2 0x559 PUSH2 0x4C9 JUMP JUMPDEST SWAP1 POP PUSH2 0x565 DUP3 DUP3 PUSH2 0x51F JUMP JUMPDEST SWAP2 SWAP1 POP JUMP JUMPDEST PUSH0 PUSH8 0xFFFFFFFFFFFFFFFF DUP3 GT ISZERO PUSH2 0x584 JUMPI PUSH2 0x583 PUSH2 0x4F2 JUMP JUMPDEST JUMPDEST PUSH2 0x58D DUP3 PUSH2 0x4E2 JUMP JUMPDEST SWAP1 POP PUSH1 0x20 DUP2 ADD SWAP1 POP SWAP2 SWAP1 POP JUMP JUMPDEST DUP3 DUP2 DUP4 CALLDATACOPY PUSH0 DUP4 DUP4 ADD MSTORE POP POP POP JUMP JUMPDEST PUSH0 PUSH2 0x5BA PUSH2 0x5B5 DUP5 PUSH2 0x56A JUMP JUMPDEST PUSH2 0x550 JUMP JUMPDEST SWAP1 POP DUP3 DUP2 MSTORE PUSH1 0x20 DUP2 ADD DUP5 DUP5 DUP5 ADD GT ISZERO PUSH2 0x5D6 JUMPI PUSH2 0x5D5 PUSH2 0x4DE JUMP JUMPDEST JUMPDEST PUSH2 0x5E1 DUP5 DUP3 DUP6 PUSH2 0x59A JUMP JUMPDEST POP SWAP4 SWAP3 POP POP POP JUMP JUMPDEST PUSH0 DUP3 PUSH1 0x1F DUP4 ADD SLT PUSH2 0x5FD JUMPI PUSH2 0x5FC PUSH2 0x4DA JUMP JUMPDEST JUMPDEST DUP2 CALLDATALOAD PUSH2 0x60D DUP5 DUP3 PUSH1 0x20 DUP7 ADD PUSH2 0x5A8 JUMP JUMPDEST SWAP2 POP POP SWAP3 SWAP2 POP POP JUMP JUMPDEST PUSH0 PUSH1 0x20 DUP3 DUP5 SUB SLT ISZERO PUSH2 0x62B JUMPI PUSH2 0x62A PUSH2 0x4D2 JUMP JUMPDEST JUMPDEST PUSH0 DUP3 ADD CALLDATALOAD PUSH8 0xFFFFFFFFFFFFFFFF DUP2 GT ISZERO PUSH2 0x648 JUMPI PUSH2 0x647 PUSH2 0x4D6 JUMP JUMPDEST JUMPDEST PUSH2 0x654 DUP5 DUP3 DUP6 ADD PUSH2 0x5E9 JUMP JUMPDEST SWAP2 POP POP SWAP3 SWAP2 POP POP JUMP JUMPDEST PUSH0 PUSH20 0xFFFFFFFFFFFFFFFFFFFFFFFFFFFFFFFFFFFFFFFF DUP3 AND SWAP1 POP SWAP2 SWAP1 POP JUMP JUMPDEST PUSH0 DUP2 SWAP1 POP SWAP2 SWAP1 POP JUMP JUMPDEST PUSH0 PUSH2 0x69F PUSH2 0x69A PUSH2 0x695 DUP5 PUSH2 0x65D JUMP JUMPDEST PUSH2 0x67C JUMP JUMPDEST PUSH2 0x65D JUMP JUMPDEST SWAP1 POP SWAP2 SWAP1 POP JUMP JUMPDEST PUSH0 PUSH2 0x6B0 DUP3 PUSH2 0x685 JUMP JUMPDEST SWAP1 POP SWAP2 SWAP1 POP JUMP JUMPDEST PUSH0 PUSH2 0x6C1 DUP3 PUSH2 0x6A6 JUMP JUMPDEST SWAP1 POP SWAP2 SWAP1 POP JUMP JUMPDEST PUSH2 0x6D1 DUP2 PUSH2 0x6B7 JUMP JUMPDEST DUP3 MSTORE POP POP JUMP JUMPDEST PUSH0 PUSH1 0x20 DUP3 ADD SWAP1 POP PUSH2 0x6EA PUSH0 DUP4 ADD DUP5 PUSH2 0x6C8 JUMP JUMPDEST SWAP3 SWAP2 POP POP JUMP JUMPDEST PUSH0 DUP2 SWAP1 POP SWAP2 SWAP1 POP JUMP JUMPDEST PUSH2 0x702 DUP2 PUSH2 0x6F0 JUMP JUMPDEST DUP3 MSTORE POP POP JUMP JUMPDEST PUSH0 PUSH1 0x20 DUP3 ADD SWAP1 POP PUSH2 0x71B PUSH0 DUP4 ADD DUP5 PUSH2 0x6F9 JUMP JUMPDEST SWAP3 SWAP2 POP POP JUMP JUMPDEST PUSH0 DUP2 MLOAD SWAP1 POP SWAP2 SWAP1 POP JUMP JUMPDEST PUSH0 DUP2 SWAP1 POP SWAP3 SWAP2 POP POP JUMP JUMPDEST PUSH0 JUMPDEST DUP4 DUP2 LT ISZERO PUSH2 0x752 JUMPI DUP1 DUP3 ADD MLOAD DUP2 DUP5 ADD MSTORE PUSH1 0x20 DUP2 ADD SWAP1 POP PUSH2 0x737 JUMP JUMPDEST PUSH0 DUP5 DUP5 ADD MSTORE POP POP POP POP JUMP JUMPDEST PUSH0 PUSH2 0x767 DUP3 PUSH2 0x721 JUMP JUMPDEST PUSH2 0x771 DUP2 DUP6 PUSH2 0x72B JUMP JUMPDEST SWAP4 POP PUSH2 0x781 DUP2 DUP6 PUSH1 0x20 DUP7 ADD PUSH2 0x735 JUMP JUMPDEST DUP1 DUP5 ADD SWAP2 POP POP SWAP3 SWAP2 POP POP JUMP JUMPDEST PUSH0 PUSH2 0x798 DUP3 DUP5 PUSH2 0x75D JUMP JUMPDEST SWAP2 POP DUP2 SWAP1 POP SWAP3 SWAP2 POP POP JUMP JUMPDEST PUSH2 0x7AC DUP2 PUSH2 0x6F0 JUMP JUMPDEST DUP2 EQ PUSH2 0x7B6 JUMPI PUSH0 DUP1 REVERT JUMPDEST POP JUMP JUMPDEST PUSH0 DUP2 MLOAD SWAP1 POP PUSH2 0x7C7 DUP2 PUSH2 0x7A3 JUMP JUMPDEST SWAP3 SWAP2 POP POP JUMP JUMPDEST PUSH0 PUSH1 0x20 DUP3 DUP5 SUB SLT ISZERO PUSH2 0x7E2 JUMPI PUSH2 0x7E1 PUSH2 0x4D2 JUMP JUMPDEST JUMPDEST PUSH0 PUSH2 0x7EF DUP5 DUP3 DUP6 ADD PUSH2 0x7B9 JUMP JUMPDEST SWAP2 POP POP SWAP3 SWAP2 POP POP JUMP INVALID PUSH1 0x80 PUSH1 0x40 MSTORE CALLVALUE DUP1 ISZERO PUSH2 0xF JUMPI PUSH0 DUP1 REVERT JUMPDEST POP CALLER PUSH0 DUP1 PUSH2 0x100 EXP DUP2 SLOAD DUP2 PUSH20 0xFFFFFFFFFFFFFFFFFFFFFFFFFFFFFFFFFFFFFFFF MUL NOT AND SWAP1 DUP4 PUSH20 0xFFFFFFFFFFFFFFFFFFFFFFFFFFFFFFFFFFFFFFFF AND MUL OR SWAP1 SSTORE POP PUSH2 0x4B0 DUP1 PUSH2 0x5C PUSH0 CODECOPY PUSH0 RETURN INVALID PUSH1 0x80 PUSH1 0x40 MSTORE PUSH1 0x4 CALLDATASIZE LT PUSH2 0x3E JUMPI PUSH0 CALLDATALOAD PUSH1 0xE0 SHR DUP1 PUSH4 0x12065FE0 EQ PUSH2 0x42 JUMPI DUP1 PUSH4 0x2755CD2D EQ PUSH2 0x6C JUMPI DUP1 PUSH4 0x3CCFD60B EQ PUSH2 0x76 JUMPI DUP1 PUSH4 0x8DA5CB5B EQ PUSH2 0x8C JUMPI JUMPDEST PUSH0 DUP1 REVERT JUMPDEST CALLVALUE DUP1 ISZERO PUSH2 0x4D JUMPI PUSH0 DUP1 REVERT JUMPDEST POP PUSH2 0x56 PUSH2 0xB6 JUMP JUMPDEST PUSH1 0x40 MLOAD PUSH2 0x63 SWAP2 SWAP1 PUSH2 0x303 JUMP JUMPDEST PUSH1 0x40 MLOAD DUP1 SWAP2 SUB SWAP1 RETURN JUMPDEST PUSH2 0x74 PUSH2 0x14B JUMP JUMPDEST STOP JUMPDEST CALLVALUE DUP1 ISZERO PUSH2 0x81 JUMPI PUSH0 DUP1 REVERT JUMPDEST POP PUSH2 0x8A PUSH2 0x18F JUMP JUMPDEST STOP JUMPDEST CALLVALUE DUP1 ISZERO PUSH2 0x97 JUMPI PUSH0 DUP1 REVERT JUMPDEST POP PUSH2 0xA0 PUSH2 0x2C8 JUMP JUMPDEST PUSH1 0x40 MLOAD PUSH2 0xAD SWAP2 SWAP1 PUSH2 0x35B JUMP JUMPDEST PUSH1 0x40 MLOAD DUP1 SWAP2 SUB SWAP1 RETURN JUMPDEST PUSH0 DUP1 PUSH0 SWAP1 SLOAD SWAP1 PUSH2 0x100 EXP SWAP1 DIV PUSH20 0xFFFFFFFFFFFFFFFFFFFFFFFFFFFFFFFFFFFFFFFF AND PUSH20 0xFFFFFFFFFFFFFFFFFFFFFFFFFFFFFFFFFFFFFFFF AND CALLER PUSH20 0xFFFFFFFFFFFFFFFFFFFFFFFFFFFFFFFFFFFFFFFF AND EQ PUSH2 0x145 JUMPI PUSH1 0x40 MLOAD PUSH32 0x8C379A000000000000000000000000000000000000000000000000000000000 DUP2 MSTORE PUSH1 0x4 ADD PUSH2 0x13C SWAP1 PUSH2 0x3CE JUMP JUMPDEST PUSH1 0x40 MLOAD DUP1 SWAP2 SUB SWAP1 REVERT JUMPDEST SELFBALANCE SWAP1 POP SWAP1 JUMP JUMPDEST PUSH0 CALLVALUE GT PUSH2 0x18D JUMPI PUSH1 0x40 MLOAD PUSH32 0x8C379A000000000000000000000000000000000000000000000000000000000 DUP2 MSTORE PUSH1 0x4 ADD PUSH2 0x184 SWAP1 PUSH2 0x45C JUMP JUMPDEST PUSH1 0x40 MLOAD DUP1 SWAP2 SUB SWAP1 REVERT JUMPDEST JUMP JUMPDEST PUSH0 DUP1 SLOAD SWAP1 PUSH2 0x100 EXP SWAP1 DIV PUSH20 0xFFFFFFFFFFFFFFFFFFFFFFFFFFFFFFFFFFFFFFFF AND PUSH20 0xFFFFFFFFFFFFFFFFFFFFFFFFFFFFFFFFFFFFFFFF AND CALLER PUSH20 0xFFFFFFFFFFFFFFFFFFFFFFFFFFFFFFFFFFFFFFFF AND EQ PUSH2 0x21C JUMPI PUSH1 0x40 MLOAD PUSH32 0x8C379A000000000000000000000000000000000000000000000000000000000 DUP2 MSTORE PUSH1 0x4 ADD PUSH2 0x213 SWAP1 PUSH2 0x3CE JUMP JUMPDEST PUSH1 0x40 MLOAD DUP1 SWAP2 SUB SWAP1 REVERT JUMPDEST PUSH0 SELFBALANCE SWAP1 POP PUSH0 DUP2 GT PUSH2 0x262 JUMPI PUSH1 0x40 MLOAD PUSH32 0x8C379A000000000000000000000000000000000000000000000000000000000 DUP2 MSTORE PUSH1 0x4 ADD PUSH2 0x259 SWAP1 PUSH2 0x3CE JUMP JUMPDEST PUSH1 0x40 MLOAD DUP1 SWAP2 SUB SWAP1 REVERT JUMPDEST PUSH0 DUP1 SLOAD SWAP1 PUSH2 0x100 EXP SWAP1 DIV PUSH20 0xFFFFFFFFFFFFFFFFFFFFFFFFFFFFFFFFFFFFFFFF AND PUSH20 0xFFFFFFFFFFFFFFFFFFFFFFFFFFFFFFFFFFFFFFFF AND PUSH2 0x8FC DUP3 SWAP1 DUP2 ISZERO MUL SWAP1 PUSH1 0x40 MLOAD PUSH0 PUSH1 0x40 MLOAD DUP1 DUP4 SUB DUP2 DUP6 DUP9 DUP9 CALL SWAP4 POP POP POP POP ISZERO DUP1 ISZERO PUSH2 0x2C4 JUMPI RETURNDATASIZE PUSH0 DUP1 RETURNDATACOPY RETURNDATASIZE PUSH0 REVERT JUMPDEST POP POP JUMP JUMPDEST PUSH0 DUP1 SLOAD SWAP1 PUSH2 0x100 EXP SWAP1 DIV PUSH20 0xFFFFFFFFFFFFFFFFFFFFFFFFFFFFFFFFFFFFFFFF AND DUP2 JUMP JUMPDEST PUSH0 DUP2 SWAP1 POP SWAP2 SWAP1 POP JUMP JUMPDEST PUSH2 0x2FD DUP2 PUSH2 0x2EB JUMP JUMPDEST DUP3 MSTORE POP POP JUMP JUMPDEST PUSH0 PUSH1 0x20 DUP3 ADD SWAP1 POP PUSH2 0x316 PUSH0 DUP4 ADD DUP5 PUSH2 0x2F4 JUMP JUMPDEST SWAP3 SWAP2 POP POP JUMP JUMPDEST PUSH0 PUSH20 0xFFFFFFFFFFFFFFFFFFFFFFFFFFFFFFFFFFFFFFFF DUP3 AND SWAP1 POP SWAP2 SWAP1 POP JUMP JUMPDEST PUSH0 PUSH2 0x345 DUP3 PUSH2 0x31C JUMP JUMPDEST SWAP1 POP SWAP2 SWAP1 POP JUMP JUMPDEST PUSH2 0x355 DUP2 PUSH2 0x33B JUMP JUMPDEST DUP3 MSTORE POP POP JUMP JUMPDEST PUSH0 PUSH1 0x20 DUP3 ADD SWAP1 POP PUSH2 0x36E PUSH0 DUP4 ADD DUP5 PUSH2 0x34C JUMP JUMPDEST SWAP3 SWAP2 POP POP JUMP JUMPDEST PUSH0 DUP3 DUP3 MSTORE PUSH1 0x20 DUP3 ADD SWAP1 POP SWAP3 SWAP2 POP POP JUMP JUMPDEST PUSH32 0x546865726520617265206E6F207469707320746F2077697468647261772E0000 PUSH0 DUP3 ADD MSTORE POP JUMP JUMPDEST PUSH0 PUSH2 0x3B8 PUSH1 0x1E DUP4 PUSH2 0x374 JUMP JUMPDEST SWAP2 POP PUSH2 0x3C3 DUP3 PUSH2 0x384 JUMP JUMPDEST PUSH1 0x20 DUP3 ADD SWAP1 POP SWAP2 SWAP1 POP JUMP JUMPDEST PUSH0 PUSH1 0x20 DUP3 ADD SWAP1 POP DUP2 DUP2 SUB PUSH0 DUP4 ADD MSTORE PUSH2 0x3E5 DUP2 PUSH2 0x3AC JUMP JUMPDEST SWAP1 POP SWAP2 SWAP1 POP JUMP JUMPDEST PUSH32 0x596F752073686F756C642073656E6420612074697020746F2075736520746869 PUSH0 DUP3 ADD MSTORE PUSH32 0x732066756E6374696F6E2E000000000000000000000000000000000000000000 PUSH1 0x20 DUP3 ADD MSTORE POP JUMP JUMPDEST PUSH0 PUSH2 0x446 PUSH1 0x2B DUP4 PUSH2 0x374 JUMP JUMPDEST SWAP2 POP PUSH2 0x451 DUP3 PUSH2 0x3EC JUMP JUMPDEST PUSH1 0x40 DUP3 ADD SWAP1 POP SWAP2 SWAP1 POP JUMP JUMPDEST PUSH0 PUSH1 0x20 DUP3 ADD SWAP1 POP DUP2 DUP2 SUB PUSH0 DUP4 ADD MSTORE PUSH2 0x473 DUP2 PUSH2 0x43A JUMP JUMPDEST SWAP1 POP SWAP2 SWAP1 POP JUMP INVALID LOG2 PUSH5 0x6970667358 0x22 SLT KECCAK256 0x4F 0x22 LOG4 0xE9 0xFC SAR 0x2F SWAP15 TIMESTAMP 0xA6 0x25 PUSH14 0x33383CAD59D7229D64F69DD66C9B LOG0 SDIV 0xB0 PUSH15 0x1FA164736F6C63430008180033A264 PUSH10 0x70667358221220A710D1 0xD8 0x28 LOG1 PUSH18 0x12CE4C7AEE2424B1E03B982CFDF96609540A 0xAC PUSH13 0x3C61854A2564736F6C63430008 XOR STOP CALLER "
				},
				"gasEstimates": {
					"creation": {
						"codeDepositCost": "677200",
						"executionCost": "706",
						"totalCost": "677906"
					},
					"external": {
						"callGetBalance(string)": "infinite",
						"callTipJarTip(string)": "infinite",
						"callTipJarWithdraw(string)": "infinite",
						"createContranct(string)": "infinite",
						"deleteContranct(string)": "infinite",
						"getTipJar(string)": "infinite"
					}
				},
				"methodIdentifiers": {
					"callGetBalance(string)": "66c69318",
					"callTipJarTip(string)": "2af1c341",
					"callTipJarWithdraw(string)": "b3f0a4fe",
					"createContranct(string)": "a67a28e3",
					"deleteContranct(string)": "7ea99a94",
					"getTipJar(string)": "658c76dc"
				}
			},
			"storageLayout": {
				"storage": [
					{
						"astId": 6,
						"contract": "contract/TestFactory.sol:TestFactory",
						"label": "tj",
						"offset": 0,
						"slot": "0",
						"type": "t_contract(TipJar)179"
					},
					{
						"astId": 11,
						"contract": "contract/TestFactory.sol:TestFactory",
						"label": "tjs",
						"offset": 0,
						"slot": "1",
						"type": "t_mapping(t_string_memory_ptr,t_contract(TipJar)179)"
					}
				],
				"types": {
					"t_contract(TipJar)179": {
						"encoding": "inplace",
						"label": "contract TipJar",
						"numberOfBytes": "20"
					},
					"t_mapping(t_string_memory_ptr,t_contract(TipJar)179)": {
						"encoding": "mapping",
						"key": "t_string_memory_ptr",
						"label": "mapping(string => contract TipJar)",
						"numberOfBytes": "32",
						"value": "t_contract(TipJar)179"
					},
					"t_string_memory_ptr": {
						"encoding": "bytes",
						"label": "string",
						"numberOfBytes": "32"
					}
				}
			},
			"userdoc": {
				"kind": "user",
				"methods": {},
				"version": 1
			}
		}
	}
}